{
  "contractName": "PartyFunds",
  "abi": [
    {
      "constant": true,
      "inputs": [],
      "name": "getTotalFund",
      "outputs": [
        {
          "name": "",
          "type": "int256"
        }
      ],
      "payable": false,
      "stateMutability": "view",
      "type": "function"
    },
    {
      "constant": true,
      "inputs": [],
      "name": "getFundHost",
      "outputs": [
        {
          "components": [
            {
              "name": "id",
              "type": "address"
            },
            {
              "name": "name",
              "type": "string"
            },
            {
              "name": "money",
              "type": "int256"
            },
            {
              "name": "index",
              "type": "uint256"
            },
            {
              "name": "isValue",
              "type": "bool"
            }
          ],
          "name": "",
          "type": "tuple"
        }
      ],
      "payable": false,
      "stateMutability": "view",
      "type": "function"
    },
    {
      "constant": true,
      "inputs": [
        {
          "name": "_page",
          "type": "uint256"
        },
        {
          "name": "_perPage",
          "type": "uint256"
        }
      ],
      "name": "getMemberList",
      "outputs": [
        {
          "components": [
            {
              "name": "id",
              "type": "address"
            },
            {
              "name": "name",
              "type": "string"
            },
            {
              "name": "money",
              "type": "int256"
            },
            {
              "name": "index",
              "type": "uint256"
            },
            {
              "name": "isValue",
              "type": "bool"
            }
          ],
          "name": "",
          "type": "tuple[]"
        }
      ],
      "payable": false,
      "stateMutability": "view",
      "type": "function"
    },
    {
      "constant": true,
      "inputs": [
        {
          "name": "_addr",
          "type": "address"
        }
      ],
      "name": "getMember",
      "outputs": [
        {
          "components": [
            {
              "name": "id",
              "type": "address"
            },
            {
              "name": "name",
              "type": "string"
            },
            {
              "name": "money",
              "type": "int256"
            },
            {
              "name": "index",
              "type": "uint256"
            },
            {
              "name": "isValue",
              "type": "bool"
            }
          ],
          "name": "",
          "type": "tuple"
        }
      ],
      "payable": false,
      "stateMutability": "view",
      "type": "function"
    },
    {
      "constant": true,
      "inputs": [
        {
          "name": "_page",
          "type": "uint256"
        },
        {
          "name": "_perPage",
          "type": "uint256"
        }
      ],
      "name": "getPartyList",
      "outputs": [
        {
          "components": [
            {
              "name": "creator",
              "type": "address"
            },
            {
              "name": "payerAddress",
              "type": "address[]"
            },
            {
              "name": "payerMoney",
              "type": "int256[]"
            },
            {
              "name": "members",
              "type": "address[]"
            },
            {
              "name": "money",
              "type": "uint256"
            },
            {
              "name": "message",
              "type": "string"
            },
            {
              "name": "createdDate",
              "type": "string"
            },
            {
              "name": "paySuccess",
              "type": "bool"
            },
            {
              "name": "reject",
              "type": "bool"
            },
            {
              "name": "requestReject",
              "type": "bool"
            },
            {
              "name": "isValue",
              "type": "bool"
            }
          ],
          "name": "",
          "type": "tuple[]"
        }
      ],
      "payable": false,
      "stateMutability": "view",
      "type": "function"
    },
    {
      "constant": true,
      "inputs": [
        {
          "name": "_id",
          "type": "uint256"
        }
      ],
      "name": "getParty",
      "outputs": [
        {
          "components": [
            {
              "name": "creator",
              "type": "address"
            },
            {
              "name": "payerAddress",
              "type": "address[]"
            },
            {
              "name": "payerMoney",
              "type": "int256[]"
            },
            {
              "name": "members",
              "type": "address[]"
            },
            {
              "name": "money",
              "type": "uint256"
            },
            {
              "name": "message",
              "type": "string"
            },
            {
              "name": "createdDate",
              "type": "string"
            },
            {
              "name": "paySuccess",
              "type": "bool"
            },
            {
              "name": "reject",
              "type": "bool"
            },
            {
              "name": "requestReject",
              "type": "bool"
            },
            {
              "name": "isValue",
              "type": "bool"
            }
          ],
          "name": "",
          "type": "tuple"
        }
      ],
      "payable": false,
      "stateMutability": "view",
      "type": "function"
    },
    {
      "constant": true,
      "inputs": [
        {
          "name": "_page",
          "type": "uint256"
        },
        {
          "name": "_perPage",
          "type": "uint256"
        }
      ],
      "name": "getTransferHistoriyList",
      "outputs": [
        {
          "components": [
            {
              "name": "sender",
              "type": "address"
            },
            {
              "name": "receiver",
              "type": "address"
            },
            {
              "name": "money",
              "type": "int256"
            },
            {
              "name": "isDeposit",
              "type": "bool"
            },
            {
              "name": "accept",
              "type": "bool"
            }
          ],
          "name": "",
          "type": "tuple[]"
        }
      ],
      "payable": false,
      "stateMutability": "view",
      "type": "function"
    },
    {
      "constant": false,
      "inputs": [
        {
          "name": "_name",
          "type": "string"
        }
      ],
      "name": "addMember",
      "outputs": [],
      "payable": false,
      "stateMutability": "nonpayable",
      "type": "function"
    },
    {
      "constant": false,
      "inputs": [
        {
          "name": "_payerAddress",
          "type": "address[]"
        },
        {
          "name": "_payerMoney",
          "type": "int256[]"
        },
        {
          "name": "_members",
          "type": "address[]"
        },
        {
          "name": "_money",
          "type": "uint256"
        },
        {
          "name": "_message",
          "type": "string"
        },
        {
          "name": "_createdDate",
          "type": "string"
        }
      ],
      "name": "addParty",
      "outputs": [],
      "payable": false,
      "stateMutability": "nonpayable",
      "type": "function"
    },
    {
      "constant": false,
      "inputs": [
        {
          "name": "_receiver",
          "type": "address"
        },
        {
          "name": "_money",
          "type": "int256"
        }
      ],
      "name": "transferMoney",
      "outputs": [],
      "payable": false,
      "stateMutability": "nonpayable",
      "type": "function"
    },
    {
      "constant": false,
      "inputs": [
        {
          "name": "_id",
          "type": "uint256"
        }
      ],
      "name": "requestRejectParty",
      "outputs": [],
      "payable": false,
      "stateMutability": "nonpayable",
      "type": "function"
    },
    {
      "constant": false,
      "inputs": [
        {
          "name": "_id",
          "type": "uint256"
        }
      ],
      "name": "rejectParty",
      "outputs": [],
      "payable": false,
      "stateMutability": "nonpayable",
      "type": "function"
    },
    {
      "constant": false,
      "inputs": [
        {
          "name": "_id",
          "type": "uint256"
        }
      ],
      "name": "acceptParty",
      "outputs": [],
      "payable": false,
      "stateMutability": "nonpayable",
      "type": "function"
    }
  ],
  "bytecode": "0x6080604052600060015560006002556000600355600060045534801561002457600080fd5b50614849806100346000396000f3fe608060405234801561001057600080fd5b50600436106100cf5760003560e01c8063918f96871161008c578063ca0aac3811610066578063ca0aac3814610210578063f6aaab6b1461022c578063fed8f8f614610248578063feec67d314610278576100cf565b8063918f9687146101a657806394758218146101c25780639fd813e3146101f2576100cf565b806318895842146100d45780632379d47f146100f25780632ada25961461010e5780633422ac1b1461013e5780635cedfdd01461016e578063880897dd1461018a575b600080fd5b6100dc6102a8565b6040516100e991906144fd565b60405180910390f35b61010c60048036036101079190810190613c35565b6103e9565b005b61012860048036036101239190810190613a8e565b61043f565b60405161013591906144fd565b60405180910390f35b61015860048036036101539190810190613c5e565b6105bf565b604051610165919061441e565b60405180910390f35b61018860048036036101839190810190613af3565b610a1a565b005b6101a4600480360361019f9190810190613c35565b610ea5565b005b6101c060048036036101bb9190810190613bf4565b610eb5565b005b6101dc60048036036101d79190810190613c35565b611154565b6040516101e9919061451f565b60405180910390f35b6101fa611506565b6040516102079190614462565b60405180910390f35b61022a60048036036102259190810190613ab7565b611510565b005b61024660048036036102419190810190613c35565b61153a565b005b610262600480360361025d9190810190613c5e565b61161f565b60405161026f91906143fc565b60405180910390f35b610292600480360361028d9190810190613c5e565b611824565b60405161029f9190614440565b60405180910390f35b6102b06134ad565b60086040518060a00160405290816000820160009054906101000a900473ffffffffffffffffffffffffffffffffffffffff1673ffffffffffffffffffffffffffffffffffffffff1673ffffffffffffffffffffffffffffffffffffffff168152602001600182018054600181600116156101000203166002900480601f0160208091040260200160405190810160405280929190818152602001828054600181600116156101000203166002900480156103ac5780601f10610381576101008083540402835291602001916103ac565b820191906000526020600020905b81548152906001019060200180831161038f57829003601f168201915b5050505050815260200160028201548152602001600382015481526020016004820160009054906101000a900460ff161515151581525050905090565b6103f16134f4565b6103fa82611154565b905060018161012001901515908115158152505061043b8282602001518360400151846060015185608001518660a001518760c001518861012001516119e6565b5050565b6104476134ad565b600560008373ffffffffffffffffffffffffffffffffffffffff1673ffffffffffffffffffffffffffffffffffffffff1681526020019081526020016000206040518060a00160405290816000820160009054906101000a900473ffffffffffffffffffffffffffffffffffffffff1673ffffffffffffffffffffffffffffffffffffffff1673ffffffffffffffffffffffffffffffffffffffff168152602001600182018054600181600116156101000203166002900480601f0160208091040260200160405190810160405280929190818152602001828054600181600116156101000203166002900480156105805780601f1061055557610100808354040283529160200191610580565b820191906000526020600020905b81548152906001019060200180831161056357829003601f168201915b5050505050815260200160028201548152602001600382015481526020016004820160009054906101000a900460ff1615151515815250509050919050565b6060600082600185030290506000838502905060008090506003548211156105f2578260035403905082810191506105f6565b8490505b60608160405190808252806020026020018201604052801561063257816020015b61061f61356c565b8152602001906001900390816106175790505b50905060008490505b83811015610a0c5760066000828152602001908152602001600020604051806101600160405290816000820160009054906101000a900473ffffffffffffffffffffffffffffffffffffffff1673ffffffffffffffffffffffffffffffffffffffff1673ffffffffffffffffffffffffffffffffffffffff1681526020016001820180548060200260200160405190810160405280929190818152602001828054801561073d57602002820191906000526020600020905b8160009054906101000a900473ffffffffffffffffffffffffffffffffffffffff1673ffffffffffffffffffffffffffffffffffffffff16815260200190600101908083116106f3575b505050505081526020016002820180548060200260200160405190810160405280929190818152602001828054801561079557602002820191906000526020600020905b815481526020019060010190808311610781575b505050505081526020016003820180548060200260200160405190810160405280929190818152602001828054801561082357602002820191906000526020600020905b8160009054906101000a900473ffffffffffffffffffffffffffffffffffffffff1673ffffffffffffffffffffffffffffffffffffffff16815260200190600101908083116107d9575b5050505050815260200160048201548152602001600582018054600181600116156101000203166002900480601f0160208091040260200160405190810160405280929190818152602001828054600181600116156101000203166002900480156108cf5780601f106108a4576101008083540402835291602001916108cf565b820191906000526020600020905b8154815290600101906020018083116108b257829003601f168201915b50505050508152602001600682018054600181600116156101000203166002900480601f0160208091040260200160405190810160405280929190818152602001828054600181600116156101000203166002900480156109715780601f1061094657610100808354040283529160200191610971565b820191906000526020600020905b81548152906001019060200180831161095457829003601f168201915b505050505081526020016007820160009054906101000a900460ff161515151581526020016007820160019054906101000a900460ff161515151581526020016007820160029054906101000a900460ff161515151581526020016007820160039054906101000a900460ff16151515158152505082868303815181106109f457fe5b6020026020010181905250808060010191505061063b565b508094505050505092915050565b85856000600190508151835114610a3057600090505b60008090505b8351811015610aba57818015610aab575060056000858381518110610a5757fe5b602002602001015173ffffffffffffffffffffffffffffffffffffffff1673ffffffffffffffffffffffffffffffffffffffff16815260200190815260200160002060040160009054906101000a900460ff165b91508080600101915050610a36565b5080610afb576040517f08c379a0000000000000000000000000000000000000000000000000000000008152600401610af29061447d565b60405180910390fd5b610b036134f4565b6040518061016001604052803373ffffffffffffffffffffffffffffffffffffffff1681526020018b81526020018a8152602001898152602001888152602001878152602001868152602001600015158152602001600015158152602001600015158152602001600115158152509050600e819080600181540180825580915050906001820390600052602060002090600802016000909192909190915060008201518160000160006101000a81548173ffffffffffffffffffffffffffffffffffffffff021916908373ffffffffffffffffffffffffffffffffffffffff1602179055506020820151816001019080519060200190610c049291906135e4565b506040820151816002019080519060200190610c2192919061366e565b506060820151816003019080519060200190610c3e9291906135e4565b506080820151816004015560a0820151816005019080519060200190610c659291906136bb565b5060c0820151816006019080519060200190610c829291906136bb565b5060e08201518160070160006101000a81548160ff0219169083151502179055506101008201518160070160016101000a81548160ff0219169083151502179055506101208201518160070160026101000a81548160ff0219169083151502179055506101408201518160070160036101000a81548160ff0219169083151502179055505050508060066000600354815260200190815260200160002060008201518160000160006101000a81548173ffffffffffffffffffffffffffffffffffffffff021916908373ffffffffffffffffffffffffffffffffffffffff1602179055506020820151816001019080519060200190610d829291906135e4565b506040820151816002019080519060200190610d9f92919061366e565b506060820151816003019080519060200190610dbc9291906135e4565b506080820151816004015560a0820151816005019080519060200190610de39291906136bb565b5060c0820151816006019080519060200190610e009291906136bb565b5060e08201518160070160006101000a81548160ff0219169083151502179055506101008201518160070160016101000a81548160ff0219169083151502179055506101208201518160070160026101000a81548160ff0219169083151502179055506101408201518160070160036101000a81548160ff02191690831515021790555090505060036000815480929190600101919050555050505050505050505050565b610eb28160006001612546565b50565b336000600560008373ffffffffffffffffffffffffffffffffffffffff1673ffffffffffffffffffffffffffffffffffffffff16815260200190815260200160002060040160009054906101000a900460ff1690508015610f4b576040517f08c379a0000000000000000000000000000000000000000000000000000000008152600401610f42906144bd565b60405180910390fd5b610f536134ad565b6040518060a001604052803373ffffffffffffffffffffffffffffffffffffffff168152602001858152602001600081526020016002548152602001600115158152509050600d819080600181540180825580915050906001820390600052602060002090600502016000909192909190915060008201518160000160006101000a81548173ffffffffffffffffffffffffffffffffffffffff021916908373ffffffffffffffffffffffffffffffffffffffff16021790555060208201518160010190805190602001906110299291906136bb565b50604082015181600201556060820151816003015560808201518160040160006101000a81548160ff02191690831515021790555050505080600560003373ffffffffffffffffffffffffffffffffffffffff1673ffffffffffffffffffffffffffffffffffffffff16815260200190815260200160002060008201518160000160006101000a81548173ffffffffffffffffffffffffffffffffffffffff021916908373ffffffffffffffffffffffffffffffffffffffff16021790555060208201518160010190805190602001906111049291906136bb565b50604082015181600201556060820151816003015560808201518160040160006101000a81548160ff02191690831515021790555090505060026000815480929190600101919050555050505050565b61115c6134f4565b60066000838152602001908152602001600020604051806101600160405290816000820160009054906101000a900473ffffffffffffffffffffffffffffffffffffffff1673ffffffffffffffffffffffffffffffffffffffff1673ffffffffffffffffffffffffffffffffffffffff1681526020016001820180548060200260200160405190810160405280929190818152602001828054801561125657602002820191906000526020600020905b8160009054906101000a900473ffffffffffffffffffffffffffffffffffffffff1673ffffffffffffffffffffffffffffffffffffffff168152602001906001019080831161120c575b50505050508152602001600282018054806020026020016040519081016040528092919081815260200182805480156112ae57602002820191906000526020600020905b81548152602001906001019080831161129a575b505050505081526020016003820180548060200260200160405190810160405280929190818152602001828054801561133c57602002820191906000526020600020905b8160009054906101000a900473ffffffffffffffffffffffffffffffffffffffff1673ffffffffffffffffffffffffffffffffffffffff16815260200190600101908083116112f2575b5050505050815260200160048201548152602001600582018054600181600116156101000203166002900480601f0160208091040260200160405190810160405280929190818152602001828054600181600116156101000203166002900480156113e85780601f106113bd576101008083540402835291602001916113e8565b820191906000526020600020905b8154815290600101906020018083116113cb57829003601f168201915b50505050508152602001600682018054600181600116156101000203166002900480601f01602080910402602001604051908101604052809291908181526020018280546001816001161561010002031660029004801561148a5780601f1061145f5761010080835404028352916020019161148a565b820191906000526020600020905b81548152906001019060200180831161146d57829003601f168201915b505050505081526020016007820160009054906101000a900460ff161515151581526020016007820160019054906101000a900460ff161515151581526020016007820160029054906101000a900460ff161515151581526020016007820160039054906101000a900460ff1615151515815250509050919050565b6000600154905090565b61151c33826000613097565b61152882826001613097565b61153682826000600161334e565b5050565b6115426134f4565b61154b82611154565b90508060e0015161161b576115638260016000612546565b600081606001515182608001518161157757fe5b04905060008090505b8260200151518110156115d4576115c7836020015182815181106115a057fe5b6020026020010151846040015183815181106115b857fe5b60200260200101516001613097565b8080600101915050611580565b5060008090505b8260600151518110156116185761160b836060015182815181106115fb57fe5b6020026020010151836000613097565b80806001019150506115db565b50505b5050565b60606000826001850302905060008385029050600080905060025482111561165257826002540390508281019150611656565b8490505b60608160405190808252806020026020018201604052801561169257816020015b61167f61373b565b8152602001906001900390816116775790505b50905060008490505b8381101561181657600d81815481106116b057fe5b90600052602060002090600502016040518060a00160405290816000820160009054906101000a900473ffffffffffffffffffffffffffffffffffffffff1673ffffffffffffffffffffffffffffffffffffffff1673ffffffffffffffffffffffffffffffffffffffff168152602001600182018054600181600116156101000203166002900480601f0160208091040260200160405190810160405280929190818152602001828054600181600116156101000203166002900480156117b85780601f1061178d576101008083540402835291602001916117b8565b820191906000526020600020905b81548152906001019060200180831161179b57829003601f168201915b5050505050815260200160028201548152602001600382015481526020016004820160009054906101000a900460ff16151515158152505082868303815181106117fe57fe5b6020026020010181905250808060010191505061169b565b508094505050505092915050565b6060600082600185030290506000838502905060008090506004548211156118575782600454039050828101915061185b565b8490505b60608160405190808252806020026020018201604052801561189757816020015b611884613782565b81526020019060019003908161187c5790505b50905060008490505b838110156119d857600760008281526020019081526020016000206040518060a00160405290816000820160009054906101000a900473ffffffffffffffffffffffffffffffffffffffff1673ffffffffffffffffffffffffffffffffffffffff1673ffffffffffffffffffffffffffffffffffffffff1681526020016001820160009054906101000a900473ffffffffffffffffffffffffffffffffffffffff1673ffffffffffffffffffffffffffffffffffffffff1673ffffffffffffffffffffffffffffffffffffffff168152602001600282015481526020016003820160009054906101000a900460ff161515151581526020016003820160019054906101000a900460ff16151515158152505082868303815181106119c057fe5b602002602001018190525080806001019150506118a0565b508094505050505092915050565b87336000600190506119f66134f4565b60066000858152602001908152602001600020604051806101600160405290816000820160009054906101000a900473ffffffffffffffffffffffffffffffffffffffff1673ffffffffffffffffffffffffffffffffffffffff1673ffffffffffffffffffffffffffffffffffffffff16815260200160018201805480602002602001604051908101604052809291908181526020018280548015611af057602002820191906000526020600020905b8160009054906101000a900473ffffffffffffffffffffffffffffffffffffffff1673ffffffffffffffffffffffffffffffffffffffff1681526020019060010190808311611aa6575b5050505050815260200160028201805480602002602001604051908101604052809291908181526020018280548015611b4857602002820191906000526020600020905b815481526020019060010190808311611b34575b5050505050815260200160038201805480602002602001604051908101604052809291908181526020018280548015611bd657602002820191906000526020600020905b8160009054906101000a900473ffffffffffffffffffffffffffffffffffffffff1673ffffffffffffffffffffffffffffffffffffffff1681526020019060010190808311611b8c575b5050505050815260200160048201548152602001600582018054600181600116156101000203166002900480601f016020809104026020016040519081016040528092919081815260200182805460018160011615610100020316600290048015611c825780601f10611c5757610100808354040283529160200191611c82565b820191906000526020600020905b815481529060010190602001808311611c6557829003601f168201915b50505050508152602001600682018054600181600116156101000203166002900480601f016020809104026020016040519081016040528092919081815260200182805460018160011615610100020316600290048015611d245780601f10611cf957610100808354040283529160200191611d24565b820191906000526020600020905b815481529060010190602001808311611d0757829003601f168201915b505050505081526020016007820160009054906101000a900460ff161515151581526020016007820160019054906101000a900460ff161515151581526020016007820160029054906101000a900460ff161515151581526020016007820160039054906101000a900460ff161515151581525050905080610100015180611dad57508060e001515b80611dbb5750806101400151155b15611dc557600091505b8273ffffffffffffffffffffffffffffffffffffffff16816000015173ffffffffffffffffffffffffffffffffffffffff1614611e0157600091505b8115611e42576040517f08c379a0000000000000000000000000000000000000000000000000000000008152600401611e39906144dd565b60405180910390fd5b611e4a6134f4565b600660008e8152602001908152602001600020604051806101600160405290816000820160009054906101000a900473ffffffffffffffffffffffffffffffffffffffff1673ffffffffffffffffffffffffffffffffffffffff1673ffffffffffffffffffffffffffffffffffffffff16815260200160018201805480602002602001604051908101604052809291908181526020018280548015611f4457602002820191906000526020600020905b8160009054906101000a900473ffffffffffffffffffffffffffffffffffffffff1673ffffffffffffffffffffffffffffffffffffffff1681526020019060010190808311611efa575b5050505050815260200160028201805480602002602001604051908101604052809291908181526020018280548015611f9c57602002820191906000526020600020905b815481526020019060010190808311611f88575b505050505081526020016003820180548060200260200160405190810160405280929190818152602001828054801561202a57602002820191906000526020600020905b8160009054906101000a900473ffffffffffffffffffffffffffffffffffffffff1673ffffffffffffffffffffffffffffffffffffffff1681526020019060010190808311611fe0575b5050505050815260200160048201548152602001600582018054600181600116156101000203166002900480601f0160208091040260200160405190810160405280929190818152602001828054600181600116156101000203166002900480156120d65780601f106120ab576101008083540402835291602001916120d6565b820191906000526020600020905b8154815290600101906020018083116120b957829003601f168201915b50505050508152602001600682018054600181600116156101000203166002900480601f0160208091040260200160405190810160405280929190818152602001828054600181600116156101000203166002900480156121785780601f1061214d57610100808354040283529160200191612178565b820191906000526020600020905b81548152906001019060200180831161215b57829003601f168201915b505050505081526020016007820160009054906101000a900460ff161515151581526020016007820160019054906101000a900460ff161515151581526020016007820160029054906101000a900460ff161515151581526020016007820160039054906101000a900460ff16151515158152505090508981606001819052508b81602001819052508a816040018190525088816080018181525050878160a00181905250868160c00181905250858161012001901515908115158152505080600e8e8154811061224557fe5b906000526020600020906008020160008201518160000160006101000a81548173ffffffffffffffffffffffffffffffffffffffff021916908373ffffffffffffffffffffffffffffffffffffffff16021790555060208201518160010190805190602001906122b69291906135e4565b5060408201518160020190805190602001906122d392919061366e565b5060608201518160030190805190602001906122f09291906135e4565b506080820151816004015560a08201518160050190805190602001906123179291906136bb565b5060c08201518160060190805190602001906123349291906136bb565b5060e08201518160070160006101000a81548160ff0219169083151502179055506101008201518160070160016101000a81548160ff0219169083151502179055506101208201518160070160026101000a81548160ff0219169083151502179055506101408201518160070160036101000a81548160ff02191690831515021790555090505080600660008f815260200190815260200160002060008201518160000160006101000a81548173ffffffffffffffffffffffffffffffffffffffff021916908373ffffffffffffffffffffffffffffffffffffffff16021790555060208201518160010190805190602001906124329291906135e4565b50604082015181600201908051906020019061244f92919061366e565b50606082015181600301908051906020019061246c9291906135e4565b506080820151816004015560a08201518160050190805190602001906124939291906136bb565b5060c08201518160060190805190602001906124b09291906136bb565b5060e08201518160070160006101000a81548160ff0219169083151502179055506101008201518160070160016101000a81548160ff0219169083151502179055506101208201518160070160026101000a81548160ff0219169083151502179055506101408201518160070160036101000a81548160ff02191690831515021790555090505050505050505050505050505050565b82336000600190506125566134f4565b60066000858152602001908152602001600020604051806101600160405290816000820160009054906101000a900473ffffffffffffffffffffffffffffffffffffffff1673ffffffffffffffffffffffffffffffffffffffff1673ffffffffffffffffffffffffffffffffffffffff1681526020016001820180548060200260200160405190810160405280929190818152602001828054801561265057602002820191906000526020600020905b8160009054906101000a900473ffffffffffffffffffffffffffffffffffffffff1673ffffffffffffffffffffffffffffffffffffffff1681526020019060010190808311612606575b50505050508152602001600282018054806020026020016040519081016040528092919081815260200182805480156126a857602002820191906000526020600020905b815481526020019060010190808311612694575b505050505081526020016003820180548060200260200160405190810160405280929190818152602001828054801561273657602002820191906000526020600020905b8160009054906101000a900473ffffffffffffffffffffffffffffffffffffffff1673ffffffffffffffffffffffffffffffffffffffff16815260200190600101908083116126ec575b5050505050815260200160048201548152602001600582018054600181600116156101000203166002900480601f0160208091040260200160405190810160405280929190818152602001828054600181600116156101000203166002900480156127e25780601f106127b7576101008083540402835291602001916127e2565b820191906000526020600020905b8154815290600101906020018083116127c557829003601f168201915b50505050508152602001600682018054600181600116156101000203166002900480601f0160208091040260200160405190810160405280929190818152602001828054600181600116156101000203166002900480156128845780601f1061285957610100808354040283529160200191612884565b820191906000526020600020905b81548152906001019060200180831161286757829003601f168201915b505050505081526020016007820160009054906101000a900460ff161515151581526020016007820160019054906101000a900460ff161515151581526020016007820160029054906101000a900460ff161515151581526020016007820160039054906101000a900460ff16151515158152505090508061010001518061290d57508060e001515b8061291b5750806101400151155b1561292557600091505b8273ffffffffffffffffffffffffffffffffffffffff166000809054906101000a900473ffffffffffffffffffffffffffffffffffffffff1673ffffffffffffffffffffffffffffffffffffffff161461297e57600091505b81156129bf576040517f08c379a00000000000000000000000000000000000000000000000000000000081526004016129b6906144dd565b60405180910390fd5b6129c76134f4565b60066000898152602001908152602001600020604051806101600160405290816000820160009054906101000a900473ffffffffffffffffffffffffffffffffffffffff1673ffffffffffffffffffffffffffffffffffffffff1673ffffffffffffffffffffffffffffffffffffffff16815260200160018201805480602002602001604051908101604052809291908181526020018280548015612ac157602002820191906000526020600020905b8160009054906101000a900473ffffffffffffffffffffffffffffffffffffffff1673ffffffffffffffffffffffffffffffffffffffff1681526020019060010190808311612a77575b5050505050815260200160028201805480602002602001604051908101604052809291908181526020018280548015612b1957602002820191906000526020600020905b815481526020019060010190808311612b05575b5050505050815260200160038201805480602002602001604051908101604052809291908181526020018280548015612ba757602002820191906000526020600020905b8160009054906101000a900473ffffffffffffffffffffffffffffffffffffffff1673ffffffffffffffffffffffffffffffffffffffff1681526020019060010190808311612b5d575b5050505050815260200160048201548152602001600582018054600181600116156101000203166002900480601f016020809104026020016040519081016040528092919081815260200182805460018160011615610100020316600290048015612c535780601f10612c2857610100808354040283529160200191612c53565b820191906000526020600020905b815481529060010190602001808311612c3657829003601f168201915b50505050508152602001600682018054600181600116156101000203166002900480601f016020809104026020016040519081016040528092919081815260200182805460018160011615610100020316600290048015612cf55780601f10612cca57610100808354040283529160200191612cf5565b820191906000526020600020905b815481529060010190602001808311612cd857829003601f168201915b505050505081526020016007820160009054906101000a900460ff161515151581526020016007820160019054906101000a900460ff161515151581526020016007820160029054906101000a900460ff161515151581526020016007820160039054906101000a900460ff1615151515815250509050868160e0019015159081151581525050858161010001901515908115158152505080600e8981548110612d9b57fe5b906000526020600020906008020160008201518160000160006101000a81548173ffffffffffffffffffffffffffffffffffffffff021916908373ffffffffffffffffffffffffffffffffffffffff1602179055506020820151816001019080519060200190612e0c9291906135e4565b506040820151816002019080519060200190612e2992919061366e565b506060820151816003019080519060200190612e469291906135e4565b506080820151816004015560a0820151816005019080519060200190612e6d9291906136bb565b5060c0820151816006019080519060200190612e8a9291906136bb565b5060e08201518160070160006101000a81548160ff0219169083151502179055506101008201518160070160016101000a81548160ff0219169083151502179055506101208201518160070160026101000a81548160ff0219169083151502179055506101408201518160070160036101000a81548160ff02191690831515021790555090505080600660008a815260200190815260200160002060008201518160000160006101000a81548173ffffffffffffffffffffffffffffffffffffffff021916908373ffffffffffffffffffffffffffffffffffffffff1602179055506020820151816001019080519060200190612f889291906135e4565b506040820151816002019080519060200190612fa592919061366e565b506060820151816003019080519060200190612fc29291906135e4565b506080820151816004015560a0820151816005019080519060200190612fe99291906136bb565b5060c08201518160060190805190602001906130069291906136bb565b5060e08201518160070160006101000a81548160ff0219169083151502179055506101008201518160070160016101000a81548160ff0219169083151502179055506101208201518160070160026101000a81548160ff0219169083151502179055506101408201518160070160036101000a81548160ff0219169083151502179055509050505050505050505050565b826000600560008373ffffffffffffffffffffffffffffffffffffffff1673ffffffffffffffffffffffffffffffffffffffff16815260200190815260200160002060040160009054906101000a900460ff1690508061312c576040517f08c379a00000000000000000000000000000000000000000000000000000000081526004016131239061449d565b60405180910390fd5b82156131875783600560008773ffffffffffffffffffffffffffffffffffffffff1673ffffffffffffffffffffffffffffffffffffffff168152602001908152602001600020600201600082825401925050819055506131d8565b83600560008773ffffffffffffffffffffffffffffffffffffffff1673ffffffffffffffffffffffffffffffffffffffff168152602001908152602001600020600201600082825403925050819055505b600560008673ffffffffffffffffffffffffffffffffffffffff1673ffffffffffffffffffffffffffffffffffffffff168152602001908152602001600020600d600560008873ffffffffffffffffffffffffffffffffffffffff1673ffffffffffffffffffffffffffffffffffffffff168152602001908152602001600020600301548154811061326657fe5b90600052602060002090600502016000820160009054906101000a900473ffffffffffffffffffffffffffffffffffffffff168160000160006101000a81548173ffffffffffffffffffffffffffffffffffffffff021916908373ffffffffffffffffffffffffffffffffffffffff160217905550600182018160010190805460018160011615610100020316600290046133029291906137e1565b5060028201548160020155600382015481600301556004820160009054906101000a900460ff168160040160006101000a81548160ff0219169083151502179055509050505050505050565b6040518060a001604052803373ffffffffffffffffffffffffffffffffffffffff1681526020018573ffffffffffffffffffffffffffffffffffffffff168152602001848152602001831515815260200182151581525060076000600454815260200190815260200160002060008201518160000160006101000a81548173ffffffffffffffffffffffffffffffffffffffff021916908373ffffffffffffffffffffffffffffffffffffffff16021790555060208201518160010160006101000a81548173ffffffffffffffffffffffffffffffffffffffff021916908373ffffffffffffffffffffffffffffffffffffffff1602179055506040820151816002015560608201518160030160006101000a81548160ff02191690831515021790555060808201518160030160016101000a81548160ff02191690831515021790555090505060046000815480929190600101919050555050505050565b6040518060a00160405280600073ffffffffffffffffffffffffffffffffffffffff1681526020016060815260200160008152602001600081526020016000151581525090565b604051806101600160405280600073ffffffffffffffffffffffffffffffffffffffff1681526020016060815260200160608152602001606081526020016000815260200160608152602001606081526020016000151581526020016000151581526020016000151581526020016000151581525090565b604051806101600160405280600073ffffffffffffffffffffffffffffffffffffffff1681526020016060815260200160608152602001606081526020016000815260200160608152602001606081526020016000151581526020016000151581526020016000151581526020016000151581525090565b82805482825590600052602060002090810192821561365d579160200282015b8281111561365c5782518260006101000a81548173ffffffffffffffffffffffffffffffffffffffff021916908373ffffffffffffffffffffffffffffffffffffffff16021790555091602001919060010190613604565b5b50905061366a9190613868565b5090565b8280548282559060005260206000209081019282156136aa579160200282015b828111156136a957825182559160200191906001019061368e565b5b5090506136b791906138ab565b5090565b828054600181600116156101000203166002900490600052602060002090601f016020900481019282601f106136fc57805160ff191683800117855561372a565b8280016001018555821561372a579182015b8281111561372957825182559160200191906001019061370e565b5b50905061373791906138d0565b5090565b6040518060a00160405280600073ffffffffffffffffffffffffffffffffffffffff1681526020016060815260200160008152602001600081526020016000151581525090565b6040518060a00160405280600073ffffffffffffffffffffffffffffffffffffffff168152602001600073ffffffffffffffffffffffffffffffffffffffff168152602001600081526020016000151581526020016000151581525090565b828054600181600116156101000203166002900490600052602060002090601f016020900481019282601f1061381a5780548555613857565b8280016001018555821561385757600052602060002091601f016020900482015b8281111561385657825482559160010191906001019061383b565b5b50905061386491906138d0565b5090565b6138a891905b808211156138a457600081816101000a81549073ffffffffffffffffffffffffffffffffffffffff02191690555060010161386e565b5090565b90565b6138cd91905b808211156138c95760008160009055506001016138b1565b5090565b90565b6138f291905b808211156138ee5760008160009055506001016138d6565b5090565b90565b600081359050613904816147ca565b92915050565b600082601f83011261391b57600080fd5b813561392e6139298261456e565b614541565b9150818183526020840193506020810190508385602084028201111561395357600080fd5b60005b83811015613983578161396988826138f5565b845260208401935060208301925050600181019050613956565b5050505092915050565b600082601f83011261399e57600080fd5b81356139b16139ac82614596565b614541565b915081818352602084019350602081019050838560208402820111156139d657600080fd5b60005b83811015613a0657816139ec8882613a10565b8452602084019350602083019250506001810190506139d9565b5050505092915050565b600081359050613a1f816147e1565b92915050565b600082601f830112613a3657600080fd5b8135613a49613a44826145be565b614541565b91508082526020830160208301858383011115613a6557600080fd5b613a70838284614777565b50505092915050565b600081359050613a88816147f8565b92915050565b600060208284031215613aa057600080fd5b6000613aae848285016138f5565b91505092915050565b60008060408385031215613aca57600080fd5b6000613ad8858286016138f5565b9250506020613ae985828601613a10565b9150509250929050565b60008060008060008060c08789031215613b0c57600080fd5b600087013567ffffffffffffffff811115613b2657600080fd5b613b3289828a0161390a565b965050602087013567ffffffffffffffff811115613b4f57600080fd5b613b5b89828a0161398d565b955050604087013567ffffffffffffffff811115613b7857600080fd5b613b8489828a0161390a565b9450506060613b9589828a01613a79565b935050608087013567ffffffffffffffff811115613bb257600080fd5b613bbe89828a01613a25565b92505060a087013567ffffffffffffffff811115613bdb57600080fd5b613be789828a01613a25565b9150509295509295509295565b600060208284031215613c0657600080fd5b600082013567ffffffffffffffff811115613c2057600080fd5b613c2c84828501613a25565b91505092915050565b600060208284031215613c4757600080fd5b6000613c5584828501613a79565b91505092915050565b60008060408385031215613c7157600080fd5b6000613c7f85828601613a79565b9250506020613c9085828601613a79565b9150509250929050565b6000613ca68383613d0a565b60208301905092915050565b6000613cbe8383613f2c565b60208301905092915050565b6000613cd683836140f9565b905092915050565b6000613cea838361427a565b905092915050565b6000613cfe8383614385565b60a08301905092915050565b613d1381614725565b82525050565b6000613d248261462b565b613d2e81856146ae565b9350613d39836145ea565b8060005b83811015613d6a578151613d518882613c9a565b9750613d5c8361466d565b925050600181019050613d3d565b5085935050505092915050565b6000613d8282614636565b613d8c81856146bf565b9350613d97836145f7565b8060005b83811015613dc8578151613daf8882613cb2565b9750613dba8361467a565b925050600181019050613d9b565b5085935050505092915050565b6000613de082614641565b613dea81856146d0565b935083602082028501613dfc85614604565b8060005b85811015613e385784840389528151613e198582613cca565b9450613e2483614687565b925060208a01995050600181019050613e00565b50829750879550505050505092915050565b6000613e558261464c565b613e5f81856146e1565b935083602082028501613e7185614611565b8060005b85811015613ead5784840389528151613e8e8582613cde565b9450613e9983614694565b925060208a01995050600181019050613e75565b50829750879550505050505092915050565b6000613eca82614657565b613ed481856146f2565b9350613edf8361461e565b8060005b83811015613f10578151613ef78882613cf2565b9750613f02836146a1565b925050600181019050613ee3565b5085935050505092915050565b613f2681614737565b82525050565b613f3581614743565b82525050565b613f4481614743565b82525050565b6000613f5582614662565b613f5f8185614703565b9350613f6f818560208601614786565b613f78816147b9565b840191505092915050565b6000613f90601983614714565b91507f436865636b2070617274792076616c6964617465206661696c000000000000006000830152602082019050919050565b6000613fd0601483614714565b91507f4d656d626572206973206e6f74206578697374730000000000000000000000006000830152602082019050919050565b6000614010601083614714565b91507f4d656d62657220697320657869737473000000000000000000000000000000006000830152602082019050919050565b6000614050601383614714565b91507f43616e6e6f7420757064617465207061727479000000000000000000000000006000830152602082019050919050565b600060a08301600083015161409b6000860182613d0a565b50602083015184820360208601526140b38282613f4a565b91505060408301516140c86040860182613f2c565b5060608301516140db60608601826143ed565b5060808301516140ee6080860182613f1d565b508091505092915050565b600060a0830160008301516141116000860182613d0a565b50602083015184820360208601526141298282613f4a565b915050604083015161413e6040860182613f2c565b50606083015161415160608601826143ed565b5060808301516141646080860182613f1d565b508091505092915050565b6000610160830160008301516141886000860182613d0a565b50602083015184820360208601526141a08282613d19565b915050604083015184820360408601526141ba8282613d77565b915050606083015184820360608601526141d48282613d19565b91505060808301516141e960808601826143ed565b5060a083015184820360a08601526142018282613f4a565b91505060c083015184820360c086015261421b8282613f4a565b91505060e083015161423060e0860182613f1d565b50610100830151614245610100860182613f1d565b5061012083015161425a610120860182613f1d565b5061014083015161426f610140860182613f1d565b508091505092915050565b6000610160830160008301516142936000860182613d0a565b50602083015184820360208601526142ab8282613d19565b915050604083015184820360408601526142c58282613d77565b915050606083015184820360608601526142df8282613d19565b91505060808301516142f460808601826143ed565b5060a083015184820360a086015261430c8282613f4a565b91505060c083015184820360c08601526143268282613f4a565b91505060e083015161433b60e0860182613f1d565b50610100830151614350610100860182613f1d565b50610120830151614365610120860182613f1d565b5061014083015161437a610140860182613f1d565b508091505092915050565b60a08201600082015161439b6000850182613d0a565b5060208201516143ae6020850182613d0a565b5060408201516143c16040850182613f2c565b5060608201516143d46060850182613f1d565b5060808201516143e76080850182613f1d565b50505050565b6143f68161476d565b82525050565b600060208201905081810360008301526144168184613dd5565b905092915050565b600060208201905081810360008301526144388184613e4a565b905092915050565b6000602082019050818103600083015261445a8184613ebf565b905092915050565b60006020820190506144776000830184613f3b565b92915050565b6000602082019050818103600083015261449681613f83565b9050919050565b600060208201905081810360008301526144b681613fc3565b9050919050565b600060208201905081810360008301526144d681614003565b9050919050565b600060208201905081810360008301526144f681614043565b9050919050565b600060208201905081810360008301526145178184614083565b905092915050565b60006020820190508181036000830152614539818461416f565b905092915050565b6000604051905081810181811067ffffffffffffffff8211171561456457600080fd5b8060405250919050565b600067ffffffffffffffff82111561458557600080fd5b602082029050602081019050919050565b600067ffffffffffffffff8211156145ad57600080fd5b602082029050602081019050919050565b600067ffffffffffffffff8211156145d557600080fd5b601f19601f8301169050602081019050919050565b6000602082019050919050565b6000602082019050919050565b6000602082019050919050565b6000602082019050919050565b6000602082019050919050565b600081519050919050565b600081519050919050565b600081519050919050565b600081519050919050565b600081519050919050565b600081519050919050565b6000602082019050919050565b6000602082019050919050565b6000602082019050919050565b6000602082019050919050565b6000602082019050919050565b600082825260208201905092915050565b600082825260208201905092915050565b600082825260208201905092915050565b600082825260208201905092915050565b600082825260208201905092915050565b600082825260208201905092915050565b600082825260208201905092915050565b60006147308261474d565b9050919050565b60008115159050919050565b6000819050919050565b600073ffffffffffffffffffffffffffffffffffffffff82169050919050565b6000819050919050565b82818337600083830152505050565b60005b838110156147a4578082015181840152602081019050614789565b838111156147b3576000848401525b50505050565b6000601f19601f8301169050919050565b6147d381614725565b81146147de57600080fd5b50565b6147ea81614743565b81146147f557600080fd5b50565b6148018161476d565b811461480c57600080fd5b5056fea265627a7a72305820ce0ccaaa1aab27e674013ecc629f28971c45deaea45c5fa7c34d2f3b40627f216c6578706572696d656e74616cf50037",
  "source": "pragma solidity >=0.4.22 <0.6.0;\npragma experimental ABIEncoderV2;\ncontract PartyFunds {\n    address owner;\n    int256 totalFunds = 0;\n    uint countMember = 0;\n    uint countParty = 0;\n    uint countTransferHistory = 0;\n    struct Member{\n        address id;\n        string name;\n        int256 money;\n        uint256 index;\n        bool isValue;\n    }\n    struct Payer{\n        address member;\n        int256 money;\n    }\n    struct Party{\n        address creator;\n        address[] payerAddress;\n        int256[] payerMoney;\n        address[] members;\n        uint256 money;\n        string message;\n        string createdDate;\n        bool paySuccess;\n        bool reject;\n        bool requestReject;\n        bool isValue;\n    }\n    struct TransferHistory{\n        address sender;\n        address receiver;\n        int256 money;\n        bool isDeposit;\n        bool accept;\n    }\n    mapping(address=>Member) members;\n    mapping(uint256=>Party) parties;\n    mapping(uint256=>TransferHistory) transferHistories;\n    Member fundHost;\n    Member[] memberList;\n    Party[] partyList;\n    modifier memberNotExists(address _member) {\n        bool checkExists = members[_member].isValue;\n        require(\n            !checkExists,\n            \"Member is exists\"\n        );\n        _;\n    }\n    modifier memberExists(address _member) {\n        bool checkExists = members[_member].isValue;\n        require(\n            checkExists,\n            \"Member is not exists\"\n        );\n        _;\n    }\n    modifier partyValidate(address[] memory _payerAddress, int256[] memory _payerMoney) {\n        bool passValidate = true;\n        if(_payerAddress.length != _payerMoney.length){\n            passValidate = false;\n        }\n        for(uint256 i = 0; i < _payerAddress.length; i++){\n            passValidate = passValidate && members[_payerAddress[i]].isValue;\n        }\n        require(\n            passValidate,\n            \"Check party validate fail\"\n        );\n        _;\n    }\n    modifier onlyCreatorCanUpdateParty(uint256 _id, address _member) {\n        bool _canUpdate = true;\n        Party memory _party = parties[_id];\n        if(_party.reject || _party.paySuccess || !_party.isValue){\n            _canUpdate = false;\n        }\n        if(_party.creator != _member){\n            _canUpdate = false;\n        }\n        require(\n            !_canUpdate,\n            \"Cannot update party\"\n        );\n        _;\n    }\n    modifier onlyOwnerCanUpdateParty(uint256 _id, address _member) {\n        bool _canUpdate = true;\n        Party memory _party = parties[_id];\n        if(_party.reject || _party.paySuccess || !_party.isValue){\n            _canUpdate = false;\n        }\n        if(owner != _member){\n            _canUpdate = false;\n        }\n        require(\n            !_canUpdate,\n            \"Cannot update party\"\n        );\n        _;\n    }\n\n    function getTotalFund() public view returns (int256) {\n        return totalFunds;\n    }\n    function getFundHost() public view returns (Member memory) {\n        return fundHost;\n    }\n    function getMemberList(uint256 _page, uint256 _perPage) public view returns (Member[] memory) {\n        uint256 _fromIndex = (_page - 1) * _perPage;\n        uint256 _toIndex = _page * _perPage;\n        uint256 countItems = 0;\n        if(_toIndex > countMember){\n            countItems = countMember - _fromIndex;\n            _toIndex = countItems + _fromIndex;\n        }\n        else {\n            countItems = _perPage;\n        }\n        Member[] memory _memberList = new Member[](countItems);\n        for(uint i = _fromIndex; i < _toIndex; i++) {\n            _memberList[i - _fromIndex] = memberList[i];\n        }\n        return _memberList;\n    }\n    function getMember(address _addr) public view returns (Member memory) {\n        return members[_addr];\n    }\n    function getPartyList(uint256 _page, uint256 _perPage) public view returns (Party[] memory) {\n        uint256 _fromIndex = (_page - 1) * _perPage;\n        uint256 _toIndex = _page * _perPage;\n        uint256 countItems = 0;\n        if(_toIndex > countParty){\n            countItems = countParty - _fromIndex;\n            _toIndex = countItems + _fromIndex;\n        }\n        else {\n            countItems = _perPage;\n        }\n        Party[] memory _partyList = new Party[](countItems);\n        for(uint i = _fromIndex; i < _toIndex; i++) {\n            _partyList[i - _fromIndex] = parties[i];\n        }\n        return _partyList;\n    }\n    function getParty(uint256 _id) public view returns (Party memory) {\n        return parties[_id];\n    }\n    function getTransferHistoriyList(uint256 _page, uint256 _perPage) public view returns (TransferHistory[] memory){\n        uint256 _fromIndex = (_page - 1) * _perPage;\n        uint256 _toIndex = _page * _perPage;\n        uint256 countItems = 0;\n        if(_toIndex > countTransferHistory){\n            countItems = countTransferHistory - _fromIndex;\n            _toIndex = countItems + _fromIndex;\n        }\n        else {\n            countItems = _perPage;\n        }\n        TransferHistory[] memory _transferHistoryList = new TransferHistory[](countItems);\n        for(uint i = _fromIndex; i < _toIndex; i++) {\n            _transferHistoryList[i - _fromIndex] = transferHistories[i];\n        }\n        return _transferHistoryList;\n    }\n    function addMember(string memory _name) public memberNotExists(msg.sender){\n        Member memory member = Member(msg.sender, _name, 0, countMember, true);\n        memberList.push(member);\n        members[msg.sender] = member;\n        countMember++;\n    }\n    function updateMember(address _addr, string memory _name, int256 _money) private {\n        members[_addr].name = _name;\n        members[_addr].money = _money;\n        memberList[members[_addr].index] = members[_addr];\n    }\n    function updateMemberMoney(address _addr, int256 _money, bool _isAdd) private memberExists(_addr) {\n        if(_isAdd){\n            members[_addr].money += _money;\n        }\n        else {\n            members[_addr].money -= _money;\n        }\n        memberList[members[_addr].index] = members[_addr];\n    }\n    function addParty(\n        address[] memory _payerAddress, int256[] memory _payerMoney, address[] memory _members, uint256  _money, string memory  _message, string memory  _createdDate\n    ) public partyValidate(_payerAddress, _payerMoney) {\n        Party memory _party = Party(\n            msg.sender,\n            _payerAddress,\n            _payerMoney,\n            _members,\n            _money,\n            _message,\n            _createdDate,\n            false,\n            false,\n            false,\n            true\n        );\n        partyList.push(_party);\n        parties[countParty] = _party;\n        countParty++;\n    }\n    function updatePartyByCreator(\n        uint256 _id, address[] memory _payerAddress, int256[] memory _payerMoney, address[] memory _members, uint256 _money, string memory _message, string memory _createdDate, bool _requestReject\n    ) private onlyCreatorCanUpdateParty(_id, msg.sender) {\n        Party memory _party = parties[_id];\n        _party.members = _members;\n        _party.payerAddress = _payerAddress;\n        _party.payerMoney = _payerMoney;\n        _party.money = _money;\n        _party.message = _message;\n        _party.createdDate = _createdDate;\n        _party.requestReject = _requestReject;\n        partyList[_id] = _party;\n        parties[_id] = _party;\n    }\n    function updatePartyByOwner(uint256 _id, bool _paySuccess, bool _reject)\n    private onlyOwnerCanUpdateParty(_id, msg.sender) {\n        Party memory _party = parties[_id];\n        _party.paySuccess = _paySuccess;\n        _party.reject = _reject;\n        partyList[_id] = _party;\n        parties[_id] = _party;\n    }\n    function addTransferHistory(address _receiver, int256 _money, bool _isDeposit, bool _accept) private {\n        transferHistories[countTransferHistory] = TransferHistory(msg.sender, _receiver, _money, _isDeposit, _accept);\n        countTransferHistory++;\n    }\n    function updateTransferHistory(uint256 _id, address _receiver, int256 _money, bool _isDeposit, bool _accept) private {\n        TransferHistory memory _transferHistory = transferHistories[_id];\n        _transferHistory.sender = msg.sender;\n        _transferHistory.receiver = _receiver;\n        _transferHistory.money = _money;\n        _transferHistory.isDeposit = _isDeposit;\n        _transferHistory.accept = _accept;\n        transferHistories[_id] = _transferHistory;\n    }\n    function transferMoney(address _receiver, int256 _money) public {\n        updateMemberMoney(msg.sender, _money, false);\n        updateMemberMoney(_receiver, _money, true);\n        addTransferHistory(_receiver, _money, false, true);\n    }\n    function requestRejectParty(uint256 _id) public {\n        Party memory _party = getParty(_id);\n        _party.requestReject = true;\n        updatePartyByCreator(\n            _id,\n            _party.payerAddress,\n            _party.payerMoney,\n            _party.members,\n            _party.money,\n            _party.message,\n            _party.createdDate,\n            _party.requestReject\n        );\n    }\n    function rejectParty(uint256 _id) public {\n        updatePartyByOwner(_id, false, true);\n    }\n    function acceptParty(uint256 _id) public {\n        Party memory _party = getParty(_id);\n        if(!_party.paySuccess){\n            updatePartyByOwner(_id, true, false);\n            uint256 _moneyShared = _party.money / _party.members.length;\n            for(uint256 i = 0; i < _party.payerAddress.length; i++){\n                updateMemberMoney(_party.payerAddress[i], _party.payerMoney[i], true);\n            }\n            for(uint256 j = 0; j < _party.members.length; j++){\n                updateMemberMoney(_party.members[j], int256(_moneyShared), false);\n            }\n        }\n    }\n}",
  "sourcePath": "/Users/phongdo/Documents/Project/ethereum-tutorial/PartyFunds/contracts/PartyFunds.sol",
  "compiler": {
    "name": "solc",
    "version": "0.5.8+commit.23d335f2.Emscripten.clang"
  },
  "schemaVersion": "3.0.16",
  "updatedAt": "2019-11-30T09:18:01.635Z",
  "devdoc": {
    "methods": {}
  },
  "userdoc": {
    "methods": {}
  }
}