{
  "contractName": "BaseFunds",
  "abi": [
    {
      "constant": true,
      "inputs": [],
      "name": "getTotalFund",
      "outputs": [
        {
          "name": "",
          "type": "int256"
        }
      ],
      "payable": false,
      "stateMutability": "view",
      "type": "function"
    },
    {
      "constant": true,
      "inputs": [],
      "name": "getFundHost",
      "outputs": [
        {
          "components": [
            {
              "name": "id",
              "type": "address"
            },
            {
              "name": "name",
              "type": "string"
            },
            {
              "name": "money",
              "type": "int256"
            },
            {
              "name": "index",
              "type": "uint256"
            },
            {
              "name": "isValue",
              "type": "bool"
            }
          ],
          "name": "",
          "type": "tuple"
        }
      ],
      "payable": false,
      "stateMutability": "view",
      "type": "function"
    },
    {
      "constant": true,
      "inputs": [
        {
          "name": "_page",
          "type": "uint256"
        },
        {
          "name": "_perPage",
          "type": "uint256"
        }
      ],
      "name": "getMemberList",
      "outputs": [
        {
          "components": [
            {
              "name": "id",
              "type": "address"
            },
            {
              "name": "name",
              "type": "string"
            },
            {
              "name": "money",
              "type": "int256"
            },
            {
              "name": "index",
              "type": "uint256"
            },
            {
              "name": "isValue",
              "type": "bool"
            }
          ],
          "name": "",
          "type": "tuple[]"
        }
      ],
      "payable": false,
      "stateMutability": "view",
      "type": "function"
    },
    {
      "constant": true,
      "inputs": [
        {
          "name": "_addr",
          "type": "address"
        }
      ],
      "name": "getMember",
      "outputs": [
        {
          "components": [
            {
              "name": "id",
              "type": "address"
            },
            {
              "name": "name",
              "type": "string"
            },
            {
              "name": "money",
              "type": "int256"
            },
            {
              "name": "index",
              "type": "uint256"
            },
            {
              "name": "isValue",
              "type": "bool"
            }
          ],
          "name": "",
          "type": "tuple"
        }
      ],
      "payable": false,
      "stateMutability": "view",
      "type": "function"
    },
    {
      "constant": true,
      "inputs": [
        {
          "name": "_page",
          "type": "uint256"
        },
        {
          "name": "_perPage",
          "type": "uint256"
        }
      ],
      "name": "getPartyList",
      "outputs": [
        {
          "components": [
            {
              "name": "creator",
              "type": "address"
            },
            {
              "name": "payerAddress",
              "type": "address[]"
            },
            {
              "name": "payerMoney",
              "type": "int256[]"
            },
            {
              "name": "members",
              "type": "address[]"
            },
            {
              "name": "money",
              "type": "uint256"
            },
            {
              "name": "message",
              "type": "string"
            },
            {
              "name": "createdDate",
              "type": "string"
            },
            {
              "name": "paySuccess",
              "type": "bool"
            },
            {
              "name": "reject",
              "type": "bool"
            },
            {
              "name": "requestReject",
              "type": "bool"
            },
            {
              "name": "isValue",
              "type": "bool"
            }
          ],
          "name": "",
          "type": "tuple[]"
        }
      ],
      "payable": false,
      "stateMutability": "view",
      "type": "function"
    },
    {
      "constant": true,
      "inputs": [
        {
          "name": "_id",
          "type": "uint256"
        }
      ],
      "name": "getParty",
      "outputs": [
        {
          "components": [
            {
              "name": "creator",
              "type": "address"
            },
            {
              "name": "payerAddress",
              "type": "address[]"
            },
            {
              "name": "payerMoney",
              "type": "int256[]"
            },
            {
              "name": "members",
              "type": "address[]"
            },
            {
              "name": "money",
              "type": "uint256"
            },
            {
              "name": "message",
              "type": "string"
            },
            {
              "name": "createdDate",
              "type": "string"
            },
            {
              "name": "paySuccess",
              "type": "bool"
            },
            {
              "name": "reject",
              "type": "bool"
            },
            {
              "name": "requestReject",
              "type": "bool"
            },
            {
              "name": "isValue",
              "type": "bool"
            }
          ],
          "name": "",
          "type": "tuple"
        }
      ],
      "payable": false,
      "stateMutability": "view",
      "type": "function"
    },
    {
      "constant": true,
      "inputs": [
        {
          "name": "_page",
          "type": "uint256"
        },
        {
          "name": "_perPage",
          "type": "uint256"
        }
      ],
      "name": "getTransferHistoriyList",
      "outputs": [
        {
          "components": [
            {
              "name": "sender",
              "type": "address"
            },
            {
              "name": "receiver",
              "type": "address"
            },
            {
              "name": "money",
              "type": "int256"
            },
            {
              "name": "isDeposit",
              "type": "bool"
            },
            {
              "name": "accept",
              "type": "bool"
            }
          ],
          "name": "",
          "type": "tuple[]"
        }
      ],
      "payable": false,
      "stateMutability": "view",
      "type": "function"
    },
    {
      "constant": false,
      "inputs": [
        {
          "name": "_sender",
          "type": "address"
        },
        {
          "name": "_name",
          "type": "string"
        }
      ],
      "name": "addMember",
      "outputs": [],
      "payable": false,
      "stateMutability": "nonpayable",
      "type": "function"
    },
    {
      "constant": false,
      "inputs": [
        {
          "name": "_addr",
          "type": "address"
        },
        {
          "name": "_name",
          "type": "string"
        },
        {
          "name": "_money",
          "type": "int256"
        }
      ],
      "name": "updateMember",
      "outputs": [],
      "payable": false,
      "stateMutability": "nonpayable",
      "type": "function"
    },
    {
      "constant": false,
      "inputs": [
        {
          "name": "_addr",
          "type": "address"
        },
        {
          "name": "_money",
          "type": "int256"
        }
      ],
      "name": "updateMemberMoney",
      "outputs": [],
      "payable": false,
      "stateMutability": "nonpayable",
      "type": "function"
    },
    {
      "constant": false,
      "inputs": [
        {
          "name": "_sender",
          "type": "address"
        },
        {
          "name": "_payerAddress",
          "type": "address[]"
        },
        {
          "name": "_payerMoney",
          "type": "int256[]"
        },
        {
          "name": "_members",
          "type": "address[]"
        },
        {
          "name": "_money",
          "type": "uint256"
        },
        {
          "name": "_message",
          "type": "string"
        },
        {
          "name": "_createdDate",
          "type": "string"
        }
      ],
      "name": "addParty",
      "outputs": [],
      "payable": false,
      "stateMutability": "nonpayable",
      "type": "function"
    },
    {
      "constant": false,
      "inputs": [
        {
          "name": "_sender",
          "type": "address"
        },
        {
          "name": "_id",
          "type": "uint256"
        },
        {
          "name": "_payerAddress",
          "type": "address[]"
        },
        {
          "name": "_payerMoney",
          "type": "int256[]"
        },
        {
          "name": "_members",
          "type": "address[]"
        },
        {
          "name": "_money",
          "type": "uint256"
        },
        {
          "name": "_message",
          "type": "string"
        },
        {
          "name": "_createdDate",
          "type": "string"
        },
        {
          "name": "_requestReject",
          "type": "bool"
        }
      ],
      "name": "updatePartyByCreator",
      "outputs": [],
      "payable": false,
      "stateMutability": "nonpayable",
      "type": "function"
    },
    {
      "constant": false,
      "inputs": [
        {
          "name": "_sender",
          "type": "address"
        },
        {
          "name": "_id",
          "type": "uint256"
        },
        {
          "name": "_paySuccess",
          "type": "bool"
        },
        {
          "name": "_reject",
          "type": "bool"
        }
      ],
      "name": "updatePartyByOwner",
      "outputs": [],
      "payable": false,
      "stateMutability": "nonpayable",
      "type": "function"
    },
    {
      "constant": false,
      "inputs": [
        {
          "name": "_sender",
          "type": "address"
        },
        {
          "name": "_receiver",
          "type": "address"
        },
        {
          "name": "_money",
          "type": "int256"
        },
        {
          "name": "_isDeposit",
          "type": "bool"
        },
        {
          "name": "_accept",
          "type": "bool"
        }
      ],
      "name": "addTransferHistory",
      "outputs": [],
      "payable": false,
      "stateMutability": "nonpayable",
      "type": "function"
    },
    {
      "constant": false,
      "inputs": [
        {
          "name": "_id",
          "type": "uint256"
        },
        {
          "name": "_sender",
          "type": "address"
        },
        {
          "name": "_receiver",
          "type": "address"
        },
        {
          "name": "_money",
          "type": "int256"
        },
        {
          "name": "_isDeposit",
          "type": "bool"
        },
        {
          "name": "_accept",
          "type": "bool"
        }
      ],
      "name": "updateTransferHistory",
      "outputs": [],
      "payable": false,
      "stateMutability": "nonpayable",
      "type": "function"
    },
    {
      "constant": true,
      "inputs": [],
      "name": "getAllMember",
      "outputs": [
        {
          "components": [
            {
              "name": "id",
              "type": "address"
            },
            {
              "name": "name",
              "type": "string"
            },
            {
              "name": "money",
              "type": "int256"
            },
            {
              "name": "index",
              "type": "uint256"
            },
            {
              "name": "isValue",
              "type": "bool"
            }
          ],
          "name": "",
          "type": "tuple[]"
        }
      ],
      "payable": false,
      "stateMutability": "view",
      "type": "function"
    }
  ],
  "bytecode": "0x6080604052600060015560006002556000600355600060045534801561002457600080fd5b5061510a806100346000396000f3fe608060405234801561001057600080fd5b50600436106101005760003560e01c8063520d268e116100975780639fd813e3116100665780639fd813e314610295578063c127c247146102b3578063fed8f8f6146102cf578063feec67d3146102ff57610100565b8063520d268e14610211578063874497001461022d57806393aa645314610249578063947582181461026557610100565b80632ada2596116100d35780632ada259614610177578063304655d3146101a75780633422ac1b146101c55780634baba3b1146101f557610100565b8063090c636d14610105578063118e435c14610121578063188958421461013d5780632851198c1461015b575b600080fd5b61011f600480360361011a91908101906143f3565b61032f565b005b61013b600480360361013691908101906140a8565b610e81565b005b61014561130d565b6040516101529190614da7565b60405180910390f35b61017560048036036101709190810190614031565b61144e565b005b610191600480360361018c9190810190614008565b6115ae565b60405161019e9190614da7565b60405180910390f35b6101af61172e565b6040516101bc9190614ca6565b60405180910390f35b6101df60048036036101da9190810190614508565b6118b4565b6040516101ec9190614cc8565b60405180910390f35b61020f600480360361020a919081019061447f565b611ce9565b005b61022b600480360361022691908101906142b5565b611f8f565b005b6102476004803603610242919081019061424e565b612af0565b005b610263600480360361025e91908101906141be565b612d02565b005b61027f600480360361027a9190810190614456565b612f5c565b60405161028c9190614dc9565b60405180910390f35b61029d61330e565b6040516102aa9190614d0c565b60405180910390f35b6102cd60048036036102c891908101906141fa565b613318565b005b6102e960048036036102e49190810190614508565b6135b8565b6040516102f69190614ca6565b60405180910390f35b61031960048036036103149190810190614508565b613797565b6040516103269190614cea565b60405180910390f35b828460006001905061033f613933565b60066000858152602001908152602001600020604051806101600160405290816000820160009054906101000a900473ffffffffffffffffffffffffffffffffffffffff1673ffffffffffffffffffffffffffffffffffffffff1673ffffffffffffffffffffffffffffffffffffffff1681526020016001820180548060200260200160405190810160405280929190818152602001828054801561043957602002820191906000526020600020905b8160009054906101000a900473ffffffffffffffffffffffffffffffffffffffff1673ffffffffffffffffffffffffffffffffffffffff16815260200190600101908083116103ef575b505050505081526020016002820180548060200260200160405190810160405280929190818152602001828054801561049157602002820191906000526020600020905b81548152602001906001019080831161047d575b505050505081526020016003820180548060200260200160405190810160405280929190818152602001828054801561051f57602002820191906000526020600020905b8160009054906101000a900473ffffffffffffffffffffffffffffffffffffffff1673ffffffffffffffffffffffffffffffffffffffff16815260200190600101908083116104d5575b5050505050815260200160048201548152602001600582018054600181600116156101000203166002900480601f0160208091040260200160405190810160405280929190818152602001828054600181600116156101000203166002900480156105cb5780601f106105a0576101008083540402835291602001916105cb565b820191906000526020600020905b8154815290600101906020018083116105ae57829003601f168201915b50505050508152602001600682018054600181600116156101000203166002900480601f01602080910402602001604051908101604052809291908181526020018280546001816001161561010002031660029004801561066d5780601f106106425761010080835404028352916020019161066d565b820191906000526020600020905b81548152906001019060200180831161065057829003601f168201915b505050505081526020016007820160009054906101000a900460ff161515151581526020016007820160019054906101000a900460ff161515151581526020016007820160029054906101000a900460ff161515151581526020016007820160039054906101000a900460ff1615151515815250509050806101000151806106f657508060e001515b806107045750806101400151155b1561070e57600091505b8273ffffffffffffffffffffffffffffffffffffffff166000809054906101000a900473ffffffffffffffffffffffffffffffffffffffff1673ffffffffffffffffffffffffffffffffffffffff161461076757600091505b81156107a8576040517f08c379a000000000000000000000000000000000000000000000000000000000815260040161079f90614d87565b60405180910390fd5b6107b0613933565b60066000898152602001908152602001600020604051806101600160405290816000820160009054906101000a900473ffffffffffffffffffffffffffffffffffffffff1673ffffffffffffffffffffffffffffffffffffffff1673ffffffffffffffffffffffffffffffffffffffff168152602001600182018054806020026020016040519081016040528092919081815260200182805480156108aa57602002820191906000526020600020905b8160009054906101000a900473ffffffffffffffffffffffffffffffffffffffff1673ffffffffffffffffffffffffffffffffffffffff1681526020019060010190808311610860575b505050505081526020016002820180548060200260200160405190810160405280929190818152602001828054801561090257602002820191906000526020600020905b8154815260200190600101908083116108ee575b505050505081526020016003820180548060200260200160405190810160405280929190818152602001828054801561099057602002820191906000526020600020905b8160009054906101000a900473ffffffffffffffffffffffffffffffffffffffff1673ffffffffffffffffffffffffffffffffffffffff1681526020019060010190808311610946575b5050505050815260200160048201548152602001600582018054600181600116156101000203166002900480601f016020809104026020016040519081016040528092919081815260200182805460018160011615610100020316600290048015610a3c5780601f10610a1157610100808354040283529160200191610a3c565b820191906000526020600020905b815481529060010190602001808311610a1f57829003601f168201915b50505050508152602001600682018054600181600116156101000203166002900480601f016020809104026020016040519081016040528092919081815260200182805460018160011615610100020316600290048015610ade5780601f10610ab357610100808354040283529160200191610ade565b820191906000526020600020905b815481529060010190602001808311610ac157829003601f168201915b505050505081526020016007820160009054906101000a900460ff161515151581526020016007820160019054906101000a900460ff161515151581526020016007820160029054906101000a900460ff161515151581526020016007820160039054906101000a900460ff1615151515815250509050868160e0019015159081151581525050858161010001901515908115158152505080600e8981548110610b8457fe5b906000526020600020906008020160008201518160000160006101000a81548173ffffffffffffffffffffffffffffffffffffffff021916908373ffffffffffffffffffffffffffffffffffffffff1602179055506020820151816001019080519060200190610bf59291906139ab565b506040820151816002019080519060200190610c12929190613a35565b506060820151816003019080519060200190610c2f9291906139ab565b506080820151816004015560a0820151816005019080519060200190610c56929190613a82565b5060c0820151816006019080519060200190610c73929190613a82565b5060e08201518160070160006101000a81548160ff0219169083151502179055506101008201518160070160016101000a81548160ff0219169083151502179055506101208201518160070160026101000a81548160ff0219169083151502179055506101408201518160070160036101000a81548160ff02191690831515021790555090505080600660008a815260200190815260200160002060008201518160000160006101000a81548173ffffffffffffffffffffffffffffffffffffffff021916908373ffffffffffffffffffffffffffffffffffffffff1602179055506020820151816001019080519060200190610d719291906139ab565b506040820151816002019080519060200190610d8e929190613a35565b506060820151816003019080519060200190610dab9291906139ab565b506080820151816004015560a0820151816005019080519060200190610dd2929190613a82565b5060c0820151816006019080519060200190610def929190613a82565b5060e08201518160070160006101000a81548160ff0219169083151502179055506101008201518160070160016101000a81548160ff0219169083151502179055506101208201518160070160026101000a81548160ff0219169083151502179055506101408201518160070160036101000a81548160ff021916908315150217905550905050505050505050505050565b85856000600190508151835114610e9757600090505b60008090505b8351811015610f2157818015610f12575060056000858381518110610ebe57fe5b602002602001015173ffffffffffffffffffffffffffffffffffffffff1673ffffffffffffffffffffffffffffffffffffffff16815260200190815260200160002060040160009054906101000a900460ff165b91508080600101915050610e9d565b5080610f62576040517f08c379a0000000000000000000000000000000000000000000000000000000008152600401610f5990614d27565b60405180910390fd5b610f6a613933565b6040518061016001604052808c73ffffffffffffffffffffffffffffffffffffffff1681526020018b81526020018a8152602001898152602001888152602001878152602001868152602001600015158152602001600015158152602001600015158152602001600115158152509050600e819080600181540180825580915050906001820390600052602060002090600802016000909192909190915060008201518160000160006101000a81548173ffffffffffffffffffffffffffffffffffffffff021916908373ffffffffffffffffffffffffffffffffffffffff160217905550602082015181600101908051906020019061106b9291906139ab565b506040820151816002019080519060200190611088929190613a35565b5060608201518160030190805190602001906110a59291906139ab565b506080820151816004015560a08201518160050190805190602001906110cc929190613a82565b5060c08201518160060190805190602001906110e9929190613a82565b5060e08201518160070160006101000a81548160ff0219169083151502179055506101008201518160070160016101000a81548160ff0219169083151502179055506101208201518160070160026101000a81548160ff0219169083151502179055506101408201518160070160036101000a81548160ff0219169083151502179055505050508060066000600354815260200190815260200160002060008201518160000160006101000a81548173ffffffffffffffffffffffffffffffffffffffff021916908373ffffffffffffffffffffffffffffffffffffffff16021790555060208201518160010190805190602001906111e99291906139ab565b506040820151816002019080519060200190611206929190613a35565b5060608201518160030190805190602001906112239291906139ab565b506080820151816004015560a082015181600501908051906020019061124a929190613a82565b5060c0820151816006019080519060200190611267929190613a82565b5060e08201518160070160006101000a81548160ff0219169083151502179055506101008201518160070160016101000a81548160ff0219169083151502179055506101208201518160070160026101000a81548160ff0219169083151502179055506101408201518160070160036101000a81548160ff0219169083151502179055509050506003600081548092919060010191905055505050505050505050505050565b611315613b02565b60086040518060a00160405290816000820160009054906101000a900473ffffffffffffffffffffffffffffffffffffffff1673ffffffffffffffffffffffffffffffffffffffff1673ffffffffffffffffffffffffffffffffffffffff168152602001600182018054600181600116156101000203166002900480601f0160208091040260200160405190810160405280929190818152602001828054600181600116156101000203166002900480156114115780601f106113e657610100808354040283529160200191611411565b820191906000526020600020905b8154815290600101906020018083116113f457829003601f168201915b5050505050815260200160028201548152602001600382015481526020016004820160009054906101000a900460ff161515151581525050905090565b6040518060a001604052808673ffffffffffffffffffffffffffffffffffffffff1681526020018573ffffffffffffffffffffffffffffffffffffffff168152602001848152602001831515815260200182151581525060076000600454815260200190815260200160002060008201518160000160006101000a81548173ffffffffffffffffffffffffffffffffffffffff021916908373ffffffffffffffffffffffffffffffffffffffff16021790555060208201518160010160006101000a81548173ffffffffffffffffffffffffffffffffffffffff021916908373ffffffffffffffffffffffffffffffffffffffff1602179055506040820151816002015560608201518160030160006101000a81548160ff02191690831515021790555060808201518160030160016101000a81548160ff0219169083151502179055509050506004600081548092919060010191905055505050505050565b6115b6613b02565b600560008373ffffffffffffffffffffffffffffffffffffffff1673ffffffffffffffffffffffffffffffffffffffff1681526020019081526020016000206040518060a00160405290816000820160009054906101000a900473ffffffffffffffffffffffffffffffffffffffff1673ffffffffffffffffffffffffffffffffffffffff1673ffffffffffffffffffffffffffffffffffffffff168152602001600182018054600181600116156101000203166002900480601f0160208091040260200160405190810160405280929190818152602001828054600181600116156101000203166002900480156116ef5780601f106116c4576101008083540402835291602001916116ef565b820191906000526020600020905b8154815290600101906020018083116116d257829003601f168201915b5050505050815260200160028201548152602001600382015481526020016004820160009054906101000a900460ff1615151515815250509050919050565b6060600d805480602002602001604051908101604052809291908181526020016000905b828210156118ab57838290600052602060002090600502016040518060a00160405290816000820160009054906101000a900473ffffffffffffffffffffffffffffffffffffffff1673ffffffffffffffffffffffffffffffffffffffff1673ffffffffffffffffffffffffffffffffffffffff168152602001600182018054600181600116156101000203166002900480601f0160208091040260200160405190810160405280929190818152602001828054600181600116156101000203166002900480156118645780601f1061183957610100808354040283529160200191611864565b820191906000526020600020905b81548152906001019060200180831161184757829003601f168201915b5050505050815260200160028201548152602001600382015481526020016004820160009054906101000a900460ff16151515158152505081526020019060010190611752565b50505050905090565b606080826040519080825280602002602001820160405280156118f157816020015b6118de613b49565b8152602001906001900390816118d65790505b509050600083600186030290506000848602905060008290505b81811015611cdc5760066000828152602001908152602001600020604051806101600160405290816000820160009054906101000a900473ffffffffffffffffffffffffffffffffffffffff1673ffffffffffffffffffffffffffffffffffffffff1673ffffffffffffffffffffffffffffffffffffffff16815260200160018201805480602002602001604051908101604052809291908181526020018280548015611a0d57602002820191906000526020600020905b8160009054906101000a900473ffffffffffffffffffffffffffffffffffffffff1673ffffffffffffffffffffffffffffffffffffffff16815260200190600101908083116119c3575b5050505050815260200160028201805480602002602001604051908101604052809291908181526020018280548015611a6557602002820191906000526020600020905b815481526020019060010190808311611a51575b5050505050815260200160038201805480602002602001604051908101604052809291908181526020018280548015611af357602002820191906000526020600020905b8160009054906101000a900473ffffffffffffffffffffffffffffffffffffffff1673ffffffffffffffffffffffffffffffffffffffff1681526020019060010190808311611aa9575b5050505050815260200160048201548152602001600582018054600181600116156101000203166002900480601f016020809104026020016040519081016040528092919081815260200182805460018160011615610100020316600290048015611b9f5780601f10611b7457610100808354040283529160200191611b9f565b820191906000526020600020905b815481529060010190602001808311611b8257829003601f168201915b50505050508152602001600682018054600181600116156101000203166002900480601f016020809104026020016040519081016040528092919081815260200182805460018160011615610100020316600290048015611c415780601f10611c1657610100808354040283529160200191611c41565b820191906000526020600020905b815481529060010190602001808311611c2457829003601f168201915b505050505081526020016007820160009054906101000a900460ff161515151581526020016007820160019054906101000a900460ff161515151581526020016007820160029054906101000a900460ff161515151581526020016007820160039054906101000a900460ff1615151515815250508484830381518110611cc457fe5b6020026020010181905250808060010191505061190b565b5082935050505092915050565b611cf1613bc1565b600760008881526020019081526020016000206040518060a00160405290816000820160009054906101000a900473ffffffffffffffffffffffffffffffffffffffff1673ffffffffffffffffffffffffffffffffffffffff1673ffffffffffffffffffffffffffffffffffffffff1681526020016001820160009054906101000a900473ffffffffffffffffffffffffffffffffffffffff1673ffffffffffffffffffffffffffffffffffffffff1673ffffffffffffffffffffffffffffffffffffffff168152602001600282015481526020016003820160009054906101000a900460ff161515151581526020016003820160019054906101000a900460ff161515151581525050905085816000019073ffffffffffffffffffffffffffffffffffffffff16908173ffffffffffffffffffffffffffffffffffffffff168152505084816020019073ffffffffffffffffffffffffffffffffffffffff16908173ffffffffffffffffffffffffffffffffffffffff1681525050838160400181815250508281606001901515908115158152505081816080019015159081151581525050806007600089815260200190815260200160002060008201518160000160006101000a81548173ffffffffffffffffffffffffffffffffffffffff021916908373ffffffffffffffffffffffffffffffffffffffff16021790555060208201518160010160006101000a81548173ffffffffffffffffffffffffffffffffffffffff021916908373ffffffffffffffffffffffffffffffffffffffff1602179055506040820151816002015560608201518160030160006101000a81548160ff02191690831515021790555060808201518160030160016101000a81548160ff02191690831515021790555090505050505050505050565b8789600060019050611f9f613933565b60066000858152602001908152602001600020604051806101600160405290816000820160009054906101000a900473ffffffffffffffffffffffffffffffffffffffff1673ffffffffffffffffffffffffffffffffffffffff1673ffffffffffffffffffffffffffffffffffffffff1681526020016001820180548060200260200160405190810160405280929190818152602001828054801561209957602002820191906000526020600020905b8160009054906101000a900473ffffffffffffffffffffffffffffffffffffffff1673ffffffffffffffffffffffffffffffffffffffff168152602001906001019080831161204f575b50505050508152602001600282018054806020026020016040519081016040528092919081815260200182805480156120f157602002820191906000526020600020905b8154815260200190600101908083116120dd575b505050505081526020016003820180548060200260200160405190810160405280929190818152602001828054801561217f57602002820191906000526020600020905b8160009054906101000a900473ffffffffffffffffffffffffffffffffffffffff1673ffffffffffffffffffffffffffffffffffffffff1681526020019060010190808311612135575b5050505050815260200160048201548152602001600582018054600181600116156101000203166002900480601f01602080910402602001604051908101604052809291908181526020018280546001816001161561010002031660029004801561222b5780601f106122005761010080835404028352916020019161222b565b820191906000526020600020905b81548152906001019060200180831161220e57829003601f168201915b50505050508152602001600682018054600181600116156101000203166002900480601f0160208091040260200160405190810160405280929190818152602001828054600181600116156101000203166002900480156122cd5780601f106122a2576101008083540402835291602001916122cd565b820191906000526020600020905b8154815290600101906020018083116122b057829003601f168201915b505050505081526020016007820160009054906101000a900460ff161515151581526020016007820160019054906101000a900460ff161515151581526020016007820160029054906101000a900460ff161515151581526020016007820160039054906101000a900460ff16151515158152505090508061010001518061235657508060e001515b806123645750806101400151155b1561236e57600091505b8273ffffffffffffffffffffffffffffffffffffffff16816000015173ffffffffffffffffffffffffffffffffffffffff16146123aa57600091505b81156123eb576040517f08c379a00000000000000000000000000000000000000000000000000000000081526004016123e290614d87565b60405180910390fd5b6123f3613933565b600660008e8152602001908152602001600020604051806101600160405290816000820160009054906101000a900473ffffffffffffffffffffffffffffffffffffffff1673ffffffffffffffffffffffffffffffffffffffff1673ffffffffffffffffffffffffffffffffffffffff168152602001600182018054806020026020016040519081016040528092919081815260200182805480156124ed57602002820191906000526020600020905b8160009054906101000a900473ffffffffffffffffffffffffffffffffffffffff1673ffffffffffffffffffffffffffffffffffffffff16815260200190600101908083116124a3575b505050505081526020016002820180548060200260200160405190810160405280929190818152602001828054801561254557602002820191906000526020600020905b815481526020019060010190808311612531575b50505050508152602001600382018054806020026020016040519081016040528092919081815260200182805480156125d357602002820191906000526020600020905b8160009054906101000a900473ffffffffffffffffffffffffffffffffffffffff1673ffffffffffffffffffffffffffffffffffffffff1681526020019060010190808311612589575b5050505050815260200160048201548152602001600582018054600181600116156101000203166002900480601f01602080910402602001604051908101604052809291908181526020018280546001816001161561010002031660029004801561267f5780601f106126545761010080835404028352916020019161267f565b820191906000526020600020905b81548152906001019060200180831161266257829003601f168201915b50505050508152602001600682018054600181600116156101000203166002900480601f0160208091040260200160405190810160405280929190818152602001828054600181600116156101000203166002900480156127215780601f106126f657610100808354040283529160200191612721565b820191906000526020600020905b81548152906001019060200180831161270457829003601f168201915b505050505081526020016007820160009054906101000a900460ff161515151581526020016007820160019054906101000a900460ff161515151581526020016007820160029054906101000a900460ff161515151581526020016007820160039054906101000a900460ff16151515158152505090508981606001819052508b81602001819052508a816040018190525088816080018181525050878160a00181905250868160c00181905250858161012001901515908115158152505080600e8e815481106127ee57fe5b906000526020600020906008020160008201518160000160006101000a81548173ffffffffffffffffffffffffffffffffffffffff021916908373ffffffffffffffffffffffffffffffffffffffff160217905550602082015181600101908051906020019061285f9291906139ab565b50604082015181600201908051906020019061287c929190613a35565b5060608201518160030190805190602001906128999291906139ab565b506080820151816004015560a08201518160050190805190602001906128c0929190613a82565b5060c08201518160060190805190602001906128dd929190613a82565b5060e08201518160070160006101000a81548160ff0219169083151502179055506101008201518160070160016101000a81548160ff0219169083151502179055506101208201518160070160026101000a81548160ff0219169083151502179055506101408201518160070160036101000a81548160ff02191690831515021790555090505080600660008f815260200190815260200160002060008201518160000160006101000a81548173ffffffffffffffffffffffffffffffffffffffff021916908373ffffffffffffffffffffffffffffffffffffffff16021790555060208201518160010190805190602001906129db9291906139ab565b5060408201518160020190805190602001906129f8929190613a35565b506060820151816003019080519060200190612a159291906139ab565b506080820151816004015560a0820151816005019080519060200190612a3c929190613a82565b5060c0820151816006019080519060200190612a59929190613a82565b5060e08201518160070160006101000a81548160ff0219169083151502179055506101008201518160070160016101000a81548160ff0219169083151502179055506101208201518160070160026101000a81548160ff0219169083151502179055506101408201518160070160036101000a81548160ff0219169083151502179055509050505050505050505050505050505050565b81600560008573ffffffffffffffffffffffffffffffffffffffff1673ffffffffffffffffffffffffffffffffffffffff1681526020019081526020016000206001019080519060200190612b46929190613c20565b5080600560008573ffffffffffffffffffffffffffffffffffffffff1673ffffffffffffffffffffffffffffffffffffffff16815260200190815260200160002060020181905550600560008473ffffffffffffffffffffffffffffffffffffffff1673ffffffffffffffffffffffffffffffffffffffff168152602001908152602001600020600d600560008673ffffffffffffffffffffffffffffffffffffffff1673ffffffffffffffffffffffffffffffffffffffff1681526020019081526020016000206003015481548110612c1c57fe5b90600052602060002090600502016000820160009054906101000a900473ffffffffffffffffffffffffffffffffffffffff168160000160006101000a81548173ffffffffffffffffffffffffffffffffffffffff021916908373ffffffffffffffffffffffffffffffffffffffff16021790555060018201816001019080546001816001161561010002031660029004612cb8929190613ca0565b5060028201548160020155600382015481600301556004820160009054906101000a900460ff168160040160006101000a81548160ff021916908315150217905550905050505050565b816000600560008373ffffffffffffffffffffffffffffffffffffffff1673ffffffffffffffffffffffffffffffffffffffff16815260200190815260200160002060040160009054906101000a900460ff16905080612d97576040517f08c379a0000000000000000000000000000000000000000000000000000000008152600401612d8e90614d47565b60405180910390fd5b82600560008673ffffffffffffffffffffffffffffffffffffffff1673ffffffffffffffffffffffffffffffffffffffff16815260200190815260200160002060020160008282540192505081905550600560008573ffffffffffffffffffffffffffffffffffffffff1673ffffffffffffffffffffffffffffffffffffffff168152602001908152602001600020600d600560008773ffffffffffffffffffffffffffffffffffffffff1673ffffffffffffffffffffffffffffffffffffffff1681526020019081526020016000206003015481548110612e7557fe5b90600052602060002090600502016000820160009054906101000a900473ffffffffffffffffffffffffffffffffffffffff168160000160006101000a81548173ffffffffffffffffffffffffffffffffffffffff021916908373ffffffffffffffffffffffffffffffffffffffff16021790555060018201816001019080546001816001161561010002031660029004612f11929190613ca0565b5060028201548160020155600382015481600301556004820160009054906101000a900460ff168160040160006101000a81548160ff02191690831515021790555090505050505050565b612f64613933565b60066000838152602001908152602001600020604051806101600160405290816000820160009054906101000a900473ffffffffffffffffffffffffffffffffffffffff1673ffffffffffffffffffffffffffffffffffffffff1673ffffffffffffffffffffffffffffffffffffffff1681526020016001820180548060200260200160405190810160405280929190818152602001828054801561305e57602002820191906000526020600020905b8160009054906101000a900473ffffffffffffffffffffffffffffffffffffffff1673ffffffffffffffffffffffffffffffffffffffff1681526020019060010190808311613014575b50505050508152602001600282018054806020026020016040519081016040528092919081815260200182805480156130b657602002820191906000526020600020905b8154815260200190600101908083116130a2575b505050505081526020016003820180548060200260200160405190810160405280929190818152602001828054801561314457602002820191906000526020600020905b8160009054906101000a900473ffffffffffffffffffffffffffffffffffffffff1673ffffffffffffffffffffffffffffffffffffffff16815260200190600101908083116130fa575b5050505050815260200160048201548152602001600582018054600181600116156101000203166002900480601f0160208091040260200160405190810160405280929190818152602001828054600181600116156101000203166002900480156131f05780601f106131c5576101008083540402835291602001916131f0565b820191906000526020600020905b8154815290600101906020018083116131d357829003601f168201915b50505050508152602001600682018054600181600116156101000203166002900480601f0160208091040260200160405190810160405280929190818152602001828054600181600116156101000203166002900480156132925780601f1061326757610100808354040283529160200191613292565b820191906000526020600020905b81548152906001019060200180831161327557829003601f168201915b505050505081526020016007820160009054906101000a900460ff161515151581526020016007820160019054906101000a900460ff161515151581526020016007820160029054906101000a900460ff161515151581526020016007820160039054906101000a900460ff1615151515815250509050919050565b6000600154905090565b816000600560008373ffffffffffffffffffffffffffffffffffffffff1673ffffffffffffffffffffffffffffffffffffffff16815260200190815260200160002060040160009054906101000a900460ff16905080156133ae576040517f08c379a00000000000000000000000000000000000000000000000000000000081526004016133a590614d67565b60405180910390fd5b6133b6613b02565b6040518060a001604052808673ffffffffffffffffffffffffffffffffffffffff168152602001858152602001600081526020016002548152602001600115158152509050600d819080600181540180825580915050906001820390600052602060002090600502016000909192909190915060008201518160000160006101000a81548173ffffffffffffffffffffffffffffffffffffffff021916908373ffffffffffffffffffffffffffffffffffffffff160217905550602082015181600101908051906020019061348c929190613a82565b50604082015181600201556060820151816003015560808201518160040160006101000a81548160ff02191690831515021790555050505080600560008773ffffffffffffffffffffffffffffffffffffffff1673ffffffffffffffffffffffffffffffffffffffff16815260200190815260200160002060008201518160000160006101000a81548173ffffffffffffffffffffffffffffffffffffffff021916908373ffffffffffffffffffffffffffffffffffffffff1602179055506020820151816001019080519060200190613567929190613a82565b50604082015181600201556060820151816003015560808201518160040160006101000a81548160ff0219169083151502179055509050506002600081548092919060010191905055505050505050565b606080826040519080825280602002602001820160405280156135f557816020015b6135e2613d27565b8152602001906001900390816135da5790505b509050600083600186030290506000848602905060008290505b8181101561378a57600d818154811061362457fe5b90600052602060002090600502016040518060a00160405290816000820160009054906101000a900473ffffffffffffffffffffffffffffffffffffffff1673ffffffffffffffffffffffffffffffffffffffff1673ffffffffffffffffffffffffffffffffffffffff168152602001600182018054600181600116156101000203166002900480601f01602080910402602001604051908101604052809291908181526020018280546001816001161561010002031660029004801561372c5780601f106137015761010080835404028352916020019161372c565b820191906000526020600020905b81548152906001019060200180831161370f57829003601f168201915b5050505050815260200160028201548152602001600382015481526020016004820160009054906101000a900460ff161515151581525050848483038151811061377257fe5b6020026020010181905250808060010191505061360f565b5082935050505092915050565b606080826040519080825280602002602001820160405280156137d457816020015b6137c1613d6e565b8152602001906001900390816137b95790505b509050600083600186030290506000848602905060008290505b8181101561392657600760008281526020019081526020016000206040518060a00160405290816000820160009054906101000a900473ffffffffffffffffffffffffffffffffffffffff1673ffffffffffffffffffffffffffffffffffffffff1673ffffffffffffffffffffffffffffffffffffffff1681526020016001820160009054906101000a900473ffffffffffffffffffffffffffffffffffffffff1673ffffffffffffffffffffffffffffffffffffffff1673ffffffffffffffffffffffffffffffffffffffff168152602001600282015481526020016003820160009054906101000a900460ff161515151581526020016003820160019054906101000a900460ff161515151581525050848483038151811061390e57fe5b602002602001018190525080806001019150506137ee565b5082935050505092915050565b604051806101600160405280600073ffffffffffffffffffffffffffffffffffffffff1681526020016060815260200160608152602001606081526020016000815260200160608152602001606081526020016000151581526020016000151581526020016000151581526020016000151581525090565b828054828255906000526020600020908101928215613a24579160200282015b82811115613a235782518260006101000a81548173ffffffffffffffffffffffffffffffffffffffff021916908373ffffffffffffffffffffffffffffffffffffffff160217905550916020019190600101906139cb565b5b509050613a319190613dcd565b5090565b828054828255906000526020600020908101928215613a71579160200282015b82811115613a70578251825591602001919060010190613a55565b5b509050613a7e9190613e10565b5090565b828054600181600116156101000203166002900490600052602060002090601f016020900481019282601f10613ac357805160ff1916838001178555613af1565b82800160010185558215613af1579182015b82811115613af0578251825591602001919060010190613ad5565b5b509050613afe9190613e35565b5090565b6040518060a00160405280600073ffffffffffffffffffffffffffffffffffffffff1681526020016060815260200160008152602001600081526020016000151581525090565b604051806101600160405280600073ffffffffffffffffffffffffffffffffffffffff1681526020016060815260200160608152602001606081526020016000815260200160608152602001606081526020016000151581526020016000151581526020016000151581526020016000151581525090565b6040518060a00160405280600073ffffffffffffffffffffffffffffffffffffffff168152602001600073ffffffffffffffffffffffffffffffffffffffff168152602001600081526020016000151581526020016000151581525090565b828054600181600116156101000203166002900490600052602060002090601f016020900481019282601f10613c6157805160ff1916838001178555613c8f565b82800160010185558215613c8f579182015b82811115613c8e578251825591602001919060010190613c73565b5b509050613c9c9190613e35565b5090565b828054600181600116156101000203166002900490600052602060002090601f016020900481019282601f10613cd95780548555613d16565b82800160010185558215613d1657600052602060002091601f016020900482015b82811115613d15578254825591600101919060010190613cfa565b5b509050613d239190613e35565b5090565b6040518060a00160405280600073ffffffffffffffffffffffffffffffffffffffff1681526020016060815260200160008152602001600081526020016000151581525090565b6040518060a00160405280600073ffffffffffffffffffffffffffffffffffffffff168152602001600073ffffffffffffffffffffffffffffffffffffffff168152602001600081526020016000151581526020016000151581525090565b613e0d91905b80821115613e0957600081816101000a81549073ffffffffffffffffffffffffffffffffffffffff021916905550600101613dd3565b5090565b90565b613e3291905b80821115613e2e576000816000905550600101613e16565b5090565b90565b613e5791905b80821115613e53576000816000905550600101613e3b565b5090565b90565b600081359050613e6981615074565b92915050565b600082601f830112613e8057600080fd5b8135613e93613e8e82614e18565b614deb565b91508181835260208401935060208101905083856020840282011115613eb857600080fd5b60005b83811015613ee85781613ece8882613e5a565b845260208401935060208301925050600181019050613ebb565b5050505092915050565b600082601f830112613f0357600080fd5b8135613f16613f1182614e40565b614deb565b91508181835260208401935060208101905083856020840282011115613f3b57600080fd5b60005b83811015613f6b5781613f518882613f8a565b845260208401935060208301925050600181019050613f3e565b5050505092915050565b600081359050613f848161508b565b92915050565b600081359050613f99816150a2565b92915050565b600082601f830112613fb057600080fd5b8135613fc3613fbe82614e68565b614deb565b91508082526020830160208301858383011115613fdf57600080fd5b613fea838284615021565b50505092915050565b600081359050614002816150b9565b92915050565b60006020828403121561401a57600080fd5b600061402884828501613e5a565b91505092915050565b600080600080600060a0868803121561404957600080fd5b600061405788828901613e5a565b955050602061406888828901613e5a565b945050604061407988828901613f8a565b935050606061408a88828901613f75565b925050608061409b88828901613f75565b9150509295509295909350565b600080600080600080600060e0888a0312156140c357600080fd5b60006140d18a828b01613e5a565b975050602088013567ffffffffffffffff8111156140ee57600080fd5b6140fa8a828b01613e6f565b965050604088013567ffffffffffffffff81111561411757600080fd5b6141238a828b01613ef2565b955050606088013567ffffffffffffffff81111561414057600080fd5b61414c8a828b01613e6f565b945050608061415d8a828b01613ff3565b93505060a088013567ffffffffffffffff81111561417a57600080fd5b6141868a828b01613f9f565b92505060c088013567ffffffffffffffff8111156141a357600080fd5b6141af8a828b01613f9f565b91505092959891949750929550565b600080604083850312156141d157600080fd5b60006141df85828601613e5a565b92505060206141f085828601613f8a565b9150509250929050565b6000806040838503121561420d57600080fd5b600061421b85828601613e5a565b925050602083013567ffffffffffffffff81111561423857600080fd5b61424485828601613f9f565b9150509250929050565b60008060006060848603121561426357600080fd5b600061427186828701613e5a565b935050602084013567ffffffffffffffff81111561428e57600080fd5b61429a86828701613f9f565b92505060406142ab86828701613f8a565b9150509250925092565b60008060008060008060008060006101208a8c0312156142d457600080fd5b60006142e28c828d01613e5a565b99505060206142f38c828d01613ff3565b98505060408a013567ffffffffffffffff81111561431057600080fd5b61431c8c828d01613e6f565b97505060608a013567ffffffffffffffff81111561433957600080fd5b6143458c828d01613ef2565b96505060808a013567ffffffffffffffff81111561436257600080fd5b61436e8c828d01613e6f565b95505060a061437f8c828d01613ff3565b94505060c08a013567ffffffffffffffff81111561439c57600080fd5b6143a88c828d01613f9f565b93505060e08a013567ffffffffffffffff8111156143c557600080fd5b6143d18c828d01613f9f565b9250506101006143e38c828d01613f75565b9150509295985092959850929598565b6000806000806080858703121561440957600080fd5b600061441787828801613e5a565b945050602061442887828801613ff3565b935050604061443987828801613f75565b925050606061444a87828801613f75565b91505092959194509250565b60006020828403121561446857600080fd5b600061447684828501613ff3565b91505092915050565b60008060008060008060c0878903121561449857600080fd5b60006144a689828a01613ff3565b96505060206144b789828a01613e5a565b95505060406144c889828a01613e5a565b94505060606144d989828a01613f8a565b93505060806144ea89828a01613f75565b92505060a06144fb89828a01613f75565b9150509295509295509295565b6000806040838503121561451b57600080fd5b600061452985828601613ff3565b925050602061453a85828601613ff3565b9150509250929050565b600061455083836145b4565b60208301905092915050565b600061456883836147d6565b60208301905092915050565b600061458083836149a3565b905092915050565b60006145948383614b24565b905092915050565b60006145a88383614c2f565b60a08301905092915050565b6145bd81614fcf565b82525050565b60006145ce82614ed5565b6145d88185614f58565b93506145e383614e94565b8060005b838110156146145781516145fb8882614544565b975061460683614f17565b9250506001810190506145e7565b5085935050505092915050565b600061462c82614ee0565b6146368185614f69565b935061464183614ea1565b8060005b83811015614672578151614659888261455c565b975061466483614f24565b925050600181019050614645565b5085935050505092915050565b600061468a82614eeb565b6146948185614f7a565b9350836020820285016146a685614eae565b8060005b858110156146e257848403895281516146c38582614574565b94506146ce83614f31565b925060208a019950506001810190506146aa565b50829750879550505050505092915050565b60006146ff82614ef6565b6147098185614f8b565b93508360208202850161471b85614ebb565b8060005b8581101561475757848403895281516147388582614588565b945061474383614f3e565b925060208a0199505060018101905061471f565b50829750879550505050505092915050565b600061477482614f01565b61477e8185614f9c565b935061478983614ec8565b8060005b838110156147ba5781516147a1888261459c565b97506147ac83614f4b565b92505060018101905061478d565b5085935050505092915050565b6147d081614fe1565b82525050565b6147df81614fed565b82525050565b6147ee81614fed565b82525050565b60006147ff82614f0c565b6148098185614fad565b9350614819818560208601615030565b61482281615063565b840191505092915050565b600061483a601983614fbe565b91507f436865636b2070617274792076616c6964617465206661696c000000000000006000830152602082019050919050565b600061487a601483614fbe565b91507f4d656d626572206973206e6f74206578697374730000000000000000000000006000830152602082019050919050565b60006148ba601083614fbe565b91507f4d656d62657220697320657869737473000000000000000000000000000000006000830152602082019050919050565b60006148fa601383614fbe565b91507f43616e6e6f7420757064617465207061727479000000000000000000000000006000830152602082019050919050565b600060a08301600083015161494560008601826145b4565b506020830151848203602086015261495d82826147f4565b915050604083015161497260408601826147d6565b5060608301516149856060860182614c97565b50608083015161499860808601826147c7565b508091505092915050565b600060a0830160008301516149bb60008601826145b4565b50602083015184820360208601526149d382826147f4565b91505060408301516149e860408601826147d6565b5060608301516149fb6060860182614c97565b506080830151614a0e60808601826147c7565b508091505092915050565b600061016083016000830151614a3260008601826145b4565b5060208301518482036020860152614a4a82826145c3565b91505060408301518482036040860152614a648282614621565b91505060608301518482036060860152614a7e82826145c3565b9150506080830151614a936080860182614c97565b5060a083015184820360a0860152614aab82826147f4565b91505060c083015184820360c0860152614ac582826147f4565b91505060e0830151614ada60e08601826147c7565b50610100830151614aef6101008601826147c7565b50610120830151614b046101208601826147c7565b50610140830151614b196101408601826147c7565b508091505092915050565b600061016083016000830151614b3d60008601826145b4565b5060208301518482036020860152614b5582826145c3565b91505060408301518482036040860152614b6f8282614621565b91505060608301518482036060860152614b8982826145c3565b9150506080830151614b9e6080860182614c97565b5060a083015184820360a0860152614bb682826147f4565b91505060c083015184820360c0860152614bd082826147f4565b91505060e0830151614be560e08601826147c7565b50610100830151614bfa6101008601826147c7565b50610120830151614c0f6101208601826147c7565b50610140830151614c246101408601826147c7565b508091505092915050565b60a082016000820151614c4560008501826145b4565b506020820151614c5860208501826145b4565b506040820151614c6b60408501826147d6565b506060820151614c7e60608501826147c7565b506080820151614c9160808501826147c7565b50505050565b614ca081615017565b82525050565b60006020820190508181036000830152614cc0818461467f565b905092915050565b60006020820190508181036000830152614ce281846146f4565b905092915050565b60006020820190508181036000830152614d048184614769565b905092915050565b6000602082019050614d2160008301846147e5565b92915050565b60006020820190508181036000830152614d408161482d565b9050919050565b60006020820190508181036000830152614d608161486d565b9050919050565b60006020820190508181036000830152614d80816148ad565b9050919050565b60006020820190508181036000830152614da0816148ed565b9050919050565b60006020820190508181036000830152614dc1818461492d565b905092915050565b60006020820190508181036000830152614de38184614a19565b905092915050565b6000604051905081810181811067ffffffffffffffff82111715614e0e57600080fd5b8060405250919050565b600067ffffffffffffffff821115614e2f57600080fd5b602082029050602081019050919050565b600067ffffffffffffffff821115614e5757600080fd5b602082029050602081019050919050565b600067ffffffffffffffff821115614e7f57600080fd5b601f19601f8301169050602081019050919050565b6000602082019050919050565b6000602082019050919050565b6000602082019050919050565b6000602082019050919050565b6000602082019050919050565b600081519050919050565b600081519050919050565b600081519050919050565b600081519050919050565b600081519050919050565b600081519050919050565b6000602082019050919050565b6000602082019050919050565b6000602082019050919050565b6000602082019050919050565b6000602082019050919050565b600082825260208201905092915050565b600082825260208201905092915050565b600082825260208201905092915050565b600082825260208201905092915050565b600082825260208201905092915050565b600082825260208201905092915050565b600082825260208201905092915050565b6000614fda82614ff7565b9050919050565b60008115159050919050565b6000819050919050565b600073ffffffffffffffffffffffffffffffffffffffff82169050919050565b6000819050919050565b82818337600083830152505050565b60005b8381101561504e578082015181840152602081019050615033565b8381111561505d576000848401525b50505050565b6000601f19601f8301169050919050565b61507d81614fcf565b811461508857600080fd5b50565b61509481614fe1565b811461509f57600080fd5b50565b6150ab81614fed565b81146150b657600080fd5b50565b6150c281615017565b81146150cd57600080fd5b5056fea265627a7a72305820ddf3bf95022b0a3dfc4a85d82c24efbd963a1e590b4868c9d52aaf1c503914cf6c6578706572696d656e74616cf50037",
  "source": "pragma solidity >=0.4.22 <0.6.0;\npragma experimental ABIEncoderV2;\ncontract BaseFunds {\n    address owner;\n    int256 totalFunds = 0;\n    uint countMember = 0;\n    uint countParty = 0;\n    uint countTransferHistory = 0;\n    struct Member{\n        address id;\n        string name;\n        int256 money;\n        uint256 index;\n        bool isValue;\n    }\n    struct Payer{\n        address member;\n        int256 money;\n    }\n    struct Party{\n        address creator;\n        address[] payerAddress;\n        int256[] payerMoney;\n        address[] members;\n        uint256 money;\n        string message;\n        string createdDate;\n        bool paySuccess;\n        bool reject;\n        bool requestReject;\n        bool isValue;\n    }\n    struct TransferHistory{\n        address sender;\n        address receiver;\n        int256 money;\n        bool isDeposit;\n        bool accept;\n    }\n    mapping(address=>Member) members;\n    mapping(uint256=>Party) parties;\n    mapping(uint256=>TransferHistory) transferHistories;\n    Member fundHost;\n    Member[] memberList;\n    Party[] partyList;\n    modifier memberNotExists(address _member) {\n        bool checkExists = members[_member].isValue;\n        require(\n            !checkExists,\n            \"Member is exists\"\n        );\n        _;\n    }\n    modifier memberExists(address _member) {\n        bool checkExists = members[_member].isValue;\n        require(\n            checkExists,\n            \"Member is not exists\"\n        );\n        _;\n    }\n    modifier partyValidate(address[] memory _payerAddress, int256[] memory _payerMoney) {\n        bool passValidate = true;\n        if(_payerAddress.length != _payerMoney.length){\n            passValidate = false;\n        }\n        for(uint256 i = 0; i < _payerAddress.length; i++){\n            passValidate = passValidate && members[_payerAddress[i]].isValue;\n        }\n        require(\n            passValidate,\n            \"Check party validate fail\"\n        );\n        _;\n    }\n    modifier onlyCreatorCanUpdateParty(uint256 _id, address _member) {\n        bool _canUpdate = true;\n        Party memory _party = parties[_id];\n        if(_party.reject || _party.paySuccess || !_party.isValue){\n            _canUpdate = false;\n        }\n        if(_party.creator != _member){\n            _canUpdate = false;\n        }\n        require(\n            !_canUpdate,\n            \"Cannot update party\"\n        );\n        _;\n    }\n    modifier onlyOwnerCanUpdateParty(uint256 _id, address _member) {\n        bool _canUpdate = true;\n        Party memory _party = parties[_id];\n        if(_party.reject || _party.paySuccess || !_party.isValue){\n            _canUpdate = false;\n        }\n        if(owner != _member){\n            _canUpdate = false;\n        }\n        require(\n            !_canUpdate,\n            \"Cannot update party\"\n        );\n        _;\n    }\n\n    function getTotalFund() public view returns (int256) {\n        return totalFunds;\n    }\n    function getFundHost() public view returns (Member memory) {\n        return fundHost;\n    }\n    function getMemberList(uint256 _page, uint256 _perPage) public view returns (Member[] memory) {\n        Member[] memory _memberList = new Member[](_perPage);\n        uint256 _fromIndex = (_page - 1) * _perPage;\n        uint256 _toIndex = _page * _perPage;\n        for(uint i = _fromIndex; i < _toIndex; i++) {\n            _memberList[i - _fromIndex] = memberList[i];\n        }\n        return _memberList;\n    }\n    function getMember(address _addr) public view returns (Member memory) {\n        return members[_addr];\n    }\n    function getPartyList(uint256 _page, uint256 _perPage) public view returns (Party[] memory) {\n        Party[] memory _partyList = new Party[](_perPage);\n        uint256 _fromIndex = (_page - 1) * _perPage;\n        uint256 _toIndex = _page * _perPage;\n        for(uint i = _fromIndex; i < _toIndex; i++) {\n            _partyList[i - _fromIndex] = parties[i];\n        }\n        return _partyList;\n    }\n    function getParty(uint256 _id) public view returns (Party memory) {\n        return parties[_id];\n    }\n    function getTransferHistoriyList(uint256 _page, uint256 _perPage) public view returns (TransferHistory[] memory){\n        TransferHistory[] memory _transferHistoryList = new TransferHistory[](_perPage);\n        uint256 _fromIndex = (_page - 1) * _perPage;\n        uint256 _toIndex = _page * _perPage;\n        for(uint i = _fromIndex; i < _toIndex; i++) {\n            _transferHistoryList[i - _fromIndex] = transferHistories[i];\n        }\n        return _transferHistoryList;\n    }\n    function addMember(address _sender, string memory _name) public memberNotExists(_sender){\n        Member memory member = Member(_sender, _name, 0, countMember, true);\n        memberList.push(member);\n        members[_sender] = member;\n        countMember++;\n    }\n    function updateMember(address _addr, string memory _name, int256 _money) public {\n        members[_addr].name = _name;\n        members[_addr].money = _money;\n        memberList[members[_addr].index] = members[_addr];\n    }\n    function updateMemberMoney(address _addr, int256 _money) public memberExists(_addr) {\n        members[_addr].money += _money;\n        memberList[members[_addr].index] = members[_addr];\n    }\n    function addParty(\n        address _sender, address[] memory _payerAddress, int256[] memory _payerMoney, address[] memory _members, uint256  _money, string memory  _message, string memory  _createdDate\n    ) public partyValidate(_payerAddress, _payerMoney) {\n        Party memory _party = Party(\n            _sender,\n            _payerAddress,\n            _payerMoney,\n            _members,\n            _money,\n            _message,\n            _createdDate,\n            false,\n            false,\n            false,\n            true\n        );\n        partyList.push(_party);\n        parties[countParty] = _party;\n        countParty++;\n    }\n    function updatePartyByCreator(\n        address _sender, uint256 _id, address[] memory _payerAddress, int256[] memory _payerMoney, address[] memory _members, uint256 _money, string memory _message, string memory _createdDate, bool _requestReject\n    ) public onlyCreatorCanUpdateParty(_id, _sender) {\n        Party memory _party = parties[_id];\n        _party.members = _members;\n        _party.payerAddress = _payerAddress;\n        _party.payerMoney = _payerMoney;\n        _party.money = _money;\n        _party.message = _message;\n        _party.createdDate = _createdDate;\n        _party.requestReject = _requestReject;\n        partyList[_id] = _party;\n        parties[_id] = _party;\n    }\n    function updatePartyByOwner(address _sender, uint256 _id, bool _paySuccess, bool _reject)\n    public onlyOwnerCanUpdateParty(_id, _sender) {\n        Party memory _party = parties[_id];\n        _party.paySuccess = _paySuccess;\n        _party.reject = _reject;\n        partyList[_id] = _party;\n        parties[_id] = _party;\n    }\n    function addTransferHistory(address _sender, address _receiver, int256 _money, bool _isDeposit, bool _accept) public {\n        transferHistories[countTransferHistory] = TransferHistory(_sender, _receiver, _money, _isDeposit, _accept);\n        countTransferHistory++;\n    }\n    function updateTransferHistory(uint256 _id, address _sender, address _receiver, int256 _money, bool _isDeposit, bool _accept) public {\n        TransferHistory memory _transferHistory = transferHistories[_id];\n        _transferHistory.sender = _sender;\n        _transferHistory.receiver = _receiver;\n        _transferHistory.money = _money;\n        _transferHistory.isDeposit = _isDeposit;\n        _transferHistory.accept = _accept;\n        transferHistories[_id] = _transferHistory;\n    }\n    function getAllMember() public view returns (Member[] memory) {\n        return memberList;\n    }\n}",
  "sourcePath": "/Users/phongdo/Documents/Project/ethereum-tutorial/PartyFunds/contracts/BaseFunds.sol",
  "compiler": {
    "name": "solc",
    "version": "0.5.8+commit.23d335f2.Emscripten.clang"
  },
  "schemaVersion": "3.0.16",
  "updatedAt": "2019-11-23T03:48:56.275Z",
  "devdoc": {
    "methods": {}
  },
  "userdoc": {
    "methods": {}
  }
}