{
  "contractName": "BaseFunds",
  "abi": [
    {
      "constant": true,
      "inputs": [],
      "name": "getTotalFund",
      "outputs": [
        {
          "name": "",
          "type": "uint256"
        }
      ],
      "payable": false,
      "stateMutability": "view",
      "type": "function"
    },
    {
      "constant": true,
      "inputs": [],
      "name": "getFundHost",
      "outputs": [
        {
          "components": [
            {
              "name": "id",
              "type": "address"
            },
            {
              "name": "name",
              "type": "string"
            },
            {
              "name": "money",
              "type": "uint256"
            },
            {
              "name": "isValue",
              "type": "bool"
            }
          ],
          "name": "",
          "type": "tuple"
        }
      ],
      "payable": false,
      "stateMutability": "view",
      "type": "function"
    },
    {
      "constant": true,
      "inputs": [],
      "name": "getMemberList",
      "outputs": [
        {
          "components": [
            {
              "name": "id",
              "type": "address"
            },
            {
              "name": "name",
              "type": "string"
            },
            {
              "name": "money",
              "type": "uint256"
            },
            {
              "name": "isValue",
              "type": "bool"
            }
          ],
          "name": "",
          "type": "tuple[]"
        }
      ],
      "payable": false,
      "stateMutability": "view",
      "type": "function"
    },
    {
      "constant": true,
      "inputs": [],
      "name": "getPartyList",
      "outputs": [
        {
          "components": [
            {
              "name": "creator",
              "type": "address"
            },
            {
              "name": "members",
              "type": "address[]"
            },
            {
              "name": "money",
              "type": "uint256"
            },
            {
              "name": "message",
              "type": "string"
            },
            {
              "name": "date",
              "type": "string"
            },
            {
              "name": "paySuccess",
              "type": "bool"
            },
            {
              "name": "isValue",
              "type": "bool"
            }
          ],
          "name": "",
          "type": "tuple[]"
        }
      ],
      "payable": false,
      "stateMutability": "view",
      "type": "function"
    },
    {
      "constant": true,
      "inputs": [],
      "name": "getTestCount",
      "outputs": [
        {
          "name": "",
          "type": "uint256"
        }
      ],
      "payable": false,
      "stateMutability": "view",
      "type": "function"
    },
    {
      "constant": false,
      "inputs": [
        {
          "components": [
            {
              "name": "id",
              "type": "address"
            },
            {
              "name": "name",
              "type": "string"
            },
            {
              "name": "money",
              "type": "uint256"
            },
            {
              "name": "isValue",
              "type": "bool"
            }
          ],
          "name": "member",
          "type": "tuple"
        }
      ],
      "name": "addMember",
      "outputs": [],
      "payable": false,
      "stateMutability": "nonpayable",
      "type": "function"
    },
    {
      "constant": false,
      "inputs": [
        {
          "components": [
            {
              "name": "creator",
              "type": "address"
            },
            {
              "name": "members",
              "type": "address[]"
            },
            {
              "name": "money",
              "type": "uint256"
            },
            {
              "name": "message",
              "type": "string"
            },
            {
              "name": "date",
              "type": "string"
            },
            {
              "name": "paySuccess",
              "type": "bool"
            },
            {
              "name": "isValue",
              "type": "bool"
            }
          ],
          "name": "party",
          "type": "tuple"
        }
      ],
      "name": "addParty",
      "outputs": [],
      "payable": false,
      "stateMutability": "nonpayable",
      "type": "function"
    },
    {
      "constant": false,
      "inputs": [
        {
          "name": "val",
          "type": "uint256"
        }
      ],
      "name": "setTestCount",
      "outputs": [],
      "payable": false,
      "stateMutability": "nonpayable",
      "type": "function"
    }
  ],
  "bytecode": "0x6080604052600060015560006002556000600355600060045534801561002457600080fd5b50611629806100346000396000f3fe608060405234801561001057600080fd5b50600436106100875760003560e01c80635f5d5f001161005b5780635f5d5f0014610100578063879f58261461011e5780639fd813e31461013c578063ea4fbaf61461015a57610087565b80620a64441461008c5780630853ad8a146100a857806318895842146100c65780633c0e6b15146100e4575b600080fd5b6100a660048036036100a19190810190610fb9565b610176565b005b6100b0610189565b6040516100bd91906113b5565b60405180910390f35b6100ce610193565b6040516100db9190611393565b60405180910390f35b6100fe60048036036100f99190810190610f78565b6102ca565b005b6101086104f9565b604051610115919061134f565b60405180910390f35b610126610675565b6040516101339190611371565b60405180910390f35b61014461093c565b60405161015191906113b5565b60405180910390f35b610174600480360361016f9190810190610f37565b610946565b005b8060046000828254019250508190555050565b6000600454905090565b61019b610aeb565b60076040518060800160405290816000820160009054906101000a900473ffffffffffffffffffffffffffffffffffffffff1673ffffffffffffffffffffffffffffffffffffffff1673ffffffffffffffffffffffffffffffffffffffff168152602001600182018054600181600116156101000203166002900480601f0160208091040260200160405190810160405280929190818152602001828054600181600116156101000203166002900480156102975780601f1061026c57610100808354040283529160200191610297565b820191906000526020600020905b81548152906001019060200180831161027a57829003601f168201915b50505050508152602001600282015481526020016003820160009054906101000a900460ff161515151581525050905090565b600c819080600181540180825580915050906001820390600052602060002090600602016000909192909190915060008201518160000160006101000a81548173ffffffffffffffffffffffffffffffffffffffff021916908373ffffffffffffffffffffffffffffffffffffffff160217905550602082015181600101908051906020019061035b929190610b2b565b50604082015181600201556060820151816003019080519060200190610382929190610bb5565b50608082015181600401908051906020019061039f929190610bb5565b5060a08201518160050160006101000a81548160ff02191690831515021790555060c08201518160050160016101000a81548160ff0219169083151502179055505050508060066000600354815260200190815260200160002060008201518160000160006101000a81548173ffffffffffffffffffffffffffffffffffffffff021916908373ffffffffffffffffffffffffffffffffffffffff160217905550602082015181600101908051906020019061045c929190610b2b565b50604082015181600201556060820151816003019080519060200190610483929190610bb5565b5060808201518160040190805190602001906104a0929190610bb5565b5060a08201518160050160006101000a81548160ff02191690831515021790555060c08201518160050160016101000a81548160ff02191690831515021790555090505060036000815480929190600101919050555050565b6060600b805480602002602001604051908101604052809291908181526020016000905b8282101561066c57838290600052602060002090600402016040518060800160405290816000820160009054906101000a900473ffffffffffffffffffffffffffffffffffffffff1673ffffffffffffffffffffffffffffffffffffffff1673ffffffffffffffffffffffffffffffffffffffff168152602001600182018054600181600116156101000203166002900480601f01602080910402602001604051908101604052809291908181526020018280546001816001161561010002031660029004801561062f5780601f106106045761010080835404028352916020019161062f565b820191906000526020600020905b81548152906001019060200180831161061257829003601f168201915b50505050508152602001600282015481526020016003820160009054906101000a900460ff1615151515815250508152602001906001019061051d565b50505050905090565b6060600c805480602002602001604051908101604052809291908181526020016000905b8282101561093357838290600052602060002090600602016040518060e00160405290816000820160009054906101000a900473ffffffffffffffffffffffffffffffffffffffff1673ffffffffffffffffffffffffffffffffffffffff1673ffffffffffffffffffffffffffffffffffffffff1681526020016001820180548060200260200160405190810160405280929190818152602001828054801561079757602002820191906000526020600020905b8160009054906101000a900473ffffffffffffffffffffffffffffffffffffffff1673ffffffffffffffffffffffffffffffffffffffff168152602001906001019080831161074d575b5050505050815260200160028201548152602001600382018054600181600116156101000203166002900480601f0160208091040260200160405190810160405280929190818152602001828054600181600116156101000203166002900480156108435780601f1061081857610100808354040283529160200191610843565b820191906000526020600020905b81548152906001019060200180831161082657829003601f168201915b50505050508152602001600482018054600181600116156101000203166002900480601f0160208091040260200160405190810160405280929190818152602001828054600181600116156101000203166002900480156108e55780601f106108ba576101008083540402835291602001916108e5565b820191906000526020600020905b8154815290600101906020018083116108c857829003601f168201915b505050505081526020016005820160009054906101000a900460ff161515151581526020016005820160019054906101000a900460ff16151515158152505081526020019060010190610699565b50505050905090565b6000600154905090565b600b819080600181540180825580915050906001820390600052602060002090600402016000909192909190915060008201518160000160006101000a81548173ffffffffffffffffffffffffffffffffffffffff021916908373ffffffffffffffffffffffffffffffffffffffff16021790555060208201518160010190805190602001906109d7929190610bb5565b506040820151816002015560608201518160030160006101000a81548160ff02191690831515021790555050505080600560003373ffffffffffffffffffffffffffffffffffffffff1673ffffffffffffffffffffffffffffffffffffffff16815260200190815260200160002060008201518160000160006101000a81548173ffffffffffffffffffffffffffffffffffffffff021916908373ffffffffffffffffffffffffffffffffffffffff1602179055506020820151816001019080519060200190610aa8929190610bb5565b506040820151816002015560608201518160030160006101000a81548160ff02191690831515021790555090505060026000815480929190600101919050555050565b6040518060800160405280600073ffffffffffffffffffffffffffffffffffffffff16815260200160608152602001600081526020016000151581525090565b828054828255906000526020600020908101928215610ba4579160200282015b82811115610ba35782518260006101000a81548173ffffffffffffffffffffffffffffffffffffffff021916908373ffffffffffffffffffffffffffffffffffffffff16021790555091602001919060010190610b4b565b5b509050610bb19190610c35565b5090565b828054600181600116156101000203166002900490600052602060002090601f016020900481019282601f10610bf657805160ff1916838001178555610c24565b82800160010185558215610c24579182015b82811115610c23578251825591602001919060010190610c08565b5b509050610c319190610c78565b5090565b610c7591905b80821115610c7157600081816101000a81549073ffffffffffffffffffffffffffffffffffffffff021916905550600101610c3b565b5090565b90565b610c9a91905b80821115610c96576000816000905550600101610c7e565b5090565b90565b600081359050610cac816115aa565b92915050565b600082601f830112610cc357600080fd5b8135610cd6610cd1826113fd565b6113d0565b91508181835260208401935060208101905083856020840282011115610cfb57600080fd5b60005b83811015610d2b5781610d118882610c9d565b845260208401935060208301925050600181019050610cfe565b5050505092915050565b600081359050610d44816115c1565b92915050565b600082601f830112610d5b57600080fd5b8135610d6e610d6982611425565b6113d0565b91508082526020830160208301858383011115610d8a57600080fd5b610d95838284611557565b50505092915050565b600060808284031215610db057600080fd5b610dba60806113d0565b90506000610dca84828501610c9d565b600083015250602082013567ffffffffffffffff811115610dea57600080fd5b610df684828501610d4a565b6020830152506040610e0a84828501610f22565b6040830152506060610e1e84828501610d35565b60608301525092915050565b600060e08284031215610e3c57600080fd5b610e4660e06113d0565b90506000610e5684828501610c9d565b600083015250602082013567ffffffffffffffff811115610e7657600080fd5b610e8284828501610cb2565b6020830152506040610e9684828501610f22565b604083015250606082013567ffffffffffffffff811115610eb657600080fd5b610ec284828501610d4a565b606083015250608082013567ffffffffffffffff811115610ee257600080fd5b610eee84828501610d4a565b60808301525060a0610f0284828501610d35565b60a08301525060c0610f1684828501610d35565b60c08301525092915050565b600081359050610f31816115d8565b92915050565b600060208284031215610f4957600080fd5b600082013567ffffffffffffffff811115610f6357600080fd5b610f6f84828501610d9e565b91505092915050565b600060208284031215610f8a57600080fd5b600082013567ffffffffffffffff811115610fa457600080fd5b610fb084828501610e2a565b91505092915050565b600060208284031215610fcb57600080fd5b6000610fd984828501610f22565b91505092915050565b6000610fee8383611022565b60208301905092915050565b60006110068383611224565b905092915050565b600061101a8383611287565b905092915050565b61102b8161150f565b82525050565b600061103c82611478565b61104681856114cb565b935061105183611451565b8060005b838110156110825781516110698882610fe2565b9750611074836114a4565b925050600181019050611055565b5085935050505092915050565b600061109a82611483565b6110a481856114dc565b9350836020820285016110b68561145e565b8060005b858110156110f257848403895281516110d38582610ffa565b94506110de836114b1565b925060208a019950506001810190506110ba565b50829750879550505050505092915050565b600061110f8261148e565b61111981856114ed565b93508360208202850161112b8561146b565b8060005b858110156111675784840389528151611148858261100e565b9450611153836114be565b925060208a0199505060018101905061112f565b50829750879550505050505092915050565b61118281611521565b82525050565b600061119382611499565b61119d81856114fe565b93506111ad818560208601611566565b6111b681611599565b840191505092915050565b60006080830160008301516111d96000860182611022565b50602083015184820360208601526111f18282611188565b91505060408301516112066040860182611331565b5060608301516112196060860182611179565b508091505092915050565b600060808301600083015161123c6000860182611022565b50602083015184820360208601526112548282611188565b91505060408301516112696040860182611331565b50606083015161127c6060860182611179565b508091505092915050565b600060e08301600083015161129f6000860182611022565b50602083015184820360208601526112b78282611031565b91505060408301516112cc6040860182611331565b50606083015184820360608601526112e48282611188565b915050608083015184820360808601526112fe8282611188565b91505060a083015161131360a0860182611179565b5060c083015161132660c0860182611179565b508091505092915050565b61133a8161154d565b82525050565b6113498161154d565b82525050565b60006020820190508181036000830152611369818461108f565b905092915050565b6000602082019050818103600083015261138b8184611104565b905092915050565b600060208201905081810360008301526113ad81846111c1565b905092915050565b60006020820190506113ca6000830184611340565b92915050565b6000604051905081810181811067ffffffffffffffff821117156113f357600080fd5b8060405250919050565b600067ffffffffffffffff82111561141457600080fd5b602082029050602081019050919050565b600067ffffffffffffffff82111561143c57600080fd5b601f19601f8301169050602081019050919050565b6000602082019050919050565b6000602082019050919050565b6000602082019050919050565b600081519050919050565b600081519050919050565b600081519050919050565b600081519050919050565b6000602082019050919050565b6000602082019050919050565b6000602082019050919050565b600082825260208201905092915050565b600082825260208201905092915050565b600082825260208201905092915050565b600082825260208201905092915050565b600061151a8261152d565b9050919050565b60008115159050919050565b600073ffffffffffffffffffffffffffffffffffffffff82169050919050565b6000819050919050565b82818337600083830152505050565b60005b83811015611584578082015181840152602081019050611569565b83811115611593576000848401525b50505050565b6000601f19601f8301169050919050565b6115b38161150f565b81146115be57600080fd5b50565b6115ca81611521565b81146115d557600080fd5b50565b6115e18161154d565b81146115ec57600080fd5b5056fea265627a7a72305820944a292db576d176607e50e1cc51af4d1c7c555b4efe5a7e7eca74f76cbd6c0b6c6578706572696d656e74616cf50037",
  "source": "pragma solidity >=0.4.22 <0.6.0;\r\npragma experimental ABIEncoderV2;\r\ncontract BaseFunds {\r\n    address owner;\r\n    uint256 totalFunds = 0;\r\n    uint countMember = 0;\r\n    uint countParty = 0;\r\n    uint testCount = 0;\r\n    struct Member{\r\n        address id;\r\n        string name;\r\n        uint256 money;\r\n        bool isValue;\r\n    }\r\n    struct Party{\r\n        address creator;\r\n        address[] members;\r\n        uint256 money;\r\n        string message;\r\n        string date;\r\n        bool paySuccess;\r\n        bool isValue;\r\n    }\r\n    mapping(address=>Member) members;\r\n    mapping(uint=>Party) parties;\r\n    Member fundHost;\r\n    Member[] memberList;\r\n    Party[] partyList;\r\n\r\n    function getTotalFund() public view returns (uint256) {\r\n        return totalFunds;\r\n    }\r\n    function getFundHost() public view returns (Member memory) {\r\n        return fundHost;\r\n    }\r\n    function getMemberList() public view returns (Member[] memory) {\r\n        return memberList;\r\n    }\r\n    function getPartyList() public view returns (Party[] memory) {\r\n        return partyList;\r\n    }\r\n    function getTestCount() public view returns (uint) {\r\n        return testCount;\r\n    }\r\n    function addMember(Member memory member) public{\r\n        memberList.push(member);\r\n        members[msg.sender] = member;\r\n        countMember++;\r\n    }\r\n    function addParty(Party memory party) public{\r\n        partyList.push(party);\r\n        parties[countParty] = party;\r\n        countParty++;\r\n    }\r\n\r\n    function setTestCount(uint val) public {\r\n        testCount += val;\r\n    }\r\n}",
  "sourcePath": "C:\\Users\\phongdt\\Documents\\projects\\Test\\PartyFunds\\contracts\\BaseFunds.sol",
  "compiler": {
    "name": "solc",
    "version": "0.5.8+commit.23d335f2.Emscripten.clang"
  },
  "schemaVersion": "3.0.16",
  "updatedAt": "2019-11-13T04:25:53.811Z",
  "devdoc": {
    "methods": {}
  },
  "userdoc": {
    "methods": {}
  }
}