{
  "contractName": "Funds",
  "abi": [
    {
      "constant": false,
      "inputs": [
        {
          "name": "_sender",
          "type": "address"
        },
        {
          "name": "_id",
          "type": "uint256"
        },
        {
          "name": "_paySuccess",
          "type": "bool"
        },
        {
          "name": "_reject",
          "type": "bool"
        }
      ],
      "name": "updatePartyByOwner",
      "outputs": [],
      "payable": false,
      "stateMutability": "nonpayable",
      "type": "function"
    },
    {
      "constant": false,
      "inputs": [
        {
          "name": "_sender",
          "type": "address"
        },
        {
          "name": "_payerAddress",
          "type": "address[]"
        },
        {
          "name": "_payerMoney",
          "type": "int256[]"
        },
        {
          "name": "_members",
          "type": "address[]"
        },
        {
          "name": "_money",
          "type": "uint256"
        },
        {
          "name": "_message",
          "type": "string"
        },
        {
          "name": "_createdDate",
          "type": "string"
        }
      ],
      "name": "addParty",
      "outputs": [],
      "payable": false,
      "stateMutability": "nonpayable",
      "type": "function"
    },
    {
      "constant": false,
      "inputs": [
        {
          "name": "_sender",
          "type": "address"
        },
        {
          "name": "_receiver",
          "type": "address"
        },
        {
          "name": "_money",
          "type": "int256"
        },
        {
          "name": "_isDeposit",
          "type": "bool"
        },
        {
          "name": "_accept",
          "type": "bool"
        }
      ],
      "name": "addTransferHistory",
      "outputs": [],
      "payable": false,
      "stateMutability": "nonpayable",
      "type": "function"
    },
    {
      "constant": true,
      "inputs": [],
      "name": "getAllMember",
      "outputs": [
        {
          "components": [
            {
              "name": "id",
              "type": "address"
            },
            {
              "name": "name",
              "type": "string"
            },
            {
              "name": "money",
              "type": "int256"
            },
            {
              "name": "index",
              "type": "uint256"
            },
            {
              "name": "isValue",
              "type": "bool"
            }
          ],
          "name": "",
          "type": "tuple[]"
        }
      ],
      "payable": false,
      "stateMutability": "view",
      "type": "function"
    },
    {
      "constant": false,
      "inputs": [
        {
          "name": "_id",
          "type": "uint256"
        },
        {
          "name": "_sender",
          "type": "address"
        },
        {
          "name": "_receiver",
          "type": "address"
        },
        {
          "name": "_money",
          "type": "int256"
        },
        {
          "name": "_isDeposit",
          "type": "bool"
        },
        {
          "name": "_accept",
          "type": "bool"
        }
      ],
      "name": "updateTransferHistory",
      "outputs": [],
      "payable": false,
      "stateMutability": "nonpayable",
      "type": "function"
    },
    {
      "constant": false,
      "inputs": [
        {
          "name": "_sender",
          "type": "address"
        },
        {
          "name": "_id",
          "type": "uint256"
        },
        {
          "name": "_payerAddress",
          "type": "address[]"
        },
        {
          "name": "_payerMoney",
          "type": "int256[]"
        },
        {
          "name": "_members",
          "type": "address[]"
        },
        {
          "name": "_money",
          "type": "uint256"
        },
        {
          "name": "_message",
          "type": "string"
        },
        {
          "name": "_createdDate",
          "type": "string"
        },
        {
          "name": "_requestReject",
          "type": "bool"
        }
      ],
      "name": "updatePartyByCreator",
      "outputs": [],
      "payable": false,
      "stateMutability": "nonpayable",
      "type": "function"
    },
    {
      "constant": false,
      "inputs": [
        {
          "name": "_addr",
          "type": "address"
        },
        {
          "name": "_name",
          "type": "string"
        },
        {
          "name": "_money",
          "type": "int256"
        }
      ],
      "name": "updateMember",
      "outputs": [],
      "payable": false,
      "stateMutability": "nonpayable",
      "type": "function"
    },
    {
      "constant": false,
      "inputs": [
        {
          "name": "_addr",
          "type": "address"
        },
        {
          "name": "_money",
          "type": "int256"
        }
      ],
      "name": "updateMemberMoney",
      "outputs": [],
      "payable": false,
      "stateMutability": "nonpayable",
      "type": "function"
    },
    {
      "constant": true,
      "inputs": [
        {
          "name": "_id",
          "type": "uint256"
        }
      ],
      "name": "getParty",
      "outputs": [
        {
          "components": [
            {
              "name": "creator",
              "type": "address"
            },
            {
              "name": "payerAddress",
              "type": "address[]"
            },
            {
              "name": "payerMoney",
              "type": "int256[]"
            },
            {
              "name": "members",
              "type": "address[]"
            },
            {
              "name": "money",
              "type": "uint256"
            },
            {
              "name": "message",
              "type": "string"
            },
            {
              "name": "createdDate",
              "type": "string"
            },
            {
              "name": "paySuccess",
              "type": "bool"
            },
            {
              "name": "reject",
              "type": "bool"
            },
            {
              "name": "requestReject",
              "type": "bool"
            },
            {
              "name": "isValue",
              "type": "bool"
            }
          ],
          "name": "",
          "type": "tuple"
        }
      ],
      "payable": false,
      "stateMutability": "view",
      "type": "function"
    },
    {
      "constant": false,
      "inputs": [
        {
          "name": "_sender",
          "type": "address"
        },
        {
          "name": "_name",
          "type": "string"
        }
      ],
      "name": "addMember",
      "outputs": [],
      "payable": false,
      "stateMutability": "nonpayable",
      "type": "function"
    },
    {
      "constant": true,
      "inputs": [
        {
          "name": "_page",
          "type": "uint256"
        },
        {
          "name": "_perPage",
          "type": "uint256"
        }
      ],
      "name": "getTransferHistoriyList",
      "outputs": [
        {
          "components": [
            {
              "name": "sender",
              "type": "address"
            },
            {
              "name": "receiver",
              "type": "address"
            },
            {
              "name": "money",
              "type": "int256"
            },
            {
              "name": "isDeposit",
              "type": "bool"
            },
            {
              "name": "accept",
              "type": "bool"
            }
          ],
          "name": "",
          "type": "tuple[]"
        }
      ],
      "payable": false,
      "stateMutability": "view",
      "type": "function"
    },
    {
      "inputs": [],
      "payable": false,
      "stateMutability": "nonpayable",
      "type": "constructor"
    },
    {
      "constant": false,
      "inputs": [
        {
          "name": "addr",
          "type": "address"
        }
      ],
      "name": "setBaseFundAddress",
      "outputs": [],
      "payable": false,
      "stateMutability": "nonpayable",
      "type": "function"
    },
    {
      "constant": false,
      "inputs": [
        {
          "name": "_name",
          "type": "string"
        }
      ],
      "name": "newMember",
      "outputs": [],
      "payable": true,
      "stateMutability": "payable",
      "type": "function"
    },
    {
      "constant": false,
      "inputs": [
        {
          "name": "_receiver",
          "type": "address"
        },
        {
          "name": "_money",
          "type": "int256"
        }
      ],
      "name": "transferMoney",
      "outputs": [],
      "payable": false,
      "stateMutability": "nonpayable",
      "type": "function"
    },
    {
      "constant": false,
      "inputs": [
        {
          "name": "_payerAddress",
          "type": "address[]"
        },
        {
          "name": "_payerMoney",
          "type": "int256[]"
        },
        {
          "name": "_members",
          "type": "address[]"
        },
        {
          "name": "_money",
          "type": "uint256"
        },
        {
          "name": "_message",
          "type": "string"
        },
        {
          "name": "_createdDate",
          "type": "string"
        }
      ],
      "name": "newParty",
      "outputs": [],
      "payable": true,
      "stateMutability": "payable",
      "type": "function"
    },
    {
      "constant": false,
      "inputs": [
        {
          "name": "_id",
          "type": "uint256"
        }
      ],
      "name": "requestRejectParty",
      "outputs": [],
      "payable": false,
      "stateMutability": "nonpayable",
      "type": "function"
    },
    {
      "constant": false,
      "inputs": [
        {
          "name": "_id",
          "type": "uint256"
        }
      ],
      "name": "rejectParty",
      "outputs": [],
      "payable": false,
      "stateMutability": "nonpayable",
      "type": "function"
    },
    {
      "constant": false,
      "inputs": [
        {
          "name": "_id",
          "type": "uint256"
        }
      ],
      "name": "acceptParty",
      "outputs": [],
      "payable": false,
      "stateMutability": "nonpayable",
      "type": "function"
    },
    {
      "constant": true,
      "inputs": [
        {
          "name": "_id",
          "type": "uint256"
        }
      ],
      "name": "getPartySharedCost",
      "outputs": [
        {
          "name": "",
          "type": "uint256"
        }
      ],
      "payable": false,
      "stateMutability": "view",
      "type": "function"
    },
    {
      "constant": true,
      "inputs": [],
      "name": "getTotalFund",
      "outputs": [
        {
          "name": "",
          "type": "int256"
        }
      ],
      "payable": false,
      "stateMutability": "view",
      "type": "function"
    },
    {
      "constant": true,
      "inputs": [],
      "name": "getFundHost",
      "outputs": [
        {
          "components": [
            {
              "name": "id",
              "type": "address"
            },
            {
              "name": "name",
              "type": "string"
            },
            {
              "name": "money",
              "type": "int256"
            },
            {
              "name": "index",
              "type": "uint256"
            },
            {
              "name": "isValue",
              "type": "bool"
            }
          ],
          "name": "",
          "type": "tuple"
        }
      ],
      "payable": false,
      "stateMutability": "view",
      "type": "function"
    },
    {
      "constant": true,
      "inputs": [
        {
          "name": "_page",
          "type": "uint256"
        },
        {
          "name": "_perPage",
          "type": "uint256"
        }
      ],
      "name": "getMemberList",
      "outputs": [
        {
          "components": [
            {
              "name": "id",
              "type": "address"
            },
            {
              "name": "name",
              "type": "string"
            },
            {
              "name": "money",
              "type": "int256"
            },
            {
              "name": "index",
              "type": "uint256"
            },
            {
              "name": "isValue",
              "type": "bool"
            }
          ],
          "name": "",
          "type": "tuple[]"
        }
      ],
      "payable": false,
      "stateMutability": "view",
      "type": "function"
    },
    {
      "constant": true,
      "inputs": [
        {
          "name": "addr",
          "type": "address"
        }
      ],
      "name": "getMember",
      "outputs": [
        {
          "components": [
            {
              "name": "id",
              "type": "address"
            },
            {
              "name": "name",
              "type": "string"
            },
            {
              "name": "money",
              "type": "int256"
            },
            {
              "name": "index",
              "type": "uint256"
            },
            {
              "name": "isValue",
              "type": "bool"
            }
          ],
          "name": "",
          "type": "tuple"
        }
      ],
      "payable": false,
      "stateMutability": "view",
      "type": "function"
    },
    {
      "constant": true,
      "inputs": [
        {
          "name": "_page",
          "type": "uint256"
        },
        {
          "name": "_perPage",
          "type": "uint256"
        }
      ],
      "name": "getPartyList",
      "outputs": [
        {
          "components": [
            {
              "name": "creator",
              "type": "address"
            },
            {
              "name": "payerAddress",
              "type": "address[]"
            },
            {
              "name": "payerMoney",
              "type": "int256[]"
            },
            {
              "name": "members",
              "type": "address[]"
            },
            {
              "name": "money",
              "type": "uint256"
            },
            {
              "name": "message",
              "type": "string"
            },
            {
              "name": "createdDate",
              "type": "string"
            },
            {
              "name": "paySuccess",
              "type": "bool"
            },
            {
              "name": "reject",
              "type": "bool"
            },
            {
              "name": "requestReject",
              "type": "bool"
            },
            {
              "name": "isValue",
              "type": "bool"
            }
          ],
          "name": "",
          "type": "tuple[]"
        }
      ],
      "payable": false,
      "stateMutability": "view",
      "type": "function"
    }
  ],
  "bytecode": "0x6080604052600060015560006002556000600355600060045534801561002457600080fd5b5033600f60006101000a81548173ffffffffffffffffffffffffffffffffffffffff021916908373ffffffffffffffffffffffffffffffffffffffff1602179055506165aa80620000766000396000f3fe60806040526004361061014b5760003560e01c806387449700116100b6578063c127c2471161006f578063c127c2471461045a578063ca0aac3814610483578063f6aaab6b146104ac578063fca462b4146104d5578063fed8f8f614610512578063feec67d31461054f5761014b565b8063874497001461034e578063880897dd1461037757806393aa6453146103a057806394758218146103c957806396d02049146104065780639fd813e31461042f5761014b565b80632ada2596116101085780632ada25961461023b578063304655d3146102785780633422ac1b146102a35780633d8e74d7146102e05780634baba3b1146102fc578063520d268e146103255761014b565b8063090c636d14610150578063118e435c1461017957806318895842146101a25780632379d47f146101cd57806327dcdb0f146101f65780632851198c14610212575b600080fd5b34801561015c57600080fd5b5061017760048036036101729190810190614fca565b61058c565b005b34801561018557600080fd5b506101a0600480360361019b9190810190614c7f565b6110de565b005b3480156101ae57600080fd5b506101b761156a565b6040516101c4919061608a565b60405180910390f35b3480156101d957600080fd5b506101f460048036036101ef919081019061529c565b61161c565b005b610210600480360361020b919081019061502d565b6117a6565b005b34801561021e57600080fd5b5061023960048036036102349190810190614c08565b611847565b005b34801561024757600080fd5b50610262600480360361025d9190810190614bdf565b6119a7565b60405161026f919061608a565b60405180910390f35b34801561028457600080fd5b5061028d611a66565b60405161029a9190615f89565b60405180910390f35b3480156102af57600080fd5b506102ca60048036036102c5919081019061534e565b611bec565b6040516102d79190615fab565b60405180910390f35b6102fa60048036036102f591908101906151d9565b611ca8565b005b34801561030857600080fd5b50610323600480360361031e91908101906152c5565b611d3a565b005b34801561033157600080fd5b5061034c60048036036103479190810190614e8c565b611fe0565b005b34801561035a57600080fd5b5061037560048036036103709190810190614e25565b612b41565b005b34801561038357600080fd5b5061039e6004803603610399919081019061529c565b612d53565b005b3480156103ac57600080fd5b506103c760048036036103c29190810190614d95565b612deb565b005b3480156103d557600080fd5b506103f060048036036103eb919081019061529c565b613045565b6040516103fd91906160ac565b60405180910390f35b34801561041257600080fd5b5061042d60048036036104289190810190614bdf565b6133f7565b005b34801561043b57600080fd5b5061044461347c565b6040516104519190615fef565b60405180910390f35b34801561046657600080fd5b50610481600480360361047c9190810190614dd1565b613523565b005b34801561048f57600080fd5b506104aa60048036036104a59190810190614d95565b6137c3565b005b3480156104b857600080fd5b506104d360048036036104ce919081019061529c565b61397f565b005b3480156104e157600080fd5b506104fc60048036036104f7919081019061529c565b613bbe565b60405161050991906160ce565b60405180910390f35b34801561051e57600080fd5b506105396004803603610534919081019061534e565b613c9b565b6040516105469190615f89565b60405180910390f35b34801561055b57600080fd5b506105766004803603610571919081019061534e565b613d57565b6040516105839190615fcd565b60405180910390f35b828460006001905061059c613ef3565b60066000858152602001908152602001600020604051806101600160405290816000820160009054906101000a900473ffffffffffffffffffffffffffffffffffffffff1673ffffffffffffffffffffffffffffffffffffffff1673ffffffffffffffffffffffffffffffffffffffff1681526020016001820180548060200260200160405190810160405280929190818152602001828054801561069657602002820191906000526020600020905b8160009054906101000a900473ffffffffffffffffffffffffffffffffffffffff1673ffffffffffffffffffffffffffffffffffffffff168152602001906001019080831161064c575b50505050508152602001600282018054806020026020016040519081016040528092919081815260200182805480156106ee57602002820191906000526020600020905b8154815260200190600101908083116106da575b505050505081526020016003820180548060200260200160405190810160405280929190818152602001828054801561077c57602002820191906000526020600020905b8160009054906101000a900473ffffffffffffffffffffffffffffffffffffffff1673ffffffffffffffffffffffffffffffffffffffff1681526020019060010190808311610732575b5050505050815260200160048201548152602001600582018054600181600116156101000203166002900480601f0160208091040260200160405190810160405280929190818152602001828054600181600116156101000203166002900480156108285780601f106107fd57610100808354040283529160200191610828565b820191906000526020600020905b81548152906001019060200180831161080b57829003601f168201915b50505050508152602001600682018054600181600116156101000203166002900480601f0160208091040260200160405190810160405280929190818152602001828054600181600116156101000203166002900480156108ca5780601f1061089f576101008083540402835291602001916108ca565b820191906000526020600020905b8154815290600101906020018083116108ad57829003601f168201915b505050505081526020016007820160009054906101000a900460ff161515151581526020016007820160019054906101000a900460ff161515151581526020016007820160029054906101000a900460ff161515151581526020016007820160039054906101000a900460ff16151515158152505090508061010001518061095357508060e001515b806109615750806101400151155b1561096b57600091505b8273ffffffffffffffffffffffffffffffffffffffff166000809054906101000a900473ffffffffffffffffffffffffffffffffffffffff1673ffffffffffffffffffffffffffffffffffffffff16146109c457600091505b8115610a05576040517f08c379a00000000000000000000000000000000000000000000000000000000081526004016109fc9061606a565b60405180910390fd5b610a0d613ef3565b60066000898152602001908152602001600020604051806101600160405290816000820160009054906101000a900473ffffffffffffffffffffffffffffffffffffffff1673ffffffffffffffffffffffffffffffffffffffff1673ffffffffffffffffffffffffffffffffffffffff16815260200160018201805480602002602001604051908101604052809291908181526020018280548015610b0757602002820191906000526020600020905b8160009054906101000a900473ffffffffffffffffffffffffffffffffffffffff1673ffffffffffffffffffffffffffffffffffffffff1681526020019060010190808311610abd575b5050505050815260200160028201805480602002602001604051908101604052809291908181526020018280548015610b5f57602002820191906000526020600020905b815481526020019060010190808311610b4b575b5050505050815260200160038201805480602002602001604051908101604052809291908181526020018280548015610bed57602002820191906000526020600020905b8160009054906101000a900473ffffffffffffffffffffffffffffffffffffffff1673ffffffffffffffffffffffffffffffffffffffff1681526020019060010190808311610ba3575b5050505050815260200160048201548152602001600582018054600181600116156101000203166002900480601f016020809104026020016040519081016040528092919081815260200182805460018160011615610100020316600290048015610c995780601f10610c6e57610100808354040283529160200191610c99565b820191906000526020600020905b815481529060010190602001808311610c7c57829003601f168201915b50505050508152602001600682018054600181600116156101000203166002900480601f016020809104026020016040519081016040528092919081815260200182805460018160011615610100020316600290048015610d3b5780601f10610d1057610100808354040283529160200191610d3b565b820191906000526020600020905b815481529060010190602001808311610d1e57829003601f168201915b505050505081526020016007820160009054906101000a900460ff161515151581526020016007820160019054906101000a900460ff161515151581526020016007820160029054906101000a900460ff161515151581526020016007820160039054906101000a900460ff1615151515815250509050868160e0019015159081151581525050858161010001901515908115158152505080600e8981548110610de157fe5b906000526020600020906008020160008201518160000160006101000a81548173ffffffffffffffffffffffffffffffffffffffff021916908373ffffffffffffffffffffffffffffffffffffffff1602179055506020820151816001019080519060200190610e52929190613f6b565b506040820151816002019080519060200190610e6f929190613ff5565b506060820151816003019080519060200190610e8c929190613f6b565b506080820151816004015560a0820151816005019080519060200190610eb3929190614042565b5060c0820151816006019080519060200190610ed0929190614042565b5060e08201518160070160006101000a81548160ff0219169083151502179055506101008201518160070160016101000a81548160ff0219169083151502179055506101208201518160070160026101000a81548160ff0219169083151502179055506101408201518160070160036101000a81548160ff02191690831515021790555090505080600660008a815260200190815260200160002060008201518160000160006101000a81548173ffffffffffffffffffffffffffffffffffffffff021916908373ffffffffffffffffffffffffffffffffffffffff1602179055506020820151816001019080519060200190610fce929190613f6b565b506040820151816002019080519060200190610feb929190613ff5565b506060820151816003019080519060200190611008929190613f6b565b506080820151816004015560a082015181600501908051906020019061102f929190614042565b5060c082015181600601908051906020019061104c929190614042565b5060e08201518160070160006101000a81548160ff0219169083151502179055506101008201518160070160016101000a81548160ff0219169083151502179055506101208201518160070160026101000a81548160ff0219169083151502179055506101408201518160070160036101000a81548160ff021916908315150217905550905050505050505050505050565b858560006001905081518351146110f457600090505b60008090505b835181101561117e5781801561116f57506005600085838151811061111b57fe5b602002602001015173ffffffffffffffffffffffffffffffffffffffff1673ffffffffffffffffffffffffffffffffffffffff16815260200190815260200160002060040160009054906101000a900460ff165b915080806001019150506110fa565b50806111bf576040517f08c379a00000000000000000000000000000000000000000000000000000000081526004016111b69061600a565b60405180910390fd5b6111c7613ef3565b6040518061016001604052808c73ffffffffffffffffffffffffffffffffffffffff1681526020018b81526020018a8152602001898152602001888152602001878152602001868152602001600015158152602001600015158152602001600015158152602001600115158152509050600e819080600181540180825580915050906001820390600052602060002090600802016000909192909190915060008201518160000160006101000a81548173ffffffffffffffffffffffffffffffffffffffff021916908373ffffffffffffffffffffffffffffffffffffffff16021790555060208201518160010190805190602001906112c8929190613f6b565b5060408201518160020190805190602001906112e5929190613ff5565b506060820151816003019080519060200190611302929190613f6b565b506080820151816004015560a0820151816005019080519060200190611329929190614042565b5060c0820151816006019080519060200190611346929190614042565b5060e08201518160070160006101000a81548160ff0219169083151502179055506101008201518160070160016101000a81548160ff0219169083151502179055506101208201518160070160026101000a81548160ff0219169083151502179055506101408201518160070160036101000a81548160ff0219169083151502179055505050508060066000600354815260200190815260200160002060008201518160000160006101000a81548173ffffffffffffffffffffffffffffffffffffffff021916908373ffffffffffffffffffffffffffffffffffffffff1602179055506020820151816001019080519060200190611446929190613f6b565b506040820151816002019080519060200190611463929190613ff5565b506060820151816003019080519060200190611480929190613f6b565b506080820151816004015560a08201518160050190805190602001906114a7929190614042565b5060c08201518160060190805190602001906114c4929190614042565b5060e08201518160070160006101000a81548160ff0219169083151502179055506101008201518160070160016101000a81548160ff0219169083151502179055506101208201518160070160026101000a81548160ff0219169083151502179055506101408201518160070160036101000a81548160ff0219169083151502179055509050506003600081548092919060010191905055505050505050505050505050565b6115726140c2565b601160009054906101000a900473ffffffffffffffffffffffffffffffffffffffff1673ffffffffffffffffffffffffffffffffffffffff1663188958426040518163ffffffff1660e01b815260040160006040518083038186803b1580156115da57600080fd5b505afa1580156115ee573d6000803e3d6000fd5b505050506040513d6000823e3d601f19601f82011682018060405250611617919081019061521a565b905090565b611624613ef3565b601160009054906101000a900473ffffffffffffffffffffffffffffffffffffffff1673ffffffffffffffffffffffffffffffffffffffff166394758218836040518263ffffffff1660e01b815260040161167f91906160ce565b60006040518083038186803b15801561169757600080fd5b505afa1580156116ab573d6000803e3d6000fd5b505050506040513d6000823e3d601f19601f820116820180604052506116d4919081019061525b565b9050600181610120019015159081151581525050601160009054906101000a900473ffffffffffffffffffffffffffffffffffffffff1673ffffffffffffffffffffffffffffffffffffffff1663520d268e338484602001518560400151866060015187608001518860a001518960c001518a61012001516040518a63ffffffff1660e01b815260040161177099989796959493929190615e6b565b600060405180830381600087803b15801561178a57600080fd5b505af115801561179e573d6000803e3d6000fd5b505050505050565b601160009054906101000a900473ffffffffffffffffffffffffffffffffffffffff1673ffffffffffffffffffffffffffffffffffffffff1663118e435c338888888888886040518863ffffffff1660e01b815260040161180d9796959493929190615d80565b600060405180830381600087803b15801561182757600080fd5b505af115801561183b573d6000803e3d6000fd5b50505050505050505050565b6040518060a001604052808673ffffffffffffffffffffffffffffffffffffffff1681526020018573ffffffffffffffffffffffffffffffffffffffff168152602001848152602001831515815260200182151581525060076000600454815260200190815260200160002060008201518160000160006101000a81548173ffffffffffffffffffffffffffffffffffffffff021916908373ffffffffffffffffffffffffffffffffffffffff16021790555060208201518160010160006101000a81548173ffffffffffffffffffffffffffffffffffffffff021916908373ffffffffffffffffffffffffffffffffffffffff1602179055506040820151816002015560608201518160030160006101000a81548160ff02191690831515021790555060808201518160030160016101000a81548160ff0219169083151502179055509050506004600081548092919060010191905055505050505050565b6119af6140c2565b601160009054906101000a900473ffffffffffffffffffffffffffffffffffffffff1673ffffffffffffffffffffffffffffffffffffffff16632ada2596836040518263ffffffff1660e01b8152600401611a0a9190615d12565b60006040518083038186803b158015611a2257600080fd5b505afa158015611a36573d6000803e3d6000fd5b505050506040513d6000823e3d601f19601f82011682018060405250611a5f919081019061521a565b9050919050565b6060600d805480602002602001604051908101604052809291908181526020016000905b82821015611be357838290600052602060002090600502016040518060a00160405290816000820160009054906101000a900473ffffffffffffffffffffffffffffffffffffffff1673ffffffffffffffffffffffffffffffffffffffff1673ffffffffffffffffffffffffffffffffffffffff168152602001600182018054600181600116156101000203166002900480601f016020809104026020016040519081016040528092919081815260200182805460018160011615610100020316600290048015611b9c5780601f10611b7157610100808354040283529160200191611b9c565b820191906000526020600020905b815481529060010190602001808311611b7f57829003601f168201915b5050505050815260200160028201548152602001600382015481526020016004820160009054906101000a900460ff16151515158152505081526020019060010190611a8a565b50505050905090565b6060601160009054906101000a900473ffffffffffffffffffffffffffffffffffffffff1673ffffffffffffffffffffffffffffffffffffffff16633422ac1b84846040518363ffffffff1660e01b8152600401611c4b9291906160e9565b60006040518083038186803b158015611c6357600080fd5b505afa158015611c77573d6000803e3d6000fd5b505050506040513d6000823e3d601f19601f82011682018060405250611ca0919081019061516f565b905092915050565b601160009054906101000a900473ffffffffffffffffffffffffffffffffffffffff1673ffffffffffffffffffffffffffffffffffffffff1663c127c24733836040518363ffffffff1660e01b8152600401611d05929190615e3b565b600060405180830381600087803b158015611d1f57600080fd5b505af1158015611d33573d6000803e3d6000fd5b5050505050565b611d42614109565b600760008881526020019081526020016000206040518060a00160405290816000820160009054906101000a900473ffffffffffffffffffffffffffffffffffffffff1673ffffffffffffffffffffffffffffffffffffffff1673ffffffffffffffffffffffffffffffffffffffff1681526020016001820160009054906101000a900473ffffffffffffffffffffffffffffffffffffffff1673ffffffffffffffffffffffffffffffffffffffff1673ffffffffffffffffffffffffffffffffffffffff168152602001600282015481526020016003820160009054906101000a900460ff161515151581526020016003820160019054906101000a900460ff161515151581525050905085816000019073ffffffffffffffffffffffffffffffffffffffff16908173ffffffffffffffffffffffffffffffffffffffff168152505084816020019073ffffffffffffffffffffffffffffffffffffffff16908173ffffffffffffffffffffffffffffffffffffffff1681525050838160400181815250508281606001901515908115158152505081816080019015159081151581525050806007600089815260200190815260200160002060008201518160000160006101000a81548173ffffffffffffffffffffffffffffffffffffffff021916908373ffffffffffffffffffffffffffffffffffffffff16021790555060208201518160010160006101000a81548173ffffffffffffffffffffffffffffffffffffffff021916908373ffffffffffffffffffffffffffffffffffffffff1602179055506040820151816002015560608201518160030160006101000a81548160ff02191690831515021790555060808201518160030160016101000a81548160ff02191690831515021790555090505050505050505050565b8789600060019050611ff0613ef3565b60066000858152602001908152602001600020604051806101600160405290816000820160009054906101000a900473ffffffffffffffffffffffffffffffffffffffff1673ffffffffffffffffffffffffffffffffffffffff1673ffffffffffffffffffffffffffffffffffffffff168152602001600182018054806020026020016040519081016040528092919081815260200182805480156120ea57602002820191906000526020600020905b8160009054906101000a900473ffffffffffffffffffffffffffffffffffffffff1673ffffffffffffffffffffffffffffffffffffffff16815260200190600101908083116120a0575b505050505081526020016002820180548060200260200160405190810160405280929190818152602001828054801561214257602002820191906000526020600020905b81548152602001906001019080831161212e575b50505050508152602001600382018054806020026020016040519081016040528092919081815260200182805480156121d057602002820191906000526020600020905b8160009054906101000a900473ffffffffffffffffffffffffffffffffffffffff1673ffffffffffffffffffffffffffffffffffffffff1681526020019060010190808311612186575b5050505050815260200160048201548152602001600582018054600181600116156101000203166002900480601f01602080910402602001604051908101604052809291908181526020018280546001816001161561010002031660029004801561227c5780601f106122515761010080835404028352916020019161227c565b820191906000526020600020905b81548152906001019060200180831161225f57829003601f168201915b50505050508152602001600682018054600181600116156101000203166002900480601f01602080910402602001604051908101604052809291908181526020018280546001816001161561010002031660029004801561231e5780601f106122f35761010080835404028352916020019161231e565b820191906000526020600020905b81548152906001019060200180831161230157829003601f168201915b505050505081526020016007820160009054906101000a900460ff161515151581526020016007820160019054906101000a900460ff161515151581526020016007820160029054906101000a900460ff161515151581526020016007820160039054906101000a900460ff1615151515815250509050806101000151806123a757508060e001515b806123b55750806101400151155b156123bf57600091505b8273ffffffffffffffffffffffffffffffffffffffff16816000015173ffffffffffffffffffffffffffffffffffffffff16146123fb57600091505b811561243c576040517f08c379a00000000000000000000000000000000000000000000000000000000081526004016124339061606a565b60405180910390fd5b612444613ef3565b600660008e8152602001908152602001600020604051806101600160405290816000820160009054906101000a900473ffffffffffffffffffffffffffffffffffffffff1673ffffffffffffffffffffffffffffffffffffffff1673ffffffffffffffffffffffffffffffffffffffff1681526020016001820180548060200260200160405190810160405280929190818152602001828054801561253e57602002820191906000526020600020905b8160009054906101000a900473ffffffffffffffffffffffffffffffffffffffff1673ffffffffffffffffffffffffffffffffffffffff16815260200190600101908083116124f4575b505050505081526020016002820180548060200260200160405190810160405280929190818152602001828054801561259657602002820191906000526020600020905b815481526020019060010190808311612582575b505050505081526020016003820180548060200260200160405190810160405280929190818152602001828054801561262457602002820191906000526020600020905b8160009054906101000a900473ffffffffffffffffffffffffffffffffffffffff1673ffffffffffffffffffffffffffffffffffffffff16815260200190600101908083116125da575b5050505050815260200160048201548152602001600582018054600181600116156101000203166002900480601f0160208091040260200160405190810160405280929190818152602001828054600181600116156101000203166002900480156126d05780601f106126a5576101008083540402835291602001916126d0565b820191906000526020600020905b8154815290600101906020018083116126b357829003601f168201915b50505050508152602001600682018054600181600116156101000203166002900480601f0160208091040260200160405190810160405280929190818152602001828054600181600116156101000203166002900480156127725780601f1061274757610100808354040283529160200191612772565b820191906000526020600020905b81548152906001019060200180831161275557829003601f168201915b505050505081526020016007820160009054906101000a900460ff161515151581526020016007820160019054906101000a900460ff161515151581526020016007820160029054906101000a900460ff161515151581526020016007820160039054906101000a900460ff16151515158152505090508981606001819052508b81602001819052508a816040018190525088816080018181525050878160a00181905250868160c00181905250858161012001901515908115158152505080600e8e8154811061283f57fe5b906000526020600020906008020160008201518160000160006101000a81548173ffffffffffffffffffffffffffffffffffffffff021916908373ffffffffffffffffffffffffffffffffffffffff16021790555060208201518160010190805190602001906128b0929190613f6b565b5060408201518160020190805190602001906128cd929190613ff5565b5060608201518160030190805190602001906128ea929190613f6b565b506080820151816004015560a0820151816005019080519060200190612911929190614042565b5060c082015181600601908051906020019061292e929190614042565b5060e08201518160070160006101000a81548160ff0219169083151502179055506101008201518160070160016101000a81548160ff0219169083151502179055506101208201518160070160026101000a81548160ff0219169083151502179055506101408201518160070160036101000a81548160ff02191690831515021790555090505080600660008f815260200190815260200160002060008201518160000160006101000a81548173ffffffffffffffffffffffffffffffffffffffff021916908373ffffffffffffffffffffffffffffffffffffffff1602179055506020820151816001019080519060200190612a2c929190613f6b565b506040820151816002019080519060200190612a49929190613ff5565b506060820151816003019080519060200190612a66929190613f6b565b506080820151816004015560a0820151816005019080519060200190612a8d929190614042565b5060c0820151816006019080519060200190612aaa929190614042565b5060e08201518160070160006101000a81548160ff0219169083151502179055506101008201518160070160016101000a81548160ff0219169083151502179055506101208201518160070160026101000a81548160ff0219169083151502179055506101408201518160070160036101000a81548160ff0219169083151502179055509050505050505050505050505050505050565b81600560008573ffffffffffffffffffffffffffffffffffffffff1673ffffffffffffffffffffffffffffffffffffffff1681526020019081526020016000206001019080519060200190612b97929190614168565b5080600560008573ffffffffffffffffffffffffffffffffffffffff1673ffffffffffffffffffffffffffffffffffffffff16815260200190815260200160002060020181905550600560008473ffffffffffffffffffffffffffffffffffffffff1673ffffffffffffffffffffffffffffffffffffffff168152602001908152602001600020600d600560008673ffffffffffffffffffffffffffffffffffffffff1673ffffffffffffffffffffffffffffffffffffffff1681526020019081526020016000206003015481548110612c6d57fe5b90600052602060002090600502016000820160009054906101000a900473ffffffffffffffffffffffffffffffffffffffff168160000160006101000a81548173ffffffffffffffffffffffffffffffffffffffff021916908373ffffffffffffffffffffffffffffffffffffffff16021790555060018201816001019080546001816001161561010002031660029004612d099291906141e8565b5060028201548160020155600382015481600301556004820160009054906101000a900460ff168160040160006101000a81548160ff021916908315150217905550905050505050565b601160009054906101000a900473ffffffffffffffffffffffffffffffffffffffff1673ffffffffffffffffffffffffffffffffffffffff1663090c636d3383600060016040518563ffffffff1660e01b8152600401612db69493929190615f1b565b600060405180830381600087803b158015612dd057600080fd5b505af1158015612de4573d6000803e3d6000fd5b5050505050565b816000600560008373ffffffffffffffffffffffffffffffffffffffff1673ffffffffffffffffffffffffffffffffffffffff16815260200190815260200160002060040160009054906101000a900460ff16905080612e80576040517f08c379a0000000000000000000000000000000000000000000000000000000008152600401612e779061602a565b60405180910390fd5b82600560008673ffffffffffffffffffffffffffffffffffffffff1673ffffffffffffffffffffffffffffffffffffffff16815260200190815260200160002060020160008282540192505081905550600560008573ffffffffffffffffffffffffffffffffffffffff1673ffffffffffffffffffffffffffffffffffffffff168152602001908152602001600020600d600560008773ffffffffffffffffffffffffffffffffffffffff1673ffffffffffffffffffffffffffffffffffffffff1681526020019081526020016000206003015481548110612f5e57fe5b90600052602060002090600502016000820160009054906101000a900473ffffffffffffffffffffffffffffffffffffffff168160000160006101000a81548173ffffffffffffffffffffffffffffffffffffffff021916908373ffffffffffffffffffffffffffffffffffffffff16021790555060018201816001019080546001816001161561010002031660029004612ffa9291906141e8565b5060028201548160020155600382015481600301556004820160009054906101000a900460ff168160040160006101000a81548160ff02191690831515021790555090505050505050565b61304d613ef3565b60066000838152602001908152602001600020604051806101600160405290816000820160009054906101000a900473ffffffffffffffffffffffffffffffffffffffff1673ffffffffffffffffffffffffffffffffffffffff1673ffffffffffffffffffffffffffffffffffffffff1681526020016001820180548060200260200160405190810160405280929190818152602001828054801561314757602002820191906000526020600020905b8160009054906101000a900473ffffffffffffffffffffffffffffffffffffffff1673ffffffffffffffffffffffffffffffffffffffff16815260200190600101908083116130fd575b505050505081526020016002820180548060200260200160405190810160405280929190818152602001828054801561319f57602002820191906000526020600020905b81548152602001906001019080831161318b575b505050505081526020016003820180548060200260200160405190810160405280929190818152602001828054801561322d57602002820191906000526020600020905b8160009054906101000a900473ffffffffffffffffffffffffffffffffffffffff1673ffffffffffffffffffffffffffffffffffffffff16815260200190600101908083116131e3575b5050505050815260200160048201548152602001600582018054600181600116156101000203166002900480601f0160208091040260200160405190810160405280929190818152602001828054600181600116156101000203166002900480156132d95780601f106132ae576101008083540402835291602001916132d9565b820191906000526020600020905b8154815290600101906020018083116132bc57829003601f168201915b50505050508152602001600682018054600181600116156101000203166002900480601f01602080910402602001604051908101604052809291908181526020018280546001816001161561010002031660029004801561337b5780601f106133505761010080835404028352916020019161337b565b820191906000526020600020905b81548152906001019060200180831161335e57829003601f168201915b505050505081526020016007820160009054906101000a900460ff161515151581526020016007820160019054906101000a900460ff161515151581526020016007820160029054906101000a900460ff161515151581526020016007820160039054906101000a900460ff1615151515815250509050919050565b80601060006101000a81548173ffffffffffffffffffffffffffffffffffffffff021916908373ffffffffffffffffffffffffffffffffffffffff16021790555080601160006101000a81548173ffffffffffffffffffffffffffffffffffffffff021916908373ffffffffffffffffffffffffffffffffffffffff16021790555050565b6000601160009054906101000a900473ffffffffffffffffffffffffffffffffffffffff1673ffffffffffffffffffffffffffffffffffffffff16639fd813e36040518163ffffffff1660e01b815260040160206040518083038186803b1580156134e657600080fd5b505afa1580156134fa573d6000803e3d6000fd5b505050506040513d601f19601f8201168201806040525061351e91908101906151b0565b905090565b816000600560008373ffffffffffffffffffffffffffffffffffffffff1673ffffffffffffffffffffffffffffffffffffffff16815260200190815260200160002060040160009054906101000a900460ff16905080156135b9576040517f08c379a00000000000000000000000000000000000000000000000000000000081526004016135b09061604a565b60405180910390fd5b6135c16140c2565b6040518060a001604052808673ffffffffffffffffffffffffffffffffffffffff168152602001858152602001600081526020016002548152602001600115158152509050600d819080600181540180825580915050906001820390600052602060002090600502016000909192909190915060008201518160000160006101000a81548173ffffffffffffffffffffffffffffffffffffffff021916908373ffffffffffffffffffffffffffffffffffffffff1602179055506020820151816001019080519060200190613697929190614042565b50604082015181600201556060820151816003015560808201518160040160006101000a81548160ff02191690831515021790555050505080600560008773ffffffffffffffffffffffffffffffffffffffff1673ffffffffffffffffffffffffffffffffffffffff16815260200190815260200160002060008201518160000160006101000a81548173ffffffffffffffffffffffffffffffffffffffff021916908373ffffffffffffffffffffffffffffffffffffffff1602179055506020820151816001019080519060200190613772929190614042565b50604082015181600201556060820151816003015560808201518160040160006101000a81548160ff0219169083151502179055509050506002600081548092919060010191905055505050505050565b601160009054906101000a900473ffffffffffffffffffffffffffffffffffffffff1673ffffffffffffffffffffffffffffffffffffffff166393aa645333836000036040518363ffffffff1660e01b8152600401613823929190615e12565b600060405180830381600087803b15801561383d57600080fd5b505af1158015613851573d6000803e3d6000fd5b50505050601160009054906101000a900473ffffffffffffffffffffffffffffffffffffffff1673ffffffffffffffffffffffffffffffffffffffff166393aa645383836040518363ffffffff1660e01b81526004016138b2929190615f60565b600060405180830381600087803b1580156138cc57600080fd5b505af11580156138e0573d6000803e3d6000fd5b50505050601160009054906101000a900473ffffffffffffffffffffffffffffffffffffffff1673ffffffffffffffffffffffffffffffffffffffff16632851198c338484600060016040518663ffffffff1660e01b8152600401613949959493929190615d2d565b600060405180830381600087803b15801561396357600080fd5b505af1158015613977573d6000803e3d6000fd5b505050505050565b613987613ef3565b601160009054906101000a900473ffffffffffffffffffffffffffffffffffffffff1673ffffffffffffffffffffffffffffffffffffffff166394758218836040518263ffffffff1660e01b81526004016139e291906160ce565b60006040518083038186803b1580156139fa57600080fd5b505afa158015613a0e573d6000803e3d6000fd5b505050506040513d6000823e3d601f19601f82011682018060405250613a37919081019061525b565b90508060e00151613bba57601160009054906101000a900473ffffffffffffffffffffffffffffffffffffffff1673ffffffffffffffffffffffffffffffffffffffff1663090c636d3384600160006040518563ffffffff1660e01b8152600401613aa59493929190615f1b565b600060405180830381600087803b158015613abf57600080fd5b505af1158015613ad3573d6000803e3d6000fd5b505050506000816060015151826080015181613aeb57fe5b04905060008090505b826060015151811015613bb757601160009054906101000a900473ffffffffffffffffffffffffffffffffffffffff1673ffffffffffffffffffffffffffffffffffffffff166393aa645384606001518381518110613b4f57fe5b6020026020010151846000036040518363ffffffff1660e01b8152600401613b78929190615f60565b600060405180830381600087803b158015613b9257600080fd5b505af1158015613ba6573d6000803e3d6000fd5b505050508080600101915050613af4565b50505b5050565b6000613bc8613ef3565b601160009054906101000a900473ffffffffffffffffffffffffffffffffffffffff1673ffffffffffffffffffffffffffffffffffffffff166394758218846040518263ffffffff1660e01b8152600401613c2391906160ce565b60006040518083038186803b158015613c3b57600080fd5b505afa158015613c4f573d6000803e3d6000fd5b505050506040513d6000823e3d601f19601f82011682018060405250613c78919081019061525b565b90506000816060015151826080015181613c8e57fe5b0490508092505050919050565b6060601160009054906101000a900473ffffffffffffffffffffffffffffffffffffffff1673ffffffffffffffffffffffffffffffffffffffff1663fed8f8f684846040518363ffffffff1660e01b8152600401613cfa9291906160e9565b60006040518083038186803b158015613d1257600080fd5b505afa158015613d26573d6000803e3d6000fd5b505050506040513d6000823e3d601f19601f82011682018060405250613d4f919081019061512e565b905092915050565b60608082604051908082528060200260200182016040528015613d9457816020015b613d8161426f565b815260200190600190039081613d795790505b509050600083600186030290506000848602905060008290505b81811015613ee657600760008281526020019081526020016000206040518060a00160405290816000820160009054906101000a900473ffffffffffffffffffffffffffffffffffffffff1673ffffffffffffffffffffffffffffffffffffffff1673ffffffffffffffffffffffffffffffffffffffff1681526020016001820160009054906101000a900473ffffffffffffffffffffffffffffffffffffffff1673ffffffffffffffffffffffffffffffffffffffff1673ffffffffffffffffffffffffffffffffffffffff168152602001600282015481526020016003820160009054906101000a900460ff161515151581526020016003820160019054906101000a900460ff1615151515815250508484830381518110613ece57fe5b60200260200101819052508080600101915050613dae565b5082935050505092915050565b604051806101600160405280600073ffffffffffffffffffffffffffffffffffffffff1681526020016060815260200160608152602001606081526020016000815260200160608152602001606081526020016000151581526020016000151581526020016000151581526020016000151581525090565b828054828255906000526020600020908101928215613fe4579160200282015b82811115613fe35782518260006101000a81548173ffffffffffffffffffffffffffffffffffffffff021916908373ffffffffffffffffffffffffffffffffffffffff16021790555091602001919060010190613f8b565b5b509050613ff191906142ce565b5090565b828054828255906000526020600020908101928215614031579160200282015b82811115614030578251825591602001919060010190614015565b5b50905061403e9190614311565b5090565b828054600181600116156101000203166002900490600052602060002090601f016020900481019282601f1061408357805160ff19168380011785556140b1565b828001600101855582156140b1579182015b828111156140b0578251825591602001919060010190614095565b5b5090506140be9190614336565b5090565b6040518060a00160405280600073ffffffffffffffffffffffffffffffffffffffff1681526020016060815260200160008152602001600081526020016000151581525090565b6040518060a00160405280600073ffffffffffffffffffffffffffffffffffffffff168152602001600073ffffffffffffffffffffffffffffffffffffffff168152602001600081526020016000151581526020016000151581525090565b828054600181600116156101000203166002900490600052602060002090601f016020900481019282601f106141a957805160ff19168380011785556141d7565b828001600101855582156141d7579182015b828111156141d65782518255916020019190600101906141bb565b5b5090506141e49190614336565b5090565b828054600181600116156101000203166002900490600052602060002090601f016020900481019282601f10614221578054855561425e565b8280016001018555821561425e57600052602060002091601f016020900482015b8281111561425d578254825591600101919060010190614242565b5b50905061426b9190614336565b5090565b6040518060a00160405280600073ffffffffffffffffffffffffffffffffffffffff168152602001600073ffffffffffffffffffffffffffffffffffffffff168152602001600081526020016000151581526020016000151581525090565b61430e91905b8082111561430a57600081816101000a81549073ffffffffffffffffffffffffffffffffffffffff0219169055506001016142d4565b5090565b90565b61433391905b8082111561432f576000816000905550600101614317565b5090565b90565b61435891905b8082111561435457600081600090555060010161433c565b5090565b90565b60008135905061436a81616514565b92915050565b60008151905061437f81616514565b92915050565b600082601f83011261439657600080fd5b81516143a96143a48261613f565b616112565b915081818352602084019350602081019050838560208402820111156143ce57600080fd5b60005b838110156143fe57816143e48882614370565b8452602084019350602083019250506001810190506143d1565b5050505092915050565b600082601f83011261441957600080fd5b813561442c61442782616167565b616112565b9150818183526020840193506020810190508385602084028201111561445157600080fd5b60005b838110156144815781614467888261435b565b845260208401935060208301925050600181019050614454565b5050505092915050565b600082601f83011261449c57600080fd5b81516144af6144aa8261618f565b616112565b915081818352602084019350602081019050838560208402820111156144d457600080fd5b60005b8381101561450457816144ea88826146b8565b8452602084019350602083019250506001810190506144d7565b5050505092915050565b600082601f83011261451f57600080fd5b813561453261452d826161b7565b616112565b9150818183526020840193506020810190508385602084028201111561455757600080fd5b60005b83811015614587578161456d88826146a3565b84526020840193506020830192505060018101905061455a565b5050505092915050565b600082601f8301126145a257600080fd5b81516145b56145b0826161df565b616112565b9150818183526020840193506020810190508360005b838110156145fb57815186016145e18882614775565b8452602084019350602083019250506001810190506145cb565b5050505092915050565b600082601f83011261461657600080fd5b815161462961462482616207565b616112565b9150818183526020840193506020810190508360005b8381101561466f578151860161465588826148b5565b84526020840193506020830192505060018101905061463f565b5050505092915050565b6000813590506146888161652b565b92915050565b60008151905061469d8161652b565b92915050565b6000813590506146b281616542565b92915050565b6000815190506146c781616542565b92915050565b600082601f8301126146de57600080fd5b81516146f16146ec8261622f565b616112565b9150808252602083016020830185838301111561470d57600080fd5b6147188382846164d0565b50505092915050565b600082601f83011261473257600080fd5b81356147456147408261625b565b616112565b9150808252602083016020830185838301111561476157600080fd5b61476c8382846164c1565b50505092915050565b600060a0828403121561478757600080fd5b61479160a0616112565b905060006147a184828501614370565b600083015250602082015167ffffffffffffffff8111156147c157600080fd5b6147cd848285016146cd565b60208301525060406147e1848285016146b8565b60408301525060606147f584828501614bca565b60608301525060806148098482850161468e565b60808301525092915050565b600060a0828403121561482757600080fd5b61483160a0616112565b9050600061484184828501614370565b600083015250602082015167ffffffffffffffff81111561486157600080fd5b61486d848285016146cd565b6020830152506040614881848285016146b8565b604083015250606061489584828501614bca565b60608301525060806148a98482850161468e565b60808301525092915050565b600061016082840312156148c857600080fd5b6148d3610160616112565b905060006148e384828501614370565b600083015250602082015167ffffffffffffffff81111561490357600080fd5b61490f84828501614385565b602083015250604082015167ffffffffffffffff81111561492f57600080fd5b61493b8482850161448b565b604083015250606082015167ffffffffffffffff81111561495b57600080fd5b61496784828501614385565b606083015250608061497b84828501614bca565b60808301525060a082015167ffffffffffffffff81111561499b57600080fd5b6149a7848285016146cd565b60a08301525060c082015167ffffffffffffffff8111156149c757600080fd5b6149d3848285016146cd565b60c08301525060e06149e78482850161468e565b60e0830152506101006149fc8482850161468e565b61010083015250610120614a128482850161468e565b61012083015250610140614a288482850161468e565b6101408301525092915050565b60006101608284031215614a4857600080fd5b614a53610160616112565b90506000614a6384828501614370565b600083015250602082015167ffffffffffffffff811115614a8357600080fd5b614a8f84828501614385565b602083015250604082015167ffffffffffffffff811115614aaf57600080fd5b614abb8482850161448b565b604083015250606082015167ffffffffffffffff811115614adb57600080fd5b614ae784828501614385565b6060830152506080614afb84828501614bca565b60808301525060a082015167ffffffffffffffff811115614b1b57600080fd5b614b27848285016146cd565b60a08301525060c082015167ffffffffffffffff811115614b4757600080fd5b614b53848285016146cd565b60c08301525060e0614b678482850161468e565b60e083015250610100614b7c8482850161468e565b61010083015250610120614b928482850161468e565b61012083015250610140614ba88482850161468e565b6101408301525092915050565b600081359050614bc481616559565b92915050565b600081519050614bd981616559565b92915050565b600060208284031215614bf157600080fd5b6000614bff8482850161435b565b91505092915050565b600080600080600060a08688031215614c2057600080fd5b6000614c2e8882890161435b565b9550506020614c3f8882890161435b565b9450506040614c50888289016146a3565b9350506060614c6188828901614679565b9250506080614c7288828901614679565b9150509295509295909350565b600080600080600080600060e0888a031215614c9a57600080fd5b6000614ca88a828b0161435b565b975050602088013567ffffffffffffffff811115614cc557600080fd5b614cd18a828b01614408565b965050604088013567ffffffffffffffff811115614cee57600080fd5b614cfa8a828b0161450e565b955050606088013567ffffffffffffffff811115614d1757600080fd5b614d238a828b01614408565b9450506080614d348a828b01614bb5565b93505060a088013567ffffffffffffffff811115614d5157600080fd5b614d5d8a828b01614721565b92505060c088013567ffffffffffffffff811115614d7a57600080fd5b614d868a828b01614721565b91505092959891949750929550565b60008060408385031215614da857600080fd5b6000614db68582860161435b565b9250506020614dc7858286016146a3565b9150509250929050565b60008060408385031215614de457600080fd5b6000614df28582860161435b565b925050602083013567ffffffffffffffff811115614e0f57600080fd5b614e1b85828601614721565b9150509250929050565b600080600060608486031215614e3a57600080fd5b6000614e488682870161435b565b935050602084013567ffffffffffffffff811115614e6557600080fd5b614e7186828701614721565b9250506040614e82868287016146a3565b9150509250925092565b60008060008060008060008060006101208a8c031215614eab57600080fd5b6000614eb98c828d0161435b565b9950506020614eca8c828d01614bb5565b98505060408a013567ffffffffffffffff811115614ee757600080fd5b614ef38c828d01614408565b97505060608a013567ffffffffffffffff811115614f1057600080fd5b614f1c8c828d0161450e565b96505060808a013567ffffffffffffffff811115614f3957600080fd5b614f458c828d01614408565b95505060a0614f568c828d01614bb5565b94505060c08a013567ffffffffffffffff811115614f7357600080fd5b614f7f8c828d01614721565b93505060e08a013567ffffffffffffffff811115614f9c57600080fd5b614fa88c828d01614721565b925050610100614fba8c828d01614679565b9150509295985092959850929598565b60008060008060808587031215614fe057600080fd5b6000614fee8782880161435b565b9450506020614fff87828801614bb5565b935050604061501087828801614679565b925050606061502187828801614679565b91505092959194509250565b60008060008060008060c0878903121561504657600080fd5b600087013567ffffffffffffffff81111561506057600080fd5b61506c89828a01614408565b965050602087013567ffffffffffffffff81111561508957600080fd5b61509589828a0161450e565b955050604087013567ffffffffffffffff8111156150b257600080fd5b6150be89828a01614408565b94505060606150cf89828a01614bb5565b935050608087013567ffffffffffffffff8111156150ec57600080fd5b6150f889828a01614721565b92505060a087013567ffffffffffffffff81111561511557600080fd5b61512189828a01614721565b9150509295509295509295565b60006020828403121561514057600080fd5b600082015167ffffffffffffffff81111561515a57600080fd5b61516684828501614591565b91505092915050565b60006020828403121561518157600080fd5b600082015167ffffffffffffffff81111561519b57600080fd5b6151a784828501614605565b91505092915050565b6000602082840312156151c257600080fd5b60006151d0848285016146b8565b91505092915050565b6000602082840312156151eb57600080fd5b600082013567ffffffffffffffff81111561520557600080fd5b61521184828501614721565b91505092915050565b60006020828403121561522c57600080fd5b600082015167ffffffffffffffff81111561524657600080fd5b61525284828501614815565b91505092915050565b60006020828403121561526d57600080fd5b600082015167ffffffffffffffff81111561528757600080fd5b61529384828501614a35565b91505092915050565b6000602082840312156152ae57600080fd5b60006152bc84828501614bb5565b91505092915050565b60008060008060008060c087890312156152de57600080fd5b60006152ec89828a01614bb5565b96505060206152fd89828a0161435b565b955050604061530e89828a0161435b565b945050606061531f89828a016146a3565b935050608061533089828a01614679565b92505060a061534189828a01614679565b9150509295509295509295565b6000806040838503121561536157600080fd5b600061536f85828601614bb5565b925050602061538085828601614bb5565b9150509250929050565b60006153968383615409565b60208301905092915050565b60006153ae83836157c1565b60208301905092915050565b60006153c68383615a00565b905092915050565b60006153da8383615b81565b905092915050565b60006153ee8383615c8c565b60a08301905092915050565b6154038161648b565b82525050565b61541281616439565b82525050565b61542181616439565b82525050565b6000615432826162ed565b61543c81856163b1565b935061544783616294565b8060005b8381101561547857815161545f888261538a565b975061546a83616352565b92505060018101905061544b565b5085935050505092915050565b6000615490826162e2565b61549a81856163a0565b93506154a583616287565b8060005b838110156154d65781516154bd888261538a565b97506154c883616345565b9250506001810190506154a9565b5085935050505092915050565b60006154ee826162e2565b6154f881856163b1565b935061550383616287565b8060005b8381101561553457815161551b888261538a565b975061552683616345565b925050600181019050615507565b5085935050505092915050565b600061554c82616303565b61555681856163d3565b9350615561836162ae565b8060005b8381101561559257815161557988826153a2565b97506155848361636c565b925050600181019050615565565b5085935050505092915050565b60006155aa826162f8565b6155b481856163c2565b93506155bf836162a1565b8060005b838110156155f05781516155d788826153a2565b97506155e28361635f565b9250506001810190506155c3565b5085935050505092915050565b6000615608826162f8565b61561281856163d3565b935061561d836162a1565b8060005b8381101561564e57815161563588826153a2565b97506156408361635f565b925050600181019050615621565b5085935050505092915050565b60006156668261630e565b61567081856163e4565b935083602082028501615682856162bb565b8060005b858110156156be578484038952815161569f85826153ba565b94506156aa83616379565b925060208a01995050600181019050615686565b50829750879550505050505092915050565b60006156db82616319565b6156e581856163f5565b9350836020820285016156f7856162c8565b8060005b85811015615733578484038952815161571485826153ce565b945061571f83616386565b925060208a019950506001810190506156fb565b50829750879550505050505092915050565b600061575082616324565b61575a8185616406565b9350615765836162d5565b8060005b8381101561579657815161577d88826153e2565b975061578883616393565b925050600181019050615769565b5085935050505092915050565b6157ac8161644b565b82525050565b6157bb8161644b565b82525050565b6157ca81616457565b82525050565b6157d981616457565b82525050565b60006157ea8261633a565b6157f48185616428565b93506158048185602086016164d0565b61580d81616503565b840191505092915050565b60006158238261632f565b61582d8185616417565b935061583d8185602086016164d0565b61584681616503565b840191505092915050565b600061585c8261632f565b6158668185616428565b93506158768185602086016164d0565b61587f81616503565b840191505092915050565b6000615897601983616428565b91507f436865636b2070617274792076616c6964617465206661696c000000000000006000830152602082019050919050565b60006158d7601483616428565b91507f4d656d626572206973206e6f74206578697374730000000000000000000000006000830152602082019050919050565b6000615917601083616428565b91507f4d656d62657220697320657869737473000000000000000000000000000000006000830152602082019050919050565b6000615957601383616428565b91507f43616e6e6f7420757064617465207061727479000000000000000000000000006000830152602082019050919050565b600060a0830160008301516159a26000860182615409565b50602083015184820360208601526159ba8282615818565b91505060408301516159cf60408601826157c1565b5060608301516159e26060860182615cf4565b5060808301516159f560808601826157a3565b508091505092915050565b600060a083016000830151615a186000860182615409565b5060208301518482036020860152615a308282615818565b9150506040830151615a4560408601826157c1565b506060830151615a586060860182615cf4565b506080830151615a6b60808601826157a3565b508091505092915050565b600061016083016000830151615a8f6000860182615409565b5060208301518482036020860152615aa78282615485565b91505060408301518482036040860152615ac1828261559f565b91505060608301518482036060860152615adb8282615485565b9150506080830151615af06080860182615cf4565b5060a083015184820360a0860152615b088282615818565b91505060c083015184820360c0860152615b228282615818565b91505060e0830151615b3760e08601826157a3565b50610100830151615b4c6101008601826157a3565b50610120830151615b616101208601826157a3565b50610140830151615b766101408601826157a3565b508091505092915050565b600061016083016000830151615b9a6000860182615409565b5060208301518482036020860152615bb28282615485565b91505060408301518482036040860152615bcc828261559f565b91505060608301518482036060860152615be68282615485565b9150506080830151615bfb6080860182615cf4565b5060a083015184820360a0860152615c138282615818565b91505060c083015184820360c0860152615c2d8282615818565b91505060e0830151615c4260e08601826157a3565b50610100830151615c576101008601826157a3565b50610120830151615c6c6101208601826157a3565b50610140830151615c816101408601826157a3565b508091505092915050565b60a082016000820151615ca26000850182615409565b506020820151615cb56020850182615409565b506040820151615cc860408501826157c1565b506060820151615cdb60608501826157a3565b506080820151615cee60808501826157a3565b50505050565b615cfd81616481565b82525050565b615d0c81616481565b82525050565b6000602082019050615d276000830184615418565b92915050565b600060a082019050615d4260008301886153fa565b615d4f6020830187615418565b615d5c60408301866157d0565b615d6960608301856157b2565b615d7660808301846157b2565b9695505050505050565b600060e082019050615d95600083018a6153fa565b8181036020830152615da78189615427565b90508181036040830152615dbb8188615541565b90508181036060830152615dcf8187615427565b9050615dde6080830186615d03565b81810360a0830152615df081856157df565b905081810360c0830152615e0481846157df565b905098975050505050505050565b6000604082019050615e2760008301856153fa565b615e3460208301846157d0565b9392505050565b6000604082019050615e5060008301856153fa565b8181036020830152615e6281846157df565b90509392505050565b600061012082019050615e81600083018c6153fa565b615e8e602083018b615d03565b8181036040830152615ea0818a6154e3565b90508181036060830152615eb481896155fd565b90508181036080830152615ec881886154e3565b9050615ed760a0830187615d03565b81810360c0830152615ee98186615851565b905081810360e0830152615efd8185615851565b9050615f0d6101008301846157b2565b9a9950505050505050505050565b6000608082019050615f3060008301876153fa565b615f3d6020830186615d03565b615f4a60408301856157b2565b615f5760608301846157b2565b95945050505050565b6000604082019050615f756000830185615418565b615f8260208301846157d0565b9392505050565b60006020820190508181036000830152615fa3818461565b565b905092915050565b60006020820190508181036000830152615fc581846156d0565b905092915050565b60006020820190508181036000830152615fe78184615745565b905092915050565b600060208201905061600460008301846157d0565b92915050565b600060208201905081810360008301526160238161588a565b9050919050565b60006020820190508181036000830152616043816158ca565b9050919050565b600060208201905081810360008301526160638161590a565b9050919050565b600060208201905081810360008301526160838161594a565b9050919050565b600060208201905081810360008301526160a4818461598a565b905092915050565b600060208201905081810360008301526160c68184615a76565b905092915050565b60006020820190506160e36000830184615d03565b92915050565b60006040820190506160fe6000830185615d03565b61610b6020830184615d03565b9392505050565b6000604051905081810181811067ffffffffffffffff8211171561613557600080fd5b8060405250919050565b600067ffffffffffffffff82111561615657600080fd5b602082029050602081019050919050565b600067ffffffffffffffff82111561617e57600080fd5b602082029050602081019050919050565b600067ffffffffffffffff8211156161a657600080fd5b602082029050602081019050919050565b600067ffffffffffffffff8211156161ce57600080fd5b602082029050602081019050919050565b600067ffffffffffffffff8211156161f657600080fd5b602082029050602081019050919050565b600067ffffffffffffffff82111561621e57600080fd5b602082029050602081019050919050565b600067ffffffffffffffff82111561624657600080fd5b601f19601f8301169050602081019050919050565b600067ffffffffffffffff82111561627257600080fd5b601f19601f8301169050602081019050919050565b6000602082019050919050565b6000602082019050919050565b6000602082019050919050565b6000602082019050919050565b6000602082019050919050565b6000602082019050919050565b6000602082019050919050565b600081519050919050565b600081519050919050565b600081519050919050565b600081519050919050565b600081519050919050565b600081519050919050565b600081519050919050565b600081519050919050565b600081519050919050565b6000602082019050919050565b6000602082019050919050565b6000602082019050919050565b6000602082019050919050565b6000602082019050919050565b6000602082019050919050565b6000602082019050919050565b600082825260208201905092915050565b600082825260208201905092915050565b600082825260208201905092915050565b600082825260208201905092915050565b600082825260208201905092915050565b600082825260208201905092915050565b600082825260208201905092915050565b600082825260208201905092915050565b600082825260208201905092915050565b600061644482616461565b9050919050565b60008115159050919050565b6000819050919050565b600073ffffffffffffffffffffffffffffffffffffffff82169050919050565b6000819050919050565b60006164968261649d565b9050919050565b60006164a8826164af565b9050919050565b60006164ba82616461565b9050919050565b82818337600083830152505050565b60005b838110156164ee5780820151818401526020810190506164d3565b838111156164fd576000848401525b50505050565b6000601f19601f8301169050919050565b61651d81616439565b811461652857600080fd5b50565b6165348161644b565b811461653f57600080fd5b50565b61654b81616457565b811461655657600080fd5b50565b61656281616481565b811461656d57600080fd5b5056fea265627a7a72305820c5d15deea2f8fcf685f5d074f1b944a1105e8ede74705e18c93e0b4faf8f17926c6578706572696d656e74616cf50037",
  "source": "pragma solidity >=0.4.22 <0.6.0;\npragma experimental ABIEncoderV2;\nimport \"./BaseFunds.sol\";\ncontract Funds is BaseFunds {\n    address owner;\n    address baseFundsAdrr;\n    BaseFunds baseFunds;\n    constructor() public{\n        owner = msg.sender;\n    }\n    function setBaseFundAddress(address addr) public {\n        baseFundsAdrr = addr;\n        baseFunds = BaseFunds(addr);\n    }\n    function newMember(string memory _name) public payable{\n        baseFunds.addMember(msg.sender, _name);\n    }\n    function transferMoney(address _receiver, int256 _money) public {\n        baseFunds.updateMemberMoney(msg.sender, - _money);\n        baseFunds.updateMemberMoney(_receiver, _money);\n        baseFunds.addTransferHistory(msg.sender, _receiver, _money, false, true);\n    }\n    function newParty(\n        address[] memory _payerAddress, int256[] memory _payerMoney, address[] memory _members, uint256  _money, string memory  _message, string memory  _createdDate\n        ) public payable{\n        baseFunds.addParty(msg.sender, _payerAddress, _payerMoney, _members, _money, _message, _createdDate);\n    }\n    function requestRejectParty(uint256 _id) public {\n        Party memory _party = baseFunds.getParty(_id);\n        _party.requestReject = true;\n        baseFunds.updatePartyByCreator(\n            msg.sender,\n            _id,\n            _party.payerAddress,\n            _party.payerMoney,\n            _party.members,\n            _party.money,\n            _party.message,\n            _party.createdDate,\n            _party.requestReject\n        );\n    }\n    function rejectParty(uint256 _id) public {\n        baseFunds.updatePartyByOwner(msg.sender, _id, false, true);\n    }\n    function acceptParty(uint256 _id) public {\n        Party memory _party = baseFunds.getParty(_id);\n        if(!_party.paySuccess){\n            baseFunds.updatePartyByOwner(msg.sender, _id, true, false);\n            uint256 _moneyShared = _party.money / _party.members.length;\n            for(uint256 i = 0; i < _party.members.length; i++){\n                baseFunds.updateMemberMoney(_party.members[i], -int256(_moneyShared));\n            }\n        }\n    }\n    function getPartySharedCost(uint256 _id) public view returns (uint256) {\n        Party memory _party = baseFunds.getParty(_id);\n        uint256 _moneyShared = _party.money / _party.members.length;\n        return _moneyShared;\n    }\n    function getTotalFund() public view returns (int256) {\n        return baseFunds.getTotalFund();\n    }\n    function getFundHost() public view returns (Member memory) {\n        return baseFunds.getFundHost();\n    }\n    function getMemberList(uint256 _page, uint256 _perPage) public view returns (Member[] memory) {\n        return baseFunds.getMemberList(_page, _perPage);\n    }\n    function getMember(address addr) public view returns (Member memory) {\n        return baseFunds.getMember(addr);\n    }\n    function getPartyList(uint256 _page, uint256 _perPage) public view returns (Party[] memory) {\n        return baseFunds.getPartyList(_page, _perPage);\n    }\n}",
  "sourcePath": "/Users/phongdo/Documents/Project/ethereum-tutorial/PartyFunds/contracts/Funds.sol",
  "compiler": {
    "name": "solc",
    "version": "0.5.8+commit.23d335f2.Emscripten.clang"
  },
  "schemaVersion": "3.0.16",
  "updatedAt": "2019-11-23T03:43:56.798Z",
  "devdoc": {
    "methods": {}
  },
  "userdoc": {
    "methods": {}
  }
}