{
  "contractName": "Funds",
  "abi": [
    {
      "constant": true,
      "inputs": [],
      "name": "getTestCount",
      "outputs": [
        {
          "name": "",
          "type": "uint256"
        }
      ],
      "payable": false,
      "stateMutability": "view",
      "type": "function"
    },
    {
      "constant": true,
      "inputs": [],
      "name": "getFundHost",
      "outputs": [
        {
          "components": [
            {
              "name": "id",
              "type": "address"
            },
            {
              "name": "name",
              "type": "string"
            },
            {
              "name": "money",
              "type": "uint256"
            },
            {
              "name": "isValue",
              "type": "bool"
            }
          ],
          "name": "",
          "type": "tuple"
        }
      ],
      "payable": false,
      "stateMutability": "view",
      "type": "function"
    },
    {
      "constant": false,
      "inputs": [
        {
          "components": [
            {
              "name": "creator",
              "type": "address"
            },
            {
              "name": "members",
              "type": "address[]"
            },
            {
              "name": "money",
              "type": "uint256"
            },
            {
              "name": "message",
              "type": "string"
            },
            {
              "name": "date",
              "type": "string"
            },
            {
              "name": "paySuccess",
              "type": "bool"
            },
            {
              "name": "isValue",
              "type": "bool"
            }
          ],
          "name": "party",
          "type": "tuple"
        }
      ],
      "name": "addParty",
      "outputs": [],
      "payable": false,
      "stateMutability": "nonpayable",
      "type": "function"
    },
    {
      "constant": true,
      "inputs": [],
      "name": "getMemberList",
      "outputs": [
        {
          "components": [
            {
              "name": "id",
              "type": "address"
            },
            {
              "name": "name",
              "type": "string"
            },
            {
              "name": "money",
              "type": "uint256"
            },
            {
              "name": "isValue",
              "type": "bool"
            }
          ],
          "name": "",
          "type": "tuple[]"
        }
      ],
      "payable": false,
      "stateMutability": "view",
      "type": "function"
    },
    {
      "constant": true,
      "inputs": [],
      "name": "getPartyList",
      "outputs": [
        {
          "components": [
            {
              "name": "creator",
              "type": "address"
            },
            {
              "name": "members",
              "type": "address[]"
            },
            {
              "name": "money",
              "type": "uint256"
            },
            {
              "name": "message",
              "type": "string"
            },
            {
              "name": "date",
              "type": "string"
            },
            {
              "name": "paySuccess",
              "type": "bool"
            },
            {
              "name": "isValue",
              "type": "bool"
            }
          ],
          "name": "",
          "type": "tuple[]"
        }
      ],
      "payable": false,
      "stateMutability": "view",
      "type": "function"
    },
    {
      "constant": true,
      "inputs": [],
      "name": "getTotalFund",
      "outputs": [
        {
          "name": "",
          "type": "uint256"
        }
      ],
      "payable": false,
      "stateMutability": "view",
      "type": "function"
    },
    {
      "constant": false,
      "inputs": [
        {
          "components": [
            {
              "name": "id",
              "type": "address"
            },
            {
              "name": "name",
              "type": "string"
            },
            {
              "name": "money",
              "type": "uint256"
            },
            {
              "name": "isValue",
              "type": "bool"
            }
          ],
          "name": "member",
          "type": "tuple"
        }
      ],
      "name": "addMember",
      "outputs": [],
      "payable": false,
      "stateMutability": "nonpayable",
      "type": "function"
    },
    {
      "inputs": [],
      "payable": false,
      "stateMutability": "nonpayable",
      "type": "constructor"
    },
    {
      "constant": false,
      "inputs": [
        {
          "name": "addr",
          "type": "address"
        }
      ],
      "name": "setBaseFundAddress",
      "outputs": [],
      "payable": false,
      "stateMutability": "nonpayable",
      "type": "function"
    },
    {
      "constant": false,
      "inputs": [
        {
          "name": "val",
          "type": "uint256"
        }
      ],
      "name": "setTestCount",
      "outputs": [],
      "payable": false,
      "stateMutability": "nonpayable",
      "type": "function"
    }
  ],
  "bytecode": "0x6080604052600060015560006002556000600355600060045534801561002457600080fd5b5033600d60006101000a81548173ffffffffffffffffffffffffffffffffffffffff021916908373ffffffffffffffffffffffffffffffffffffffff16021790555061177a806100756000396000f3fe608060405234801561001057600080fd5b50600436106100925760003560e01c80635f5d5f00116100665780635f5d5f001461010b578063879f58261461012957806396d02049146101475780639fd813e314610163578063ea4fbaf61461018157610092565b80620a6444146100975780630853ad8a146100b357806318895842146100d15780633c0e6b15146100ef575b600080fd5b6100b160048036036100ac919081019061110a565b61019d565b005b6100bb61022c565b6040516100c89190611506565b60405180910390f35b6100d9610236565b6040516100e691906114e4565b60405180910390f35b610109600480360361010491908101906110c9565b61036d565b005b61011361059c565b60405161012091906114a0565b60405180910390f35b610131610718565b60405161013e91906114c2565b60405180910390f35b610161600480360361015c919081019061105f565b6109df565b005b61016b610a64565b6040516101789190611506565b60405180910390f35b61019b60048036036101969190810190611088565b610a6e565b005b600f60009054906101000a900473ffffffffffffffffffffffffffffffffffffffff1673ffffffffffffffffffffffffffffffffffffffff16620a6444826040518263ffffffff1660e01b81526004016101f79190611506565b600060405180830381600087803b15801561021157600080fd5b505af1158015610225573d6000803e3d6000fd5b5050505050565b6000600454905090565b61023e610c13565b60076040518060800160405290816000820160009054906101000a900473ffffffffffffffffffffffffffffffffffffffff1673ffffffffffffffffffffffffffffffffffffffff1673ffffffffffffffffffffffffffffffffffffffff168152602001600182018054600181600116156101000203166002900480601f01602080910402602001604051908101604052809291908181526020018280546001816001161561010002031660029004801561033a5780601f1061030f5761010080835404028352916020019161033a565b820191906000526020600020905b81548152906001019060200180831161031d57829003601f168201915b50505050508152602001600282015481526020016003820160009054906101000a900460ff161515151581525050905090565b600c819080600181540180825580915050906001820390600052602060002090600602016000909192909190915060008201518160000160006101000a81548173ffffffffffffffffffffffffffffffffffffffff021916908373ffffffffffffffffffffffffffffffffffffffff16021790555060208201518160010190805190602001906103fe929190610c53565b50604082015181600201556060820151816003019080519060200190610425929190610cdd565b506080820151816004019080519060200190610442929190610cdd565b5060a08201518160050160006101000a81548160ff02191690831515021790555060c08201518160050160016101000a81548160ff0219169083151502179055505050508060066000600354815260200190815260200160002060008201518160000160006101000a81548173ffffffffffffffffffffffffffffffffffffffff021916908373ffffffffffffffffffffffffffffffffffffffff16021790555060208201518160010190805190602001906104ff929190610c53565b50604082015181600201556060820151816003019080519060200190610526929190610cdd565b506080820151816004019080519060200190610543929190610cdd565b5060a08201518160050160006101000a81548160ff02191690831515021790555060c08201518160050160016101000a81548160ff02191690831515021790555090505060036000815480929190600101919050555050565b6060600b805480602002602001604051908101604052809291908181526020016000905b8282101561070f57838290600052602060002090600402016040518060800160405290816000820160009054906101000a900473ffffffffffffffffffffffffffffffffffffffff1673ffffffffffffffffffffffffffffffffffffffff1673ffffffffffffffffffffffffffffffffffffffff168152602001600182018054600181600116156101000203166002900480601f0160208091040260200160405190810160405280929190818152602001828054600181600116156101000203166002900480156106d25780601f106106a7576101008083540402835291602001916106d2565b820191906000526020600020905b8154815290600101906020018083116106b557829003601f168201915b50505050508152602001600282015481526020016003820160009054906101000a900460ff161515151581525050815260200190600101906105c0565b50505050905090565b6060600c805480602002602001604051908101604052809291908181526020016000905b828210156109d657838290600052602060002090600602016040518060e00160405290816000820160009054906101000a900473ffffffffffffffffffffffffffffffffffffffff1673ffffffffffffffffffffffffffffffffffffffff1673ffffffffffffffffffffffffffffffffffffffff1681526020016001820180548060200260200160405190810160405280929190818152602001828054801561083a57602002820191906000526020600020905b8160009054906101000a900473ffffffffffffffffffffffffffffffffffffffff1673ffffffffffffffffffffffffffffffffffffffff16815260200190600101908083116107f0575b5050505050815260200160028201548152602001600382018054600181600116156101000203166002900480601f0160208091040260200160405190810160405280929190818152602001828054600181600116156101000203166002900480156108e65780601f106108bb576101008083540402835291602001916108e6565b820191906000526020600020905b8154815290600101906020018083116108c957829003601f168201915b50505050508152602001600482018054600181600116156101000203166002900480601f0160208091040260200160405190810160405280929190818152602001828054600181600116156101000203166002900480156109885780601f1061095d57610100808354040283529160200191610988565b820191906000526020600020905b81548152906001019060200180831161096b57829003601f168201915b505050505081526020016005820160009054906101000a900460ff161515151581526020016005820160019054906101000a900460ff1615151515815250508152602001906001019061073c565b50505050905090565b80600e60006101000a81548173ffffffffffffffffffffffffffffffffffffffff021916908373ffffffffffffffffffffffffffffffffffffffff16021790555080600f60006101000a81548173ffffffffffffffffffffffffffffffffffffffff021916908373ffffffffffffffffffffffffffffffffffffffff16021790555050565b6000600154905090565b600b819080600181540180825580915050906001820390600052602060002090600402016000909192909190915060008201518160000160006101000a81548173ffffffffffffffffffffffffffffffffffffffff021916908373ffffffffffffffffffffffffffffffffffffffff1602179055506020820151816001019080519060200190610aff929190610cdd565b506040820151816002015560608201518160030160006101000a81548160ff02191690831515021790555050505080600560003373ffffffffffffffffffffffffffffffffffffffff1673ffffffffffffffffffffffffffffffffffffffff16815260200190815260200160002060008201518160000160006101000a81548173ffffffffffffffffffffffffffffffffffffffff021916908373ffffffffffffffffffffffffffffffffffffffff1602179055506020820151816001019080519060200190610bd0929190610cdd565b506040820151816002015560608201518160030160006101000a81548160ff02191690831515021790555090505060026000815480929190600101919050555050565b6040518060800160405280600073ffffffffffffffffffffffffffffffffffffffff16815260200160608152602001600081526020016000151581525090565b828054828255906000526020600020908101928215610ccc579160200282015b82811115610ccb5782518260006101000a81548173ffffffffffffffffffffffffffffffffffffffff021916908373ffffffffffffffffffffffffffffffffffffffff16021790555091602001919060010190610c73565b5b509050610cd99190610d5d565b5090565b828054600181600116156101000203166002900490600052602060002090601f016020900481019282601f10610d1e57805160ff1916838001178555610d4c565b82800160010185558215610d4c579182015b82811115610d4b578251825591602001919060010190610d30565b5b509050610d599190610da0565b5090565b610d9d91905b80821115610d9957600081816101000a81549073ffffffffffffffffffffffffffffffffffffffff021916905550600101610d63565b5090565b90565b610dc291905b80821115610dbe576000816000905550600101610da6565b5090565b90565b600081359050610dd4816116fb565b92915050565b600082601f830112610deb57600080fd5b8135610dfe610df98261154e565b611521565b91508181835260208401935060208101905083856020840282011115610e2357600080fd5b60005b83811015610e535781610e398882610dc5565b845260208401935060208301925050600181019050610e26565b5050505092915050565b600081359050610e6c81611712565b92915050565b600082601f830112610e8357600080fd5b8135610e96610e9182611576565b611521565b91508082526020830160208301858383011115610eb257600080fd5b610ebd8382846116a8565b50505092915050565b600060808284031215610ed857600080fd5b610ee26080611521565b90506000610ef284828501610dc5565b600083015250602082013567ffffffffffffffff811115610f1257600080fd5b610f1e84828501610e72565b6020830152506040610f328482850161104a565b6040830152506060610f4684828501610e5d565b60608301525092915050565b600060e08284031215610f6457600080fd5b610f6e60e0611521565b90506000610f7e84828501610dc5565b600083015250602082013567ffffffffffffffff811115610f9e57600080fd5b610faa84828501610dda565b6020830152506040610fbe8482850161104a565b604083015250606082013567ffffffffffffffff811115610fde57600080fd5b610fea84828501610e72565b606083015250608082013567ffffffffffffffff81111561100a57600080fd5b61101684828501610e72565b60808301525060a061102a84828501610e5d565b60a08301525060c061103e84828501610e5d565b60c08301525092915050565b60008135905061105981611729565b92915050565b60006020828403121561107157600080fd5b600061107f84828501610dc5565b91505092915050565b60006020828403121561109a57600080fd5b600082013567ffffffffffffffff8111156110b457600080fd5b6110c084828501610ec6565b91505092915050565b6000602082840312156110db57600080fd5b600082013567ffffffffffffffff8111156110f557600080fd5b61110184828501610f52565b91505092915050565b60006020828403121561111c57600080fd5b600061112a8482850161104a565b91505092915050565b600061113f8383611173565b60208301905092915050565b60006111578383611375565b905092915050565b600061116b83836113d8565b905092915050565b61117c81611660565b82525050565b600061118d826115c9565b611197818561161c565b93506111a2836115a2565b8060005b838110156111d35781516111ba8882611133565b97506111c5836115f5565b9250506001810190506111a6565b5085935050505092915050565b60006111eb826115d4565b6111f5818561162d565b935083602082028501611207856115af565b8060005b858110156112435784840389528151611224858261114b565b945061122f83611602565b925060208a0199505060018101905061120b565b50829750879550505050505092915050565b6000611260826115df565b61126a818561163e565b93508360208202850161127c856115bc565b8060005b858110156112b85784840389528151611299858261115f565b94506112a48361160f565b925060208a01995050600181019050611280565b50829750879550505050505092915050565b6112d381611672565b82525050565b60006112e4826115ea565b6112ee818561164f565b93506112fe8185602086016116b7565b611307816116ea565b840191505092915050565b600060808301600083015161132a6000860182611173565b506020830151848203602086015261134282826112d9565b91505060408301516113576040860182611482565b50606083015161136a60608601826112ca565b508091505092915050565b600060808301600083015161138d6000860182611173565b50602083015184820360208601526113a582826112d9565b91505060408301516113ba6040860182611482565b5060608301516113cd60608601826112ca565b508091505092915050565b600060e0830160008301516113f06000860182611173565b50602083015184820360208601526114088282611182565b915050604083015161141d6040860182611482565b506060830151848203606086015261143582826112d9565b9150506080830151848203608086015261144f82826112d9565b91505060a083015161146460a08601826112ca565b5060c083015161147760c08601826112ca565b508091505092915050565b61148b8161169e565b82525050565b61149a8161169e565b82525050565b600060208201905081810360008301526114ba81846111e0565b905092915050565b600060208201905081810360008301526114dc8184611255565b905092915050565b600060208201905081810360008301526114fe8184611312565b905092915050565b600060208201905061151b6000830184611491565b92915050565b6000604051905081810181811067ffffffffffffffff8211171561154457600080fd5b8060405250919050565b600067ffffffffffffffff82111561156557600080fd5b602082029050602081019050919050565b600067ffffffffffffffff82111561158d57600080fd5b601f19601f8301169050602081019050919050565b6000602082019050919050565b6000602082019050919050565b6000602082019050919050565b600081519050919050565b600081519050919050565b600081519050919050565b600081519050919050565b6000602082019050919050565b6000602082019050919050565b6000602082019050919050565b600082825260208201905092915050565b600082825260208201905092915050565b600082825260208201905092915050565b600082825260208201905092915050565b600061166b8261167e565b9050919050565b60008115159050919050565b600073ffffffffffffffffffffffffffffffffffffffff82169050919050565b6000819050919050565b82818337600083830152505050565b60005b838110156116d55780820151818401526020810190506116ba565b838111156116e4576000848401525b50505050565b6000601f19601f8301169050919050565b61170481611660565b811461170f57600080fd5b50565b61171b81611672565b811461172657600080fd5b50565b6117328161169e565b811461173d57600080fd5b5056fea265627a7a723058205ffd8a434fef6a7e737758779e8a2bd2985cc4b667f16c85eddd419838ebe7546c6578706572696d656e74616cf50037",
  "source": "pragma solidity >=0.4.22 <0.6.0;\r\npragma experimental ABIEncoderV2;\r\nimport \"./BaseFunds.sol\";\r\ncontract Funds is BaseFunds {\r\n    address owner;\r\n    address baseFundsAdrr;\r\n    BaseFunds baseFunds;\r\n    // uint256 totalFunds = 0;\r\n    // uint countParty = 0;\r\n    // struct Member{\r\n    //     address id;\r\n    //     string name;\r\n    //     uint256 money;\r\n    // }\r\n    // struct Party{\r\n    //     address creator;\r\n    //     address[] members;\r\n    //     uint256 money;\r\n    //     string message;\r\n    //     string date;\r\n    //     bool paySuccess;\r\n    // }\r\n    // mapping(address=>Member) members;\r\n    // Member fundHost;\r\n    // Member[] memberList;\r\n    // Party[] partyList;\r\n    modifier onlyOwner() { // Modifier\r\n        require(\r\n            msg.sender == owner,\r\n            \"Only Owner can call this.\"\r\n        );\r\n        _;\r\n    }\r\n    // modifier onlyMember() { // Modifier\r\n    //     require(\r\n    //         msg.sender != owner,\r\n    //         \"Only Owner can call this.\"\r\n    //     );\r\n    //     _;\r\n    // }\r\n    // modifier memberExists(address member) { // Modifier\r\n    //     bool checkExists = false;\r\n    //     for(uint i = 0; i < memberList.length; i++) {\r\n    //         if (memberList[i].id == member) {\r\n    //             checkExists = true;\r\n    //             break;\r\n    //         }\r\n    //     }\r\n    //     require(\r\n    //         checkExists,\r\n    //         \"Member not exists\"\r\n    //     );\r\n    //     _;\r\n    // }\r\n    // modifier memberNotExists(address member) { // Modifier\r\n    //     bool checkExists = false;\r\n    //     for(uint i = 0; i < memberList.length; i++) {\r\n    //         if (memberList[i].id == member) {\r\n    //             checkExists = true;\r\n    //             break;\r\n    //         }\r\n    //     }\r\n    //     require(\r\n    //         !checkExists,\r\n    //         \"Member is exists\"\r\n    //     );\r\n    //     _;\r\n    // }\r\n    constructor() public{\r\n        owner = msg.sender;\r\n        // fundHost = Member(msg.sender, \"HOST\", 0);\r\n    }\r\n\r\n    function setBaseFundAddress(address addr) public {\r\n        baseFundsAdrr = addr;\r\n        baseFunds = BaseFunds(addr);\r\n    }\r\n    \r\n    function setTestCount(uint val) public {\r\n        baseFunds.setTestCount(val);\r\n    }\r\n\r\n\r\n    // function getFundHost() public view returns (Member memory) {\r\n    //     return fundHost;\r\n    // }\r\n    // function getMemberList() public view returns (Member[] memory) {\r\n    //     return memberList;\r\n    // }\r\n    // function getPartyList() public view returns (Party[] memory) {\r\n    //     return partyList;\r\n    // }\r\n    // function test(uint256 val) public{\r\n    //     totalFunds = val;\r\n    // }\r\n    // function newMember(string memory _name) public payable memberNotExists(msg.sender){\r\n    //     Member memory member = Member(msg.sender, _name, 0);\r\n    //     members[msg.sender] = member;\r\n    //     memberList.push(member);\r\n    // }\r\n    // function newMember2(string memory _name) public memberNotExists(msg.sender){\r\n    //     Member memory member = Member(msg.sender, _name, 0);\r\n    //     members[msg.sender] = member;\r\n    //     memberList.push(member);\r\n    // }\r\n    // function payIn(address _member, uint256 _money) public onlyOwner memberExists(_member) {\r\n    //     members[_member].money += _money;\r\n    //     fundHost.money += _money;\r\n    // }\r\n    // function transferMoney(address _member, uint256 _money) public onlyOwner memberExists(_member) {\r\n    //     members[msg.sender].money -= _money;\r\n    //     members[_member].money += _money;\r\n    // }\r\n    // function createParty(address[] memory _members, uint256  _money, string memory  _message, string memory  _date) public{\r\n    //     partyList.push(Party(msg.sender, _members, _money, _message, _date, false));\r\n    //     countParty++;\r\n    // }\r\n    // function payForParty(uint index) public onlyOwner{\r\n    //     if(index >= countParty) return;\r\n    //     Party memory party = partyList[index];\r\n    //     if(!party.paySuccess){\r\n    //         party.paySuccess = true;\r\n    //         uint _money = party.money / party.members.length;\r\n    //         for(uint i = 0; i< party.members.length; i++){\r\n    //             members[party.members[i]].money -= _money;\r\n    //         }\r\n    //         fundHost.money -= party.money;\r\n    //     }\r\n    // }\r\n}",
  "sourcePath": "C:/Users/phongdt/Documents/projects/Test/PartyFunds/contracts/Funds.sol",
  "compiler": {
    "name": "solc",
    "version": "0.5.8+commit.23d335f2.Emscripten.clang"
  },
  "schemaVersion": "3.0.16",
  "updatedAt": "2019-11-13T04:25:54.281Z",
  "devdoc": {
    "methods": {}
  },
  "userdoc": {
    "methods": {}
  }
}