{
  "contractName": "Funds",
  "abi": [
    {
      "inputs": [],
      "payable": false,
      "stateMutability": "nonpayable",
      "type": "constructor"
    },
    {
      "constant": true,
      "inputs": [],
      "name": "getFundHost",
      "outputs": [
        {
          "components": [
            {
              "name": "id",
              "type": "address"
            },
            {
              "name": "name",
              "type": "string"
            },
            {
              "name": "money",
              "type": "uint256"
            }
          ],
          "name": "",
          "type": "tuple"
        }
      ],
      "payable": false,
      "stateMutability": "view",
      "type": "function"
    },
    {
      "constant": true,
      "inputs": [],
      "name": "getMemberList",
      "outputs": [
        {
          "components": [
            {
              "name": "id",
              "type": "address"
            },
            {
              "name": "name",
              "type": "string"
            },
            {
              "name": "money",
              "type": "uint256"
            }
          ],
          "name": "",
          "type": "tuple[]"
        }
      ],
      "payable": false,
      "stateMutability": "view",
      "type": "function"
    },
    {
      "constant": true,
      "inputs": [],
      "name": "getPartyList",
      "outputs": [
        {
          "components": [
            {
              "name": "creator",
              "type": "address"
            },
            {
              "name": "members",
              "type": "address[]"
            },
            {
              "name": "money",
              "type": "uint256"
            },
            {
              "name": "message",
              "type": "string"
            },
            {
              "name": "date",
              "type": "string"
            },
            {
              "name": "paySuccess",
              "type": "bool"
            }
          ],
          "name": "",
          "type": "tuple[]"
        }
      ],
      "payable": false,
      "stateMutability": "view",
      "type": "function"
    },
    {
      "constant": false,
      "inputs": [
        {
          "name": "val",
          "type": "uint256"
        }
      ],
      "name": "test",
      "outputs": [],
      "payable": false,
      "stateMutability": "nonpayable",
      "type": "function"
    },
    {
      "constant": false,
      "inputs": [
        {
          "name": "_name",
          "type": "string"
        }
      ],
      "name": "newMember",
      "outputs": [],
      "payable": true,
      "stateMutability": "payable",
      "type": "function"
    },
    {
      "constant": false,
      "inputs": [
        {
          "name": "_name",
          "type": "string"
        }
      ],
      "name": "newMember2",
      "outputs": [],
      "payable": false,
      "stateMutability": "nonpayable",
      "type": "function"
    },
    {
      "constant": false,
      "inputs": [
        {
          "name": "_member",
          "type": "address"
        },
        {
          "name": "_money",
          "type": "uint256"
        }
      ],
      "name": "payIn",
      "outputs": [],
      "payable": false,
      "stateMutability": "nonpayable",
      "type": "function"
    },
    {
      "constant": false,
      "inputs": [
        {
          "name": "_member",
          "type": "address"
        },
        {
          "name": "_money",
          "type": "uint256"
        }
      ],
      "name": "transferMoney",
      "outputs": [],
      "payable": false,
      "stateMutability": "nonpayable",
      "type": "function"
    },
    {
      "constant": false,
      "inputs": [
        {
          "name": "_members",
          "type": "address[]"
        },
        {
          "name": "_money",
          "type": "uint256"
        },
        {
          "name": "_message",
          "type": "string"
        },
        {
          "name": "_date",
          "type": "string"
        }
      ],
      "name": "createParty",
      "outputs": [],
      "payable": false,
      "stateMutability": "nonpayable",
      "type": "function"
    },
    {
      "constant": false,
      "inputs": [
        {
          "name": "index",
          "type": "uint256"
        }
      ],
      "name": "payForParty",
      "outputs": [],
      "payable": false,
      "stateMutability": "nonpayable",
      "type": "function"
    }
  ],
  "bytecode": "0x6080604052600060015560006002553480156200001b57600080fd5b50336000806101000a81548173ffffffffffffffffffffffffffffffffffffffff021916908373ffffffffffffffffffffffffffffffffffffffff16021790555060405180606001604052803373ffffffffffffffffffffffffffffffffffffffff1681526020016040518060400160405280600481526020017f484f53540000000000000000000000000000000000000000000000000000000081525081526020016000815250600460008201518160000160006101000a81548173ffffffffffffffffffffffffffffffffffffffff021916908373ffffffffffffffffffffffffffffffffffffffff16021790555060208201518160010190805190602001906200012a9291906200013e565b5060408201518160020155905050620001ed565b828054600181600116156101000203166002900490600052602060002090601f016020900481019282601f106200018157805160ff1916838001178555620001b2565b82800160010185558215620001b2579182015b82811115620001b157825182559160200191906001019062000194565b5b509050620001c19190620001c5565b5090565b620001ea91905b80821115620001e6576000816000905550600101620001cc565b5090565b90565b6120c580620001fd6000396000f3fe6080604052600436106100915760003560e01c80638f0e6bde116100595780638f0e6bde1461015c578063c033101114610185578063cc86983c146101ae578063e88a5063146101d7578063fee666ad1461020057610091565b8063188958421461009657806329e99f07146100c15780633d8e74d7146100ea5780635f5d5f0014610106578063879f582614610131575b600080fd5b3480156100a257600080fd5b506100ab610229565b6040516100b89190611e50565b60405180910390f35b3480156100cd57600080fd5b506100e860048036036100e3919081019061199e565b610345565b005b61010460048036036100ff919081019061195d565b61034f565b005b34801561011257600080fd5b5061011b6105c4565b6040516101289190611dac565b60405180910390f35b34801561013d57600080fd5b50610146610725565b6040516101539190611dce565b60405180910390f35b34801561016857600080fd5b50610183600480360361017e91908101906118b2565b6109d1565b005b34801561019157600080fd5b506101ac60048036036101a79190810190611876565b610b27565b005b3480156101ba57600080fd5b506101d560048036036101d0919081019061195d565b610d01565b005b3480156101e357600080fd5b506101fe60048036036101f9919081019061199e565b610f76565b005b34801561020c57600080fd5b5061022760048036036102229190810190611876565b611367565b005b61023161157e565b60046040518060600160405290816000820160009054906101000a900473ffffffffffffffffffffffffffffffffffffffff1673ffffffffffffffffffffffffffffffffffffffff1673ffffffffffffffffffffffffffffffffffffffff168152602001600182018054600181600116156101000203166002900480601f01602080910402602001604051908101604052809291908181526020018280546001816001161561010002031660029004801561032d5780601f106103025761010080835404028352916020019161032d565b820191906000526020600020905b81548152906001019060200180831161031057829003601f168201915b50505050508152602001600282015481525050905090565b8060018190555050565b33600080905060008090505b6007805490508110156103f0578273ffffffffffffffffffffffffffffffffffffffff166007828154811061038c57fe5b906000526020600020906003020160000160009054906101000a900473ffffffffffffffffffffffffffffffffffffffff1673ffffffffffffffffffffffffffffffffffffffff1614156103e357600191506103f0565b808060010191505061035b565b508015610432576040517f08c379a000000000000000000000000000000000000000000000000000000000815260040161042990611df0565b60405180910390fd5b61043a61157e565b60405180606001604052803373ffffffffffffffffffffffffffffffffffffffff1681526020018581526020016000815250905080600360003373ffffffffffffffffffffffffffffffffffffffff1673ffffffffffffffffffffffffffffffffffffffff16815260200190815260200160002060008201518160000160006101000a81548173ffffffffffffffffffffffffffffffffffffffff021916908373ffffffffffffffffffffffffffffffffffffffff16021790555060208201518160010190805190602001906105119291906115b5565b50604082015181600201559050506007819080600181540180825580915050906001820390600052602060002090600302016000909192909190915060008201518160000160006101000a81548173ffffffffffffffffffffffffffffffffffffffff021916908373ffffffffffffffffffffffffffffffffffffffff16021790555060208201518160010190805190602001906105b09291906115b5565b506040820151816002015550505050505050565b60606007805480602002602001604051908101604052809291908181526020016000905b8282101561071c57838290600052602060002090600302016040518060600160405290816000820160009054906101000a900473ffffffffffffffffffffffffffffffffffffffff1673ffffffffffffffffffffffffffffffffffffffff1673ffffffffffffffffffffffffffffffffffffffff168152602001600182018054600181600116156101000203166002900480601f0160208091040260200160405190810160405280929190818152602001828054600181600116156101000203166002900480156106fa5780601f106106cf576101008083540402835291602001916106fa565b820191906000526020600020905b8154815290600101906020018083116106dd57829003601f168201915b50505050508152602001600282015481525050815260200190600101906105e8565b50505050905090565b60606008805480602002602001604051908101604052809291908181526020016000905b828210156109c857838290600052602060002090600602016040518060c00160405290816000820160009054906101000a900473ffffffffffffffffffffffffffffffffffffffff1673ffffffffffffffffffffffffffffffffffffffff1673ffffffffffffffffffffffffffffffffffffffff1681526020016001820180548060200260200160405190810160405280929190818152602001828054801561084757602002820191906000526020600020905b8160009054906101000a900473ffffffffffffffffffffffffffffffffffffffff1673ffffffffffffffffffffffffffffffffffffffff16815260200190600101908083116107fd575b5050505050815260200160028201548152602001600382018054600181600116156101000203166002900480601f0160208091040260200160405190810160405280929190818152602001828054600181600116156101000203166002900480156108f35780601f106108c8576101008083540402835291602001916108f3565b820191906000526020600020905b8154815290600101906020018083116108d657829003601f168201915b50505050508152602001600482018054600181600116156101000203166002900480601f0160208091040260200160405190810160405280929190818152602001828054600181600116156101000203166002900480156109955780601f1061096a57610100808354040283529160200191610995565b820191906000526020600020905b81548152906001019060200180831161097857829003601f168201915b505050505081526020016005820160009054906101000a900460ff16151515158152505081526020019060010190610749565b50505050905090565b60086040518060c001604052803373ffffffffffffffffffffffffffffffffffffffff168152602001868152602001858152602001848152602001838152602001600015158152509080600181540180825580915050906001820390600052602060002090600602016000909192909190915060008201518160000160006101000a81548173ffffffffffffffffffffffffffffffffffffffff021916908373ffffffffffffffffffffffffffffffffffffffff1602179055506020820151816001019080519060200190610aa7929190611635565b50604082015181600201556060820151816003019080519060200190610ace9291906115b5565b506080820151816004019080519060200190610aeb9291906115b5565b5060a08201518160050160006101000a81548160ff02191690831515021790555050505060026000815480929190600101919050555050505050565b6000809054906101000a900473ffffffffffffffffffffffffffffffffffffffff1673ffffffffffffffffffffffffffffffffffffffff163373ffffffffffffffffffffffffffffffffffffffff1614610bb6576040517f08c379a0000000000000000000000000000000000000000000000000000000008152600401610bad90611e10565b60405180910390fd5b81600080905060008090505b600780549050811015610c57578273ffffffffffffffffffffffffffffffffffffffff1660078281548110610bf357fe5b906000526020600020906003020160000160009054906101000a900473ffffffffffffffffffffffffffffffffffffffff1673ffffffffffffffffffffffffffffffffffffffff161415610c4a5760019150610c57565b8080600101915050610bc2565b5080610c98576040517f08c379a0000000000000000000000000000000000000000000000000000000008152600401610c8f90611e30565b60405180910390fd5b82600360008673ffffffffffffffffffffffffffffffffffffffff1673ffffffffffffffffffffffffffffffffffffffff168152602001908152602001600020600201600082825401925050819055508260046002016000828254019250508190555050505050565b33600080905060008090505b600780549050811015610da2578273ffffffffffffffffffffffffffffffffffffffff1660078281548110610d3e57fe5b906000526020600020906003020160000160009054906101000a900473ffffffffffffffffffffffffffffffffffffffff1673ffffffffffffffffffffffffffffffffffffffff161415610d955760019150610da2565b8080600101915050610d0d565b508015610de4576040517f08c379a0000000000000000000000000000000000000000000000000000000008152600401610ddb90611df0565b60405180910390fd5b610dec61157e565b60405180606001604052803373ffffffffffffffffffffffffffffffffffffffff1681526020018581526020016000815250905080600360003373ffffffffffffffffffffffffffffffffffffffff1673ffffffffffffffffffffffffffffffffffffffff16815260200190815260200160002060008201518160000160006101000a81548173ffffffffffffffffffffffffffffffffffffffff021916908373ffffffffffffffffffffffffffffffffffffffff1602179055506020820151816001019080519060200190610ec39291906115b5565b50604082015181600201559050506007819080600181540180825580915050906001820390600052602060002090600302016000909192909190915060008201518160000160006101000a81548173ffffffffffffffffffffffffffffffffffffffff021916908373ffffffffffffffffffffffffffffffffffffffff1602179055506020820151816001019080519060200190610f629291906115b5565b506040820151816002015550505050505050565b6000809054906101000a900473ffffffffffffffffffffffffffffffffffffffff1673ffffffffffffffffffffffffffffffffffffffff163373ffffffffffffffffffffffffffffffffffffffff1614611005576040517f08c379a0000000000000000000000000000000000000000000000000000000008152600401610ffc90611e10565b60405180910390fd5b600254811061101357611364565b61101b6116bf565b6008828154811061102857fe5b90600052602060002090600602016040518060c00160405290816000820160009054906101000a900473ffffffffffffffffffffffffffffffffffffffff1673ffffffffffffffffffffffffffffffffffffffff1673ffffffffffffffffffffffffffffffffffffffff1681526020016001820180548060200260200160405190810160405280929190818152602001828054801561111c57602002820191906000526020600020905b8160009054906101000a900473ffffffffffffffffffffffffffffffffffffffff1673ffffffffffffffffffffffffffffffffffffffff16815260200190600101908083116110d2575b5050505050815260200160028201548152602001600382018054600181600116156101000203166002900480601f0160208091040260200160405190810160405280929190818152602001828054600181600116156101000203166002900480156111c85780601f1061119d576101008083540402835291602001916111c8565b820191906000526020600020905b8154815290600101906020018083116111ab57829003601f168201915b50505050508152602001600482018054600181600116156101000203166002900480601f01602080910402602001604051908101604052809291908181526020018280546001816001161561010002031660029004801561126a5780601f1061123f5761010080835404028352916020019161126a565b820191906000526020600020905b81548152906001019060200180831161124d57829003601f168201915b505050505081526020016005820160009054906101000a900460ff16151515158152505090508060a001516113625760018160a001901515908115158152505060008160200151518260400151816112be57fe5b04905060008090505b826020015151811015611348578160036000856020015184815181106112e957fe5b602002602001015173ffffffffffffffffffffffffffffffffffffffff1673ffffffffffffffffffffffffffffffffffffffff1681526020019081526020016000206002016000828254039250508190555080806001019150506112c7565b508160400151600460020160008282540392505081905550505b505b50565b6000809054906101000a900473ffffffffffffffffffffffffffffffffffffffff1673ffffffffffffffffffffffffffffffffffffffff163373ffffffffffffffffffffffffffffffffffffffff16146113f6576040517f08c379a00000000000000000000000000000000000000000000000000000000081526004016113ed90611e10565b60405180910390fd5b81600080905060008090505b600780549050811015611497578273ffffffffffffffffffffffffffffffffffffffff166007828154811061143357fe5b906000526020600020906003020160000160009054906101000a900473ffffffffffffffffffffffffffffffffffffffff1673ffffffffffffffffffffffffffffffffffffffff16141561148a5760019150611497565b8080600101915050611402565b50806114d8576040517f08c379a00000000000000000000000000000000000000000000000000000000081526004016114cf90611e30565b60405180910390fd5b82600360003373ffffffffffffffffffffffffffffffffffffffff1673ffffffffffffffffffffffffffffffffffffffff1681526020019081526020016000206002016000828254039250508190555082600360008673ffffffffffffffffffffffffffffffffffffffff1673ffffffffffffffffffffffffffffffffffffffff1681526020019081526020016000206002016000828254019250508190555050505050565b6040518060600160405280600073ffffffffffffffffffffffffffffffffffffffff16815260200160608152602001600081525090565b828054600181600116156101000203166002900490600052602060002090601f016020900481019282601f106115f657805160ff1916838001178555611624565b82800160010185558215611624579182015b82811115611623578251825591602001919060010190611608565b5b509050611631919061170d565b5090565b8280548282559060005260206000209081019282156116ae579160200282015b828111156116ad5782518260006101000a81548173ffffffffffffffffffffffffffffffffffffffff021916908373ffffffffffffffffffffffffffffffffffffffff16021790555091602001919060010190611655565b5b5090506116bb9190611732565b5090565b6040518060c00160405280600073ffffffffffffffffffffffffffffffffffffffff168152602001606081526020016000815260200160608152602001606081526020016000151581525090565b61172f91905b8082111561172b576000816000905550600101611713565b5090565b90565b61177291905b8082111561176e57600081816101000a81549073ffffffffffffffffffffffffffffffffffffffff021916905550600101611738565b5090565b90565b6000813590506117848161205d565b92915050565b600082601f83011261179b57600080fd5b81356117ae6117a982611e9f565b611e72565b915081818352602084019350602081019050838560208402820111156117d357600080fd5b60005b8381101561180357816117e98882611775565b8452602084019350602083019250506001810190506117d6565b5050505092915050565b600082601f83011261181e57600080fd5b813561183161182c82611ec7565b611e72565b9150808252602083016020830185838301111561184d57600080fd5b61185883828461200a565b50505092915050565b60008135905061187081612074565b92915050565b6000806040838503121561188957600080fd5b600061189785828601611775565b92505060206118a885828601611861565b9150509250929050565b600080600080608085870312156118c857600080fd5b600085013567ffffffffffffffff8111156118e257600080fd5b6118ee8782880161178a565b94505060206118ff87828801611861565b935050604085013567ffffffffffffffff81111561191c57600080fd5b6119288782880161180d565b925050606085013567ffffffffffffffff81111561194557600080fd5b6119518782880161180d565b91505092959194509250565b60006020828403121561196f57600080fd5b600082013567ffffffffffffffff81111561198957600080fd5b6119958482850161180d565b91505092915050565b6000602082840312156119b057600080fd5b60006119be84828501611861565b91505092915050565b60006119d38383611a07565b60208301905092915050565b60006119eb8383611cb6565b905092915050565b60006119ff8383611d06565b905092915050565b611a1081611fc2565b82525050565b6000611a2182611f1a565b611a2b8185611f6d565b9350611a3683611ef3565b8060005b83811015611a67578151611a4e88826119c7565b9750611a5983611f46565b925050600181019050611a3a565b5085935050505092915050565b6000611a7f82611f25565b611a898185611f7e565b935083602082028501611a9b85611f00565b8060005b85811015611ad75784840389528151611ab885826119df565b9450611ac383611f53565b925060208a01995050600181019050611a9f565b50829750879550505050505092915050565b6000611af482611f30565b611afe8185611f8f565b935083602082028501611b1085611f0d565b8060005b85811015611b4c5784840389528151611b2d85826119f3565b9450611b3883611f60565b925060208a01995050600181019050611b14565b50829750879550505050505092915050565b611b6781611fd4565b82525050565b6000611b7882611f3b565b611b828185611fa0565b9350611b92818560208601612019565b611b9b8161204c565b840191505092915050565b6000611bb3601083611fb1565b91507f4d656d62657220697320657869737473000000000000000000000000000000006000830152602082019050919050565b6000611bf3601983611fb1565b91507f4f6e6c79204f776e65722063616e2063616c6c20746869732e000000000000006000830152602082019050919050565b6000611c33601183611fb1565b91507f4d656d626572206e6f74206578697374730000000000000000000000000000006000830152602082019050919050565b6000606083016000830151611c7e6000860182611a07565b5060208301518482036020860152611c968282611b6d565b9150506040830151611cab6040860182611d9d565b508091505092915050565b6000606083016000830151611cce6000860182611a07565b5060208301518482036020860152611ce68282611b6d565b9150506040830151611cfb6040860182611d9d565b508091505092915050565b600060c083016000830151611d1e6000860182611a07565b5060208301518482036020860152611d368282611a16565b9150506040830151611d4b6040860182611d9d565b5060608301518482036060860152611d638282611b6d565b91505060808301518482036080860152611d7d8282611b6d565b91505060a0830151611d9260a0860182611b5e565b508091505092915050565b611da681612000565b82525050565b60006020820190508181036000830152611dc68184611a74565b905092915050565b60006020820190508181036000830152611de88184611ae9565b905092915050565b60006020820190508181036000830152611e0981611ba6565b9050919050565b60006020820190508181036000830152611e2981611be6565b9050919050565b60006020820190508181036000830152611e4981611c26565b9050919050565b60006020820190508181036000830152611e6a8184611c66565b905092915050565b6000604051905081810181811067ffffffffffffffff82111715611e9557600080fd5b8060405250919050565b600067ffffffffffffffff821115611eb657600080fd5b602082029050602081019050919050565b600067ffffffffffffffff821115611ede57600080fd5b601f19601f8301169050602081019050919050565b6000602082019050919050565b6000602082019050919050565b6000602082019050919050565b600081519050919050565b600081519050919050565b600081519050919050565b600081519050919050565b6000602082019050919050565b6000602082019050919050565b6000602082019050919050565b600082825260208201905092915050565b600082825260208201905092915050565b600082825260208201905092915050565b600082825260208201905092915050565b600082825260208201905092915050565b6000611fcd82611fe0565b9050919050565b60008115159050919050565b600073ffffffffffffffffffffffffffffffffffffffff82169050919050565b6000819050919050565b82818337600083830152505050565b60005b8381101561203757808201518184015260208101905061201c565b83811115612046576000848401525b50505050565b6000601f19601f8301169050919050565b61206681611fc2565b811461207157600080fd5b50565b61207d81612000565b811461208857600080fd5b5056fea265627a7a72305820387503304366764704d3262bf2296a5893fd0a744a16ef807f72a4025f609c956c6578706572696d656e74616cf50037",
  "source": "pragma solidity >=0.4.22 <0.6.0;\npragma experimental ABIEncoderV2;\ncontract Funds {\n    address owner;\n    uint256 totalFunds = 0;\n    uint countParty = 0;\n    struct Member{\n        address id;\n        string name;\n        uint256 money;\n    }\n    \n    struct Party{\n        address creator;\n        address[] members;\n        uint256 money;\n        string message;\n        string date;\n        bool paySuccess;\n    }\n    \n    mapping(address=>Member) members;\n    Member fundHost;\n    Member[] memberList;\n    Party[] partyList;\n    \n    modifier onlyOwner() { // Modifier\n        require(\n            msg.sender == owner,\n            \"Only Owner can call this.\"\n        );\n        _;\n    }\n    \n    modifier onlyMember() { // Modifier\n        require(\n            msg.sender != owner,\n            \"Only Owner can call this.\"\n        );\n        _;\n    }\n    \n    modifier memberExists(address member) { // Modifier\n        bool checkExists = false;\n        for(uint i = 0; i < memberList.length; i++) {\n            if (memberList[i].id == member) {\n                checkExists = true;\n                break;\n            }\n        }\n        require(\n            checkExists,\n            \"Member not exists\"\n        );\n        _;\n    }\n    \n    modifier memberNotExists(address member) { // Modifier\n        bool checkExists = false;\n        for(uint i = 0; i < memberList.length; i++) {\n            if (memberList[i].id == member) {\n                checkExists = true;\n                break;\n            }\n        }\n        require(\n            !checkExists,\n            \"Member is exists\"\n        );\n        _;\n    }\n \n    \n    constructor() public{\n        owner = msg.sender;\n        fundHost = Member(msg.sender, \"HOST\", 0);\n    }\n    \n    function getFundHost() public view returns (Member memory) {\n        return fundHost;\n    }\n    \n    function getMemberList() public view returns (Member[] memory) {\n        return memberList;\n    }\n    \n    function getPartyList() public view returns (Party[] memory) {\n        return partyList;\n    }\n    \n    function test(uint256 val) public{\n        totalFunds = val;\n    }\n    \n    function newMember(string memory _name) public payable memberNotExists(msg.sender){\n        Member memory member = Member(msg.sender, _name, 0);\n        members[msg.sender] = member;\n        memberList.push(member);\n    }\n    \n    function newMember2(string memory _name) public memberNotExists(msg.sender){\n        Member memory member = Member(msg.sender, _name, 0);\n        members[msg.sender] = member;\n        memberList.push(member);\n    }\n    \n    function payIn(address _member, uint256 _money) public onlyOwner memberExists(_member) {\n        members[_member].money += _money;\n        fundHost.money += _money;\n    }\n    \n    function transferMoney(address _member, uint256 _money) public onlyOwner memberExists(_member) {\n        members[msg.sender].money -= _money;\n        members[_member].money += _money;\n    }\n    \n    function createParty(address[] memory _members, uint256  _money, string memory  _message, string memory  _date) public{\n        partyList.push(Party(msg.sender, _members, _money, _message, _date, false));\n        countParty++;\n    }\n    \n    function payForParty(uint index) public onlyOwner{\n        if(index >= countParty) return;\n        Party memory party = partyList[index];\n        if(!party.paySuccess){\n            party.paySuccess = true;\n            uint _money = party.money / party.members.length;\n            for(uint i = 0; i< party.members.length; i++){\n                members[party.members[i]].money -= _money;\n            }\n            fundHost.money -= party.money;\n        }\n    }\n}",
  "sourcePath": "/Users/phongdo/Documents/Project/ethereum-tutorial/PartyFunds/contracts/Funds.sol",
  "compiler": {
    "name": "solc",
    "version": "0.5.8+commit.23d335f2.Emscripten.clang"
  },
  "schemaVersion": "3.0.16",
  "updatedAt": "2019-11-02T04:41:28.600Z",
  "devdoc": {
    "methods": {}
  },
  "userdoc": {
    "methods": {}
  }
}