{
  "contractName": "PartyFunds",
  "abi": [
    {
      "constant": true,
      "inputs": [],
      "name": "getTotalFund",
      "outputs": [
        {
          "name": "",
          "type": "int256"
        }
      ],
      "payable": false,
      "stateMutability": "view",
      "type": "function"
    },
    {
      "constant": true,
      "inputs": [],
      "name": "getFundHost",
      "outputs": [
        {
          "components": [
            {
              "name": "id",
              "type": "address"
            },
            {
              "name": "name",
              "type": "string"
            },
            {
              "name": "money",
              "type": "int256"
            },
            {
              "name": "index",
              "type": "uint256"
            },
            {
              "name": "isValue",
              "type": "bool"
            }
          ],
          "name": "",
          "type": "tuple"
        }
      ],
      "payable": false,
      "stateMutability": "view",
      "type": "function"
    },
    {
      "constant": true,
      "inputs": [
        {
          "name": "_page",
          "type": "uint256"
        },
        {
          "name": "_perPage",
          "type": "uint256"
        }
      ],
      "name": "getMemberList",
      "outputs": [
        {
          "components": [
            {
              "name": "id",
              "type": "address"
            },
            {
              "name": "name",
              "type": "string"
            },
            {
              "name": "money",
              "type": "int256"
            },
            {
              "name": "index",
              "type": "uint256"
            },
            {
              "name": "isValue",
              "type": "bool"
            }
          ],
          "name": "",
          "type": "tuple[]"
        }
      ],
      "payable": false,
      "stateMutability": "view",
      "type": "function"
    },
    {
      "constant": true,
      "inputs": [
        {
          "name": "_addr",
          "type": "address"
        }
      ],
      "name": "getMember",
      "outputs": [
        {
          "components": [
            {
              "name": "id",
              "type": "address"
            },
            {
              "name": "name",
              "type": "string"
            },
            {
              "name": "money",
              "type": "int256"
            },
            {
              "name": "index",
              "type": "uint256"
            },
            {
              "name": "isValue",
              "type": "bool"
            }
          ],
          "name": "",
          "type": "tuple"
        }
      ],
      "payable": false,
      "stateMutability": "view",
      "type": "function"
    },
    {
      "constant": true,
      "inputs": [
        {
          "name": "_page",
          "type": "uint256"
        },
        {
          "name": "_perPage",
          "type": "uint256"
        }
      ],
      "name": "getPartyList",
      "outputs": [
        {
          "components": [
            {
              "name": "creator",
              "type": "address"
            },
            {
              "name": "payerAddress",
              "type": "address[]"
            },
            {
              "name": "payerMoney",
              "type": "int256[]"
            },
            {
              "name": "members",
              "type": "address[]"
            },
            {
              "name": "money",
              "type": "uint256"
            },
            {
              "name": "message",
              "type": "string"
            },
            {
              "name": "createdDate",
              "type": "string"
            },
            {
              "name": "paySuccess",
              "type": "bool"
            },
            {
              "name": "reject",
              "type": "bool"
            },
            {
              "name": "requestReject",
              "type": "bool"
            },
            {
              "name": "isValue",
              "type": "bool"
            }
          ],
          "name": "",
          "type": "tuple[]"
        }
      ],
      "payable": false,
      "stateMutability": "view",
      "type": "function"
    },
    {
      "constant": true,
      "inputs": [
        {
          "name": "_id",
          "type": "uint256"
        }
      ],
      "name": "getParty",
      "outputs": [
        {
          "components": [
            {
              "name": "creator",
              "type": "address"
            },
            {
              "name": "payerAddress",
              "type": "address[]"
            },
            {
              "name": "payerMoney",
              "type": "int256[]"
            },
            {
              "name": "members",
              "type": "address[]"
            },
            {
              "name": "money",
              "type": "uint256"
            },
            {
              "name": "message",
              "type": "string"
            },
            {
              "name": "createdDate",
              "type": "string"
            },
            {
              "name": "paySuccess",
              "type": "bool"
            },
            {
              "name": "reject",
              "type": "bool"
            },
            {
              "name": "requestReject",
              "type": "bool"
            },
            {
              "name": "isValue",
              "type": "bool"
            }
          ],
          "name": "",
          "type": "tuple"
        }
      ],
      "payable": false,
      "stateMutability": "view",
      "type": "function"
    },
    {
      "constant": true,
      "inputs": [
        {
          "name": "_page",
          "type": "uint256"
        },
        {
          "name": "_perPage",
          "type": "uint256"
        }
      ],
      "name": "getTransferHistoriyList",
      "outputs": [
        {
          "components": [
            {
              "name": "sender",
              "type": "address"
            },
            {
              "name": "receiver",
              "type": "address"
            },
            {
              "name": "money",
              "type": "int256"
            },
            {
              "name": "isDeposit",
              "type": "bool"
            },
            {
              "name": "accept",
              "type": "bool"
            }
          ],
          "name": "",
          "type": "tuple[]"
        }
      ],
      "payable": false,
      "stateMutability": "view",
      "type": "function"
    },
    {
      "constant": false,
      "inputs": [
        {
          "name": "_name",
          "type": "string"
        }
      ],
      "name": "addMember",
      "outputs": [],
      "payable": false,
      "stateMutability": "nonpayable",
      "type": "function"
    },
    {
      "constant": false,
      "inputs": [
        {
          "name": "_addr",
          "type": "address"
        },
        {
          "name": "_name",
          "type": "string"
        },
        {
          "name": "_money",
          "type": "int256"
        }
      ],
      "name": "updateMember",
      "outputs": [],
      "payable": false,
      "stateMutability": "nonpayable",
      "type": "function"
    },
    {
      "constant": false,
      "inputs": [
        {
          "name": "_addr",
          "type": "address"
        },
        {
          "name": "_money",
          "type": "int256"
        },
        {
          "name": "_isAdd",
          "type": "bool"
        }
      ],
      "name": "updateMemberMoney",
      "outputs": [],
      "payable": false,
      "stateMutability": "nonpayable",
      "type": "function"
    },
    {
      "constant": false,
      "inputs": [
        {
          "name": "_payerAddress",
          "type": "address[]"
        },
        {
          "name": "_payerMoney",
          "type": "int256[]"
        },
        {
          "name": "_members",
          "type": "address[]"
        },
        {
          "name": "_money",
          "type": "uint256"
        },
        {
          "name": "_message",
          "type": "string"
        },
        {
          "name": "_createdDate",
          "type": "string"
        }
      ],
      "name": "addParty",
      "outputs": [],
      "payable": false,
      "stateMutability": "nonpayable",
      "type": "function"
    },
    {
      "constant": false,
      "inputs": [
        {
          "name": "_id",
          "type": "uint256"
        },
        {
          "name": "_payerAddress",
          "type": "address[]"
        },
        {
          "name": "_payerMoney",
          "type": "int256[]"
        },
        {
          "name": "_members",
          "type": "address[]"
        },
        {
          "name": "_money",
          "type": "uint256"
        },
        {
          "name": "_message",
          "type": "string"
        },
        {
          "name": "_createdDate",
          "type": "string"
        },
        {
          "name": "_requestReject",
          "type": "bool"
        }
      ],
      "name": "updatePartyByCreator",
      "outputs": [],
      "payable": false,
      "stateMutability": "nonpayable",
      "type": "function"
    },
    {
      "constant": false,
      "inputs": [
        {
          "name": "_id",
          "type": "uint256"
        },
        {
          "name": "_paySuccess",
          "type": "bool"
        },
        {
          "name": "_reject",
          "type": "bool"
        }
      ],
      "name": "updatePartyByOwner",
      "outputs": [],
      "payable": false,
      "stateMutability": "nonpayable",
      "type": "function"
    },
    {
      "constant": false,
      "inputs": [
        {
          "name": "_receiver",
          "type": "address"
        },
        {
          "name": "_money",
          "type": "int256"
        },
        {
          "name": "_isDeposit",
          "type": "bool"
        },
        {
          "name": "_accept",
          "type": "bool"
        }
      ],
      "name": "addTransferHistory",
      "outputs": [],
      "payable": false,
      "stateMutability": "nonpayable",
      "type": "function"
    },
    {
      "constant": false,
      "inputs": [
        {
          "name": "_id",
          "type": "uint256"
        },
        {
          "name": "_receiver",
          "type": "address"
        },
        {
          "name": "_money",
          "type": "int256"
        },
        {
          "name": "_isDeposit",
          "type": "bool"
        },
        {
          "name": "_accept",
          "type": "bool"
        }
      ],
      "name": "updateTransferHistory",
      "outputs": [],
      "payable": false,
      "stateMutability": "nonpayable",
      "type": "function"
    },
    {
      "constant": false,
      "inputs": [
        {
          "name": "_receiver",
          "type": "address"
        },
        {
          "name": "_money",
          "type": "int256"
        }
      ],
      "name": "transferMoney",
      "outputs": [],
      "payable": false,
      "stateMutability": "nonpayable",
      "type": "function"
    },
    {
      "constant": false,
      "inputs": [
        {
          "name": "_id",
          "type": "uint256"
        }
      ],
      "name": "requestRejectParty",
      "outputs": [],
      "payable": false,
      "stateMutability": "nonpayable",
      "type": "function"
    },
    {
      "constant": false,
      "inputs": [
        {
          "name": "_id",
          "type": "uint256"
        }
      ],
      "name": "rejectParty",
      "outputs": [],
      "payable": false,
      "stateMutability": "nonpayable",
      "type": "function"
    },
    {
      "constant": false,
      "inputs": [
        {
          "name": "_id",
          "type": "uint256"
        }
      ],
      "name": "acceptParty",
      "outputs": [],
      "payable": false,
      "stateMutability": "nonpayable",
      "type": "function"
    }
  ],
  "bytecode": "0x6080604052600060015560006002556000600355600060045534801561002457600080fd5b5061520e806100346000396000f3fe608060405234801561001057600080fd5b50600436106101215760003560e01c80639fd813e3116100ad578063d6c936ad11610071578063d6c936ad146102ee578063efe963b51461030a578063f6aaab6b14610326578063fed8f8f614610342578063feec67d31461037257610121565b80639fd813e3146102605780639ffeccf31461027e578063ad675c911461029a578063c00a9915146102b6578063ca0aac38146102d257610121565b80635cedfdd0116100f45780635cedfdd0146101c057806387449700146101dc578063880897dd146101f8578063918f968714610214578063947582181461023057610121565b806318895842146101265780632379d47f146101445780632ada2596146101605780633422ac1b14610190575b600080fd5b61012e6103a2565b60405161013b9190614eab565b60405180910390f35b61015e600480360361015991908101906143f3565b6104e3565b005b61017a60048036036101759190810190614133565b610539565b6040516101879190614eab565b60405180910390f35b6101aa60048036036101a5919081019061460c565b6106b9565b6040516101b79190614dcc565b60405180910390f35b6101da60048036036101d591908101906142b1565b610b14565b005b6101f660048036036101f1919081019061424a565b610f9f565b005b610212600480360361020d91908101906143f3565b6111b1565b005b61022e600480360361022991908101906143b2565b6111c1565b005b61024a600480360361024591908101906143f3565b611460565b6040516102579190614ecd565b60405180910390f35b610268611812565b6040516102759190614e10565b60405180910390f35b6102986004803603610293919081019061441c565b61181c565b005b6102b460048036036102af9190810190614198565b611ac1565b005b6102d060048036036102cb91908101906141e7565b611d78565b005b6102ec60048036036102e7919081019061415c565b611ed7565b005b610308600480360361030391908101906145bd565b611f01565b005b610324600480360361031f9190810190614493565b612a52565b005b610340600480360361033b91908101906143f3565b6135b2565b005b61035c6004803603610357919081019061460c565b613697565b6040516103699190614daa565b60405180910390f35b61038c6004803603610387919081019061460c565b61389c565b6040516103999190614dee565b60405180910390f35b6103aa613a5e565b60086040518060a00160405290816000820160009054906101000a900473ffffffffffffffffffffffffffffffffffffffff1673ffffffffffffffffffffffffffffffffffffffff1673ffffffffffffffffffffffffffffffffffffffff168152602001600182018054600181600116156101000203166002900480601f0160208091040260200160405190810160405280929190818152602001828054600181600116156101000203166002900480156104a65780601f1061047b576101008083540402835291602001916104a6565b820191906000526020600020905b81548152906001019060200180831161048957829003601f168201915b5050505050815260200160028201548152602001600382015481526020016004820160009054906101000a900460ff161515151581525050905090565b6104eb613aa5565b6104f482611460565b90506001816101200190151590811515815250506105358282602001518360400151846060015185608001518660a001518760c00151886101200151612a52565b5050565b610541613a5e565b600560008373ffffffffffffffffffffffffffffffffffffffff1673ffffffffffffffffffffffffffffffffffffffff1681526020019081526020016000206040518060a00160405290816000820160009054906101000a900473ffffffffffffffffffffffffffffffffffffffff1673ffffffffffffffffffffffffffffffffffffffff1673ffffffffffffffffffffffffffffffffffffffff168152602001600182018054600181600116156101000203166002900480601f01602080910402602001604051908101604052809291908181526020018280546001816001161561010002031660029004801561067a5780601f1061064f5761010080835404028352916020019161067a565b820191906000526020600020905b81548152906001019060200180831161065d57829003601f168201915b5050505050815260200160028201548152602001600382015481526020016004820160009054906101000a900460ff1615151515815250509050919050565b6060600082600185030290506000838502905060008090506003548211156106ec578260035403905082810191506106f0565b8490505b60608160405190808252806020026020018201604052801561072c57816020015b610719613b1d565b8152602001906001900390816107115790505b50905060008490505b83811015610b065760066000828152602001908152602001600020604051806101600160405290816000820160009054906101000a900473ffffffffffffffffffffffffffffffffffffffff1673ffffffffffffffffffffffffffffffffffffffff1673ffffffffffffffffffffffffffffffffffffffff1681526020016001820180548060200260200160405190810160405280929190818152602001828054801561083757602002820191906000526020600020905b8160009054906101000a900473ffffffffffffffffffffffffffffffffffffffff1673ffffffffffffffffffffffffffffffffffffffff16815260200190600101908083116107ed575b505050505081526020016002820180548060200260200160405190810160405280929190818152602001828054801561088f57602002820191906000526020600020905b81548152602001906001019080831161087b575b505050505081526020016003820180548060200260200160405190810160405280929190818152602001828054801561091d57602002820191906000526020600020905b8160009054906101000a900473ffffffffffffffffffffffffffffffffffffffff1673ffffffffffffffffffffffffffffffffffffffff16815260200190600101908083116108d3575b5050505050815260200160048201548152602001600582018054600181600116156101000203166002900480601f0160208091040260200160405190810160405280929190818152602001828054600181600116156101000203166002900480156109c95780601f1061099e576101008083540402835291602001916109c9565b820191906000526020600020905b8154815290600101906020018083116109ac57829003601f168201915b50505050508152602001600682018054600181600116156101000203166002900480601f016020809104026020016040519081016040528092919081815260200182805460018160011615610100020316600290048015610a6b5780601f10610a4057610100808354040283529160200191610a6b565b820191906000526020600020905b815481529060010190602001808311610a4e57829003601f168201915b505050505081526020016007820160009054906101000a900460ff161515151581526020016007820160019054906101000a900460ff161515151581526020016007820160029054906101000a900460ff161515151581526020016007820160039054906101000a900460ff1615151515815250508286830381518110610aee57fe5b60200260200101819052508080600101915050610735565b508094505050505092915050565b85856000600190508151835114610b2a57600090505b60008090505b8351811015610bb457818015610ba5575060056000858381518110610b5157fe5b602002602001015173ffffffffffffffffffffffffffffffffffffffff1673ffffffffffffffffffffffffffffffffffffffff16815260200190815260200160002060040160009054906101000a900460ff165b91508080600101915050610b30565b5080610bf5576040517f08c379a0000000000000000000000000000000000000000000000000000000008152600401610bec90614e2b565b60405180910390fd5b610bfd613aa5565b6040518061016001604052803373ffffffffffffffffffffffffffffffffffffffff1681526020018b81526020018a8152602001898152602001888152602001878152602001868152602001600015158152602001600015158152602001600015158152602001600115158152509050600e819080600181540180825580915050906001820390600052602060002090600802016000909192909190915060008201518160000160006101000a81548173ffffffffffffffffffffffffffffffffffffffff021916908373ffffffffffffffffffffffffffffffffffffffff1602179055506020820151816001019080519060200190610cfe929190613b95565b506040820151816002019080519060200190610d1b929190613c1f565b506060820151816003019080519060200190610d38929190613b95565b506080820151816004015560a0820151816005019080519060200190610d5f929190613c6c565b5060c0820151816006019080519060200190610d7c929190613c6c565b5060e08201518160070160006101000a81548160ff0219169083151502179055506101008201518160070160016101000a81548160ff0219169083151502179055506101208201518160070160026101000a81548160ff0219169083151502179055506101408201518160070160036101000a81548160ff0219169083151502179055505050508060066000600354815260200190815260200160002060008201518160000160006101000a81548173ffffffffffffffffffffffffffffffffffffffff021916908373ffffffffffffffffffffffffffffffffffffffff1602179055506020820151816001019080519060200190610e7c929190613b95565b506040820151816002019080519060200190610e99929190613c1f565b506060820151816003019080519060200190610eb6929190613b95565b506080820151816004015560a0820151816005019080519060200190610edd929190613c6c565b5060c0820151816006019080519060200190610efa929190613c6c565b5060e08201518160070160006101000a81548160ff0219169083151502179055506101008201518160070160016101000a81548160ff0219169083151502179055506101208201518160070160026101000a81548160ff0219169083151502179055506101408201518160070160036101000a81548160ff02191690831515021790555090505060036000815480929190600101919050555050505050505050505050565b81600560008573ffffffffffffffffffffffffffffffffffffffff1673ffffffffffffffffffffffffffffffffffffffff1681526020019081526020016000206001019080519060200190610ff5929190613cec565b5080600560008573ffffffffffffffffffffffffffffffffffffffff1673ffffffffffffffffffffffffffffffffffffffff16815260200190815260200160002060020181905550600560008473ffffffffffffffffffffffffffffffffffffffff1673ffffffffffffffffffffffffffffffffffffffff168152602001908152602001600020600d600560008673ffffffffffffffffffffffffffffffffffffffff1673ffffffffffffffffffffffffffffffffffffffff16815260200190815260200160002060030154815481106110cb57fe5b90600052602060002090600502016000820160009054906101000a900473ffffffffffffffffffffffffffffffffffffffff168160000160006101000a81548173ffffffffffffffffffffffffffffffffffffffff021916908373ffffffffffffffffffffffffffffffffffffffff16021790555060018201816001019080546001816001161561010002031660029004611167929190613d6c565b5060028201548160020155600382015481600301556004820160009054906101000a900460ff168160040160006101000a81548160ff021916908315150217905550905050505050565b6111be8160006001611f01565b50565b336000600560008373ffffffffffffffffffffffffffffffffffffffff1673ffffffffffffffffffffffffffffffffffffffff16815260200190815260200160002060040160009054906101000a900460ff1690508015611257576040517f08c379a000000000000000000000000000000000000000000000000000000000815260040161124e90614e6b565b60405180910390fd5b61125f613a5e565b6040518060a001604052803373ffffffffffffffffffffffffffffffffffffffff168152602001858152602001600081526020016002548152602001600115158152509050600d819080600181540180825580915050906001820390600052602060002090600502016000909192909190915060008201518160000160006101000a81548173ffffffffffffffffffffffffffffffffffffffff021916908373ffffffffffffffffffffffffffffffffffffffff1602179055506020820151816001019080519060200190611335929190613c6c565b50604082015181600201556060820151816003015560808201518160040160006101000a81548160ff02191690831515021790555050505080600560003373ffffffffffffffffffffffffffffffffffffffff1673ffffffffffffffffffffffffffffffffffffffff16815260200190815260200160002060008201518160000160006101000a81548173ffffffffffffffffffffffffffffffffffffffff021916908373ffffffffffffffffffffffffffffffffffffffff1602179055506020820151816001019080519060200190611410929190613c6c565b50604082015181600201556060820151816003015560808201518160040160006101000a81548160ff02191690831515021790555090505060026000815480929190600101919050555050505050565b611468613aa5565b60066000838152602001908152602001600020604051806101600160405290816000820160009054906101000a900473ffffffffffffffffffffffffffffffffffffffff1673ffffffffffffffffffffffffffffffffffffffff1673ffffffffffffffffffffffffffffffffffffffff1681526020016001820180548060200260200160405190810160405280929190818152602001828054801561156257602002820191906000526020600020905b8160009054906101000a900473ffffffffffffffffffffffffffffffffffffffff1673ffffffffffffffffffffffffffffffffffffffff1681526020019060010190808311611518575b50505050508152602001600282018054806020026020016040519081016040528092919081815260200182805480156115ba57602002820191906000526020600020905b8154815260200190600101908083116115a6575b505050505081526020016003820180548060200260200160405190810160405280929190818152602001828054801561164857602002820191906000526020600020905b8160009054906101000a900473ffffffffffffffffffffffffffffffffffffffff1673ffffffffffffffffffffffffffffffffffffffff16815260200190600101908083116115fe575b5050505050815260200160048201548152602001600582018054600181600116156101000203166002900480601f0160208091040260200160405190810160405280929190818152602001828054600181600116156101000203166002900480156116f45780601f106116c9576101008083540402835291602001916116f4565b820191906000526020600020905b8154815290600101906020018083116116d757829003601f168201915b50505050508152602001600682018054600181600116156101000203166002900480601f0160208091040260200160405190810160405280929190818152602001828054600181600116156101000203166002900480156117965780601f1061176b57610100808354040283529160200191611796565b820191906000526020600020905b81548152906001019060200180831161177957829003601f168201915b505050505081526020016007820160009054906101000a900460ff161515151581526020016007820160019054906101000a900460ff161515151581526020016007820160029054906101000a900460ff161515151581526020016007820160039054906101000a900460ff1615151515815250509050919050565b6000600154905090565b611824613df3565b600760008781526020019081526020016000206040518060a00160405290816000820160009054906101000a900473ffffffffffffffffffffffffffffffffffffffff1673ffffffffffffffffffffffffffffffffffffffff1673ffffffffffffffffffffffffffffffffffffffff1681526020016001820160009054906101000a900473ffffffffffffffffffffffffffffffffffffffff1673ffffffffffffffffffffffffffffffffffffffff1673ffffffffffffffffffffffffffffffffffffffff168152602001600282015481526020016003820160009054906101000a900460ff161515151581526020016003820160019054906101000a900460ff161515151581525050905033816000019073ffffffffffffffffffffffffffffffffffffffff16908173ffffffffffffffffffffffffffffffffffffffff168152505084816020019073ffffffffffffffffffffffffffffffffffffffff16908173ffffffffffffffffffffffffffffffffffffffff1681525050838160400181815250508281606001901515908115158152505081816080019015159081151581525050806007600088815260200190815260200160002060008201518160000160006101000a81548173ffffffffffffffffffffffffffffffffffffffff021916908373ffffffffffffffffffffffffffffffffffffffff16021790555060208201518160010160006101000a81548173ffffffffffffffffffffffffffffffffffffffff021916908373ffffffffffffffffffffffffffffffffffffffff1602179055506040820151816002015560608201518160030160006101000a81548160ff02191690831515021790555060808201518160030160016101000a81548160ff021916908315150217905550905050505050505050565b826000600560008373ffffffffffffffffffffffffffffffffffffffff1673ffffffffffffffffffffffffffffffffffffffff16815260200190815260200160002060040160009054906101000a900460ff16905080611b56576040517f08c379a0000000000000000000000000000000000000000000000000000000008152600401611b4d90614e4b565b60405180910390fd5b8215611bb15783600560008773ffffffffffffffffffffffffffffffffffffffff1673ffffffffffffffffffffffffffffffffffffffff16815260200190815260200160002060020160008282540192505081905550611c02565b83600560008773ffffffffffffffffffffffffffffffffffffffff1673ffffffffffffffffffffffffffffffffffffffff168152602001908152602001600020600201600082825403925050819055505b600560008673ffffffffffffffffffffffffffffffffffffffff1673ffffffffffffffffffffffffffffffffffffffff168152602001908152602001600020600d600560008873ffffffffffffffffffffffffffffffffffffffff1673ffffffffffffffffffffffffffffffffffffffff1681526020019081526020016000206003015481548110611c9057fe5b90600052602060002090600502016000820160009054906101000a900473ffffffffffffffffffffffffffffffffffffffff168160000160006101000a81548173ffffffffffffffffffffffffffffffffffffffff021916908373ffffffffffffffffffffffffffffffffffffffff16021790555060018201816001019080546001816001161561010002031660029004611d2c929190613d6c565b5060028201548160020155600382015481600301556004820160009054906101000a900460ff168160040160006101000a81548160ff0219169083151502179055509050505050505050565b6040518060a001604052803373ffffffffffffffffffffffffffffffffffffffff1681526020018573ffffffffffffffffffffffffffffffffffffffff168152602001848152602001831515815260200182151581525060076000600454815260200190815260200160002060008201518160000160006101000a81548173ffffffffffffffffffffffffffffffffffffffff021916908373ffffffffffffffffffffffffffffffffffffffff16021790555060208201518160010160006101000a81548173ffffffffffffffffffffffffffffffffffffffff021916908373ffffffffffffffffffffffffffffffffffffffff1602179055506040820151816002015560608201518160030160006101000a81548160ff02191690831515021790555060808201518160030160016101000a81548160ff02191690831515021790555090505060046000815480929190600101919050555050505050565b611ee333826000611ac1565b611eef82826001611ac1565b611efd828260006001611d78565b5050565b8233600060019050611f11613aa5565b60066000858152602001908152602001600020604051806101600160405290816000820160009054906101000a900473ffffffffffffffffffffffffffffffffffffffff1673ffffffffffffffffffffffffffffffffffffffff1673ffffffffffffffffffffffffffffffffffffffff1681526020016001820180548060200260200160405190810160405280929190818152602001828054801561200b57602002820191906000526020600020905b8160009054906101000a900473ffffffffffffffffffffffffffffffffffffffff1673ffffffffffffffffffffffffffffffffffffffff1681526020019060010190808311611fc1575b505050505081526020016002820180548060200260200160405190810160405280929190818152602001828054801561206357602002820191906000526020600020905b81548152602001906001019080831161204f575b50505050508152602001600382018054806020026020016040519081016040528092919081815260200182805480156120f157602002820191906000526020600020905b8160009054906101000a900473ffffffffffffffffffffffffffffffffffffffff1673ffffffffffffffffffffffffffffffffffffffff16815260200190600101908083116120a7575b5050505050815260200160048201548152602001600582018054600181600116156101000203166002900480601f01602080910402602001604051908101604052809291908181526020018280546001816001161561010002031660029004801561219d5780601f106121725761010080835404028352916020019161219d565b820191906000526020600020905b81548152906001019060200180831161218057829003601f168201915b50505050508152602001600682018054600181600116156101000203166002900480601f01602080910402602001604051908101604052809291908181526020018280546001816001161561010002031660029004801561223f5780601f106122145761010080835404028352916020019161223f565b820191906000526020600020905b81548152906001019060200180831161222257829003601f168201915b505050505081526020016007820160009054906101000a900460ff161515151581526020016007820160019054906101000a900460ff161515151581526020016007820160029054906101000a900460ff161515151581526020016007820160039054906101000a900460ff1615151515815250509050806101000151806122c857508060e001515b806122d65750806101400151155b156122e057600091505b8273ffffffffffffffffffffffffffffffffffffffff166000809054906101000a900473ffffffffffffffffffffffffffffffffffffffff1673ffffffffffffffffffffffffffffffffffffffff161461233957600091505b811561237a576040517f08c379a000000000000000000000000000000000000000000000000000000000815260040161237190614e8b565b60405180910390fd5b612382613aa5565b60066000898152602001908152602001600020604051806101600160405290816000820160009054906101000a900473ffffffffffffffffffffffffffffffffffffffff1673ffffffffffffffffffffffffffffffffffffffff1673ffffffffffffffffffffffffffffffffffffffff1681526020016001820180548060200260200160405190810160405280929190818152602001828054801561247c57602002820191906000526020600020905b8160009054906101000a900473ffffffffffffffffffffffffffffffffffffffff1673ffffffffffffffffffffffffffffffffffffffff1681526020019060010190808311612432575b50505050508152602001600282018054806020026020016040519081016040528092919081815260200182805480156124d457602002820191906000526020600020905b8154815260200190600101908083116124c0575b505050505081526020016003820180548060200260200160405190810160405280929190818152602001828054801561256257602002820191906000526020600020905b8160009054906101000a900473ffffffffffffffffffffffffffffffffffffffff1673ffffffffffffffffffffffffffffffffffffffff1681526020019060010190808311612518575b5050505050815260200160048201548152602001600582018054600181600116156101000203166002900480601f01602080910402602001604051908101604052809291908181526020018280546001816001161561010002031660029004801561260e5780601f106125e35761010080835404028352916020019161260e565b820191906000526020600020905b8154815290600101906020018083116125f157829003601f168201915b50505050508152602001600682018054600181600116156101000203166002900480601f0160208091040260200160405190810160405280929190818152602001828054600181600116156101000203166002900480156126b05780601f10612685576101008083540402835291602001916126b0565b820191906000526020600020905b81548152906001019060200180831161269357829003601f168201915b505050505081526020016007820160009054906101000a900460ff161515151581526020016007820160019054906101000a900460ff161515151581526020016007820160029054906101000a900460ff161515151581526020016007820160039054906101000a900460ff1615151515815250509050868160e0019015159081151581525050858161010001901515908115158152505080600e898154811061275657fe5b906000526020600020906008020160008201518160000160006101000a81548173ffffffffffffffffffffffffffffffffffffffff021916908373ffffffffffffffffffffffffffffffffffffffff16021790555060208201518160010190805190602001906127c7929190613b95565b5060408201518160020190805190602001906127e4929190613c1f565b506060820151816003019080519060200190612801929190613b95565b506080820151816004015560a0820151816005019080519060200190612828929190613c6c565b5060c0820151816006019080519060200190612845929190613c6c565b5060e08201518160070160006101000a81548160ff0219169083151502179055506101008201518160070160016101000a81548160ff0219169083151502179055506101208201518160070160026101000a81548160ff0219169083151502179055506101408201518160070160036101000a81548160ff02191690831515021790555090505080600660008a815260200190815260200160002060008201518160000160006101000a81548173ffffffffffffffffffffffffffffffffffffffff021916908373ffffffffffffffffffffffffffffffffffffffff1602179055506020820151816001019080519060200190612943929190613b95565b506040820151816002019080519060200190612960929190613c1f565b50606082015181600301908051906020019061297d929190613b95565b506080820151816004015560a08201518160050190805190602001906129a4929190613c6c565b5060c08201518160060190805190602001906129c1929190613c6c565b5060e08201518160070160006101000a81548160ff0219169083151502179055506101008201518160070160016101000a81548160ff0219169083151502179055506101208201518160070160026101000a81548160ff0219169083151502179055506101408201518160070160036101000a81548160ff0219169083151502179055509050505050505050505050565b8733600060019050612a62613aa5565b60066000858152602001908152602001600020604051806101600160405290816000820160009054906101000a900473ffffffffffffffffffffffffffffffffffffffff1673ffffffffffffffffffffffffffffffffffffffff1673ffffffffffffffffffffffffffffffffffffffff16815260200160018201805480602002602001604051908101604052809291908181526020018280548015612b5c57602002820191906000526020600020905b8160009054906101000a900473ffffffffffffffffffffffffffffffffffffffff1673ffffffffffffffffffffffffffffffffffffffff1681526020019060010190808311612b12575b5050505050815260200160028201805480602002602001604051908101604052809291908181526020018280548015612bb457602002820191906000526020600020905b815481526020019060010190808311612ba0575b5050505050815260200160038201805480602002602001604051908101604052809291908181526020018280548015612c4257602002820191906000526020600020905b8160009054906101000a900473ffffffffffffffffffffffffffffffffffffffff1673ffffffffffffffffffffffffffffffffffffffff1681526020019060010190808311612bf8575b5050505050815260200160048201548152602001600582018054600181600116156101000203166002900480601f016020809104026020016040519081016040528092919081815260200182805460018160011615610100020316600290048015612cee5780601f10612cc357610100808354040283529160200191612cee565b820191906000526020600020905b815481529060010190602001808311612cd157829003601f168201915b50505050508152602001600682018054600181600116156101000203166002900480601f016020809104026020016040519081016040528092919081815260200182805460018160011615610100020316600290048015612d905780601f10612d6557610100808354040283529160200191612d90565b820191906000526020600020905b815481529060010190602001808311612d7357829003601f168201915b505050505081526020016007820160009054906101000a900460ff161515151581526020016007820160019054906101000a900460ff161515151581526020016007820160029054906101000a900460ff161515151581526020016007820160039054906101000a900460ff161515151581525050905080610100015180612e1957508060e001515b80612e275750806101400151155b15612e3157600091505b8273ffffffffffffffffffffffffffffffffffffffff16816000015173ffffffffffffffffffffffffffffffffffffffff1614612e6d57600091505b8115612eae576040517f08c379a0000000000000000000000000000000000000000000000000000000008152600401612ea590614e8b565b60405180910390fd5b612eb6613aa5565b600660008e8152602001908152602001600020604051806101600160405290816000820160009054906101000a900473ffffffffffffffffffffffffffffffffffffffff1673ffffffffffffffffffffffffffffffffffffffff1673ffffffffffffffffffffffffffffffffffffffff16815260200160018201805480602002602001604051908101604052809291908181526020018280548015612fb057602002820191906000526020600020905b8160009054906101000a900473ffffffffffffffffffffffffffffffffffffffff1673ffffffffffffffffffffffffffffffffffffffff1681526020019060010190808311612f66575b505050505081526020016002820180548060200260200160405190810160405280929190818152602001828054801561300857602002820191906000526020600020905b815481526020019060010190808311612ff4575b505050505081526020016003820180548060200260200160405190810160405280929190818152602001828054801561309657602002820191906000526020600020905b8160009054906101000a900473ffffffffffffffffffffffffffffffffffffffff1673ffffffffffffffffffffffffffffffffffffffff168152602001906001019080831161304c575b5050505050815260200160048201548152602001600582018054600181600116156101000203166002900480601f0160208091040260200160405190810160405280929190818152602001828054600181600116156101000203166002900480156131425780601f1061311757610100808354040283529160200191613142565b820191906000526020600020905b81548152906001019060200180831161312557829003601f168201915b50505050508152602001600682018054600181600116156101000203166002900480601f0160208091040260200160405190810160405280929190818152602001828054600181600116156101000203166002900480156131e45780601f106131b9576101008083540402835291602001916131e4565b820191906000526020600020905b8154815290600101906020018083116131c757829003601f168201915b505050505081526020016007820160009054906101000a900460ff161515151581526020016007820160019054906101000a900460ff161515151581526020016007820160029054906101000a900460ff161515151581526020016007820160039054906101000a900460ff16151515158152505090508981606001819052508b81602001819052508a816040018190525088816080018181525050878160a00181905250868160c00181905250858161012001901515908115158152505080600e8e815481106132b157fe5b906000526020600020906008020160008201518160000160006101000a81548173ffffffffffffffffffffffffffffffffffffffff021916908373ffffffffffffffffffffffffffffffffffffffff1602179055506020820151816001019080519060200190613322929190613b95565b50604082015181600201908051906020019061333f929190613c1f565b50606082015181600301908051906020019061335c929190613b95565b506080820151816004015560a0820151816005019080519060200190613383929190613c6c565b5060c08201518160060190805190602001906133a0929190613c6c565b5060e08201518160070160006101000a81548160ff0219169083151502179055506101008201518160070160016101000a81548160ff0219169083151502179055506101208201518160070160026101000a81548160ff0219169083151502179055506101408201518160070160036101000a81548160ff02191690831515021790555090505080600660008f815260200190815260200160002060008201518160000160006101000a81548173ffffffffffffffffffffffffffffffffffffffff021916908373ffffffffffffffffffffffffffffffffffffffff160217905550602082015181600101908051906020019061349e929190613b95565b5060408201518160020190805190602001906134bb929190613c1f565b5060608201518160030190805190602001906134d8929190613b95565b506080820151816004015560a08201518160050190805190602001906134ff929190613c6c565b5060c082015181600601908051906020019061351c929190613c6c565b5060e08201518160070160006101000a81548160ff0219169083151502179055506101008201518160070160016101000a81548160ff0219169083151502179055506101208201518160070160026101000a81548160ff0219169083151502179055506101408201518160070160036101000a81548160ff02191690831515021790555090505050505050505050505050505050565b6135ba613aa5565b6135c382611460565b90508060e00151613693576135db8260016000611f01565b60008160600151518260800151816135ef57fe5b04905060008090505b82602001515181101561364c5761363f8360200151828151811061361857fe5b60200260200101518460400151838151811061363057fe5b60200260200101516001611ac1565b80806001019150506135f8565b5060008090505b826060015151811015613690576136838360600151828151811061367357fe5b6020026020010151836000611ac1565b8080600101915050613653565b50505b5050565b6060600082600185030290506000838502905060008090506002548211156136ca578260025403905082810191506136ce565b8490505b60608160405190808252806020026020018201604052801561370a57816020015b6136f7613e52565b8152602001906001900390816136ef5790505b50905060008490505b8381101561388e57600d818154811061372857fe5b90600052602060002090600502016040518060a00160405290816000820160009054906101000a900473ffffffffffffffffffffffffffffffffffffffff1673ffffffffffffffffffffffffffffffffffffffff1673ffffffffffffffffffffffffffffffffffffffff168152602001600182018054600181600116156101000203166002900480601f0160208091040260200160405190810160405280929190818152602001828054600181600116156101000203166002900480156138305780601f1061380557610100808354040283529160200191613830565b820191906000526020600020905b81548152906001019060200180831161381357829003601f168201915b5050505050815260200160028201548152602001600382015481526020016004820160009054906101000a900460ff161515151581525050828683038151811061387657fe5b60200260200101819052508080600101915050613713565b508094505050505092915050565b6060600082600185030290506000838502905060008090506004548211156138cf578260045403905082810191506138d3565b8490505b60608160405190808252806020026020018201604052801561390f57816020015b6138fc613e99565b8152602001906001900390816138f45790505b50905060008490505b83811015613a5057600760008281526020019081526020016000206040518060a00160405290816000820160009054906101000a900473ffffffffffffffffffffffffffffffffffffffff1673ffffffffffffffffffffffffffffffffffffffff1673ffffffffffffffffffffffffffffffffffffffff1681526020016001820160009054906101000a900473ffffffffffffffffffffffffffffffffffffffff1673ffffffffffffffffffffffffffffffffffffffff1673ffffffffffffffffffffffffffffffffffffffff168152602001600282015481526020016003820160009054906101000a900460ff161515151581526020016003820160019054906101000a900460ff1615151515815250508286830381518110613a3857fe5b60200260200101819052508080600101915050613918565b508094505050505092915050565b6040518060a00160405280600073ffffffffffffffffffffffffffffffffffffffff1681526020016060815260200160008152602001600081526020016000151581525090565b604051806101600160405280600073ffffffffffffffffffffffffffffffffffffffff1681526020016060815260200160608152602001606081526020016000815260200160608152602001606081526020016000151581526020016000151581526020016000151581526020016000151581525090565b604051806101600160405280600073ffffffffffffffffffffffffffffffffffffffff1681526020016060815260200160608152602001606081526020016000815260200160608152602001606081526020016000151581526020016000151581526020016000151581526020016000151581525090565b828054828255906000526020600020908101928215613c0e579160200282015b82811115613c0d5782518260006101000a81548173ffffffffffffffffffffffffffffffffffffffff021916908373ffffffffffffffffffffffffffffffffffffffff16021790555091602001919060010190613bb5565b5b509050613c1b9190613ef8565b5090565b828054828255906000526020600020908101928215613c5b579160200282015b82811115613c5a578251825591602001919060010190613c3f565b5b509050613c689190613f3b565b5090565b828054600181600116156101000203166002900490600052602060002090601f016020900481019282601f10613cad57805160ff1916838001178555613cdb565b82800160010185558215613cdb579182015b82811115613cda578251825591602001919060010190613cbf565b5b509050613ce89190613f60565b5090565b828054600181600116156101000203166002900490600052602060002090601f016020900481019282601f10613d2d57805160ff1916838001178555613d5b565b82800160010185558215613d5b579182015b82811115613d5a578251825591602001919060010190613d3f565b5b509050613d689190613f60565b5090565b828054600181600116156101000203166002900490600052602060002090601f016020900481019282601f10613da55780548555613de2565b82800160010185558215613de257600052602060002091601f016020900482015b82811115613de1578254825591600101919060010190613dc6565b5b509050613def9190613f60565b5090565b6040518060a00160405280600073ffffffffffffffffffffffffffffffffffffffff168152602001600073ffffffffffffffffffffffffffffffffffffffff168152602001600081526020016000151581526020016000151581525090565b6040518060a00160405280600073ffffffffffffffffffffffffffffffffffffffff1681526020016060815260200160008152602001600081526020016000151581525090565b6040518060a00160405280600073ffffffffffffffffffffffffffffffffffffffff168152602001600073ffffffffffffffffffffffffffffffffffffffff168152602001600081526020016000151581526020016000151581525090565b613f3891905b80821115613f3457600081816101000a81549073ffffffffffffffffffffffffffffffffffffffff021916905550600101613efe565b5090565b90565b613f5d91905b80821115613f59576000816000905550600101613f41565b5090565b90565b613f8291905b80821115613f7e576000816000905550600101613f66565b5090565b90565b600081359050613f9481615178565b92915050565b600082601f830112613fab57600080fd5b8135613fbe613fb982614f1c565b614eef565b91508181835260208401935060208101905083856020840282011115613fe357600080fd5b60005b838110156140135781613ff98882613f85565b845260208401935060208301925050600181019050613fe6565b5050505092915050565b600082601f83011261402e57600080fd5b813561404161403c82614f44565b614eef565b9150818183526020840193506020810190508385602084028201111561406657600080fd5b60005b83811015614096578161407c88826140b5565b845260208401935060208301925050600181019050614069565b5050505092915050565b6000813590506140af8161518f565b92915050565b6000813590506140c4816151a6565b92915050565b600082601f8301126140db57600080fd5b81356140ee6140e982614f6c565b614eef565b9150808252602083016020830185838301111561410a57600080fd5b614115838284615125565b50505092915050565b60008135905061412d816151bd565b92915050565b60006020828403121561414557600080fd5b600061415384828501613f85565b91505092915050565b6000806040838503121561416f57600080fd5b600061417d85828601613f85565b925050602061418e858286016140b5565b9150509250929050565b6000806000606084860312156141ad57600080fd5b60006141bb86828701613f85565b93505060206141cc868287016140b5565b92505060406141dd868287016140a0565b9150509250925092565b600080600080608085870312156141fd57600080fd5b600061420b87828801613f85565b945050602061421c878288016140b5565b935050604061422d878288016140a0565b925050606061423e878288016140a0565b91505092959194509250565b60008060006060848603121561425f57600080fd5b600061426d86828701613f85565b935050602084013567ffffffffffffffff81111561428a57600080fd5b614296868287016140ca565b92505060406142a7868287016140b5565b9150509250925092565b60008060008060008060c087890312156142ca57600080fd5b600087013567ffffffffffffffff8111156142e457600080fd5b6142f089828a01613f9a565b965050602087013567ffffffffffffffff81111561430d57600080fd5b61431989828a0161401d565b955050604087013567ffffffffffffffff81111561433657600080fd5b61434289828a01613f9a565b945050606061435389828a0161411e565b935050608087013567ffffffffffffffff81111561437057600080fd5b61437c89828a016140ca565b92505060a087013567ffffffffffffffff81111561439957600080fd5b6143a589828a016140ca565b9150509295509295509295565b6000602082840312156143c457600080fd5b600082013567ffffffffffffffff8111156143de57600080fd5b6143ea848285016140ca565b91505092915050565b60006020828403121561440557600080fd5b60006144138482850161411e565b91505092915050565b600080600080600060a0868803121561443457600080fd5b60006144428882890161411e565b955050602061445388828901613f85565b9450506040614464888289016140b5565b9350506060614475888289016140a0565b9250506080614486888289016140a0565b9150509295509295909350565b600080600080600080600080610100898b0312156144b057600080fd5b60006144be8b828c0161411e565b985050602089013567ffffffffffffffff8111156144db57600080fd5b6144e78b828c01613f9a565b975050604089013567ffffffffffffffff81111561450457600080fd5b6145108b828c0161401d565b965050606089013567ffffffffffffffff81111561452d57600080fd5b6145398b828c01613f9a565b955050608061454a8b828c0161411e565b94505060a089013567ffffffffffffffff81111561456757600080fd5b6145738b828c016140ca565b93505060c089013567ffffffffffffffff81111561459057600080fd5b61459c8b828c016140ca565b92505060e06145ad8b828c016140a0565b9150509295985092959890939650565b6000806000606084860312156145d257600080fd5b60006145e08682870161411e565b93505060206145f1868287016140a0565b9250506040614602868287016140a0565b9150509250925092565b6000806040838503121561461f57600080fd5b600061462d8582860161411e565b925050602061463e8582860161411e565b9150509250929050565b600061465483836146b8565b60208301905092915050565b600061466c83836148da565b60208301905092915050565b60006146848383614aa7565b905092915050565b60006146988383614c28565b905092915050565b60006146ac8383614d33565b60a08301905092915050565b6146c1816150d3565b82525050565b60006146d282614fd9565b6146dc818561505c565b93506146e783614f98565b8060005b838110156147185781516146ff8882614648565b975061470a8361501b565b9250506001810190506146eb565b5085935050505092915050565b600061473082614fe4565b61473a818561506d565b935061474583614fa5565b8060005b8381101561477657815161475d8882614660565b975061476883615028565b925050600181019050614749565b5085935050505092915050565b600061478e82614fef565b614798818561507e565b9350836020820285016147aa85614fb2565b8060005b858110156147e657848403895281516147c78582614678565b94506147d283615035565b925060208a019950506001810190506147ae565b50829750879550505050505092915050565b600061480382614ffa565b61480d818561508f565b93508360208202850161481f85614fbf565b8060005b8581101561485b578484038952815161483c858261468c565b945061484783615042565b925060208a01995050600181019050614823565b50829750879550505050505092915050565b600061487882615005565b61488281856150a0565b935061488d83614fcc565b8060005b838110156148be5781516148a588826146a0565b97506148b08361504f565b925050600181019050614891565b5085935050505092915050565b6148d4816150e5565b82525050565b6148e3816150f1565b82525050565b6148f2816150f1565b82525050565b600061490382615010565b61490d81856150b1565b935061491d818560208601615134565b61492681615167565b840191505092915050565b600061493e6019836150c2565b91507f436865636b2070617274792076616c6964617465206661696c000000000000006000830152602082019050919050565b600061497e6014836150c2565b91507f4d656d626572206973206e6f74206578697374730000000000000000000000006000830152602082019050919050565b60006149be6010836150c2565b91507f4d656d62657220697320657869737473000000000000000000000000000000006000830152602082019050919050565b60006149fe6013836150c2565b91507f43616e6e6f7420757064617465207061727479000000000000000000000000006000830152602082019050919050565b600060a083016000830151614a4960008601826146b8565b5060208301518482036020860152614a6182826148f8565b9150506040830151614a7660408601826148da565b506060830151614a896060860182614d9b565b506080830151614a9c60808601826148cb565b508091505092915050565b600060a083016000830151614abf60008601826146b8565b5060208301518482036020860152614ad782826148f8565b9150506040830151614aec60408601826148da565b506060830151614aff6060860182614d9b565b506080830151614b1260808601826148cb565b508091505092915050565b600061016083016000830151614b3660008601826146b8565b5060208301518482036020860152614b4e82826146c7565b91505060408301518482036040860152614b688282614725565b91505060608301518482036060860152614b8282826146c7565b9150506080830151614b976080860182614d9b565b5060a083015184820360a0860152614baf82826148f8565b91505060c083015184820360c0860152614bc982826148f8565b91505060e0830151614bde60e08601826148cb565b50610100830151614bf36101008601826148cb565b50610120830151614c086101208601826148cb565b50610140830151614c1d6101408601826148cb565b508091505092915050565b600061016083016000830151614c4160008601826146b8565b5060208301518482036020860152614c5982826146c7565b91505060408301518482036040860152614c738282614725565b91505060608301518482036060860152614c8d82826146c7565b9150506080830151614ca26080860182614d9b565b5060a083015184820360a0860152614cba82826148f8565b91505060c083015184820360c0860152614cd482826148f8565b91505060e0830151614ce960e08601826148cb565b50610100830151614cfe6101008601826148cb565b50610120830151614d136101208601826148cb565b50610140830151614d286101408601826148cb565b508091505092915050565b60a082016000820151614d4960008501826146b8565b506020820151614d5c60208501826146b8565b506040820151614d6f60408501826148da565b506060820151614d8260608501826148cb565b506080820151614d9560808501826148cb565b50505050565b614da48161511b565b82525050565b60006020820190508181036000830152614dc48184614783565b905092915050565b60006020820190508181036000830152614de681846147f8565b905092915050565b60006020820190508181036000830152614e08818461486d565b905092915050565b6000602082019050614e2560008301846148e9565b92915050565b60006020820190508181036000830152614e4481614931565b9050919050565b60006020820190508181036000830152614e6481614971565b9050919050565b60006020820190508181036000830152614e84816149b1565b9050919050565b60006020820190508181036000830152614ea4816149f1565b9050919050565b60006020820190508181036000830152614ec58184614a31565b905092915050565b60006020820190508181036000830152614ee78184614b1d565b905092915050565b6000604051905081810181811067ffffffffffffffff82111715614f1257600080fd5b8060405250919050565b600067ffffffffffffffff821115614f3357600080fd5b602082029050602081019050919050565b600067ffffffffffffffff821115614f5b57600080fd5b602082029050602081019050919050565b600067ffffffffffffffff821115614f8357600080fd5b601f19601f8301169050602081019050919050565b6000602082019050919050565b6000602082019050919050565b6000602082019050919050565b6000602082019050919050565b6000602082019050919050565b600081519050919050565b600081519050919050565b600081519050919050565b600081519050919050565b600081519050919050565b600081519050919050565b6000602082019050919050565b6000602082019050919050565b6000602082019050919050565b6000602082019050919050565b6000602082019050919050565b600082825260208201905092915050565b600082825260208201905092915050565b600082825260208201905092915050565b600082825260208201905092915050565b600082825260208201905092915050565b600082825260208201905092915050565b600082825260208201905092915050565b60006150de826150fb565b9050919050565b60008115159050919050565b6000819050919050565b600073ffffffffffffffffffffffffffffffffffffffff82169050919050565b6000819050919050565b82818337600083830152505050565b60005b83811015615152578082015181840152602081019050615137565b83811115615161576000848401525b50505050565b6000601f19601f8301169050919050565b615181816150d3565b811461518c57600080fd5b50565b615198816150e5565b81146151a357600080fd5b50565b6151af816150f1565b81146151ba57600080fd5b50565b6151c68161511b565b81146151d157600080fd5b5056fea265627a7a7230582009ecc27e32811f23e4c586d3da5fe447cf365168296521e0633b4e746d327bcb6c6578706572696d656e74616cf50037",
  "source": "pragma solidity >=0.4.22 <0.6.0;\r\npragma experimental ABIEncoderV2;\r\ncontract PartyFunds {\r\n    address owner;\r\n    int256 totalFunds = 0;\r\n    uint countMember = 0;\r\n    uint countParty = 0;\r\n    uint countTransferHistory = 0;\r\n    struct Member{\r\n        address id;\r\n        string name;\r\n        int256 money;\r\n        uint256 index;\r\n        bool isValue;\r\n    }\r\n    struct Payer{\r\n        address member;\r\n        int256 money;\r\n    }\r\n    struct Party{\r\n        address creator;\r\n        address[] payerAddress;\r\n        int256[] payerMoney;\r\n        address[] members;\r\n        uint256 money;\r\n        string message;\r\n        string createdDate;\r\n        bool paySuccess;\r\n        bool reject;\r\n        bool requestReject;\r\n        bool isValue;\r\n    }\r\n    struct TransferHistory{\r\n        address sender;\r\n        address receiver;\r\n        int256 money;\r\n        bool isDeposit;\r\n        bool accept;\r\n    }\r\n    mapping(address=>Member) members;\r\n    mapping(uint256=>Party) parties;\r\n    mapping(uint256=>TransferHistory) transferHistories;\r\n    Member fundHost;\r\n    Member[] memberList;\r\n    Party[] partyList;\r\n    modifier memberNotExists(address _member) {\r\n        bool checkExists = members[_member].isValue;\r\n        require(\r\n            !checkExists,\r\n            \"Member is exists\"\r\n        );\r\n        _;\r\n    }\r\n    modifier memberExists(address _member) {\r\n        bool checkExists = members[_member].isValue;\r\n        require(\r\n            checkExists,\r\n            \"Member is not exists\"\r\n        );\r\n        _;\r\n    }\r\n    modifier partyValidate(address[] memory _payerAddress, int256[] memory _payerMoney) {\r\n        bool passValidate = true;\r\n        if(_payerAddress.length != _payerMoney.length){\r\n            passValidate = false;\r\n        }\r\n        for(uint256 i = 0; i < _payerAddress.length; i++){\r\n            passValidate = passValidate && members[_payerAddress[i]].isValue;\r\n        }\r\n        require(\r\n            passValidate,\r\n            \"Check party validate fail\"\r\n        );\r\n        _;\r\n    }\r\n    modifier onlyCreatorCanUpdateParty(uint256 _id, address _member) {\r\n        bool _canUpdate = true;\r\n        Party memory _party = parties[_id];\r\n        if(_party.reject || _party.paySuccess || !_party.isValue){\r\n            _canUpdate = false;\r\n        }\r\n        if(_party.creator != _member){\r\n            _canUpdate = false;\r\n        }\r\n        require(\r\n            !_canUpdate,\r\n            \"Cannot update party\"\r\n        );\r\n        _;\r\n    }\r\n    modifier onlyOwnerCanUpdateParty(uint256 _id, address _member) {\r\n        bool _canUpdate = true;\r\n        Party memory _party = parties[_id];\r\n        if(_party.reject || _party.paySuccess || !_party.isValue){\r\n            _canUpdate = false;\r\n        }\r\n        if(owner != _member){\r\n            _canUpdate = false;\r\n        }\r\n        require(\r\n            !_canUpdate,\r\n            \"Cannot update party\"\r\n        );\r\n        _;\r\n    }\r\n\r\n    function getTotalFund() public view returns (int256) {\r\n        return totalFunds;\r\n    }\r\n    function getFundHost() public view returns (Member memory) {\r\n        return fundHost;\r\n    }\r\n    function getMemberList(uint256 _page, uint256 _perPage) public view returns (Member[] memory) {\r\n        uint256 _fromIndex = (_page - 1) * _perPage;\r\n        uint256 _toIndex = _page * _perPage;\r\n        uint256 countItems = 0;\r\n        if(_toIndex > countMember){\r\n            countItems = countMember - _fromIndex;\r\n            _toIndex = countItems + _fromIndex;\r\n        }\r\n        else {\r\n            countItems = _perPage;\r\n        }\r\n        Member[] memory _memberList = new Member[](countItems);\r\n        for(uint i = _fromIndex; i < _toIndex; i++) {\r\n            _memberList[i - _fromIndex] = memberList[i];\r\n        }\r\n        return _memberList;\r\n    }\r\n    function getMember(address _addr) public view returns (Member memory) {\r\n        return members[_addr];\r\n    }\r\n    function getPartyList(uint256 _page, uint256 _perPage) public view returns (Party[] memory) {\r\n        uint256 _fromIndex = (_page - 1) * _perPage;\r\n        uint256 _toIndex = _page * _perPage;\r\n        uint256 countItems = 0;\r\n        if(_toIndex > countParty){\r\n            countItems = countParty - _fromIndex;\r\n            _toIndex = countItems + _fromIndex;\r\n        }\r\n        else {\r\n            countItems = _perPage;\r\n        }\r\n        Party[] memory _partyList = new Party[](countItems);\r\n        for(uint i = _fromIndex; i < _toIndex; i++) {\r\n            _partyList[i - _fromIndex] = parties[i];\r\n        }\r\n        return _partyList;\r\n    }\r\n    function getParty(uint256 _id) public view returns (Party memory) {\r\n        return parties[_id];\r\n    }\r\n    function getTransferHistoriyList(uint256 _page, uint256 _perPage) public view returns (TransferHistory[] memory){\r\n        uint256 _fromIndex = (_page - 1) * _perPage;\r\n        uint256 _toIndex = _page * _perPage;\r\n        uint256 countItems = 0;\r\n        if(_toIndex > countTransferHistory){\r\n            countItems = countTransferHistory - _fromIndex;\r\n            _toIndex = countItems + _fromIndex;\r\n        }\r\n        else {\r\n            countItems = _perPage;\r\n        }\r\n        TransferHistory[] memory _transferHistoryList = new TransferHistory[](countItems);\r\n        for(uint i = _fromIndex; i < _toIndex; i++) {\r\n            _transferHistoryList[i - _fromIndex] = transferHistories[i];\r\n        }\r\n        return _transferHistoryList;\r\n    }\r\n    function addMember(string memory _name) public memberNotExists(msg.sender){\r\n        Member memory member = Member(msg.sender, _name, 0, countMember, true);\r\n        memberList.push(member);\r\n        members[msg.sender] = member;\r\n        countMember++;\r\n    }\r\n    function updateMember(address _addr, string memory _name, int256 _money) public {\r\n        members[_addr].name = _name;\r\n        members[_addr].money = _money;\r\n        memberList[members[_addr].index] = members[_addr];\r\n    }\r\n    function updateMemberMoney(address _addr, int256 _money, bool _isAdd) public memberExists(_addr) {\r\n        if(_isAdd){\r\n            members[_addr].money += _money;\r\n        }\r\n        else {\r\n            members[_addr].money -= _money;\r\n        }\r\n        memberList[members[_addr].index] = members[_addr];\r\n    }\r\n    function addParty(\r\n        address[] memory _payerAddress, int256[] memory _payerMoney, address[] memory _members, uint256  _money, string memory  _message, string memory  _createdDate\r\n    ) public partyValidate(_payerAddress, _payerMoney) {\r\n        Party memory _party = Party(\r\n            msg.sender,\r\n            _payerAddress,\r\n            _payerMoney,\r\n            _members,\r\n            _money,\r\n            _message,\r\n            _createdDate,\r\n            false,\r\n            false,\r\n            false,\r\n            true\r\n        );\r\n        partyList.push(_party);\r\n        parties[countParty] = _party;\r\n        countParty++;\r\n    }\r\n    function updatePartyByCreator(\r\n        uint256 _id, address[] memory _payerAddress, int256[] memory _payerMoney, address[] memory _members, uint256 _money, string memory _message, string memory _createdDate, bool _requestReject\r\n    ) public onlyCreatorCanUpdateParty(_id, msg.sender) {\r\n        Party memory _party = parties[_id];\r\n        _party.members = _members;\r\n        _party.payerAddress = _payerAddress;\r\n        _party.payerMoney = _payerMoney;\r\n        _party.money = _money;\r\n        _party.message = _message;\r\n        _party.createdDate = _createdDate;\r\n        _party.requestReject = _requestReject;\r\n        partyList[_id] = _party;\r\n        parties[_id] = _party;\r\n    }\r\n    function updatePartyByOwner(uint256 _id, bool _paySuccess, bool _reject)\r\n    public onlyOwnerCanUpdateParty(_id, msg.sender) {\r\n        Party memory _party = parties[_id];\r\n        _party.paySuccess = _paySuccess;\r\n        _party.reject = _reject;\r\n        partyList[_id] = _party;\r\n        parties[_id] = _party;\r\n    }\r\n    function addTransferHistory(address _receiver, int256 _money, bool _isDeposit, bool _accept) public {\r\n        transferHistories[countTransferHistory] = TransferHistory(msg.sender, _receiver, _money, _isDeposit, _accept);\r\n        countTransferHistory++;\r\n    }\r\n    function updateTransferHistory(uint256 _id, address _receiver, int256 _money, bool _isDeposit, bool _accept) public {\r\n        TransferHistory memory _transferHistory = transferHistories[_id];\r\n        _transferHistory.sender = msg.sender;\r\n        _transferHistory.receiver = _receiver;\r\n        _transferHistory.money = _money;\r\n        _transferHistory.isDeposit = _isDeposit;\r\n        _transferHistory.accept = _accept;\r\n        transferHistories[_id] = _transferHistory;\r\n    }\r\n    function transferMoney(address _receiver, int256 _money) public {\r\n        updateMemberMoney(msg.sender, _money, false);\r\n        updateMemberMoney(_receiver, _money, true);\r\n        addTransferHistory(_receiver, _money, false, true);\r\n    }\r\n    function requestRejectParty(uint256 _id) public {\r\n        Party memory _party = getParty(_id);\r\n        _party.requestReject = true;\r\n        updatePartyByCreator(\r\n            _id,\r\n            _party.payerAddress,\r\n            _party.payerMoney,\r\n            _party.members,\r\n            _party.money,\r\n            _party.message,\r\n            _party.createdDate,\r\n            _party.requestReject\r\n        );\r\n    }\r\n    function rejectParty(uint256 _id) public {\r\n        updatePartyByOwner(_id, false, true);\r\n    }\r\n    function acceptParty(uint256 _id) public {\r\n        Party memory _party = getParty(_id);\r\n        if(!_party.paySuccess){\r\n            updatePartyByOwner(_id, true, false);\r\n            uint256 _moneyShared = _party.money / _party.members.length;\r\n            for(uint256 i = 0; i < _party.payerAddress.length; i++){\r\n                updateMemberMoney(_party.payerAddress[i], _party.payerMoney[i], true);\r\n            }\r\n            for(uint256 j = 0; j < _party.members.length; j++){\r\n                updateMemberMoney(_party.members[j], int256(_moneyShared), false);\r\n            }\r\n        }\r\n    }\r\n}",
  "sourcePath": "C:/Users/phongdt/Documents/projects/Test/PartyFunds/contracts/PartyFunds.sol",
  "compiler": {
    "name": "solc",
    "version": "0.5.8+commit.23d335f2.Emscripten.clang"
  },
  "schemaVersion": "3.0.16",
  "updatedAt": "2019-11-29T08:38:53.082Z",
  "devdoc": {
    "methods": {}
  },
  "userdoc": {
    "methods": {}
  }
}