{
  "contractName": "PartyFunds",
  "abi": [
    {
      "constant": true,
      "inputs": [],
      "name": "getTotalFund",
      "outputs": [
        {
          "name": "",
          "type": "int256"
        }
      ],
      "payable": false,
      "stateMutability": "view",
      "type": "function"
    },
    {
      "constant": true,
      "inputs": [],
      "name": "getFundHost",
      "outputs": [
        {
          "components": [
            {
              "name": "id",
              "type": "address"
            },
            {
              "name": "name",
              "type": "string"
            },
            {
              "name": "money",
              "type": "int256"
            },
            {
              "name": "index",
              "type": "uint256"
            },
            {
              "name": "isValue",
              "type": "bool"
            }
          ],
          "name": "",
          "type": "tuple"
        }
      ],
      "payable": false,
      "stateMutability": "view",
      "type": "function"
    },
    {
      "constant": true,
      "inputs": [
        {
          "name": "_page",
          "type": "uint256"
        },
        {
          "name": "_perPage",
          "type": "uint256"
        }
      ],
      "name": "getMemberList",
      "outputs": [
        {
          "components": [
            {
              "name": "id",
              "type": "address"
            },
            {
              "name": "name",
              "type": "string"
            },
            {
              "name": "money",
              "type": "int256"
            },
            {
              "name": "index",
              "type": "uint256"
            },
            {
              "name": "isValue",
              "type": "bool"
            }
          ],
          "name": "",
          "type": "tuple[]"
        }
      ],
      "payable": false,
      "stateMutability": "view",
      "type": "function"
    },
    {
      "constant": true,
      "inputs": [
        {
          "name": "_addr",
          "type": "address"
        }
      ],
      "name": "getMember",
      "outputs": [
        {
          "components": [
            {
              "name": "id",
              "type": "address"
            },
            {
              "name": "name",
              "type": "string"
            },
            {
              "name": "money",
              "type": "int256"
            },
            {
              "name": "index",
              "type": "uint256"
            },
            {
              "name": "isValue",
              "type": "bool"
            }
          ],
          "name": "",
          "type": "tuple"
        }
      ],
      "payable": false,
      "stateMutability": "view",
      "type": "function"
    },
    {
      "constant": true,
      "inputs": [
        {
          "name": "_page",
          "type": "uint256"
        },
        {
          "name": "_perPage",
          "type": "uint256"
        }
      ],
      "name": "getPartyList",
      "outputs": [
        {
          "components": [
            {
              "name": "creator",
              "type": "address"
            },
            {
              "name": "payerAddress",
              "type": "address[]"
            },
            {
              "name": "payerMoney",
              "type": "int256[]"
            },
            {
              "name": "members",
              "type": "address[]"
            },
            {
              "name": "money",
              "type": "uint256"
            },
            {
              "name": "message",
              "type": "string"
            },
            {
              "name": "createdDate",
              "type": "string"
            },
            {
              "name": "paySuccess",
              "type": "bool"
            },
            {
              "name": "reject",
              "type": "bool"
            },
            {
              "name": "requestReject",
              "type": "bool"
            },
            {
              "name": "isValue",
              "type": "bool"
            }
          ],
          "name": "",
          "type": "tuple[]"
        }
      ],
      "payable": false,
      "stateMutability": "view",
      "type": "function"
    },
    {
      "constant": true,
      "inputs": [
        {
          "name": "_id",
          "type": "uint256"
        }
      ],
      "name": "getParty",
      "outputs": [
        {
          "components": [
            {
              "name": "creator",
              "type": "address"
            },
            {
              "name": "payerAddress",
              "type": "address[]"
            },
            {
              "name": "payerMoney",
              "type": "int256[]"
            },
            {
              "name": "members",
              "type": "address[]"
            },
            {
              "name": "money",
              "type": "uint256"
            },
            {
              "name": "message",
              "type": "string"
            },
            {
              "name": "createdDate",
              "type": "string"
            },
            {
              "name": "paySuccess",
              "type": "bool"
            },
            {
              "name": "reject",
              "type": "bool"
            },
            {
              "name": "requestReject",
              "type": "bool"
            },
            {
              "name": "isValue",
              "type": "bool"
            }
          ],
          "name": "",
          "type": "tuple"
        }
      ],
      "payable": false,
      "stateMutability": "view",
      "type": "function"
    },
    {
      "constant": true,
      "inputs": [
        {
          "name": "_page",
          "type": "uint256"
        },
        {
          "name": "_perPage",
          "type": "uint256"
        }
      ],
      "name": "getTransferHistoriyList",
      "outputs": [
        {
          "components": [
            {
              "name": "sender",
              "type": "address"
            },
            {
              "name": "receiver",
              "type": "address"
            },
            {
              "name": "money",
              "type": "int256"
            },
            {
              "name": "isDeposit",
              "type": "bool"
            },
            {
              "name": "accept",
              "type": "bool"
            }
          ],
          "name": "",
          "type": "tuple[]"
        }
      ],
      "payable": false,
      "stateMutability": "view",
      "type": "function"
    },
    {
      "constant": false,
      "inputs": [
        {
          "name": "_name",
          "type": "string"
        }
      ],
      "name": "addMember",
      "outputs": [],
      "payable": false,
      "stateMutability": "nonpayable",
      "type": "function"
    },
    {
      "constant": false,
      "inputs": [
        {
          "name": "_addr",
          "type": "address"
        },
        {
          "name": "_name",
          "type": "string"
        },
        {
          "name": "_money",
          "type": "int256"
        }
      ],
      "name": "updateMember",
      "outputs": [],
      "payable": false,
      "stateMutability": "nonpayable",
      "type": "function"
    },
    {
      "constant": false,
      "inputs": [
        {
          "name": "_addr",
          "type": "address"
        },
        {
          "name": "_money",
          "type": "int256"
        }
      ],
      "name": "updateMemberMoney",
      "outputs": [],
      "payable": false,
      "stateMutability": "nonpayable",
      "type": "function"
    },
    {
      "constant": false,
      "inputs": [
        {
          "name": "_payerAddress",
          "type": "address[]"
        },
        {
          "name": "_payerMoney",
          "type": "int256[]"
        },
        {
          "name": "_members",
          "type": "address[]"
        },
        {
          "name": "_money",
          "type": "uint256"
        },
        {
          "name": "_message",
          "type": "string"
        },
        {
          "name": "_createdDate",
          "type": "string"
        }
      ],
      "name": "addParty",
      "outputs": [],
      "payable": false,
      "stateMutability": "nonpayable",
      "type": "function"
    },
    {
      "constant": false,
      "inputs": [
        {
          "name": "_id",
          "type": "uint256"
        },
        {
          "name": "_payerAddress",
          "type": "address[]"
        },
        {
          "name": "_payerMoney",
          "type": "int256[]"
        },
        {
          "name": "_members",
          "type": "address[]"
        },
        {
          "name": "_money",
          "type": "uint256"
        },
        {
          "name": "_message",
          "type": "string"
        },
        {
          "name": "_createdDate",
          "type": "string"
        },
        {
          "name": "_requestReject",
          "type": "bool"
        }
      ],
      "name": "updatePartyByCreator",
      "outputs": [],
      "payable": false,
      "stateMutability": "nonpayable",
      "type": "function"
    },
    {
      "constant": false,
      "inputs": [
        {
          "name": "_id",
          "type": "uint256"
        },
        {
          "name": "_paySuccess",
          "type": "bool"
        },
        {
          "name": "_reject",
          "type": "bool"
        }
      ],
      "name": "updatePartyByOwner",
      "outputs": [],
      "payable": false,
      "stateMutability": "nonpayable",
      "type": "function"
    },
    {
      "constant": false,
      "inputs": [
        {
          "name": "_receiver",
          "type": "address"
        },
        {
          "name": "_money",
          "type": "int256"
        },
        {
          "name": "_isDeposit",
          "type": "bool"
        },
        {
          "name": "_accept",
          "type": "bool"
        }
      ],
      "name": "addTransferHistory",
      "outputs": [],
      "payable": false,
      "stateMutability": "nonpayable",
      "type": "function"
    },
    {
      "constant": false,
      "inputs": [
        {
          "name": "_id",
          "type": "uint256"
        },
        {
          "name": "_receiver",
          "type": "address"
        },
        {
          "name": "_money",
          "type": "int256"
        },
        {
          "name": "_isDeposit",
          "type": "bool"
        },
        {
          "name": "_accept",
          "type": "bool"
        }
      ],
      "name": "updateTransferHistory",
      "outputs": [],
      "payable": false,
      "stateMutability": "nonpayable",
      "type": "function"
    },
    {
      "constant": false,
      "inputs": [
        {
          "name": "_receiver",
          "type": "address"
        },
        {
          "name": "_money",
          "type": "int256"
        }
      ],
      "name": "transferMoney",
      "outputs": [],
      "payable": false,
      "stateMutability": "nonpayable",
      "type": "function"
    },
    {
      "constant": false,
      "inputs": [
        {
          "name": "_id",
          "type": "uint256"
        }
      ],
      "name": "requestRejectParty",
      "outputs": [],
      "payable": false,
      "stateMutability": "nonpayable",
      "type": "function"
    },
    {
      "constant": false,
      "inputs": [
        {
          "name": "_id",
          "type": "uint256"
        }
      ],
      "name": "rejectParty",
      "outputs": [],
      "payable": false,
      "stateMutability": "nonpayable",
      "type": "function"
    },
    {
      "constant": false,
      "inputs": [
        {
          "name": "_id",
          "type": "uint256"
        }
      ],
      "name": "acceptParty",
      "outputs": [],
      "payable": false,
      "stateMutability": "nonpayable",
      "type": "function"
    }
  ],
  "bytecode": "0x6080604052600060015560006002556000600355600060045534801561002457600080fd5b506150bc806100346000396000f3fe608060405234801561001057600080fd5b50600436106101215760003560e01c806394758218116100ad578063d6c936ad11610071578063d6c936ad146102ee578063efe963b51461030a578063f6aaab6b14610326578063fed8f8f614610342578063feec67d31461037257610121565b8063947582181461024c5780639fd813e31461027c5780639ffeccf31461029a578063c00a9915146102b6578063ca0aac38146102d257610121565b80635cedfdd0116100f45780635cedfdd0146101c057806387449700146101dc578063880897dd146101f8578063918f96871461021457806393aa64531461023057610121565b806318895842146101265780632379d47f146101445780632ada2596146101605780633422ac1b14610190575b600080fd5b61012e6103a2565b60405161013b9190614d59565b60405180910390f35b61015e600480360361015991908101906142a1565b6104e3565b005b61017a60048036036101759190810190614030565b610539565b6040516101879190614d59565b60405180910390f35b6101aa60048036036101a591908101906144ba565b6106b9565b6040516101b79190614c7a565b60405180910390f35b6101da60048036036101d5919081019061415f565b610aee565b005b6101f660048036036101f191908101906140f8565b610f79565b005b610212600480360361020d91908101906142a1565b61118b565b005b61022e60048036036102299190810190614260565b61119b565b005b61024a60048036036102459190810190614059565b61143a565b005b610266600480360361026191908101906142a1565b611694565b6040516102739190614d7b565b60405180910390f35b610284611a46565b6040516102919190614cbe565b60405180910390f35b6102b460048036036102af91908101906142ca565b611a50565b005b6102d060048036036102cb9190810190614095565b611cf5565b005b6102ec60048036036102e79190810190614059565b611e54565b005b6103086004803603610303919081019061446b565b611e7d565b005b610324600480360361031f9190810190614341565b6129ce565b005b610340600480360361033b91908101906142a1565b61352e565b005b61035c600480360361035791908101906144ba565b6135b9565b6040516103699190614c58565b60405180910390f35b61038c600480360361038791908101906144ba565b6137bf565b6040516103999190614c9c565b60405180910390f35b6103aa61395b565b60086040518060a00160405290816000820160009054906101000a900473ffffffffffffffffffffffffffffffffffffffff1673ffffffffffffffffffffffffffffffffffffffff1673ffffffffffffffffffffffffffffffffffffffff168152602001600182018054600181600116156101000203166002900480601f0160208091040260200160405190810160405280929190818152602001828054600181600116156101000203166002900480156104a65780601f1061047b576101008083540402835291602001916104a6565b820191906000526020600020905b81548152906001019060200180831161048957829003601f168201915b5050505050815260200160028201548152602001600382015481526020016004820160009054906101000a900460ff161515151581525050905090565b6104eb6139a2565b6104f482611694565b90506001816101200190151590811515815250506105358282602001518360400151846060015185608001518660a001518760c001518861012001516129ce565b5050565b61054161395b565b600560008373ffffffffffffffffffffffffffffffffffffffff1673ffffffffffffffffffffffffffffffffffffffff1681526020019081526020016000206040518060a00160405290816000820160009054906101000a900473ffffffffffffffffffffffffffffffffffffffff1673ffffffffffffffffffffffffffffffffffffffff1673ffffffffffffffffffffffffffffffffffffffff168152602001600182018054600181600116156101000203166002900480601f01602080910402602001604051908101604052809291908181526020018280546001816001161561010002031660029004801561067a5780601f1061064f5761010080835404028352916020019161067a565b820191906000526020600020905b81548152906001019060200180831161065d57829003601f168201915b5050505050815260200160028201548152602001600382015481526020016004820160009054906101000a900460ff1615151515815250509050919050565b606080826040519080825280602002602001820160405280156106f657816020015b6106e3613a1a565b8152602001906001900390816106db5790505b509050600083600186030290506000848602905060008290505b81811015610ae15760066000828152602001908152602001600020604051806101600160405290816000820160009054906101000a900473ffffffffffffffffffffffffffffffffffffffff1673ffffffffffffffffffffffffffffffffffffffff1673ffffffffffffffffffffffffffffffffffffffff1681526020016001820180548060200260200160405190810160405280929190818152602001828054801561081257602002820191906000526020600020905b8160009054906101000a900473ffffffffffffffffffffffffffffffffffffffff1673ffffffffffffffffffffffffffffffffffffffff16815260200190600101908083116107c8575b505050505081526020016002820180548060200260200160405190810160405280929190818152602001828054801561086a57602002820191906000526020600020905b815481526020019060010190808311610856575b50505050508152602001600382018054806020026020016040519081016040528092919081815260200182805480156108f857602002820191906000526020600020905b8160009054906101000a900473ffffffffffffffffffffffffffffffffffffffff1673ffffffffffffffffffffffffffffffffffffffff16815260200190600101908083116108ae575b5050505050815260200160048201548152602001600582018054600181600116156101000203166002900480601f0160208091040260200160405190810160405280929190818152602001828054600181600116156101000203166002900480156109a45780601f10610979576101008083540402835291602001916109a4565b820191906000526020600020905b81548152906001019060200180831161098757829003601f168201915b50505050508152602001600682018054600181600116156101000203166002900480601f016020809104026020016040519081016040528092919081815260200182805460018160011615610100020316600290048015610a465780601f10610a1b57610100808354040283529160200191610a46565b820191906000526020600020905b815481529060010190602001808311610a2957829003601f168201915b505050505081526020016007820160009054906101000a900460ff161515151581526020016007820160019054906101000a900460ff161515151581526020016007820160029054906101000a900460ff161515151581526020016007820160039054906101000a900460ff1615151515815250508484830381518110610ac957fe5b60200260200101819052508080600101915050610710565b5082935050505092915050565b85856000600190508151835114610b0457600090505b60008090505b8351811015610b8e57818015610b7f575060056000858381518110610b2b57fe5b602002602001015173ffffffffffffffffffffffffffffffffffffffff1673ffffffffffffffffffffffffffffffffffffffff16815260200190815260200160002060040160009054906101000a900460ff165b91508080600101915050610b0a565b5080610bcf576040517f08c379a0000000000000000000000000000000000000000000000000000000008152600401610bc690614cd9565b60405180910390fd5b610bd76139a2565b6040518061016001604052803373ffffffffffffffffffffffffffffffffffffffff1681526020018b81526020018a8152602001898152602001888152602001878152602001868152602001600015158152602001600015158152602001600015158152602001600115158152509050600e819080600181540180825580915050906001820390600052602060002090600802016000909192909190915060008201518160000160006101000a81548173ffffffffffffffffffffffffffffffffffffffff021916908373ffffffffffffffffffffffffffffffffffffffff1602179055506020820151816001019080519060200190610cd8929190613a92565b506040820151816002019080519060200190610cf5929190613b1c565b506060820151816003019080519060200190610d12929190613a92565b506080820151816004015560a0820151816005019080519060200190610d39929190613b69565b5060c0820151816006019080519060200190610d56929190613b69565b5060e08201518160070160006101000a81548160ff0219169083151502179055506101008201518160070160016101000a81548160ff0219169083151502179055506101208201518160070160026101000a81548160ff0219169083151502179055506101408201518160070160036101000a81548160ff0219169083151502179055505050508060066000600354815260200190815260200160002060008201518160000160006101000a81548173ffffffffffffffffffffffffffffffffffffffff021916908373ffffffffffffffffffffffffffffffffffffffff1602179055506020820151816001019080519060200190610e56929190613a92565b506040820151816002019080519060200190610e73929190613b1c565b506060820151816003019080519060200190610e90929190613a92565b506080820151816004015560a0820151816005019080519060200190610eb7929190613b69565b5060c0820151816006019080519060200190610ed4929190613b69565b5060e08201518160070160006101000a81548160ff0219169083151502179055506101008201518160070160016101000a81548160ff0219169083151502179055506101208201518160070160026101000a81548160ff0219169083151502179055506101408201518160070160036101000a81548160ff02191690831515021790555090505060036000815480929190600101919050555050505050505050505050565b81600560008573ffffffffffffffffffffffffffffffffffffffff1673ffffffffffffffffffffffffffffffffffffffff1681526020019081526020016000206001019080519060200190610fcf929190613be9565b5080600560008573ffffffffffffffffffffffffffffffffffffffff1673ffffffffffffffffffffffffffffffffffffffff16815260200190815260200160002060020181905550600560008473ffffffffffffffffffffffffffffffffffffffff1673ffffffffffffffffffffffffffffffffffffffff168152602001908152602001600020600d600560008673ffffffffffffffffffffffffffffffffffffffff1673ffffffffffffffffffffffffffffffffffffffff16815260200190815260200160002060030154815481106110a557fe5b90600052602060002090600502016000820160009054906101000a900473ffffffffffffffffffffffffffffffffffffffff168160000160006101000a81548173ffffffffffffffffffffffffffffffffffffffff021916908373ffffffffffffffffffffffffffffffffffffffff16021790555060018201816001019080546001816001161561010002031660029004611141929190613c69565b5060028201548160020155600382015481600301556004820160009054906101000a900460ff168160040160006101000a81548160ff021916908315150217905550905050505050565b6111988160006001611e7d565b50565b336000600560008373ffffffffffffffffffffffffffffffffffffffff1673ffffffffffffffffffffffffffffffffffffffff16815260200190815260200160002060040160009054906101000a900460ff1690508015611231576040517f08c379a000000000000000000000000000000000000000000000000000000000815260040161122890614d19565b60405180910390fd5b61123961395b565b6040518060a001604052803373ffffffffffffffffffffffffffffffffffffffff168152602001858152602001600081526020016002548152602001600115158152509050600d819080600181540180825580915050906001820390600052602060002090600502016000909192909190915060008201518160000160006101000a81548173ffffffffffffffffffffffffffffffffffffffff021916908373ffffffffffffffffffffffffffffffffffffffff160217905550602082015181600101908051906020019061130f929190613b69565b50604082015181600201556060820151816003015560808201518160040160006101000a81548160ff02191690831515021790555050505080600560003373ffffffffffffffffffffffffffffffffffffffff1673ffffffffffffffffffffffffffffffffffffffff16815260200190815260200160002060008201518160000160006101000a81548173ffffffffffffffffffffffffffffffffffffffff021916908373ffffffffffffffffffffffffffffffffffffffff16021790555060208201518160010190805190602001906113ea929190613b69565b50604082015181600201556060820151816003015560808201518160040160006101000a81548160ff02191690831515021790555090505060026000815480929190600101919050555050505050565b816000600560008373ffffffffffffffffffffffffffffffffffffffff1673ffffffffffffffffffffffffffffffffffffffff16815260200190815260200160002060040160009054906101000a900460ff169050806114cf576040517f08c379a00000000000000000000000000000000000000000000000000000000081526004016114c690614cf9565b60405180910390fd5b82600560008673ffffffffffffffffffffffffffffffffffffffff1673ffffffffffffffffffffffffffffffffffffffff16815260200190815260200160002060020160008282540192505081905550600560008573ffffffffffffffffffffffffffffffffffffffff1673ffffffffffffffffffffffffffffffffffffffff168152602001908152602001600020600d600560008773ffffffffffffffffffffffffffffffffffffffff1673ffffffffffffffffffffffffffffffffffffffff16815260200190815260200160002060030154815481106115ad57fe5b90600052602060002090600502016000820160009054906101000a900473ffffffffffffffffffffffffffffffffffffffff168160000160006101000a81548173ffffffffffffffffffffffffffffffffffffffff021916908373ffffffffffffffffffffffffffffffffffffffff16021790555060018201816001019080546001816001161561010002031660029004611649929190613c69565b5060028201548160020155600382015481600301556004820160009054906101000a900460ff168160040160006101000a81548160ff02191690831515021790555090505050505050565b61169c6139a2565b60066000838152602001908152602001600020604051806101600160405290816000820160009054906101000a900473ffffffffffffffffffffffffffffffffffffffff1673ffffffffffffffffffffffffffffffffffffffff1673ffffffffffffffffffffffffffffffffffffffff1681526020016001820180548060200260200160405190810160405280929190818152602001828054801561179657602002820191906000526020600020905b8160009054906101000a900473ffffffffffffffffffffffffffffffffffffffff1673ffffffffffffffffffffffffffffffffffffffff168152602001906001019080831161174c575b50505050508152602001600282018054806020026020016040519081016040528092919081815260200182805480156117ee57602002820191906000526020600020905b8154815260200190600101908083116117da575b505050505081526020016003820180548060200260200160405190810160405280929190818152602001828054801561187c57602002820191906000526020600020905b8160009054906101000a900473ffffffffffffffffffffffffffffffffffffffff1673ffffffffffffffffffffffffffffffffffffffff1681526020019060010190808311611832575b5050505050815260200160048201548152602001600582018054600181600116156101000203166002900480601f0160208091040260200160405190810160405280929190818152602001828054600181600116156101000203166002900480156119285780601f106118fd57610100808354040283529160200191611928565b820191906000526020600020905b81548152906001019060200180831161190b57829003601f168201915b50505050508152602001600682018054600181600116156101000203166002900480601f0160208091040260200160405190810160405280929190818152602001828054600181600116156101000203166002900480156119ca5780601f1061199f576101008083540402835291602001916119ca565b820191906000526020600020905b8154815290600101906020018083116119ad57829003601f168201915b505050505081526020016007820160009054906101000a900460ff161515151581526020016007820160019054906101000a900460ff161515151581526020016007820160029054906101000a900460ff161515151581526020016007820160039054906101000a900460ff1615151515815250509050919050565b6000600154905090565b611a58613cf0565b600760008781526020019081526020016000206040518060a00160405290816000820160009054906101000a900473ffffffffffffffffffffffffffffffffffffffff1673ffffffffffffffffffffffffffffffffffffffff1673ffffffffffffffffffffffffffffffffffffffff1681526020016001820160009054906101000a900473ffffffffffffffffffffffffffffffffffffffff1673ffffffffffffffffffffffffffffffffffffffff1673ffffffffffffffffffffffffffffffffffffffff168152602001600282015481526020016003820160009054906101000a900460ff161515151581526020016003820160019054906101000a900460ff161515151581525050905033816000019073ffffffffffffffffffffffffffffffffffffffff16908173ffffffffffffffffffffffffffffffffffffffff168152505084816020019073ffffffffffffffffffffffffffffffffffffffff16908173ffffffffffffffffffffffffffffffffffffffff1681525050838160400181815250508281606001901515908115158152505081816080019015159081151581525050806007600088815260200190815260200160002060008201518160000160006101000a81548173ffffffffffffffffffffffffffffffffffffffff021916908373ffffffffffffffffffffffffffffffffffffffff16021790555060208201518160010160006101000a81548173ffffffffffffffffffffffffffffffffffffffff021916908373ffffffffffffffffffffffffffffffffffffffff1602179055506040820151816002015560608201518160030160006101000a81548160ff02191690831515021790555060808201518160030160016101000a81548160ff021916908315150217905550905050505050505050565b6040518060a001604052803373ffffffffffffffffffffffffffffffffffffffff1681526020018573ffffffffffffffffffffffffffffffffffffffff168152602001848152602001831515815260200182151581525060076000600454815260200190815260200160002060008201518160000160006101000a81548173ffffffffffffffffffffffffffffffffffffffff021916908373ffffffffffffffffffffffffffffffffffffffff16021790555060208201518160010160006101000a81548173ffffffffffffffffffffffffffffffffffffffff021916908373ffffffffffffffffffffffffffffffffffffffff1602179055506040820151816002015560608201518160030160006101000a81548160ff02191690831515021790555060808201518160030160016101000a81548160ff02191690831515021790555090505060046000815480929190600101919050555050505050565b611e61338260000361143a565b611e6b828261143a565b611e79828260006001611cf5565b5050565b8233600060019050611e8d6139a2565b60066000858152602001908152602001600020604051806101600160405290816000820160009054906101000a900473ffffffffffffffffffffffffffffffffffffffff1673ffffffffffffffffffffffffffffffffffffffff1673ffffffffffffffffffffffffffffffffffffffff16815260200160018201805480602002602001604051908101604052809291908181526020018280548015611f8757602002820191906000526020600020905b8160009054906101000a900473ffffffffffffffffffffffffffffffffffffffff1673ffffffffffffffffffffffffffffffffffffffff1681526020019060010190808311611f3d575b5050505050815260200160028201805480602002602001604051908101604052809291908181526020018280548015611fdf57602002820191906000526020600020905b815481526020019060010190808311611fcb575b505050505081526020016003820180548060200260200160405190810160405280929190818152602001828054801561206d57602002820191906000526020600020905b8160009054906101000a900473ffffffffffffffffffffffffffffffffffffffff1673ffffffffffffffffffffffffffffffffffffffff1681526020019060010190808311612023575b5050505050815260200160048201548152602001600582018054600181600116156101000203166002900480601f0160208091040260200160405190810160405280929190818152602001828054600181600116156101000203166002900480156121195780601f106120ee57610100808354040283529160200191612119565b820191906000526020600020905b8154815290600101906020018083116120fc57829003601f168201915b50505050508152602001600682018054600181600116156101000203166002900480601f0160208091040260200160405190810160405280929190818152602001828054600181600116156101000203166002900480156121bb5780601f10612190576101008083540402835291602001916121bb565b820191906000526020600020905b81548152906001019060200180831161219e57829003601f168201915b505050505081526020016007820160009054906101000a900460ff161515151581526020016007820160019054906101000a900460ff161515151581526020016007820160029054906101000a900460ff161515151581526020016007820160039054906101000a900460ff16151515158152505090508061010001518061224457508060e001515b806122525750806101400151155b1561225c57600091505b8273ffffffffffffffffffffffffffffffffffffffff166000809054906101000a900473ffffffffffffffffffffffffffffffffffffffff1673ffffffffffffffffffffffffffffffffffffffff16146122b557600091505b81156122f6576040517f08c379a00000000000000000000000000000000000000000000000000000000081526004016122ed90614d39565b60405180910390fd5b6122fe6139a2565b60066000898152602001908152602001600020604051806101600160405290816000820160009054906101000a900473ffffffffffffffffffffffffffffffffffffffff1673ffffffffffffffffffffffffffffffffffffffff1673ffffffffffffffffffffffffffffffffffffffff168152602001600182018054806020026020016040519081016040528092919081815260200182805480156123f857602002820191906000526020600020905b8160009054906101000a900473ffffffffffffffffffffffffffffffffffffffff1673ffffffffffffffffffffffffffffffffffffffff16815260200190600101908083116123ae575b505050505081526020016002820180548060200260200160405190810160405280929190818152602001828054801561245057602002820191906000526020600020905b81548152602001906001019080831161243c575b50505050508152602001600382018054806020026020016040519081016040528092919081815260200182805480156124de57602002820191906000526020600020905b8160009054906101000a900473ffffffffffffffffffffffffffffffffffffffff1673ffffffffffffffffffffffffffffffffffffffff1681526020019060010190808311612494575b5050505050815260200160048201548152602001600582018054600181600116156101000203166002900480601f01602080910402602001604051908101604052809291908181526020018280546001816001161561010002031660029004801561258a5780601f1061255f5761010080835404028352916020019161258a565b820191906000526020600020905b81548152906001019060200180831161256d57829003601f168201915b50505050508152602001600682018054600181600116156101000203166002900480601f01602080910402602001604051908101604052809291908181526020018280546001816001161561010002031660029004801561262c5780601f106126015761010080835404028352916020019161262c565b820191906000526020600020905b81548152906001019060200180831161260f57829003601f168201915b505050505081526020016007820160009054906101000a900460ff161515151581526020016007820160019054906101000a900460ff161515151581526020016007820160029054906101000a900460ff161515151581526020016007820160039054906101000a900460ff1615151515815250509050868160e0019015159081151581525050858161010001901515908115158152505080600e89815481106126d257fe5b906000526020600020906008020160008201518160000160006101000a81548173ffffffffffffffffffffffffffffffffffffffff021916908373ffffffffffffffffffffffffffffffffffffffff1602179055506020820151816001019080519060200190612743929190613a92565b506040820151816002019080519060200190612760929190613b1c565b50606082015181600301908051906020019061277d929190613a92565b506080820151816004015560a08201518160050190805190602001906127a4929190613b69565b5060c08201518160060190805190602001906127c1929190613b69565b5060e08201518160070160006101000a81548160ff0219169083151502179055506101008201518160070160016101000a81548160ff0219169083151502179055506101208201518160070160026101000a81548160ff0219169083151502179055506101408201518160070160036101000a81548160ff02191690831515021790555090505080600660008a815260200190815260200160002060008201518160000160006101000a81548173ffffffffffffffffffffffffffffffffffffffff021916908373ffffffffffffffffffffffffffffffffffffffff16021790555060208201518160010190805190602001906128bf929190613a92565b5060408201518160020190805190602001906128dc929190613b1c565b5060608201518160030190805190602001906128f9929190613a92565b506080820151816004015560a0820151816005019080519060200190612920929190613b69565b5060c082015181600601908051906020019061293d929190613b69565b5060e08201518160070160006101000a81548160ff0219169083151502179055506101008201518160070160016101000a81548160ff0219169083151502179055506101208201518160070160026101000a81548160ff0219169083151502179055506101408201518160070160036101000a81548160ff0219169083151502179055509050505050505050505050565b87336000600190506129de6139a2565b60066000858152602001908152602001600020604051806101600160405290816000820160009054906101000a900473ffffffffffffffffffffffffffffffffffffffff1673ffffffffffffffffffffffffffffffffffffffff1673ffffffffffffffffffffffffffffffffffffffff16815260200160018201805480602002602001604051908101604052809291908181526020018280548015612ad857602002820191906000526020600020905b8160009054906101000a900473ffffffffffffffffffffffffffffffffffffffff1673ffffffffffffffffffffffffffffffffffffffff1681526020019060010190808311612a8e575b5050505050815260200160028201805480602002602001604051908101604052809291908181526020018280548015612b3057602002820191906000526020600020905b815481526020019060010190808311612b1c575b5050505050815260200160038201805480602002602001604051908101604052809291908181526020018280548015612bbe57602002820191906000526020600020905b8160009054906101000a900473ffffffffffffffffffffffffffffffffffffffff1673ffffffffffffffffffffffffffffffffffffffff1681526020019060010190808311612b74575b5050505050815260200160048201548152602001600582018054600181600116156101000203166002900480601f016020809104026020016040519081016040528092919081815260200182805460018160011615610100020316600290048015612c6a5780601f10612c3f57610100808354040283529160200191612c6a565b820191906000526020600020905b815481529060010190602001808311612c4d57829003601f168201915b50505050508152602001600682018054600181600116156101000203166002900480601f016020809104026020016040519081016040528092919081815260200182805460018160011615610100020316600290048015612d0c5780601f10612ce157610100808354040283529160200191612d0c565b820191906000526020600020905b815481529060010190602001808311612cef57829003601f168201915b505050505081526020016007820160009054906101000a900460ff161515151581526020016007820160019054906101000a900460ff161515151581526020016007820160029054906101000a900460ff161515151581526020016007820160039054906101000a900460ff161515151581525050905080610100015180612d9557508060e001515b80612da35750806101400151155b15612dad57600091505b8273ffffffffffffffffffffffffffffffffffffffff16816000015173ffffffffffffffffffffffffffffffffffffffff1614612de957600091505b8115612e2a576040517f08c379a0000000000000000000000000000000000000000000000000000000008152600401612e2190614d39565b60405180910390fd5b612e326139a2565b600660008e8152602001908152602001600020604051806101600160405290816000820160009054906101000a900473ffffffffffffffffffffffffffffffffffffffff1673ffffffffffffffffffffffffffffffffffffffff1673ffffffffffffffffffffffffffffffffffffffff16815260200160018201805480602002602001604051908101604052809291908181526020018280548015612f2c57602002820191906000526020600020905b8160009054906101000a900473ffffffffffffffffffffffffffffffffffffffff1673ffffffffffffffffffffffffffffffffffffffff1681526020019060010190808311612ee2575b5050505050815260200160028201805480602002602001604051908101604052809291908181526020018280548015612f8457602002820191906000526020600020905b815481526020019060010190808311612f70575b505050505081526020016003820180548060200260200160405190810160405280929190818152602001828054801561301257602002820191906000526020600020905b8160009054906101000a900473ffffffffffffffffffffffffffffffffffffffff1673ffffffffffffffffffffffffffffffffffffffff1681526020019060010190808311612fc8575b5050505050815260200160048201548152602001600582018054600181600116156101000203166002900480601f0160208091040260200160405190810160405280929190818152602001828054600181600116156101000203166002900480156130be5780601f10613093576101008083540402835291602001916130be565b820191906000526020600020905b8154815290600101906020018083116130a157829003601f168201915b50505050508152602001600682018054600181600116156101000203166002900480601f0160208091040260200160405190810160405280929190818152602001828054600181600116156101000203166002900480156131605780601f1061313557610100808354040283529160200191613160565b820191906000526020600020905b81548152906001019060200180831161314357829003601f168201915b505050505081526020016007820160009054906101000a900460ff161515151581526020016007820160019054906101000a900460ff161515151581526020016007820160029054906101000a900460ff161515151581526020016007820160039054906101000a900460ff16151515158152505090508981606001819052508b81602001819052508a816040018190525088816080018181525050878160a00181905250868160c00181905250858161012001901515908115158152505080600e8e8154811061322d57fe5b906000526020600020906008020160008201518160000160006101000a81548173ffffffffffffffffffffffffffffffffffffffff021916908373ffffffffffffffffffffffffffffffffffffffff160217905550602082015181600101908051906020019061329e929190613a92565b5060408201518160020190805190602001906132bb929190613b1c565b5060608201518160030190805190602001906132d8929190613a92565b506080820151816004015560a08201518160050190805190602001906132ff929190613b69565b5060c082015181600601908051906020019061331c929190613b69565b5060e08201518160070160006101000a81548160ff0219169083151502179055506101008201518160070160016101000a81548160ff0219169083151502179055506101208201518160070160026101000a81548160ff0219169083151502179055506101408201518160070160036101000a81548160ff02191690831515021790555090505080600660008f815260200190815260200160002060008201518160000160006101000a81548173ffffffffffffffffffffffffffffffffffffffff021916908373ffffffffffffffffffffffffffffffffffffffff160217905550602082015181600101908051906020019061341a929190613a92565b506040820151816002019080519060200190613437929190613b1c565b506060820151816003019080519060200190613454929190613a92565b506080820151816004015560a082015181600501908051906020019061347b929190613b69565b5060c0820151816006019080519060200190613498929190613b69565b5060e08201518160070160006101000a81548160ff0219169083151502179055506101008201518160070160016101000a81548160ff0219169083151502179055506101208201518160070160026101000a81548160ff0219169083151502179055506101408201518160070160036101000a81548160ff02191690831515021790555090505050505050505050505050505050565b6135366139a2565b61353f82611694565b90508060e001516135b5576135578260016000611e7d565b600081606001515182608001518161356b57fe5b04905060008090505b8260600151518110156135b2576135a58360600151828151811061359457fe5b60200260200101518360000361143a565b8080600101915050613574565b50505b5050565b606060008260018503029050600083850290506000809050600d805490508211156135ed5782600d805490500390506135f1565b8490505b60608160405190808252806020026020018201604052801561362d57816020015b61361a613d4f565b8152602001906001900390816136125790505b50905060008490505b838110156137b157600d818154811061364b57fe5b90600052602060002090600502016040518060a00160405290816000820160009054906101000a900473ffffffffffffffffffffffffffffffffffffffff1673ffffffffffffffffffffffffffffffffffffffff1673ffffffffffffffffffffffffffffffffffffffff168152602001600182018054600181600116156101000203166002900480601f0160208091040260200160405190810160405280929190818152602001828054600181600116156101000203166002900480156137535780601f1061372857610100808354040283529160200191613753565b820191906000526020600020905b81548152906001019060200180831161373657829003601f168201915b5050505050815260200160028201548152602001600382015481526020016004820160009054906101000a900460ff161515151581525050828683038151811061379957fe5b60200260200101819052508080600101915050613636565b508094505050505092915050565b606080826040519080825280602002602001820160405280156137fc57816020015b6137e9613d96565b8152602001906001900390816137e15790505b509050600083600186030290506000848602905060008290505b8181101561394e57600760008281526020019081526020016000206040518060a00160405290816000820160009054906101000a900473ffffffffffffffffffffffffffffffffffffffff1673ffffffffffffffffffffffffffffffffffffffff1673ffffffffffffffffffffffffffffffffffffffff1681526020016001820160009054906101000a900473ffffffffffffffffffffffffffffffffffffffff1673ffffffffffffffffffffffffffffffffffffffff1673ffffffffffffffffffffffffffffffffffffffff168152602001600282015481526020016003820160009054906101000a900460ff161515151581526020016003820160019054906101000a900460ff161515151581525050848483038151811061393657fe5b60200260200101819052508080600101915050613816565b5082935050505092915050565b6040518060a00160405280600073ffffffffffffffffffffffffffffffffffffffff1681526020016060815260200160008152602001600081526020016000151581525090565b604051806101600160405280600073ffffffffffffffffffffffffffffffffffffffff1681526020016060815260200160608152602001606081526020016000815260200160608152602001606081526020016000151581526020016000151581526020016000151581526020016000151581525090565b604051806101600160405280600073ffffffffffffffffffffffffffffffffffffffff1681526020016060815260200160608152602001606081526020016000815260200160608152602001606081526020016000151581526020016000151581526020016000151581526020016000151581525090565b828054828255906000526020600020908101928215613b0b579160200282015b82811115613b0a5782518260006101000a81548173ffffffffffffffffffffffffffffffffffffffff021916908373ffffffffffffffffffffffffffffffffffffffff16021790555091602001919060010190613ab2565b5b509050613b189190613df5565b5090565b828054828255906000526020600020908101928215613b58579160200282015b82811115613b57578251825591602001919060010190613b3c565b5b509050613b659190613e38565b5090565b828054600181600116156101000203166002900490600052602060002090601f016020900481019282601f10613baa57805160ff1916838001178555613bd8565b82800160010185558215613bd8579182015b82811115613bd7578251825591602001919060010190613bbc565b5b509050613be59190613e5d565b5090565b828054600181600116156101000203166002900490600052602060002090601f016020900481019282601f10613c2a57805160ff1916838001178555613c58565b82800160010185558215613c58579182015b82811115613c57578251825591602001919060010190613c3c565b5b509050613c659190613e5d565b5090565b828054600181600116156101000203166002900490600052602060002090601f016020900481019282601f10613ca25780548555613cdf565b82800160010185558215613cdf57600052602060002091601f016020900482015b82811115613cde578254825591600101919060010190613cc3565b5b509050613cec9190613e5d565b5090565b6040518060a00160405280600073ffffffffffffffffffffffffffffffffffffffff168152602001600073ffffffffffffffffffffffffffffffffffffffff168152602001600081526020016000151581526020016000151581525090565b6040518060a00160405280600073ffffffffffffffffffffffffffffffffffffffff1681526020016060815260200160008152602001600081526020016000151581525090565b6040518060a00160405280600073ffffffffffffffffffffffffffffffffffffffff168152602001600073ffffffffffffffffffffffffffffffffffffffff168152602001600081526020016000151581526020016000151581525090565b613e3591905b80821115613e3157600081816101000a81549073ffffffffffffffffffffffffffffffffffffffff021916905550600101613dfb565b5090565b90565b613e5a91905b80821115613e56576000816000905550600101613e3e565b5090565b90565b613e7f91905b80821115613e7b576000816000905550600101613e63565b5090565b90565b600081359050613e9181615026565b92915050565b600082601f830112613ea857600080fd5b8135613ebb613eb682614dca565b614d9d565b91508181835260208401935060208101905083856020840282011115613ee057600080fd5b60005b83811015613f105781613ef68882613e82565b845260208401935060208301925050600181019050613ee3565b5050505092915050565b600082601f830112613f2b57600080fd5b8135613f3e613f3982614df2565b614d9d565b91508181835260208401935060208101905083856020840282011115613f6357600080fd5b60005b83811015613f935781613f798882613fb2565b845260208401935060208301925050600181019050613f66565b5050505092915050565b600081359050613fac8161503d565b92915050565b600081359050613fc181615054565b92915050565b600082601f830112613fd857600080fd5b8135613feb613fe682614e1a565b614d9d565b9150808252602083016020830185838301111561400757600080fd5b614012838284614fd3565b50505092915050565b60008135905061402a8161506b565b92915050565b60006020828403121561404257600080fd5b600061405084828501613e82565b91505092915050565b6000806040838503121561406c57600080fd5b600061407a85828601613e82565b925050602061408b85828601613fb2565b9150509250929050565b600080600080608085870312156140ab57600080fd5b60006140b987828801613e82565b94505060206140ca87828801613fb2565b93505060406140db87828801613f9d565b92505060606140ec87828801613f9d565b91505092959194509250565b60008060006060848603121561410d57600080fd5b600061411b86828701613e82565b935050602084013567ffffffffffffffff81111561413857600080fd5b61414486828701613fc7565b925050604061415586828701613fb2565b9150509250925092565b60008060008060008060c0878903121561417857600080fd5b600087013567ffffffffffffffff81111561419257600080fd5b61419e89828a01613e97565b965050602087013567ffffffffffffffff8111156141bb57600080fd5b6141c789828a01613f1a565b955050604087013567ffffffffffffffff8111156141e457600080fd5b6141f089828a01613e97565b945050606061420189828a0161401b565b935050608087013567ffffffffffffffff81111561421e57600080fd5b61422a89828a01613fc7565b92505060a087013567ffffffffffffffff81111561424757600080fd5b61425389828a01613fc7565b9150509295509295509295565b60006020828403121561427257600080fd5b600082013567ffffffffffffffff81111561428c57600080fd5b61429884828501613fc7565b91505092915050565b6000602082840312156142b357600080fd5b60006142c18482850161401b565b91505092915050565b600080600080600060a086880312156142e257600080fd5b60006142f08882890161401b565b955050602061430188828901613e82565b945050604061431288828901613fb2565b935050606061432388828901613f9d565b925050608061433488828901613f9d565b9150509295509295909350565b600080600080600080600080610100898b03121561435e57600080fd5b600061436c8b828c0161401b565b985050602089013567ffffffffffffffff81111561438957600080fd5b6143958b828c01613e97565b975050604089013567ffffffffffffffff8111156143b257600080fd5b6143be8b828c01613f1a565b965050606089013567ffffffffffffffff8111156143db57600080fd5b6143e78b828c01613e97565b95505060806143f88b828c0161401b565b94505060a089013567ffffffffffffffff81111561441557600080fd5b6144218b828c01613fc7565b93505060c089013567ffffffffffffffff81111561443e57600080fd5b61444a8b828c01613fc7565b92505060e061445b8b828c01613f9d565b9150509295985092959890939650565b60008060006060848603121561448057600080fd5b600061448e8682870161401b565b935050602061449f86828701613f9d565b92505060406144b086828701613f9d565b9150509250925092565b600080604083850312156144cd57600080fd5b60006144db8582860161401b565b92505060206144ec8582860161401b565b9150509250929050565b60006145028383614566565b60208301905092915050565b600061451a8383614788565b60208301905092915050565b60006145328383614955565b905092915050565b60006145468383614ad6565b905092915050565b600061455a8383614be1565b60a08301905092915050565b61456f81614f81565b82525050565b600061458082614e87565b61458a8185614f0a565b935061459583614e46565b8060005b838110156145c65781516145ad88826144f6565b97506145b883614ec9565b925050600181019050614599565b5085935050505092915050565b60006145de82614e92565b6145e88185614f1b565b93506145f383614e53565b8060005b8381101561462457815161460b888261450e565b975061461683614ed6565b9250506001810190506145f7565b5085935050505092915050565b600061463c82614e9d565b6146468185614f2c565b93508360208202850161465885614e60565b8060005b8581101561469457848403895281516146758582614526565b945061468083614ee3565b925060208a0199505060018101905061465c565b50829750879550505050505092915050565b60006146b182614ea8565b6146bb8185614f3d565b9350836020820285016146cd85614e6d565b8060005b8581101561470957848403895281516146ea858261453a565b94506146f583614ef0565b925060208a019950506001810190506146d1565b50829750879550505050505092915050565b600061472682614eb3565b6147308185614f4e565b935061473b83614e7a565b8060005b8381101561476c578151614753888261454e565b975061475e83614efd565b92505060018101905061473f565b5085935050505092915050565b61478281614f93565b82525050565b61479181614f9f565b82525050565b6147a081614f9f565b82525050565b60006147b182614ebe565b6147bb8185614f5f565b93506147cb818560208601614fe2565b6147d481615015565b840191505092915050565b60006147ec601983614f70565b91507f436865636b2070617274792076616c6964617465206661696c000000000000006000830152602082019050919050565b600061482c601483614f70565b91507f4d656d626572206973206e6f74206578697374730000000000000000000000006000830152602082019050919050565b600061486c601083614f70565b91507f4d656d62657220697320657869737473000000000000000000000000000000006000830152602082019050919050565b60006148ac601383614f70565b91507f43616e6e6f7420757064617465207061727479000000000000000000000000006000830152602082019050919050565b600060a0830160008301516148f76000860182614566565b506020830151848203602086015261490f82826147a6565b91505060408301516149246040860182614788565b5060608301516149376060860182614c49565b50608083015161494a6080860182614779565b508091505092915050565b600060a08301600083015161496d6000860182614566565b506020830151848203602086015261498582826147a6565b915050604083015161499a6040860182614788565b5060608301516149ad6060860182614c49565b5060808301516149c06080860182614779565b508091505092915050565b6000610160830160008301516149e46000860182614566565b50602083015184820360208601526149fc8282614575565b91505060408301518482036040860152614a1682826145d3565b91505060608301518482036060860152614a308282614575565b9150506080830151614a456080860182614c49565b5060a083015184820360a0860152614a5d82826147a6565b91505060c083015184820360c0860152614a7782826147a6565b91505060e0830151614a8c60e0860182614779565b50610100830151614aa1610100860182614779565b50610120830151614ab6610120860182614779565b50610140830151614acb610140860182614779565b508091505092915050565b600061016083016000830151614aef6000860182614566565b5060208301518482036020860152614b078282614575565b91505060408301518482036040860152614b2182826145d3565b91505060608301518482036060860152614b3b8282614575565b9150506080830151614b506080860182614c49565b5060a083015184820360a0860152614b6882826147a6565b91505060c083015184820360c0860152614b8282826147a6565b91505060e0830151614b9760e0860182614779565b50610100830151614bac610100860182614779565b50610120830151614bc1610120860182614779565b50610140830151614bd6610140860182614779565b508091505092915050565b60a082016000820151614bf76000850182614566565b506020820151614c0a6020850182614566565b506040820151614c1d6040850182614788565b506060820151614c306060850182614779565b506080820151614c436080850182614779565b50505050565b614c5281614fc9565b82525050565b60006020820190508181036000830152614c728184614631565b905092915050565b60006020820190508181036000830152614c9481846146a6565b905092915050565b60006020820190508181036000830152614cb6818461471b565b905092915050565b6000602082019050614cd36000830184614797565b92915050565b60006020820190508181036000830152614cf2816147df565b9050919050565b60006020820190508181036000830152614d128161481f565b9050919050565b60006020820190508181036000830152614d328161485f565b9050919050565b60006020820190508181036000830152614d528161489f565b9050919050565b60006020820190508181036000830152614d7381846148df565b905092915050565b60006020820190508181036000830152614d9581846149cb565b905092915050565b6000604051905081810181811067ffffffffffffffff82111715614dc057600080fd5b8060405250919050565b600067ffffffffffffffff821115614de157600080fd5b602082029050602081019050919050565b600067ffffffffffffffff821115614e0957600080fd5b602082029050602081019050919050565b600067ffffffffffffffff821115614e3157600080fd5b601f19601f8301169050602081019050919050565b6000602082019050919050565b6000602082019050919050565b6000602082019050919050565b6000602082019050919050565b6000602082019050919050565b600081519050919050565b600081519050919050565b600081519050919050565b600081519050919050565b600081519050919050565b600081519050919050565b6000602082019050919050565b6000602082019050919050565b6000602082019050919050565b6000602082019050919050565b6000602082019050919050565b600082825260208201905092915050565b600082825260208201905092915050565b600082825260208201905092915050565b600082825260208201905092915050565b600082825260208201905092915050565b600082825260208201905092915050565b600082825260208201905092915050565b6000614f8c82614fa9565b9050919050565b60008115159050919050565b6000819050919050565b600073ffffffffffffffffffffffffffffffffffffffff82169050919050565b6000819050919050565b82818337600083830152505050565b60005b83811015615000578082015181840152602081019050614fe5565b8381111561500f576000848401525b50505050565b6000601f19601f8301169050919050565b61502f81614f81565b811461503a57600080fd5b50565b61504681614f93565b811461505157600080fd5b50565b61505d81614f9f565b811461506857600080fd5b50565b61507481614fc9565b811461507f57600080fd5b5056fea265627a7a72305820f418e27b3918ebdc6e083e984471835a02c2f3af1a71a35dbd5bd222120d65676c6578706572696d656e74616cf50037",
  "source": "pragma solidity >=0.4.22 <0.6.0;\npragma experimental ABIEncoderV2;\ncontract PartyFunds {\n    address owner;\n    int256 totalFunds = 0;\n    uint countMember = 0;\n    uint countParty = 0;\n    uint countTransferHistory = 0;\n    struct Member{\n        address id;\n        string name;\n        int256 money;\n        uint256 index;\n        bool isValue;\n    }\n    struct Payer{\n        address member;\n        int256 money;\n    }\n    struct Party{\n        address creator;\n        address[] payerAddress;\n        int256[] payerMoney;\n        address[] members;\n        uint256 money;\n        string message;\n        string createdDate;\n        bool paySuccess;\n        bool reject;\n        bool requestReject;\n        bool isValue;\n    }\n    struct TransferHistory{\n        address sender;\n        address receiver;\n        int256 money;\n        bool isDeposit;\n        bool accept;\n    }\n    mapping(address=>Member) members;\n    mapping(uint256=>Party) parties;\n    mapping(uint256=>TransferHistory) transferHistories;\n    Member fundHost;\n    Member[] memberList;\n    Party[] partyList;\n    modifier memberNotExists(address _member) {\n        bool checkExists = members[_member].isValue;\n        require(\n            !checkExists,\n            \"Member is exists\"\n        );\n        _;\n    }\n    modifier memberExists(address _member) {\n        bool checkExists = members[_member].isValue;\n        require(\n            checkExists,\n            \"Member is not exists\"\n        );\n        _;\n    }\n    modifier partyValidate(address[] memory _payerAddress, int256[] memory _payerMoney) {\n        bool passValidate = true;\n        if(_payerAddress.length != _payerMoney.length){\n            passValidate = false;\n        }\n        for(uint256 i = 0; i < _payerAddress.length; i++){\n            passValidate = passValidate && members[_payerAddress[i]].isValue;\n        }\n        require(\n            passValidate,\n            \"Check party validate fail\"\n        );\n        _;\n    }\n    modifier onlyCreatorCanUpdateParty(uint256 _id, address _member) {\n        bool _canUpdate = true;\n        Party memory _party = parties[_id];\n        if(_party.reject || _party.paySuccess || !_party.isValue){\n            _canUpdate = false;\n        }\n        if(_party.creator != _member){\n            _canUpdate = false;\n        }\n        require(\n            !_canUpdate,\n            \"Cannot update party\"\n        );\n        _;\n    }\n    modifier onlyOwnerCanUpdateParty(uint256 _id, address _member) {\n        bool _canUpdate = true;\n        Party memory _party = parties[_id];\n        if(_party.reject || _party.paySuccess || !_party.isValue){\n            _canUpdate = false;\n        }\n        if(owner != _member){\n            _canUpdate = false;\n        }\n        require(\n            !_canUpdate,\n            \"Cannot update party\"\n        );\n        _;\n    }\n\n    function getTotalFund() public view returns (int256) {\n        return totalFunds;\n    }\n    function getFundHost() public view returns (Member memory) {\n        return fundHost;\n    }\n    function getMemberList(uint256 _page, uint256 _perPage) public view returns (Member[] memory) {\n        uint256 _fromIndex = (_page - 1) * _perPage;\n        uint256 _toIndex = _page * _perPage;\n        uint256 countItems = 0;\n        if(_toIndex > memberList.length){\n            countItems = memberList.length - _fromIndex;\n        }\n        else {\n            countItems = _perPage;\n        }\n        Member[] memory _memberList = new Member[](countItems);\n        for(uint i = _fromIndex; i < _toIndex; i++) {\n            _memberList[i - _fromIndex] = memberList[i];\n        }\n        return _memberList;\n    }\n    // function getMemberListCount(uint256 _page, uint256 _perPage) public view returns (uint256) {\n    //     uint256 _fromIndex = (_page - 1) * _perPage;\n    //     uint256 _toIndex = _page * _perPage;\n    //     uint256 countItems = 0;\n    //     if(_toIndex > memberList.length){\n    //         countItems = memberList.length - _fromIndex;\n    //     }\n    //     else {\n    //         countItems = _perPage;\n    //     }\n    //     return countItems;\n    // }\n    function getMember(address _addr) public view returns (Member memory) {\n        return members[_addr];\n    }\n    function getPartyList(uint256 _page, uint256 _perPage) public view returns (Party[] memory) {\n        Party[] memory _partyList = new Party[](_perPage);\n        uint256 _fromIndex = (_page - 1) * _perPage;\n        uint256 _toIndex = _page * _perPage;\n        for(uint i = _fromIndex; i < _toIndex; i++) {\n            _partyList[i - _fromIndex] = parties[i];\n        }\n        return _partyList;\n    }\n    function getParty(uint256 _id) public view returns (Party memory) {\n        return parties[_id];\n    }\n    function getTransferHistoriyList(uint256 _page, uint256 _perPage) public view returns (TransferHistory[] memory){\n        TransferHistory[] memory _transferHistoryList = new TransferHistory[](_perPage);\n        uint256 _fromIndex = (_page - 1) * _perPage;\n        uint256 _toIndex = _page * _perPage;\n        for(uint i = _fromIndex; i < _toIndex; i++) {\n            _transferHistoryList[i - _fromIndex] = transferHistories[i];\n        }\n        return _transferHistoryList;\n    }\n    function addMember(string memory _name) public memberNotExists(msg.sender){\n        Member memory member = Member(msg.sender, _name, 0, countMember, true);\n        memberList.push(member);\n        members[msg.sender] = member;\n        countMember++;\n    }\n    function updateMember(address _addr, string memory _name, int256 _money) public {\n        members[_addr].name = _name;\n        members[_addr].money = _money;\n        memberList[members[_addr].index] = members[_addr];\n    }\n    function updateMemberMoney(address _addr, int256 _money) public memberExists(_addr) {\n        members[_addr].money += _money;\n        memberList[members[_addr].index] = members[_addr];\n    }\n    function addParty(\n        address[] memory _payerAddress, int256[] memory _payerMoney, address[] memory _members, uint256  _money, string memory  _message, string memory  _createdDate\n    ) public partyValidate(_payerAddress, _payerMoney) {\n        Party memory _party = Party(\n            msg.sender,\n            _payerAddress,\n            _payerMoney,\n            _members,\n            _money,\n            _message,\n            _createdDate,\n            false,\n            false,\n            false,\n            true\n        );\n        partyList.push(_party);\n        parties[countParty] = _party;\n        countParty++;\n    }\n    function updatePartyByCreator(\n        uint256 _id, address[] memory _payerAddress, int256[] memory _payerMoney, address[] memory _members, uint256 _money, string memory _message, string memory _createdDate, bool _requestReject\n    ) public onlyCreatorCanUpdateParty(_id, msg.sender) {\n        Party memory _party = parties[_id];\n        _party.members = _members;\n        _party.payerAddress = _payerAddress;\n        _party.payerMoney = _payerMoney;\n        _party.money = _money;\n        _party.message = _message;\n        _party.createdDate = _createdDate;\n        _party.requestReject = _requestReject;\n        partyList[_id] = _party;\n        parties[_id] = _party;\n    }\n    function updatePartyByOwner(uint256 _id, bool _paySuccess, bool _reject)\n    public onlyOwnerCanUpdateParty(_id, msg.sender) {\n        Party memory _party = parties[_id];\n        _party.paySuccess = _paySuccess;\n        _party.reject = _reject;\n        partyList[_id] = _party;\n        parties[_id] = _party;\n    }\n    function addTransferHistory(address _receiver, int256 _money, bool _isDeposit, bool _accept) public {\n        transferHistories[countTransferHistory] = TransferHistory(msg.sender, _receiver, _money, _isDeposit, _accept);\n        countTransferHistory++;\n    }\n    function updateTransferHistory(uint256 _id, address _receiver, int256 _money, bool _isDeposit, bool _accept) public {\n        TransferHistory memory _transferHistory = transferHistories[_id];\n        _transferHistory.sender = msg.sender;\n        _transferHistory.receiver = _receiver;\n        _transferHistory.money = _money;\n        _transferHistory.isDeposit = _isDeposit;\n        _transferHistory.accept = _accept;\n        transferHistories[_id] = _transferHistory;\n    }\n    function transferMoney(address _receiver, int256 _money) public {\n        updateMemberMoney(msg.sender, - _money);\n        updateMemberMoney(_receiver, _money);\n        addTransferHistory(_receiver, _money, false, true);\n    }\n    function requestRejectParty(uint256 _id) public {\n        Party memory _party = getParty(_id);\n        _party.requestReject = true;\n        updatePartyByCreator(\n            _id,\n            _party.payerAddress,\n            _party.payerMoney,\n            _party.members,\n            _party.money,\n            _party.message,\n            _party.createdDate,\n            _party.requestReject\n        );\n    }\n    function rejectParty(uint256 _id) public {\n        updatePartyByOwner(_id, false, true);\n    }\n    function acceptParty(uint256 _id) public {\n        Party memory _party = getParty(_id);\n        if(!_party.paySuccess){\n            updatePartyByOwner(_id, true, false);\n            uint256 _moneyShared = _party.money / _party.members.length;\n            for(uint256 i = 0; i < _party.members.length; i++){\n                updateMemberMoney(_party.members[i], -int256(_moneyShared));\n            }\n        }\n    }\n}",
  "sourcePath": "/Users/phongdo/Documents/Project/ethereum-tutorial/PartyFunds/contracts/PartyFunds.sol",
  "compiler": {
    "name": "solc",
    "version": "0.5.8+commit.23d335f2.Emscripten.clang"
  },
  "schemaVersion": "3.0.16",
  "updatedAt": "2019-11-25T16:05:52.176Z",
  "devdoc": {
    "methods": {}
  },
  "userdoc": {
    "methods": {}
  }
}