{
  "contractName": "PartyFunds",
  "abi": [
    {
      "constant": true,
      "inputs": [],
      "name": "getTotalFund",
      "outputs": [
        {
          "name": "",
          "type": "int256"
        }
      ],
      "payable": false,
      "stateMutability": "view",
      "type": "function"
    },
    {
      "constant": true,
      "inputs": [],
      "name": "getFundHost",
      "outputs": [
        {
          "components": [
            {
              "name": "id",
              "type": "address"
            },
            {
              "name": "name",
              "type": "string"
            },
            {
              "name": "money",
              "type": "int256"
            },
            {
              "name": "index",
              "type": "uint256"
            },
            {
              "name": "isValue",
              "type": "bool"
            }
          ],
          "name": "",
          "type": "tuple"
        }
      ],
      "payable": false,
      "stateMutability": "view",
      "type": "function"
    },
    {
      "constant": true,
      "inputs": [
        {
          "name": "_page",
          "type": "uint256"
        },
        {
          "name": "_perPage",
          "type": "uint256"
        }
      ],
      "name": "getMemberList",
      "outputs": [
        {
          "components": [
            {
              "name": "id",
              "type": "address"
            },
            {
              "name": "name",
              "type": "string"
            },
            {
              "name": "money",
              "type": "int256"
            },
            {
              "name": "index",
              "type": "uint256"
            },
            {
              "name": "isValue",
              "type": "bool"
            }
          ],
          "name": "",
          "type": "tuple[]"
        }
      ],
      "payable": false,
      "stateMutability": "view",
      "type": "function"
    },
    {
      "constant": true,
      "inputs": [
        {
          "name": "_addr",
          "type": "address"
        }
      ],
      "name": "getMember",
      "outputs": [
        {
          "components": [
            {
              "name": "id",
              "type": "address"
            },
            {
              "name": "name",
              "type": "string"
            },
            {
              "name": "money",
              "type": "int256"
            },
            {
              "name": "index",
              "type": "uint256"
            },
            {
              "name": "isValue",
              "type": "bool"
            }
          ],
          "name": "",
          "type": "tuple"
        }
      ],
      "payable": false,
      "stateMutability": "view",
      "type": "function"
    },
    {
      "constant": true,
      "inputs": [
        {
          "name": "_page",
          "type": "uint256"
        },
        {
          "name": "_perPage",
          "type": "uint256"
        }
      ],
      "name": "getPartyList",
      "outputs": [
        {
          "components": [
            {
              "name": "creator",
              "type": "address"
            },
            {
              "name": "payerAddress",
              "type": "address[]"
            },
            {
              "name": "payerMoney",
              "type": "int256[]"
            },
            {
              "name": "members",
              "type": "address[]"
            },
            {
              "name": "money",
              "type": "uint256"
            },
            {
              "name": "message",
              "type": "string"
            },
            {
              "name": "createdDate",
              "type": "string"
            },
            {
              "name": "paySuccess",
              "type": "bool"
            },
            {
              "name": "reject",
              "type": "bool"
            },
            {
              "name": "requestReject",
              "type": "bool"
            },
            {
              "name": "isValue",
              "type": "bool"
            }
          ],
          "name": "",
          "type": "tuple[]"
        }
      ],
      "payable": false,
      "stateMutability": "view",
      "type": "function"
    },
    {
      "constant": true,
      "inputs": [
        {
          "name": "_id",
          "type": "uint256"
        }
      ],
      "name": "getParty",
      "outputs": [
        {
          "components": [
            {
              "name": "creator",
              "type": "address"
            },
            {
              "name": "payerAddress",
              "type": "address[]"
            },
            {
              "name": "payerMoney",
              "type": "int256[]"
            },
            {
              "name": "members",
              "type": "address[]"
            },
            {
              "name": "money",
              "type": "uint256"
            },
            {
              "name": "message",
              "type": "string"
            },
            {
              "name": "createdDate",
              "type": "string"
            },
            {
              "name": "paySuccess",
              "type": "bool"
            },
            {
              "name": "reject",
              "type": "bool"
            },
            {
              "name": "requestReject",
              "type": "bool"
            },
            {
              "name": "isValue",
              "type": "bool"
            }
          ],
          "name": "",
          "type": "tuple"
        }
      ],
      "payable": false,
      "stateMutability": "view",
      "type": "function"
    },
    {
      "constant": true,
      "inputs": [
        {
          "name": "_page",
          "type": "uint256"
        },
        {
          "name": "_perPage",
          "type": "uint256"
        }
      ],
      "name": "getTransferHistoriyList",
      "outputs": [
        {
          "components": [
            {
              "name": "sender",
              "type": "address"
            },
            {
              "name": "receiver",
              "type": "address"
            },
            {
              "name": "money",
              "type": "int256"
            },
            {
              "name": "isDeposit",
              "type": "bool"
            },
            {
              "name": "accept",
              "type": "bool"
            }
          ],
          "name": "",
          "type": "tuple[]"
        }
      ],
      "payable": false,
      "stateMutability": "view",
      "type": "function"
    },
    {
      "constant": false,
      "inputs": [
        {
          "name": "_name",
          "type": "string"
        }
      ],
      "name": "addMember",
      "outputs": [],
      "payable": false,
      "stateMutability": "nonpayable",
      "type": "function"
    },
    {
      "constant": false,
      "inputs": [
        {
          "name": "_addr",
          "type": "address"
        },
        {
          "name": "_name",
          "type": "string"
        },
        {
          "name": "_money",
          "type": "int256"
        }
      ],
      "name": "updateMember",
      "outputs": [],
      "payable": false,
      "stateMutability": "nonpayable",
      "type": "function"
    },
    {
      "constant": false,
      "inputs": [
        {
          "name": "_addr",
          "type": "address"
        },
        {
          "name": "_money",
          "type": "int256"
        }
      ],
      "name": "updateMemberMoney",
      "outputs": [],
      "payable": false,
      "stateMutability": "nonpayable",
      "type": "function"
    },
    {
      "constant": false,
      "inputs": [
        {
          "name": "_payerAddress",
          "type": "address[]"
        },
        {
          "name": "_payerMoney",
          "type": "int256[]"
        },
        {
          "name": "_members",
          "type": "address[]"
        },
        {
          "name": "_money",
          "type": "uint256"
        },
        {
          "name": "_message",
          "type": "string"
        },
        {
          "name": "_createdDate",
          "type": "string"
        }
      ],
      "name": "addParty",
      "outputs": [],
      "payable": false,
      "stateMutability": "nonpayable",
      "type": "function"
    },
    {
      "constant": false,
      "inputs": [
        {
          "name": "_id",
          "type": "uint256"
        },
        {
          "name": "_payerAddress",
          "type": "address[]"
        },
        {
          "name": "_payerMoney",
          "type": "int256[]"
        },
        {
          "name": "_members",
          "type": "address[]"
        },
        {
          "name": "_money",
          "type": "uint256"
        },
        {
          "name": "_message",
          "type": "string"
        },
        {
          "name": "_createdDate",
          "type": "string"
        },
        {
          "name": "_requestReject",
          "type": "bool"
        }
      ],
      "name": "updatePartyByCreator",
      "outputs": [],
      "payable": false,
      "stateMutability": "nonpayable",
      "type": "function"
    },
    {
      "constant": false,
      "inputs": [
        {
          "name": "_id",
          "type": "uint256"
        },
        {
          "name": "_paySuccess",
          "type": "bool"
        },
        {
          "name": "_reject",
          "type": "bool"
        }
      ],
      "name": "updatePartyByOwner",
      "outputs": [],
      "payable": false,
      "stateMutability": "nonpayable",
      "type": "function"
    },
    {
      "constant": false,
      "inputs": [
        {
          "name": "_receiver",
          "type": "address"
        },
        {
          "name": "_money",
          "type": "int256"
        },
        {
          "name": "_isDeposit",
          "type": "bool"
        },
        {
          "name": "_accept",
          "type": "bool"
        }
      ],
      "name": "addTransferHistory",
      "outputs": [],
      "payable": false,
      "stateMutability": "nonpayable",
      "type": "function"
    },
    {
      "constant": false,
      "inputs": [
        {
          "name": "_id",
          "type": "uint256"
        },
        {
          "name": "_receiver",
          "type": "address"
        },
        {
          "name": "_money",
          "type": "int256"
        },
        {
          "name": "_isDeposit",
          "type": "bool"
        },
        {
          "name": "_accept",
          "type": "bool"
        }
      ],
      "name": "updateTransferHistory",
      "outputs": [],
      "payable": false,
      "stateMutability": "nonpayable",
      "type": "function"
    },
    {
      "constant": false,
      "inputs": [
        {
          "name": "_receiver",
          "type": "address"
        },
        {
          "name": "_money",
          "type": "int256"
        }
      ],
      "name": "transferMoney",
      "outputs": [],
      "payable": false,
      "stateMutability": "nonpayable",
      "type": "function"
    },
    {
      "constant": false,
      "inputs": [
        {
          "name": "_id",
          "type": "uint256"
        }
      ],
      "name": "requestRejectParty",
      "outputs": [],
      "payable": false,
      "stateMutability": "nonpayable",
      "type": "function"
    },
    {
      "constant": false,
      "inputs": [
        {
          "name": "_id",
          "type": "uint256"
        }
      ],
      "name": "rejectParty",
      "outputs": [],
      "payable": false,
      "stateMutability": "nonpayable",
      "type": "function"
    },
    {
      "constant": false,
      "inputs": [
        {
          "name": "_id",
          "type": "uint256"
        }
      ],
      "name": "acceptParty",
      "outputs": [],
      "payable": false,
      "stateMutability": "nonpayable",
      "type": "function"
    }
  ],
  "bytecode": "0x6080604052600060015560006002556000600355600060045534801561002457600080fd5b50615107806100346000396000f3fe608060405234801561001057600080fd5b50600436106101215760003560e01c806394758218116100ad578063d6c936ad11610071578063d6c936ad146102ee578063efe963b51461030a578063f6aaab6b14610326578063fed8f8f614610342578063feec67d31461037257610121565b8063947582181461024c5780639fd813e31461027c5780639ffeccf31461029a578063c00a9915146102b6578063ca0aac38146102d257610121565b80635cedfdd0116100f45780635cedfdd0146101c057806387449700146101dc578063880897dd146101f8578063918f96871461021457806393aa64531461023057610121565b806318895842146101265780632379d47f146101445780632ada2596146101605780633422ac1b14610190575b600080fd5b61012e6103a2565b60405161013b9190614da4565b60405180910390f35b61015e600480360361015991908101906142ec565b6104e3565b005b61017a6004803603610175919081019061407b565b610539565b6040516101879190614da4565b60405180910390f35b6101aa60048036036101a59190810190614505565b6106b9565b6040516101b79190614cc5565b60405180910390f35b6101da60048036036101d591908101906141aa565b610b14565b005b6101f660048036036101f19190810190614143565b610f9f565b005b610212600480360361020d91908101906142ec565b6111b1565b005b61022e600480360361022991908101906142ab565b6111c1565b005b61024a600480360361024591908101906140a4565b611460565b005b610266600480360361026191908101906142ec565b6116ba565b6040516102739190614dc6565b60405180910390f35b610284611a6c565b6040516102919190614d09565b60405180910390f35b6102b460048036036102af9190810190614315565b611a76565b005b6102d060048036036102cb91908101906140e0565b611d1b565b005b6102ec60048036036102e791908101906140a4565b611e7a565b005b610308600480360361030391908101906144b6565b611ea3565b005b610324600480360361031f919081019061438c565b6129f4565b005b610340600480360361033b91908101906142ec565b613554565b005b61035c60048036036103579190810190614505565b6135df565b6040516103699190614ca3565b60405180910390f35b61038c60048036036103879190810190614505565b6137e4565b6040516103999190614ce7565b60405180910390f35b6103aa6139a6565b60086040518060a00160405290816000820160009054906101000a900473ffffffffffffffffffffffffffffffffffffffff1673ffffffffffffffffffffffffffffffffffffffff1673ffffffffffffffffffffffffffffffffffffffff168152602001600182018054600181600116156101000203166002900480601f0160208091040260200160405190810160405280929190818152602001828054600181600116156101000203166002900480156104a65780601f1061047b576101008083540402835291602001916104a6565b820191906000526020600020905b81548152906001019060200180831161048957829003601f168201915b5050505050815260200160028201548152602001600382015481526020016004820160009054906101000a900460ff161515151581525050905090565b6104eb6139ed565b6104f4826116ba565b90506001816101200190151590811515815250506105358282602001518360400151846060015185608001518660a001518760c001518861012001516129f4565b5050565b6105416139a6565b600560008373ffffffffffffffffffffffffffffffffffffffff1673ffffffffffffffffffffffffffffffffffffffff1681526020019081526020016000206040518060a00160405290816000820160009054906101000a900473ffffffffffffffffffffffffffffffffffffffff1673ffffffffffffffffffffffffffffffffffffffff1673ffffffffffffffffffffffffffffffffffffffff168152602001600182018054600181600116156101000203166002900480601f01602080910402602001604051908101604052809291908181526020018280546001816001161561010002031660029004801561067a5780601f1061064f5761010080835404028352916020019161067a565b820191906000526020600020905b81548152906001019060200180831161065d57829003601f168201915b5050505050815260200160028201548152602001600382015481526020016004820160009054906101000a900460ff1615151515815250509050919050565b6060600082600185030290506000838502905060008090506003548211156106ec578260035403905082810191506106f0565b8490505b60608160405190808252806020026020018201604052801561072c57816020015b610719613a65565b8152602001906001900390816107115790505b50905060008490505b83811015610b065760066000828152602001908152602001600020604051806101600160405290816000820160009054906101000a900473ffffffffffffffffffffffffffffffffffffffff1673ffffffffffffffffffffffffffffffffffffffff1673ffffffffffffffffffffffffffffffffffffffff1681526020016001820180548060200260200160405190810160405280929190818152602001828054801561083757602002820191906000526020600020905b8160009054906101000a900473ffffffffffffffffffffffffffffffffffffffff1673ffffffffffffffffffffffffffffffffffffffff16815260200190600101908083116107ed575b505050505081526020016002820180548060200260200160405190810160405280929190818152602001828054801561088f57602002820191906000526020600020905b81548152602001906001019080831161087b575b505050505081526020016003820180548060200260200160405190810160405280929190818152602001828054801561091d57602002820191906000526020600020905b8160009054906101000a900473ffffffffffffffffffffffffffffffffffffffff1673ffffffffffffffffffffffffffffffffffffffff16815260200190600101908083116108d3575b5050505050815260200160048201548152602001600582018054600181600116156101000203166002900480601f0160208091040260200160405190810160405280929190818152602001828054600181600116156101000203166002900480156109c95780601f1061099e576101008083540402835291602001916109c9565b820191906000526020600020905b8154815290600101906020018083116109ac57829003601f168201915b50505050508152602001600682018054600181600116156101000203166002900480601f016020809104026020016040519081016040528092919081815260200182805460018160011615610100020316600290048015610a6b5780601f10610a4057610100808354040283529160200191610a6b565b820191906000526020600020905b815481529060010190602001808311610a4e57829003601f168201915b505050505081526020016007820160009054906101000a900460ff161515151581526020016007820160019054906101000a900460ff161515151581526020016007820160029054906101000a900460ff161515151581526020016007820160039054906101000a900460ff1615151515815250508286830381518110610aee57fe5b60200260200101819052508080600101915050610735565b508094505050505092915050565b85856000600190508151835114610b2a57600090505b60008090505b8351811015610bb457818015610ba5575060056000858381518110610b5157fe5b602002602001015173ffffffffffffffffffffffffffffffffffffffff1673ffffffffffffffffffffffffffffffffffffffff16815260200190815260200160002060040160009054906101000a900460ff165b91508080600101915050610b30565b5080610bf5576040517f08c379a0000000000000000000000000000000000000000000000000000000008152600401610bec90614d24565b60405180910390fd5b610bfd6139ed565b6040518061016001604052803373ffffffffffffffffffffffffffffffffffffffff1681526020018b81526020018a8152602001898152602001888152602001878152602001868152602001600015158152602001600015158152602001600015158152602001600115158152509050600e819080600181540180825580915050906001820390600052602060002090600802016000909192909190915060008201518160000160006101000a81548173ffffffffffffffffffffffffffffffffffffffff021916908373ffffffffffffffffffffffffffffffffffffffff1602179055506020820151816001019080519060200190610cfe929190613add565b506040820151816002019080519060200190610d1b929190613b67565b506060820151816003019080519060200190610d38929190613add565b506080820151816004015560a0820151816005019080519060200190610d5f929190613bb4565b5060c0820151816006019080519060200190610d7c929190613bb4565b5060e08201518160070160006101000a81548160ff0219169083151502179055506101008201518160070160016101000a81548160ff0219169083151502179055506101208201518160070160026101000a81548160ff0219169083151502179055506101408201518160070160036101000a81548160ff0219169083151502179055505050508060066000600354815260200190815260200160002060008201518160000160006101000a81548173ffffffffffffffffffffffffffffffffffffffff021916908373ffffffffffffffffffffffffffffffffffffffff1602179055506020820151816001019080519060200190610e7c929190613add565b506040820151816002019080519060200190610e99929190613b67565b506060820151816003019080519060200190610eb6929190613add565b506080820151816004015560a0820151816005019080519060200190610edd929190613bb4565b5060c0820151816006019080519060200190610efa929190613bb4565b5060e08201518160070160006101000a81548160ff0219169083151502179055506101008201518160070160016101000a81548160ff0219169083151502179055506101208201518160070160026101000a81548160ff0219169083151502179055506101408201518160070160036101000a81548160ff02191690831515021790555090505060036000815480929190600101919050555050505050505050505050565b81600560008573ffffffffffffffffffffffffffffffffffffffff1673ffffffffffffffffffffffffffffffffffffffff1681526020019081526020016000206001019080519060200190610ff5929190613c34565b5080600560008573ffffffffffffffffffffffffffffffffffffffff1673ffffffffffffffffffffffffffffffffffffffff16815260200190815260200160002060020181905550600560008473ffffffffffffffffffffffffffffffffffffffff1673ffffffffffffffffffffffffffffffffffffffff168152602001908152602001600020600d600560008673ffffffffffffffffffffffffffffffffffffffff1673ffffffffffffffffffffffffffffffffffffffff16815260200190815260200160002060030154815481106110cb57fe5b90600052602060002090600502016000820160009054906101000a900473ffffffffffffffffffffffffffffffffffffffff168160000160006101000a81548173ffffffffffffffffffffffffffffffffffffffff021916908373ffffffffffffffffffffffffffffffffffffffff16021790555060018201816001019080546001816001161561010002031660029004611167929190613cb4565b5060028201548160020155600382015481600301556004820160009054906101000a900460ff168160040160006101000a81548160ff021916908315150217905550905050505050565b6111be8160006001611ea3565b50565b336000600560008373ffffffffffffffffffffffffffffffffffffffff1673ffffffffffffffffffffffffffffffffffffffff16815260200190815260200160002060040160009054906101000a900460ff1690508015611257576040517f08c379a000000000000000000000000000000000000000000000000000000000815260040161124e90614d64565b60405180910390fd5b61125f6139a6565b6040518060a001604052803373ffffffffffffffffffffffffffffffffffffffff168152602001858152602001600081526020016002548152602001600115158152509050600d819080600181540180825580915050906001820390600052602060002090600502016000909192909190915060008201518160000160006101000a81548173ffffffffffffffffffffffffffffffffffffffff021916908373ffffffffffffffffffffffffffffffffffffffff1602179055506020820151816001019080519060200190611335929190613bb4565b50604082015181600201556060820151816003015560808201518160040160006101000a81548160ff02191690831515021790555050505080600560003373ffffffffffffffffffffffffffffffffffffffff1673ffffffffffffffffffffffffffffffffffffffff16815260200190815260200160002060008201518160000160006101000a81548173ffffffffffffffffffffffffffffffffffffffff021916908373ffffffffffffffffffffffffffffffffffffffff1602179055506020820151816001019080519060200190611410929190613bb4565b50604082015181600201556060820151816003015560808201518160040160006101000a81548160ff02191690831515021790555090505060026000815480929190600101919050555050505050565b816000600560008373ffffffffffffffffffffffffffffffffffffffff1673ffffffffffffffffffffffffffffffffffffffff16815260200190815260200160002060040160009054906101000a900460ff169050806114f5576040517f08c379a00000000000000000000000000000000000000000000000000000000081526004016114ec90614d44565b60405180910390fd5b82600560008673ffffffffffffffffffffffffffffffffffffffff1673ffffffffffffffffffffffffffffffffffffffff16815260200190815260200160002060020160008282540192505081905550600560008573ffffffffffffffffffffffffffffffffffffffff1673ffffffffffffffffffffffffffffffffffffffff168152602001908152602001600020600d600560008773ffffffffffffffffffffffffffffffffffffffff1673ffffffffffffffffffffffffffffffffffffffff16815260200190815260200160002060030154815481106115d357fe5b90600052602060002090600502016000820160009054906101000a900473ffffffffffffffffffffffffffffffffffffffff168160000160006101000a81548173ffffffffffffffffffffffffffffffffffffffff021916908373ffffffffffffffffffffffffffffffffffffffff1602179055506001820181600101908054600181600116156101000203166002900461166f929190613cb4565b5060028201548160020155600382015481600301556004820160009054906101000a900460ff168160040160006101000a81548160ff02191690831515021790555090505050505050565b6116c26139ed565b60066000838152602001908152602001600020604051806101600160405290816000820160009054906101000a900473ffffffffffffffffffffffffffffffffffffffff1673ffffffffffffffffffffffffffffffffffffffff1673ffffffffffffffffffffffffffffffffffffffff168152602001600182018054806020026020016040519081016040528092919081815260200182805480156117bc57602002820191906000526020600020905b8160009054906101000a900473ffffffffffffffffffffffffffffffffffffffff1673ffffffffffffffffffffffffffffffffffffffff1681526020019060010190808311611772575b505050505081526020016002820180548060200260200160405190810160405280929190818152602001828054801561181457602002820191906000526020600020905b815481526020019060010190808311611800575b50505050508152602001600382018054806020026020016040519081016040528092919081815260200182805480156118a257602002820191906000526020600020905b8160009054906101000a900473ffffffffffffffffffffffffffffffffffffffff1673ffffffffffffffffffffffffffffffffffffffff1681526020019060010190808311611858575b5050505050815260200160048201548152602001600582018054600181600116156101000203166002900480601f01602080910402602001604051908101604052809291908181526020018280546001816001161561010002031660029004801561194e5780601f106119235761010080835404028352916020019161194e565b820191906000526020600020905b81548152906001019060200180831161193157829003601f168201915b50505050508152602001600682018054600181600116156101000203166002900480601f0160208091040260200160405190810160405280929190818152602001828054600181600116156101000203166002900480156119f05780601f106119c5576101008083540402835291602001916119f0565b820191906000526020600020905b8154815290600101906020018083116119d357829003601f168201915b505050505081526020016007820160009054906101000a900460ff161515151581526020016007820160019054906101000a900460ff161515151581526020016007820160029054906101000a900460ff161515151581526020016007820160039054906101000a900460ff1615151515815250509050919050565b6000600154905090565b611a7e613d3b565b600760008781526020019081526020016000206040518060a00160405290816000820160009054906101000a900473ffffffffffffffffffffffffffffffffffffffff1673ffffffffffffffffffffffffffffffffffffffff1673ffffffffffffffffffffffffffffffffffffffff1681526020016001820160009054906101000a900473ffffffffffffffffffffffffffffffffffffffff1673ffffffffffffffffffffffffffffffffffffffff1673ffffffffffffffffffffffffffffffffffffffff168152602001600282015481526020016003820160009054906101000a900460ff161515151581526020016003820160019054906101000a900460ff161515151581525050905033816000019073ffffffffffffffffffffffffffffffffffffffff16908173ffffffffffffffffffffffffffffffffffffffff168152505084816020019073ffffffffffffffffffffffffffffffffffffffff16908173ffffffffffffffffffffffffffffffffffffffff1681525050838160400181815250508281606001901515908115158152505081816080019015159081151581525050806007600088815260200190815260200160002060008201518160000160006101000a81548173ffffffffffffffffffffffffffffffffffffffff021916908373ffffffffffffffffffffffffffffffffffffffff16021790555060208201518160010160006101000a81548173ffffffffffffffffffffffffffffffffffffffff021916908373ffffffffffffffffffffffffffffffffffffffff1602179055506040820151816002015560608201518160030160006101000a81548160ff02191690831515021790555060808201518160030160016101000a81548160ff021916908315150217905550905050505050505050565b6040518060a001604052803373ffffffffffffffffffffffffffffffffffffffff1681526020018573ffffffffffffffffffffffffffffffffffffffff168152602001848152602001831515815260200182151581525060076000600454815260200190815260200160002060008201518160000160006101000a81548173ffffffffffffffffffffffffffffffffffffffff021916908373ffffffffffffffffffffffffffffffffffffffff16021790555060208201518160010160006101000a81548173ffffffffffffffffffffffffffffffffffffffff021916908373ffffffffffffffffffffffffffffffffffffffff1602179055506040820151816002015560608201518160030160006101000a81548160ff02191690831515021790555060808201518160030160016101000a81548160ff02191690831515021790555090505060046000815480929190600101919050555050505050565b611e873382600003611460565b611e918282611460565b611e9f828260006001611d1b565b5050565b8233600060019050611eb36139ed565b60066000858152602001908152602001600020604051806101600160405290816000820160009054906101000a900473ffffffffffffffffffffffffffffffffffffffff1673ffffffffffffffffffffffffffffffffffffffff1673ffffffffffffffffffffffffffffffffffffffff16815260200160018201805480602002602001604051908101604052809291908181526020018280548015611fad57602002820191906000526020600020905b8160009054906101000a900473ffffffffffffffffffffffffffffffffffffffff1673ffffffffffffffffffffffffffffffffffffffff1681526020019060010190808311611f63575b505050505081526020016002820180548060200260200160405190810160405280929190818152602001828054801561200557602002820191906000526020600020905b815481526020019060010190808311611ff1575b505050505081526020016003820180548060200260200160405190810160405280929190818152602001828054801561209357602002820191906000526020600020905b8160009054906101000a900473ffffffffffffffffffffffffffffffffffffffff1673ffffffffffffffffffffffffffffffffffffffff1681526020019060010190808311612049575b5050505050815260200160048201548152602001600582018054600181600116156101000203166002900480601f01602080910402602001604051908101604052809291908181526020018280546001816001161561010002031660029004801561213f5780601f106121145761010080835404028352916020019161213f565b820191906000526020600020905b81548152906001019060200180831161212257829003601f168201915b50505050508152602001600682018054600181600116156101000203166002900480601f0160208091040260200160405190810160405280929190818152602001828054600181600116156101000203166002900480156121e15780601f106121b6576101008083540402835291602001916121e1565b820191906000526020600020905b8154815290600101906020018083116121c457829003601f168201915b505050505081526020016007820160009054906101000a900460ff161515151581526020016007820160019054906101000a900460ff161515151581526020016007820160029054906101000a900460ff161515151581526020016007820160039054906101000a900460ff16151515158152505090508061010001518061226a57508060e001515b806122785750806101400151155b1561228257600091505b8273ffffffffffffffffffffffffffffffffffffffff166000809054906101000a900473ffffffffffffffffffffffffffffffffffffffff1673ffffffffffffffffffffffffffffffffffffffff16146122db57600091505b811561231c576040517f08c379a000000000000000000000000000000000000000000000000000000000815260040161231390614d84565b60405180910390fd5b6123246139ed565b60066000898152602001908152602001600020604051806101600160405290816000820160009054906101000a900473ffffffffffffffffffffffffffffffffffffffff1673ffffffffffffffffffffffffffffffffffffffff1673ffffffffffffffffffffffffffffffffffffffff1681526020016001820180548060200260200160405190810160405280929190818152602001828054801561241e57602002820191906000526020600020905b8160009054906101000a900473ffffffffffffffffffffffffffffffffffffffff1673ffffffffffffffffffffffffffffffffffffffff16815260200190600101908083116123d4575b505050505081526020016002820180548060200260200160405190810160405280929190818152602001828054801561247657602002820191906000526020600020905b815481526020019060010190808311612462575b505050505081526020016003820180548060200260200160405190810160405280929190818152602001828054801561250457602002820191906000526020600020905b8160009054906101000a900473ffffffffffffffffffffffffffffffffffffffff1673ffffffffffffffffffffffffffffffffffffffff16815260200190600101908083116124ba575b5050505050815260200160048201548152602001600582018054600181600116156101000203166002900480601f0160208091040260200160405190810160405280929190818152602001828054600181600116156101000203166002900480156125b05780601f10612585576101008083540402835291602001916125b0565b820191906000526020600020905b81548152906001019060200180831161259357829003601f168201915b50505050508152602001600682018054600181600116156101000203166002900480601f0160208091040260200160405190810160405280929190818152602001828054600181600116156101000203166002900480156126525780601f1061262757610100808354040283529160200191612652565b820191906000526020600020905b81548152906001019060200180831161263557829003601f168201915b505050505081526020016007820160009054906101000a900460ff161515151581526020016007820160019054906101000a900460ff161515151581526020016007820160029054906101000a900460ff161515151581526020016007820160039054906101000a900460ff1615151515815250509050868160e0019015159081151581525050858161010001901515908115158152505080600e89815481106126f857fe5b906000526020600020906008020160008201518160000160006101000a81548173ffffffffffffffffffffffffffffffffffffffff021916908373ffffffffffffffffffffffffffffffffffffffff1602179055506020820151816001019080519060200190612769929190613add565b506040820151816002019080519060200190612786929190613b67565b5060608201518160030190805190602001906127a3929190613add565b506080820151816004015560a08201518160050190805190602001906127ca929190613bb4565b5060c08201518160060190805190602001906127e7929190613bb4565b5060e08201518160070160006101000a81548160ff0219169083151502179055506101008201518160070160016101000a81548160ff0219169083151502179055506101208201518160070160026101000a81548160ff0219169083151502179055506101408201518160070160036101000a81548160ff02191690831515021790555090505080600660008a815260200190815260200160002060008201518160000160006101000a81548173ffffffffffffffffffffffffffffffffffffffff021916908373ffffffffffffffffffffffffffffffffffffffff16021790555060208201518160010190805190602001906128e5929190613add565b506040820151816002019080519060200190612902929190613b67565b50606082015181600301908051906020019061291f929190613add565b506080820151816004015560a0820151816005019080519060200190612946929190613bb4565b5060c0820151816006019080519060200190612963929190613bb4565b5060e08201518160070160006101000a81548160ff0219169083151502179055506101008201518160070160016101000a81548160ff0219169083151502179055506101208201518160070160026101000a81548160ff0219169083151502179055506101408201518160070160036101000a81548160ff0219169083151502179055509050505050505050505050565b8733600060019050612a046139ed565b60066000858152602001908152602001600020604051806101600160405290816000820160009054906101000a900473ffffffffffffffffffffffffffffffffffffffff1673ffffffffffffffffffffffffffffffffffffffff1673ffffffffffffffffffffffffffffffffffffffff16815260200160018201805480602002602001604051908101604052809291908181526020018280548015612afe57602002820191906000526020600020905b8160009054906101000a900473ffffffffffffffffffffffffffffffffffffffff1673ffffffffffffffffffffffffffffffffffffffff1681526020019060010190808311612ab4575b5050505050815260200160028201805480602002602001604051908101604052809291908181526020018280548015612b5657602002820191906000526020600020905b815481526020019060010190808311612b42575b5050505050815260200160038201805480602002602001604051908101604052809291908181526020018280548015612be457602002820191906000526020600020905b8160009054906101000a900473ffffffffffffffffffffffffffffffffffffffff1673ffffffffffffffffffffffffffffffffffffffff1681526020019060010190808311612b9a575b5050505050815260200160048201548152602001600582018054600181600116156101000203166002900480601f016020809104026020016040519081016040528092919081815260200182805460018160011615610100020316600290048015612c905780601f10612c6557610100808354040283529160200191612c90565b820191906000526020600020905b815481529060010190602001808311612c7357829003601f168201915b50505050508152602001600682018054600181600116156101000203166002900480601f016020809104026020016040519081016040528092919081815260200182805460018160011615610100020316600290048015612d325780601f10612d0757610100808354040283529160200191612d32565b820191906000526020600020905b815481529060010190602001808311612d1557829003601f168201915b505050505081526020016007820160009054906101000a900460ff161515151581526020016007820160019054906101000a900460ff161515151581526020016007820160029054906101000a900460ff161515151581526020016007820160039054906101000a900460ff161515151581525050905080610100015180612dbb57508060e001515b80612dc95750806101400151155b15612dd357600091505b8273ffffffffffffffffffffffffffffffffffffffff16816000015173ffffffffffffffffffffffffffffffffffffffff1614612e0f57600091505b8115612e50576040517f08c379a0000000000000000000000000000000000000000000000000000000008152600401612e4790614d84565b60405180910390fd5b612e586139ed565b600660008e8152602001908152602001600020604051806101600160405290816000820160009054906101000a900473ffffffffffffffffffffffffffffffffffffffff1673ffffffffffffffffffffffffffffffffffffffff1673ffffffffffffffffffffffffffffffffffffffff16815260200160018201805480602002602001604051908101604052809291908181526020018280548015612f5257602002820191906000526020600020905b8160009054906101000a900473ffffffffffffffffffffffffffffffffffffffff1673ffffffffffffffffffffffffffffffffffffffff1681526020019060010190808311612f08575b5050505050815260200160028201805480602002602001604051908101604052809291908181526020018280548015612faa57602002820191906000526020600020905b815481526020019060010190808311612f96575b505050505081526020016003820180548060200260200160405190810160405280929190818152602001828054801561303857602002820191906000526020600020905b8160009054906101000a900473ffffffffffffffffffffffffffffffffffffffff1673ffffffffffffffffffffffffffffffffffffffff1681526020019060010190808311612fee575b5050505050815260200160048201548152602001600582018054600181600116156101000203166002900480601f0160208091040260200160405190810160405280929190818152602001828054600181600116156101000203166002900480156130e45780601f106130b9576101008083540402835291602001916130e4565b820191906000526020600020905b8154815290600101906020018083116130c757829003601f168201915b50505050508152602001600682018054600181600116156101000203166002900480601f0160208091040260200160405190810160405280929190818152602001828054600181600116156101000203166002900480156131865780601f1061315b57610100808354040283529160200191613186565b820191906000526020600020905b81548152906001019060200180831161316957829003601f168201915b505050505081526020016007820160009054906101000a900460ff161515151581526020016007820160019054906101000a900460ff161515151581526020016007820160029054906101000a900460ff161515151581526020016007820160039054906101000a900460ff16151515158152505090508981606001819052508b81602001819052508a816040018190525088816080018181525050878160a00181905250868160c00181905250858161012001901515908115158152505080600e8e8154811061325357fe5b906000526020600020906008020160008201518160000160006101000a81548173ffffffffffffffffffffffffffffffffffffffff021916908373ffffffffffffffffffffffffffffffffffffffff16021790555060208201518160010190805190602001906132c4929190613add565b5060408201518160020190805190602001906132e1929190613b67565b5060608201518160030190805190602001906132fe929190613add565b506080820151816004015560a0820151816005019080519060200190613325929190613bb4565b5060c0820151816006019080519060200190613342929190613bb4565b5060e08201518160070160006101000a81548160ff0219169083151502179055506101008201518160070160016101000a81548160ff0219169083151502179055506101208201518160070160026101000a81548160ff0219169083151502179055506101408201518160070160036101000a81548160ff02191690831515021790555090505080600660008f815260200190815260200160002060008201518160000160006101000a81548173ffffffffffffffffffffffffffffffffffffffff021916908373ffffffffffffffffffffffffffffffffffffffff1602179055506020820151816001019080519060200190613440929190613add565b50604082015181600201908051906020019061345d929190613b67565b50606082015181600301908051906020019061347a929190613add565b506080820151816004015560a08201518160050190805190602001906134a1929190613bb4565b5060c08201518160060190805190602001906134be929190613bb4565b5060e08201518160070160006101000a81548160ff0219169083151502179055506101008201518160070160016101000a81548160ff0219169083151502179055506101208201518160070160026101000a81548160ff0219169083151502179055506101408201518160070160036101000a81548160ff02191690831515021790555090505050505050505050505050505050565b61355c6139ed565b613565826116ba565b90508060e001516135db5761357d8260016000611ea3565b600081606001515182608001518161359157fe5b04905060008090505b8260600151518110156135d8576135cb836060015182815181106135ba57fe5b602002602001015183600003611460565b808060010191505061359a565b50505b5050565b60606000826001850302905060008385029050600080905060025482111561361257826002540390508281019150613616565b8490505b60608160405190808252806020026020018201604052801561365257816020015b61363f613d9a565b8152602001906001900390816136375790505b50905060008490505b838110156137d657600d818154811061367057fe5b90600052602060002090600502016040518060a00160405290816000820160009054906101000a900473ffffffffffffffffffffffffffffffffffffffff1673ffffffffffffffffffffffffffffffffffffffff1673ffffffffffffffffffffffffffffffffffffffff168152602001600182018054600181600116156101000203166002900480601f0160208091040260200160405190810160405280929190818152602001828054600181600116156101000203166002900480156137785780601f1061374d57610100808354040283529160200191613778565b820191906000526020600020905b81548152906001019060200180831161375b57829003601f168201915b5050505050815260200160028201548152602001600382015481526020016004820160009054906101000a900460ff16151515158152505082868303815181106137be57fe5b6020026020010181905250808060010191505061365b565b508094505050505092915050565b6060600082600185030290506000838502905060008090506004548211156138175782600454039050828101915061381b565b8490505b60608160405190808252806020026020018201604052801561385757816020015b613844613de1565b81526020019060019003908161383c5790505b50905060008490505b8381101561399857600760008281526020019081526020016000206040518060a00160405290816000820160009054906101000a900473ffffffffffffffffffffffffffffffffffffffff1673ffffffffffffffffffffffffffffffffffffffff1673ffffffffffffffffffffffffffffffffffffffff1681526020016001820160009054906101000a900473ffffffffffffffffffffffffffffffffffffffff1673ffffffffffffffffffffffffffffffffffffffff1673ffffffffffffffffffffffffffffffffffffffff168152602001600282015481526020016003820160009054906101000a900460ff161515151581526020016003820160019054906101000a900460ff161515151581525050828683038151811061398057fe5b60200260200101819052508080600101915050613860565b508094505050505092915050565b6040518060a00160405280600073ffffffffffffffffffffffffffffffffffffffff1681526020016060815260200160008152602001600081526020016000151581525090565b604051806101600160405280600073ffffffffffffffffffffffffffffffffffffffff1681526020016060815260200160608152602001606081526020016000815260200160608152602001606081526020016000151581526020016000151581526020016000151581526020016000151581525090565b604051806101600160405280600073ffffffffffffffffffffffffffffffffffffffff1681526020016060815260200160608152602001606081526020016000815260200160608152602001606081526020016000151581526020016000151581526020016000151581526020016000151581525090565b828054828255906000526020600020908101928215613b56579160200282015b82811115613b555782518260006101000a81548173ffffffffffffffffffffffffffffffffffffffff021916908373ffffffffffffffffffffffffffffffffffffffff16021790555091602001919060010190613afd565b5b509050613b639190613e40565b5090565b828054828255906000526020600020908101928215613ba3579160200282015b82811115613ba2578251825591602001919060010190613b87565b5b509050613bb09190613e83565b5090565b828054600181600116156101000203166002900490600052602060002090601f016020900481019282601f10613bf557805160ff1916838001178555613c23565b82800160010185558215613c23579182015b82811115613c22578251825591602001919060010190613c07565b5b509050613c309190613ea8565b5090565b828054600181600116156101000203166002900490600052602060002090601f016020900481019282601f10613c7557805160ff1916838001178555613ca3565b82800160010185558215613ca3579182015b82811115613ca2578251825591602001919060010190613c87565b5b509050613cb09190613ea8565b5090565b828054600181600116156101000203166002900490600052602060002090601f016020900481019282601f10613ced5780548555613d2a565b82800160010185558215613d2a57600052602060002091601f016020900482015b82811115613d29578254825591600101919060010190613d0e565b5b509050613d379190613ea8565b5090565b6040518060a00160405280600073ffffffffffffffffffffffffffffffffffffffff168152602001600073ffffffffffffffffffffffffffffffffffffffff168152602001600081526020016000151581526020016000151581525090565b6040518060a00160405280600073ffffffffffffffffffffffffffffffffffffffff1681526020016060815260200160008152602001600081526020016000151581525090565b6040518060a00160405280600073ffffffffffffffffffffffffffffffffffffffff168152602001600073ffffffffffffffffffffffffffffffffffffffff168152602001600081526020016000151581526020016000151581525090565b613e8091905b80821115613e7c57600081816101000a81549073ffffffffffffffffffffffffffffffffffffffff021916905550600101613e46565b5090565b90565b613ea591905b80821115613ea1576000816000905550600101613e89565b5090565b90565b613eca91905b80821115613ec6576000816000905550600101613eae565b5090565b90565b600081359050613edc81615071565b92915050565b600082601f830112613ef357600080fd5b8135613f06613f0182614e15565b614de8565b91508181835260208401935060208101905083856020840282011115613f2b57600080fd5b60005b83811015613f5b5781613f418882613ecd565b845260208401935060208301925050600181019050613f2e565b5050505092915050565b600082601f830112613f7657600080fd5b8135613f89613f8482614e3d565b614de8565b91508181835260208401935060208101905083856020840282011115613fae57600080fd5b60005b83811015613fde5781613fc48882613ffd565b845260208401935060208301925050600181019050613fb1565b5050505092915050565b600081359050613ff781615088565b92915050565b60008135905061400c8161509f565b92915050565b600082601f83011261402357600080fd5b813561403661403182614e65565b614de8565b9150808252602083016020830185838301111561405257600080fd5b61405d83828461501e565b50505092915050565b600081359050614075816150b6565b92915050565b60006020828403121561408d57600080fd5b600061409b84828501613ecd565b91505092915050565b600080604083850312156140b757600080fd5b60006140c585828601613ecd565b92505060206140d685828601613ffd565b9150509250929050565b600080600080608085870312156140f657600080fd5b600061410487828801613ecd565b945050602061411587828801613ffd565b935050604061412687828801613fe8565b925050606061413787828801613fe8565b91505092959194509250565b60008060006060848603121561415857600080fd5b600061416686828701613ecd565b935050602084013567ffffffffffffffff81111561418357600080fd5b61418f86828701614012565b92505060406141a086828701613ffd565b9150509250925092565b60008060008060008060c087890312156141c357600080fd5b600087013567ffffffffffffffff8111156141dd57600080fd5b6141e989828a01613ee2565b965050602087013567ffffffffffffffff81111561420657600080fd5b61421289828a01613f65565b955050604087013567ffffffffffffffff81111561422f57600080fd5b61423b89828a01613ee2565b945050606061424c89828a01614066565b935050608087013567ffffffffffffffff81111561426957600080fd5b61427589828a01614012565b92505060a087013567ffffffffffffffff81111561429257600080fd5b61429e89828a01614012565b9150509295509295509295565b6000602082840312156142bd57600080fd5b600082013567ffffffffffffffff8111156142d757600080fd5b6142e384828501614012565b91505092915050565b6000602082840312156142fe57600080fd5b600061430c84828501614066565b91505092915050565b600080600080600060a0868803121561432d57600080fd5b600061433b88828901614066565b955050602061434c88828901613ecd565b945050604061435d88828901613ffd565b935050606061436e88828901613fe8565b925050608061437f88828901613fe8565b9150509295509295909350565b600080600080600080600080610100898b0312156143a957600080fd5b60006143b78b828c01614066565b985050602089013567ffffffffffffffff8111156143d457600080fd5b6143e08b828c01613ee2565b975050604089013567ffffffffffffffff8111156143fd57600080fd5b6144098b828c01613f65565b965050606089013567ffffffffffffffff81111561442657600080fd5b6144328b828c01613ee2565b95505060806144438b828c01614066565b94505060a089013567ffffffffffffffff81111561446057600080fd5b61446c8b828c01614012565b93505060c089013567ffffffffffffffff81111561448957600080fd5b6144958b828c01614012565b92505060e06144a68b828c01613fe8565b9150509295985092959890939650565b6000806000606084860312156144cb57600080fd5b60006144d986828701614066565b93505060206144ea86828701613fe8565b92505060406144fb86828701613fe8565b9150509250925092565b6000806040838503121561451857600080fd5b600061452685828601614066565b925050602061453785828601614066565b9150509250929050565b600061454d83836145b1565b60208301905092915050565b600061456583836147d3565b60208301905092915050565b600061457d83836149a0565b905092915050565b60006145918383614b21565b905092915050565b60006145a58383614c2c565b60a08301905092915050565b6145ba81614fcc565b82525050565b60006145cb82614ed2565b6145d58185614f55565b93506145e083614e91565b8060005b838110156146115781516145f88882614541565b975061460383614f14565b9250506001810190506145e4565b5085935050505092915050565b600061462982614edd565b6146338185614f66565b935061463e83614e9e565b8060005b8381101561466f5781516146568882614559565b975061466183614f21565b925050600181019050614642565b5085935050505092915050565b600061468782614ee8565b6146918185614f77565b9350836020820285016146a385614eab565b8060005b858110156146df57848403895281516146c08582614571565b94506146cb83614f2e565b925060208a019950506001810190506146a7565b50829750879550505050505092915050565b60006146fc82614ef3565b6147068185614f88565b93508360208202850161471885614eb8565b8060005b8581101561475457848403895281516147358582614585565b945061474083614f3b565b925060208a0199505060018101905061471c565b50829750879550505050505092915050565b600061477182614efe565b61477b8185614f99565b935061478683614ec5565b8060005b838110156147b757815161479e8882614599565b97506147a983614f48565b92505060018101905061478a565b5085935050505092915050565b6147cd81614fde565b82525050565b6147dc81614fea565b82525050565b6147eb81614fea565b82525050565b60006147fc82614f09565b6148068185614faa565b935061481681856020860161502d565b61481f81615060565b840191505092915050565b6000614837601983614fbb565b91507f436865636b2070617274792076616c6964617465206661696c000000000000006000830152602082019050919050565b6000614877601483614fbb565b91507f4d656d626572206973206e6f74206578697374730000000000000000000000006000830152602082019050919050565b60006148b7601083614fbb565b91507f4d656d62657220697320657869737473000000000000000000000000000000006000830152602082019050919050565b60006148f7601383614fbb565b91507f43616e6e6f7420757064617465207061727479000000000000000000000000006000830152602082019050919050565b600060a08301600083015161494260008601826145b1565b506020830151848203602086015261495a82826147f1565b915050604083015161496f60408601826147d3565b5060608301516149826060860182614c94565b50608083015161499560808601826147c4565b508091505092915050565b600060a0830160008301516149b860008601826145b1565b50602083015184820360208601526149d082826147f1565b91505060408301516149e560408601826147d3565b5060608301516149f86060860182614c94565b506080830151614a0b60808601826147c4565b508091505092915050565b600061016083016000830151614a2f60008601826145b1565b5060208301518482036020860152614a4782826145c0565b91505060408301518482036040860152614a61828261461e565b91505060608301518482036060860152614a7b82826145c0565b9150506080830151614a906080860182614c94565b5060a083015184820360a0860152614aa882826147f1565b91505060c083015184820360c0860152614ac282826147f1565b91505060e0830151614ad760e08601826147c4565b50610100830151614aec6101008601826147c4565b50610120830151614b016101208601826147c4565b50610140830151614b166101408601826147c4565b508091505092915050565b600061016083016000830151614b3a60008601826145b1565b5060208301518482036020860152614b5282826145c0565b91505060408301518482036040860152614b6c828261461e565b91505060608301518482036060860152614b8682826145c0565b9150506080830151614b9b6080860182614c94565b5060a083015184820360a0860152614bb382826147f1565b91505060c083015184820360c0860152614bcd82826147f1565b91505060e0830151614be260e08601826147c4565b50610100830151614bf76101008601826147c4565b50610120830151614c0c6101208601826147c4565b50610140830151614c216101408601826147c4565b508091505092915050565b60a082016000820151614c4260008501826145b1565b506020820151614c5560208501826145b1565b506040820151614c6860408501826147d3565b506060820151614c7b60608501826147c4565b506080820151614c8e60808501826147c4565b50505050565b614c9d81615014565b82525050565b60006020820190508181036000830152614cbd818461467c565b905092915050565b60006020820190508181036000830152614cdf81846146f1565b905092915050565b60006020820190508181036000830152614d018184614766565b905092915050565b6000602082019050614d1e60008301846147e2565b92915050565b60006020820190508181036000830152614d3d8161482a565b9050919050565b60006020820190508181036000830152614d5d8161486a565b9050919050565b60006020820190508181036000830152614d7d816148aa565b9050919050565b60006020820190508181036000830152614d9d816148ea565b9050919050565b60006020820190508181036000830152614dbe818461492a565b905092915050565b60006020820190508181036000830152614de08184614a16565b905092915050565b6000604051905081810181811067ffffffffffffffff82111715614e0b57600080fd5b8060405250919050565b600067ffffffffffffffff821115614e2c57600080fd5b602082029050602081019050919050565b600067ffffffffffffffff821115614e5457600080fd5b602082029050602081019050919050565b600067ffffffffffffffff821115614e7c57600080fd5b601f19601f8301169050602081019050919050565b6000602082019050919050565b6000602082019050919050565b6000602082019050919050565b6000602082019050919050565b6000602082019050919050565b600081519050919050565b600081519050919050565b600081519050919050565b600081519050919050565b600081519050919050565b600081519050919050565b6000602082019050919050565b6000602082019050919050565b6000602082019050919050565b6000602082019050919050565b6000602082019050919050565b600082825260208201905092915050565b600082825260208201905092915050565b600082825260208201905092915050565b600082825260208201905092915050565b600082825260208201905092915050565b600082825260208201905092915050565b600082825260208201905092915050565b6000614fd782614ff4565b9050919050565b60008115159050919050565b6000819050919050565b600073ffffffffffffffffffffffffffffffffffffffff82169050919050565b6000819050919050565b82818337600083830152505050565b60005b8381101561504b578082015181840152602081019050615030565b8381111561505a576000848401525b50505050565b6000601f19601f8301169050919050565b61507a81614fcc565b811461508557600080fd5b50565b61509181614fde565b811461509c57600080fd5b50565b6150a881614fea565b81146150b357600080fd5b50565b6150bf81615014565b81146150ca57600080fd5b5056fea265627a7a723058200e6239a81f6e3e6d7dd20bdffe0a84bff1338d771a2e54d3ef1ec05a4fd02d1f6c6578706572696d656e74616cf50037",
  "source": "pragma solidity >=0.4.22 <0.6.0;\npragma experimental ABIEncoderV2;\ncontract PartyFunds {\n    address owner;\n    int256 totalFunds = 0;\n    uint countMember = 0;\n    uint countParty = 0;\n    uint countTransferHistory = 0;\n    struct Member{\n        address id;\n        string name;\n        int256 money;\n        uint256 index;\n        bool isValue;\n    }\n    struct Payer{\n        address member;\n        int256 money;\n    }\n    struct Party{\n        address creator;\n        address[] payerAddress;\n        int256[] payerMoney;\n        address[] members;\n        uint256 money;\n        string message;\n        string createdDate;\n        bool paySuccess;\n        bool reject;\n        bool requestReject;\n        bool isValue;\n    }\n    struct TransferHistory{\n        address sender;\n        address receiver;\n        int256 money;\n        bool isDeposit;\n        bool accept;\n    }\n    mapping(address=>Member) members;\n    mapping(uint256=>Party) parties;\n    mapping(uint256=>TransferHistory) transferHistories;\n    Member fundHost;\n    Member[] memberList;\n    Party[] partyList;\n    modifier memberNotExists(address _member) {\n        bool checkExists = members[_member].isValue;\n        require(\n            !checkExists,\n            \"Member is exists\"\n        );\n        _;\n    }\n    modifier memberExists(address _member) {\n        bool checkExists = members[_member].isValue;\n        require(\n            checkExists,\n            \"Member is not exists\"\n        );\n        _;\n    }\n    modifier partyValidate(address[] memory _payerAddress, int256[] memory _payerMoney) {\n        bool passValidate = true;\n        if(_payerAddress.length != _payerMoney.length){\n            passValidate = false;\n        }\n        for(uint256 i = 0; i < _payerAddress.length; i++){\n            passValidate = passValidate && members[_payerAddress[i]].isValue;\n        }\n        require(\n            passValidate,\n            \"Check party validate fail\"\n        );\n        _;\n    }\n    modifier onlyCreatorCanUpdateParty(uint256 _id, address _member) {\n        bool _canUpdate = true;\n        Party memory _party = parties[_id];\n        if(_party.reject || _party.paySuccess || !_party.isValue){\n            _canUpdate = false;\n        }\n        if(_party.creator != _member){\n            _canUpdate = false;\n        }\n        require(\n            !_canUpdate,\n            \"Cannot update party\"\n        );\n        _;\n    }\n    modifier onlyOwnerCanUpdateParty(uint256 _id, address _member) {\n        bool _canUpdate = true;\n        Party memory _party = parties[_id];\n        if(_party.reject || _party.paySuccess || !_party.isValue){\n            _canUpdate = false;\n        }\n        if(owner != _member){\n            _canUpdate = false;\n        }\n        require(\n            !_canUpdate,\n            \"Cannot update party\"\n        );\n        _;\n    }\n\n    function getTotalFund() public view returns (int256) {\n        return totalFunds;\n    }\n    function getFundHost() public view returns (Member memory) {\n        return fundHost;\n    }\n    function getMemberList(uint256 _page, uint256 _perPage) public view returns (Member[] memory) {\n        uint256 _fromIndex = (_page - 1) * _perPage;\n        uint256 _toIndex = _page * _perPage;\n        uint256 countItems = 0;\n        if(_toIndex > countMember){\n            countItems = countMember - _fromIndex;\n            _toIndex = countItems + _fromIndex;\n        }\n        else {\n            countItems = _perPage;\n        }\n        Member[] memory _memberList = new Member[](countItems);\n        for(uint i = _fromIndex; i < _toIndex; i++) {\n            _memberList[i - _fromIndex] = memberList[i];\n        }\n        return _memberList;\n    }\n    function getMember(address _addr) public view returns (Member memory) {\n        return members[_addr];\n    }\n    function getPartyList(uint256 _page, uint256 _perPage) public view returns (Party[] memory) {\n        uint256 _fromIndex = (_page - 1) * _perPage;\n        uint256 _toIndex = _page * _perPage;\n        uint256 countItems = 0;\n        if(_toIndex > countParty){\n            countItems = countParty - _fromIndex;\n            _toIndex = countItems + _fromIndex;\n        }\n        else {\n            countItems = _perPage;\n        }\n        Party[] memory _partyList = new Party[](countItems);\n        for(uint i = _fromIndex; i < _toIndex; i++) {\n            _partyList[i - _fromIndex] = parties[i];\n        }\n        return _partyList;\n    }\n    function getParty(uint256 _id) public view returns (Party memory) {\n        return parties[_id];\n    }\n    function getTransferHistoriyList(uint256 _page, uint256 _perPage) public view returns (TransferHistory[] memory){\n        uint256 _fromIndex = (_page - 1) * _perPage;\n        uint256 _toIndex = _page * _perPage;\n        uint256 countItems = 0;\n        if(_toIndex > countTransferHistory){\n            countItems = countTransferHistory - _fromIndex;\n            _toIndex = countItems + _fromIndex;\n        }\n        else {\n            countItems = _perPage;\n        }\n        TransferHistory[] memory _transferHistoryList = new TransferHistory[](countItems);\n        for(uint i = _fromIndex; i < _toIndex; i++) {\n            _transferHistoryList[i - _fromIndex] = transferHistories[i];\n        }\n        return _transferHistoryList;\n    }\n    function addMember(string memory _name) public memberNotExists(msg.sender){\n        Member memory member = Member(msg.sender, _name, 0, countMember, true);\n        memberList.push(member);\n        members[msg.sender] = member;\n        countMember++;\n    }\n    function updateMember(address _addr, string memory _name, int256 _money) public {\n        members[_addr].name = _name;\n        members[_addr].money = _money;\n        memberList[members[_addr].index] = members[_addr];\n    }\n    function updateMemberMoney(address _addr, int256 _money) public memberExists(_addr) {\n        members[_addr].money += _money;\n        memberList[members[_addr].index] = members[_addr];\n    }\n    function addParty(\n        address[] memory _payerAddress, int256[] memory _payerMoney, address[] memory _members, uint256  _money, string memory  _message, string memory  _createdDate\n    ) public partyValidate(_payerAddress, _payerMoney) {\n        Party memory _party = Party(\n            msg.sender,\n            _payerAddress,\n            _payerMoney,\n            _members,\n            _money,\n            _message,\n            _createdDate,\n            false,\n            false,\n            false,\n            true\n        );\n        partyList.push(_party);\n        parties[countParty] = _party;\n        countParty++;\n    }\n    function updatePartyByCreator(\n        uint256 _id, address[] memory _payerAddress, int256[] memory _payerMoney, address[] memory _members, uint256 _money, string memory _message, string memory _createdDate, bool _requestReject\n    ) public onlyCreatorCanUpdateParty(_id, msg.sender) {\n        Party memory _party = parties[_id];\n        _party.members = _members;\n        _party.payerAddress = _payerAddress;\n        _party.payerMoney = _payerMoney;\n        _party.money = _money;\n        _party.message = _message;\n        _party.createdDate = _createdDate;\n        _party.requestReject = _requestReject;\n        partyList[_id] = _party;\n        parties[_id] = _party;\n    }\n    function updatePartyByOwner(uint256 _id, bool _paySuccess, bool _reject)\n    public onlyOwnerCanUpdateParty(_id, msg.sender) {\n        Party memory _party = parties[_id];\n        _party.paySuccess = _paySuccess;\n        _party.reject = _reject;\n        partyList[_id] = _party;\n        parties[_id] = _party;\n    }\n    function addTransferHistory(address _receiver, int256 _money, bool _isDeposit, bool _accept) public {\n        transferHistories[countTransferHistory] = TransferHistory(msg.sender, _receiver, _money, _isDeposit, _accept);\n        countTransferHistory++;\n    }\n    function updateTransferHistory(uint256 _id, address _receiver, int256 _money, bool _isDeposit, bool _accept) public {\n        TransferHistory memory _transferHistory = transferHistories[_id];\n        _transferHistory.sender = msg.sender;\n        _transferHistory.receiver = _receiver;\n        _transferHistory.money = _money;\n        _transferHistory.isDeposit = _isDeposit;\n        _transferHistory.accept = _accept;\n        transferHistories[_id] = _transferHistory;\n    }\n    function transferMoney(address _receiver, int256 _money) public {\n        updateMemberMoney(msg.sender, - _money);\n        updateMemberMoney(_receiver, _money);\n        addTransferHistory(_receiver, _money, false, true);\n    }\n    function requestRejectParty(uint256 _id) public {\n        Party memory _party = getParty(_id);\n        _party.requestReject = true;\n        updatePartyByCreator(\n            _id,\n            _party.payerAddress,\n            _party.payerMoney,\n            _party.members,\n            _party.money,\n            _party.message,\n            _party.createdDate,\n            _party.requestReject\n        );\n    }\n    function rejectParty(uint256 _id) public {\n        updatePartyByOwner(_id, false, true);\n    }\n    function acceptParty(uint256 _id) public {\n        Party memory _party = getParty(_id);\n        if(!_party.paySuccess){\n            updatePartyByOwner(_id, true, false);\n            uint256 _moneyShared = _party.money / _party.members.length;\n            for(uint256 i = 0; i < _party.members.length; i++){\n                updateMemberMoney(_party.members[i], -int256(_moneyShared));\n            }\n        }\n    }\n}",
  "sourcePath": "/Users/phongdo/Documents/Project/ethereum-tutorial/PartyFunds/contracts/PartyFunds.sol",
  "compiler": {
    "name": "solc",
    "version": "0.5.8+commit.23d335f2.Emscripten.clang"
  },
  "schemaVersion": "3.0.16",
  "updatedAt": "2019-11-28T15:17:57.645Z",
  "devdoc": {
    "methods": {}
  },
  "userdoc": {
    "methods": {}
  }
}